:0200000460009A
:100000004643464200000156000000000101020084
:1000100000000000000000000000000000000000E0
:1000200000000000000000000000000000000000D0
:1000300000000000000000000000000000000000C0
:1000400000000000010406010000000000000000A4
:100050000000800000000000000000000000000020
:100060000000000000000000000000000000000090
:100070000000000000000000000000000000000080
:10008000EB04180AFF1E04320126000000000000E5
:100090000000000000000000000000000000000060
:1000A0000000000000000000000000000000000050
:1000B0000000000000000000000000000000000040
:1000C0000000000000000000000000000000000030
:1000D0000000000000000000000000000000000020
:1000E0000000000000000000000000000000000010
:1000F0000000000000000000000000000000000000
:1001000000000000000000000000000000000000EF
:1001100000000000000000000000000000000000DF
:1001200000000000000000000000000000000000CF
:1001300000000000000000000000000000000000BF
:1001400000000000000000000000000000000000AF
:10015000000000000000000000000000000000009F
:10016000000000000000000000000000000000008F
:10017000000000000000000000000000000000007F
:10018000000000000000000000000000000000006F
:10019000000000000000000000000000000000005F
:1001A000000000000000000000000000000000004F
:1001B000000000000000000000000000000000003F
:1001C000000100000010000001000000000000001D
:1001D000000001000000000000000000000000001E
:1001E000000000000000000000000000000000000F
:1001F00000000000000000000000000000000000FF
:10020000FFFFFFFFFFFFFFFFFFFFFFFFFFFFFFFFFE
:10021000FFFFFFFFFFFFFFFFFFFFFFFFFFFFFFFFEE
:10100000D1002043F1150060000000000000000046
:10101000201000600010006000D403600000000099
:101020000000006000E0030000000000FFFFFFFF81
:10103000FFFFFFFFFFFFFFFFFFFFFFFFFFFFFFFFC0
:10104000FFFFFFFFFFFFFFFFFFFFFFFFFFFFFFFFB0
:10105000FFFFFFFFFFFFFFFFFFFFFFFFFFFFFFFFA0
:10106000FFFFFFFFFFFFFFFFFFFFFFFFFFFFFFFF90
:10140000824205D051F8043B40F8043B8242F9D8AF
:10141000704700BF044A05494FF0000342F8043BFF
:101420009142FBD8704700BFC0820020803201206B
:1014300008B5BFF34F8F01F0B3F9544C544B08205B
:101440005449C3F85401544AC3F800115348C3F82F
:10145000F0405349FFF7D4FF524A53495348FFF72E
:10146000CFFF534CFFF7D6FF4FF470004FF0E02151
:101470000023504AC1F8880D44F823200133B02BD3
:10148000FAD14D4B80214D4A03F8011B9342FBD109
:101490004FF0E0254A4E4B4A4FF0FF31C5F8084D5A
:1014A000D5F8243D43F4E023C5F8243DF36923F047
:1014B0007F0343F04003F361736A23F07F0343F03B
:1014C000400373629166D1661167516701F070F94C
:1014D0003D4A3E4BA2636322E36300246A61032317
:1014E0003B4AAC612B61C5F8202DD5F8FC2D394B5A
:1014F00042F080723849C5F8FC2D1A6842F00102AA
:101500001A605B680B6001F023FB344801F0F8FCC3
:10151000F16E334B334A41F44051F1661C60C3F81D
:101520000841C3F81841C3F82841C3F83841936B08
:10153000DB0708D442F615632B4951651365936B9D
:1015400043F001039363274A284C936843F0011347
:10155000936001F0BBF901F0A3F801F0C1FC01F0C8
:1015600029FB01F01FF92368132BFCD901F0BEFB06
:101570002368B3F5967FFBD301F018F901F014F955
:1015800001F0BAFC01F094FC30BFFDE70C0D111323
:1015900000800D401B101820A81C03000000000054
:1015A000B4310060C0820020604E03600000002063
:1015B00000800020193F020000E400E0A0E400E009
:1015C00000C00F4000C00A40F9320200F1330200AF
:1015D00000002020001000E01C3101200046C32341
:1015E0000040084000400D400000C056203101205E
:1015F000054B4FF42A01054A05485A641864054A08
:1016000099639546FFF714FF00C00A40FFBFAAAADE
:10161000070020000080042010B5002104461C4B68
:101620004FF0FF3021811A682175C4F81B20F02289
:10163000C4F81510A4F81910C4E903015868C4F8D7
:101640001F009868DB68C4F8230004F12B00C4F87D
:101650002730C4E9001101F0F7FB00210123A4F8B1
:101660002411A4F8263184F82811C4E94711C4E9EB
:101670004B11C4E94D11C4E94F11C4E95111C4E93A
:101680005311C4E9551101F03FFC204610BD00BFC5
:101690006C32002010B5044601F002FCD4F854313D
:1016A00023B104F5A671032208469847D4F84431C3
:1016B00023B104F59E71032208469847D4F83431CB
:1016C00023B104F59671032208469847204610BDC1
:1016D00070B5044601F0F0FB0F4B05681A782AB983
:1016E00001F0EAFB034620461D6070BD206801F052
:1016F000BFFB0022084B22601A7022710028EFD035
:1017000001F0E6FB064601F0D7FB066001F0D4FBD2
:10171000034620461D6070BD1732012070B5754C20
:10172000236833F0020300D070BD73494FF4803555
:10173000724A4CF20F00CB6E43F44063CB664FF419
:1017400080536F49C2F8E450C2F8E800C2F8E410D0
:10175000C2F8E830D2F8E030002BFBDA69494FF4E8
:101760008030694B4FF23805C2F8E80038204A68EB
:101770004FF4804622F400524A604A6842F4020262
:101780004A6043F238020521C3F87C23C3F884235E
:10179000C3F880535D4DC3F89823C3F86803C3F8BA
:1017A00064034FF62900C3F87811C3F874114FF49D
:1017B00000416A6842F440426A600022C5F888101D
:1017C000C5F88460C3F8A8034BF2E900C3F8A4038A
:1017D0003120C3F8B821C3F8B421D3F8302422F063
:1017E000030242F00202C3F83024C3F89403162027
:1017F000474AC3F8A4013220536C23F07E0343F020
:1018000012035364C5F8841001F066FB4149424A53
:10181000C5F88860414B48681268A3FB0232920CFD
:1018200002EB820202EB82024B681B1A9342FBD34B
:10183000364B4FF480420220C3F8842001F04CFB69
:10184000334B4FF40001364A59601A645A6810024B
:10185000FCD51A6C4FF4000192B25960B2F5005FEA
:1018600011D130482A4A5960186453681902FCD5CE
:10187000136C4AF240104FF4000123F00F03516043
:101880009BB283421ED0DFF884C04FF480361D48DF
:101890004FF0010EDCF80430184923F44043164A97
:1018A000214DCCF80430436823F400334360C1F881
:1018B000E460C1F8E050D36E23F44063D366C4F80B
:1018C00000E070BD1948124B516010645A68120252
:1018D000FCD54FF4000116480D4A59605960186450
:1018E00053681B02FCD54FF40001032351602360B1
:1018F00070BD00BF1492002000C00F4000800D405A
:101900000120200000C00A4000801F40004000422B
:1019100000802D40001000E07078002083DE1B4323
:1019200000000A6000000E60011001008002625099
:1019300081005E504FF0013340F2011203604360BA
:101940000281704710B5794C2368042B00F0EB80BE
:10195000FFF7E4FE2268032A01D0002010BD744B7B
:101960004BF2E9017348C3F87C13C3F88013C3F842
:101970008413C3F89813C3F88813C3F88C13C3F8FF
:101980009013C3F88C21C3F89021C3F8A821C3F8A1
:101990009421C3F8A021C3F89821C3F89C214FF4E7
:1019A0008062D3F82C1441F00101C3F82C14D3F851
:1019B000341441F00101C3F83414D3F8381441F061
:1019C0000101C3F83814D3F83C1441F00101C3F805
:1019D0003C14D3F8401441F00101C3F84014002135
:1019E00001F032FAA0220021534801F02DFA5349A8
:1019F0000346534A4F481360086000F5806C034665
:101A0000504A4FF4004080215A60203323F81E0CC6
:101A100002F5C06223F8161C6345F5D145494FF421
:101A20008060DFF814E1B1F8E233474A0EF1A00C10
:101A300043F40053A1F8E23373464FF4B0415A60C7
:101A4000203323F81E0C02F5C06223F8161C6345F0
:101A5000F5D1BEF8821000223C4B41F400519A604F
:101A6000AEF882103A49C3F884104FF48271C3F87B
:101A7000C4101921C3F8C011C721C3F8C411D3F889
:101A8000441141F48071C3F844112A49C3F89021EC
:101A9000C3F880114FF4C061C3F884E1C3F8881122
:101AA0001421C3F80021C3F8F020C3F8EC10C3F8E8
:101AB0009421586E274940F000405866C3F8182119
:101AC000C3F81C21C3F82021C3F824219A681140CF
:101AD000214A41F00071996090682049D0F80802CD
:101AE000926808601E49C2F80812BFF34F8F1D4A62
:101AF0004FF48021D1601C484FF001011B4A58600F
:101B0000BFF35B8FD2E84F0FC2E84C1FBCF1000F50
:101B1000F8D14FF0807216480421BFF35B8F5862F2
:101B20001A615A612160012010BD00BF149200208B
:101B300000801F40C0820020C08600208C790020D9
:101B400090790020404220204024202000802D4019
:101B500024D1F2450080FF7D00ED00E010920020CE
:101B6000117B010000E100E00080FF7F189200205F
:101B70001201007010B40023044C05480549064AC0
:101B8000236003600B60136010BC70471C92002040
:101B9000209200202492002028920020F8B1114ABF
:101BA00040F2DC5138B504460F4B10480025A186A1
:101BB00025630F49C4E904209A88186843F6062370
:101BC0006287A387C4F83600204601F041F9204619
:101BD000084901F0A1F9084B2846636438BD6FF04D
:101BE0000F007047A1B201006C910020318001000C
:101BF00074910020F49100204180010070B584B000
:101C00000E4604460192FFF79DFE019A002838D047
:101C100012B11046FFF78EFE002C47D0334B1A78D6
:101C2000154642BB06222146314801F015F968BB32
:101C3000204601F045F9B0B12D4801F011F90446F4
:101C400088B12C4B1B781D46002B34D0284A2A4BD8
:101C5000106891880622C3F83600598783F83C2023
:101C6000204604B070BD01F027F90E230360002464
:101C7000204604B070BD01F003F900221B4B1A701E
:101C8000D6E701F019F913230360F0E7194B1A782E
:101C9000002ACDD0284601F0E7F8174801F038F9BE
:101CA000164801F0CDF8134B1D70C1E702A802AC35
:101CB00001F0F2F8B2E73146104801F0DDF8104BC0
:101CC000104A29460C4801F00FF930B10A4801F0DA
:101CD000CBF80123074A1370C2E7084801F0B0F8B7
:101CE00001F0EAF873230360C1E700BF707E0020B3
:101CF0006C91002015320120A891002064910020F1
:101D0000611902009D1B00600D490E4A087808B554
:101D100000231360938018B9BDE80840FFF72ABF7D
:101D2000184601F0A1F8084801F0F2F8074801F060
:101D300087F8002302490B70BDE80840FFF71ABF7F
:101D4000153201206C910020A891002064910020A0
:101D50003748384BD0F88020DFF8FCC042F44052BE
:101D6000354900B5C0F88020344AC3F800C0344873
:101D70005A60344A1862DFF8E4C05A623248334A83
:101D8000C3F828C0DA6246F62012186359639963D3
:101D900040F6A311D868DFF8C8E000F07F40DFF814
:101DA000C4C0024340F6C410DA609A686FF30F02B1
:101DB0001143274A9960D9696FF3150141F4C8416D
:101DC000D96199696FF3150141F4C8619961196886
:101DD00021F486511960196801EA0E0EC3F800E07B
:101DE0004FF0000E19680A401A4942F002021A60C8
:101DF0005A696FF3090242F03F025A611A6992B2BE
:101E000042F048621A611A696FF30F0210431861B9
:101E1000D3F8A02022F00202C3F8A0201A6802EA38
:101E20000C0CC3F800C0DA6F1B6CC1F800E000BDF9
:101E300000C00F4000C00C402F002E002200010007
:101E400068050C019501B2004B0040007D00580070
:101E5000BCEFFFFF5C91002040100100DC007A0025
:101E6000B3EFFFFFBFEFFEFF084A094B11680B40BD
:101E700043F48033136013689B04FCD5054AD2F801
:101E8000803023F44053C2F88030704700C00C40CB
:101E9000BFEFFEFF00C00F40214B002010B4C3E98C
:101EA0002000C3E92200C3E92400C3E92600C3F8E7
:101EB000A800BFF34F8F4FF0E0231A491A4AC3F826
:101EC000701FC3F8702FBFF34F8FBFF36F8F174B87
:101ED0000146174C0122D3F808C004F6DC74C3F89D
:101EE00008C01863134B44F81C0C184602330088D2
:101EF000A34212FA80F21144F7D192B20C4B42EA9B
:101F00000142C3F8DC2FBFF34F8F4FF0E023094AA3
:101F1000C3F8682FBFF34F8FBFF36F8F10BC7047AC
:101F200000FF272080FF2720A0FF272000800F40F0
:101F300000F02720C0FF2720994BD3F880300B2BCF
:101F40002DE9F0410D4682B040F0F8804FF0FF31AE
:101F50009448954B954E026820240430514041F33B
:101F60000002013C02EA030282EA5101F7D1B042C9
:101F7000F1D1DFF82C82D8F8A830994240F0DE8009
:101F80002B680C228A4928465B689847284600F04F
:101F90007BFF2A68D8F8A41028465268854BCDE903
:101FA0000012A3FB012784497F09A3FB07232622F4
:101FB0005E09019BC8F8A460984780490A22284618
:101FC000A1FB06312346090901EB4101A6EBC10142
:101FD00000F07AFF2B68C6EB061601225B682846E4
:101FE000774998472346A7EB86010A222846C7EB84
:101FF000071700F069FF2B68012271495B682846CA
:102000009847009923460A22A1EB8701284600F051
:102010005BFF284600F038FF2B68242269495B6883
:102020002846984723461022D8F89810284600F0F2
:102030004BFF284600F028FFD8F888602B68002E58
:1020400040F05781564ED6F88C40002C40F07A81F3
:1020500022225B685C4928469847514B022128465A
:1020600093ED280AB7EEC00A00F012FF2B68042295
:1020700056495B6828469847284600F005FF2B68BC
:102080001D2253495B6828469847524A524800230C
:1020900011680A22A0FB01012846890C00F014FFF8
:1020A0002B6803224D495B6828469847284600F074
:1020B000EBFE4B4B9C68A2070DD5196B494A2B6868
:1020C00091425B6800F03681402247492846984794
:1020D000284600F0D9FE670700F19680260700F138
:1020E0009F80E00600F1A880A10600F1B1806206A1
:1020F00000F1BA80230600F1C38014F4807440F02C
:10210000CC80274BD3F8C06096B1D3F8DC700122A5
:10211000C0333648194602330988834212FA81F2E5
:102120001444F7D193B243EA04439F4200F0238161
:10213000FFF7B2FE012002B0BDE8F0812B68172244
:102140002B4928465B689847284600F09DFE2B687F
:10215000482228495B6828469847284600F094FEA4
:102160002B68492224495B6828469847284600F096
:102170008BFE2B68242221495B6828469847284615
:1021800000F082FE2B6847221D495B68284698476D
:10219000284600F079FE2B683F221A4983E700BFEA
:1021A00000FF272080FF27202083B8EDA8FF2720ED
:1021B000F05200208988888800530020ABAAAAAA80
:1021C0002825002028530020B0570020D457002095
:1021D000DC5700207078002083DE1B43FC57002072
:1021E00000800F40F100AD0BAC590020DCFF272030
:1021F000005800201858002064580020B0580020D3
:10220000D8580020205900202B6827229C492846B6
:102210005B689847284600F037FE26077FF561AFD8
:102220002B682A22974928465B689847284600F081
:102230002BFEE0067FF558AF2B68262292492846F0
:102240005B689847284600F01FFEA1067FF54FAF58
:102250002B6829228D4928465B689847284600F05C
:1022600013FE62067FF546AF2B6821228849284677
:102270005B689847284600F007FE23067FF53DAFD0
:102280002B682122834928465B689847284600F03E
:10229000FBFD14F480743FF434AF2B6829227E498F
:1022A00028465B689847284600F0EEFD7B49286881
:1022B00021228B684468284623F480738B60784918
:1022C000A047284600F0E0FD2B68422275495B6874
:1022D00028469847284600F0D7FD734A734B0721DC
:1022E0001964936B43F040039363BFF34F8F30BF88
:1022F000FDE75B6808226E4928469847234610226E
:10230000D8F88810284600F0DFFD284600F0BCFD14
:102310002B68F7075C686ED4B00700F14D81310778
:1023200000F14181F20600F15381B7066BD52A22F4
:10233000604962E04822604928469847284600F0F4
:10234000A3FDC8E65B6808225C492846984700233D
:10235000D6F88C101022284600F0B6FD284600F072
:1023600093FD2B68A0075E6863D461007FF570AEB3
:102370001B2253495FE0002406E0062F3C463FF451
:10238000D7AE504BD3F8C0604FF0010808FA04F301
:1023900004EB08073342F0D02B680E224A49284646
:1023A0005B6898473946284600F046FD2B680522B1
:1023B00046495B6828469847454B0A22284603EB66
:1023C00084040023616800F07FFD2B6804224149EA
:1023D0005B6828469847616800231022284600F071
:1023E00073FD2B6842463C495B682846984728465F
:1023F00000F04AFDC1E7282238492846A047284670
:1024000000F042FD2B68340672D4F0055C6819D4E4
:10241000B10500F1CE80720500F1C880370500F1EA
:10242000D480F00400F1CE80B10413D531222C49C0
:102430000AE026222B492846B047284600F024FD12
:102440002B6805E6202228492846A047284600F0A8
:102450001BFD2B68320470D4F7035C6864D4B003AE
:1024600000F1AD8071037AD4320300F1B780F70137
:1024700000F1B180B6017FF5E5AD1B221B4955E0A7
:10248000F0590020185A0020445A00206C5A0020AD
:10249000985A0020BC5A0020E05A002000800F40CB
:1024A0000C5B0020305B002000400D4000C00A4063
:1024B0005053002000540020605900206057002035
:1024C0009457002000FF2720745B0020845B0020CD
:1024D000C0FF27208C5B0020942E00205C5300203E
:1024E000245600206C57002014550020445700202B
:1024F0003F4C21225B6828463E4998471022002322
:10250000D4F89010284600F0DFFCD4F890201F2A61
:1025100028D9394B9A4202D320339A4261D32846B4
:1025200000F0B2FC2B6870E7232234492846A0470C
:10253000284600F0A9FC2B6884E55B68212230491D
:10254000284698472A4900231022D1F8941028469B
:1025500000F0BAFC284600F097FC2B687CE72822A4
:102560002849E3E72B681F22274928465B689847DC
:10257000D4F8981000231022284600F0A5FC2B6800
:102580003F2222495B6828469847D4F898100023D8
:102590001022284600F098FC2B681D221C495B681D
:1025A00028469847BBE729221A4926E744221A49B8
:1025B0004AE72D22194947E7212219491DE731220F
:1025C0001849B3E7332218493EE73F2217493BE752
:1025D0002522174911E728221649A7E7162216498E
:1025E000A4E72B684222154928465B68984796E77E
:1025F00000FF27202C540020803201207C56002030
:1026000058560020D456002050540020705400200A
:10261000B0540020AC5300206855002038550020ED
:1026200088530020A0560020F0550020B05500200F
:10263000D85300201857002000570020D054002005
:10264000134BD3F880300B2B1FD14FF0FF32DFF844
:1026500048C0104800B5DFF844E0DCF80030202125
:102660000CF1040C5A4042F30003013903EA000361
:1026700083EA5202F7D1F445EFD1054BD3F8A80015
:10268000801AB0FA80F0400900BD0020704700BFFA
:1026900000FF27202083B8ED80FF2720A8FF2720F8
:1026A0000F4B40F2376C0F4AA020D96E41F44031F5
:1026B000D966D96E41F44071D966C2F844C09064BD
:1026C000936C1B06FCD4084A40F23761A023516486
:1026D0009364936C13F08003FBD1044A137070472A
:1026E00000C00F4000400C4000800C402932012007
:1026F000294A00210123C2F8A000C2F8A410C2F8A0
:10270000B0305369D907FCD501234FF4803C2249EE
:102710005361C2F8A000C2F8A4C0C2F8B0304B693F
:10272000DB07FCD501234FF4003C1B4A4B61C1F889
:10273000A000C1F8A4C0C1F8B0305369D907FCD5D6
:102740000123DFF858C014495361C2F8A000C2F851
:10275000A4C0C2F8B0304B69DB07FCD5D1F800311A
:1027600045F60D504FF0210C9AB2C1F814C08242C8
:1027700010D045F69D518A420AD1C3F34253032B30
:1027800008D0A3F10403B3FA83F35B09180170477F
:10279000002070470820704700402A4004000300D2
:1027A000704700BF704700BF704700BF00BF704751
:1027B0004FF0E02300214FF0100C3448C3F8941D73
:1027C000C3F89CCD4FF0110CC3F8A00D3048C3F8EE
:1027D0009CCD4FF0120CC3F8A00D2E48C3F89CCD31
:1027E0002D4AC3F8A00DDFF8D0C042F015022B48E7
:1027F000C3F89CCDC3F8A00DDFF8C0C02848C3F8CB
:102800009CCDC3F8A00DDFF8B8C0C3F89C2D2548B7
:10281000254AC3F8A0CDC3F89C0DC3F8A02D02F53E
:10282000A022DFF8A0C00C322048C3F89CCDC3F82A
:10283000A02D1F4AC3F89C0DC3F8A02D02F14062E1
:10284000DFF884C002321B48C3F89CCDC3F8A02D2A
:102850000A32C3F89C0DC3F8A02D00BF00BF00BF13
:1028600000BF00BF0122C3F8942DBFF34F8FBFF309
:102870006F8FC3F8501FBFF34F8FBFF36F8FD3F825
:10288000142D42F44032C3F8142D70473F0000105D
:1028900025000807090010008032012021000207EE
:1028A000250008131600202027000B1318000060D5
:1028B0002F000B071A0000801300200014000020D6
:1028C00009000010170000401900007030B5864B59
:1028D00085B0DFF874E21822844D0120C3F85CE271
:1028E0008349C3F86052A5F58055DFF860C2814C7A
:1028F000C3F864E2C3F868522125C3F86CC2C3F878
:1029000070C2C3F874C2C3F878C248F20C7CDA66AD
:102910001A675A679A67DA67C3F88020C3F8842079
:10292000C3F88820C1F82C03734AC1F83003C1F8FA
:102930003403C1F83803C1F83C03C1F85003A1695E
:102940006E4B0A406E486F4913436F4AA361D4F837
:10295000843043F00C03C4F884304FF0FF34036834
:1029600043F002030360036803EA0C031A43674B56
:10297000026044608A68664C1340664A43F0005324
:102980008360C36823F07803C360036A23401A435B
:10299000604B0262026A22405F4C13430022436292
:1029A0008462C46240F20564D1F8B83023F03F037A
:1029B00043F00103C0F8B830D1F8BC30574923F0D8
:1029C0003F0343F00103C0F8BC3002610567C0F863
:1029D00080404567C0F884400224036823F0020366
:1029E000036081614E4B4F49C46143F8042B8B4215
:1029F000FBD1434C236843F001032360256815F0A5
:102A00000105FBD14548022240F2F561A06140F288
:102A10009940E26140F26642C4F8001242F201417C
:102A2000C4F81022404AC4F82002C4F8302240F210
:102A30003542C4F834123D48C4F840223C4AC4F838
:102A400050022846C4F8542242F201223949C4F8FF
:102A50006012C4F86422FFF74BFE0246002839D00A
:102A6000810201234FF4802021662549C4F8A0503B
:102A7000C4F8A400C4F8B0304B69D807FCD51505DC
:102A80000124039228464C61FFF732FE039A2A4B39
:102A90000244D2B21A7080B1194980024FF48023E7
:102AA00048660846C1F8A050C1F8A430C1F8B0404B
:102AB0004369DB07FCD501234361204900242048FA
:102AC00001230094401A00EB02521E4800F0ECF97A
:102AD00005B030BD1B4B184918600870D860C3E9B9
:102AE000010005B030BD00BF00801F40F91001009B
:102AF00000841F4000C00F40FFFCFF1F0003008048
:102B000000402A4000802A401200FFFFFF37F700F4
:102B100000FFF07C40000080FF000F83F05AF05A65
:102B200000422A4000432A409F041830EB06180A4E
:102B3000063201263806180A2F32012000000070E4
:102B400000000070809F0020F9B00100F9700100C2
:102B500010B5174A4FF480544FF4005E4FF4404CC8
:102B60004FF4803043F24201136913F0020F0DD18C
:102B700013F4005F0FD013F4805F0FD0002BF3DA53
:102B800013F4803F0CD15B060ED510BDC2F818C0FF
:102B900050619161E8E7C2F814E0E5E75461E3E7CA
:102BA0004FF480339361DFE740235361DCE700BFDC
:102BB00000800D40414A03204149F3EE095AD2F802
:102BC00080309FED406A23F001039FED3F5ADFF80C
:102BD00014C100B5C2F88030C2F89000D1F8E010FE
:102BE000DFF804E1CBB23948CEF8003007EE903A76
:102BF0000B0DC1F30B21F8EEE77A06EE903A07EEE3
:102C0000101A334BB8EEC77ACCF80010F8EEE66A2B
:102C1000304937EEC66A37EEC55A76EEC76A77EEA8
:102C2000E57A26EE266AC3ED006A25EE265AD2F82A
:102C3000803067EEA64AC0ED007AC6EE275A2648D5
:102C400085EE276AC4EEA76A75EE875AFCEEE55A50
:102C500036EE076A15EE90CABCEEC66A43EA0C531C
:102C600076EE877AC2F8803016EE103AD2F890C12C
:102C7000FCEEE77A01EA034141EA0C014FF0000C57
:102C800017EE903AC2F89011C3F30B03D2F89011EB
:102C90000B431249C2F89031D2F8803043F002035E
:102CA000C2F880300E4B80F840C0C1F840314FF080
:102CB000E0230122C3F8082100BD00BF00810D40C0
:102CC00000441F400000AA420000B442003101202D
:102CD000043101200000FF0F00E400E0008000202C
:102CE000FD400200F8300120FC300120314B40F65D
:102CF000617210B5C3F8202140F2044400F0F8F8E6
:102D00002D4A2E49D2F880302D4843F00303C2F8F3
:102D100080302C4BC1F8604102681A4203D1D1F8CF
:102D2000A8319A071BD0254A4FF00041244B596324
:102D3000D2F8403143F00203C2F84031D2F84031BA
:102D40009B07FBD44FF400304FF0E0211C4B4FF0B9
:102D50000042C1F88C0219209A6300F0BDF8184BAC
:102D60000021164C4FF080420A209A634FF42072E3
:102D70001960C4F8A801144800F066F84FF4800206
:102D800003464FF4810040F243111860C4F85831F3
:102D90001A640E4B0E4AC4F84811C3F804224FF0CF
:102DA000E0224FF400310123C2F80C11C4F8403185
:102DB00010BD00BF00800D4000C00F4000002E403D
:102DC00000900D40001C1E0000000020008000202C
:102DD0000143020008B50E4B1B6E9B0700D4FBBEDF
:102DE00072B60C4B00200C4AC3F8400103F160435B
:102DF0000A49A3F55F2311649D46BFF34F8F4FF43B
:102E00000013074A0748DB6902609B68984700BFC8
:102E100000441F4000002E4000C00A400300200074
:102E2000000012EB00802020F8B500BFF8BC08BC01
:102E30009E467047000000005FF800F02D3502004C
:102E40005FF800F011CD01005FF800F02DAA02003C
:102E50005FF800F019A501005FF800F085A80200F6
:102E60005FF800F0417B01005FF800F0D5C9010078
:102E70005FF800F0818201005FF800F099CC01005A
:102E80005FF800F0A59301005FF800F045350200FF
:102E90005FF800F0B93502005FF800F03D7B0100FB
:102EA0005FF800F0796A01005FF800F099530200C2
:102EB0005FF800F0BD3B02005FF800F079B102005E
:102EC0005FF800F0717B01005FF800F095350200BB
:102ED0005FF800F0E98101005FF800F0393A020084
:102EE0005FF800F0F53D02005FF800F049D0010006
:102EF0005FF800F06D4A02005FF800F085B1020053
:102F00005FF800F0253702005FF800F055810100FE
:102F10005FF800F0D1CA01005FF800F0CD93010026
:102F200045000000E509000011C600002DC60000A4
:102F300079F800006D480100F54F0100F96B0100C0
:102F4000E9780100F57901007D7A0100D180010066
:0C2F5000391D0200893402001D560200E9
:102F5C001603550053004200200053006500720018
:102F6C00690061006C0000001803540065006500E6
:102F7C006E00730079006400750069006E006F00CC
:102F8C000403090409026200030100C032080B00AB
:102F9C0002020201000904000001020201000524E2
:102FAC000010010524010101042402060524060079
:102FBC00010705820310001009040100020A000039
:102FCC0000070503024000000705840240000009C9
:102FDC0004020002FF6AFF0007058102400001079E
:102FEC00050102400001000009026200030100C05B
:102FFC0032080B0002020201000904000001020267
:10300C00010005240010010524010101042402061D
:10301C0005240600010705820310000509040100C0
:10302C00020A0000000705030200020007058402E3
:10303C000002000904020002FF6AC70007058102B2
:10304C000002010705010200020100000A0600024D
:10305C00EF020140010000006CC00F4003000000B3
:10306C000E0D00003D6702002A360000140000001F
:10307C001300000001000000F4841F402B320000FC
:10308C00140000001300000001000000F8841F4031
:10309C002D3100001400000013000000010000009E
:1030AC00F0841F402CFFFF00140000000000000003
:1030BC00000000000100000000000000EC841F4034
:1030CC0000000000000000006CC00F403000000049
:1030DC00100F00003D6702000127000017000000E0
:1030EC00120000000001000014851F401AFF0000B0
:1030FC0012000000000000000100000018851F40B5
:10310C001BFF000012000000000000000100000086
:10311C0010851F400026FF00170000001200000061
:10312C000000000001010000010000000C851F40A0
:10313C000C851F40000000006CC00F40C000000058
:10314C00504F0000116802000CFF0000130000003B
:10315C00000000000000000024851F400BFF000051
:10316C0013000000000000000000000028851F4034
:10317C000DFF000013000000000000000000000024
:10318C0020851F400A2524001300000012000000B7
:10319C00120000000102030000000000000000000B
:0831AC0000000000000000001B
:1031B400000000000000000000000000000000000B
:1031C40000000000000000000000000000000000FB
:1031D4000548064B1B1AD90F01EBA301491002D075
:1031E400034B03B118477047C0820020C0820020FF
:1031F4000000000008B5054B1BB105490548AFF3B5
:103204000080BDE80840FFF7E3BF00BF00000000F6
:1032140028D0002000E0036003685B68184700BF03
:1032240010B50446103023F0B9F804F1080023F077
:10323400B5F8204623F0B2F8204610BD034B10B574
:10324400044603600EF0BEFB204610BD84630020DC
:10325400054B10B5044603600EF0B4FB20460EF097
:1032640087FB204610BD00BF8463002000B583B0F7
:103274000422694600900DEB02000EF07BFB03B0C4
:1032840000BD00BF00B583B00422694600900DEB79
:1032940002000EF06FFB03B000BD00BF00B583B0A9
:1032A4000422694600900DEB02000EF063FB03B0AC
:1032B40000BD00BF00B583B00422694600900DEB49
:1032C40002000EF057FB03B000BD00BF00B583B091
:1032D4000422694600900DEB02000EF04BFB03B094
:1032E40000BD00BF00B583B00422694600900DEB19
:1032F40002000EF03FFB03B000BD00BF00B583B079
:103304000422694600900DEB02000EF033FB03B07B
:1033140000BD00BF00B583B00422694600900DEBE8
:1033240002000EF027FB03B000BD00BF0346406857
:10333400B8B100B583B001930EF04EFB019B68B1A8
:103344005868026892689047019B58688268013AFD
:1033540082601AB90268D2689047019B184603B08C
:1033640000BD1846704700BF00B5042283B000902A
:1033740069460DEB02000EF0FDFA019803B05DF80A
:1033840004EB0DF05BBC00BF0A4A1368013B1360F9
:1033940003B1704700B5084A83B0CDE90030106826
:1033A40031F0E2FB0199044A009B0846136003B024
:1033B40000BD00BFE08D0020E48D00200A4A1368A0
:1033C400013B136003B1704700B5084A83B0CDE9EF
:1033D4000030106831F0E0FB0199044A009B084674
:1033E400136003B000BD00BF448F0020488F00204D
:1033F40090F8783003B9704700B585B000F10C0C33
:10340400042203A9019002A8CDF80CC00EF0B2FA70
:1034140002980268126A90470022019B83F8782080
:1034240005B000BD2E4B1878D8B12E4B2E4A1B6820
:103434001268134314D02D4B196811F0010110B513
:1034440082B010D02A4814F0B9FE034618B9294AAC
:103454001178002932D183F00100C0B202B010BD4E
:10346400704701207047224C0191204622F030FF22
:10347400019904F1080022F02BFF019904F11000D6
:1034840022F026FF019904F14002184B4FF0010C81
:10349400216622622046184A84F86C10C4F8DC10B5
:1034A400C3F800C0C4E91911144925F08DF8104877
:1034B40014F084FE03460028CDD1C8E701901048DB
:1034C40001680131016023F0E5FB0A4ADFF838C0E6
:1034D400019B0C491370DCF80020801A0860BAE7DD
:1034E4003332012018310120949A0020348C0020BA
:1034F400E08700202B3201208C7B0020710000002B
:10350400D89A0020DC9A0020103101202DE9F04FD8
:10351400AC4DDFB007F0C4F907462B6813F0010483
:1035240000F0138123AB2CACA74D0393D5E90065C0
:1035340015B128460EF048FA3846224642F2107178
:103544002C962D9506F0FCFD2D9820B10EF044FA32
:10355400002840F0EB80DFF8A0B207AF0EAD0DF10C
:10356400540CDA460BF11C060BF1380E4FF001092E
:103574004FF00008BAE80F000FC79AE8070087E881
:1035840007000FCE0FC596E8070085E80700BEE8E0
:103594000F00ACE80F004FF002038DF892908DF805
:1035A400A0800DF1500A8DF8AC304FF00B0305AF3D
:1035B4008DF8A430DBF85430ADF88C301B0C8DF84A
:1035C4008E30BBF854309EE80700ADF88F309BF87E
:1035D40056300DF1340B8CE807002AA88DF8913091
:1035E400FFF750FE4FF07E538DF8AC900DF11809A3
:1035F4008DF892802A9311E040A80DF02FF99DF8E0
:10360400FC30002B61D19DF8F030002B67D19DF880
:10361400CC30002B6DD10DAB4B4573D0039B2646AC
:103624006A4AA64600931DAD5BF8043FDFF8CCC19F
:1036340003EB43031344664A3B6012685AF8043FA1
:103644009342A8BF13467B6059F8043F1C930023A0
:103654008DF88830BCE80F00DCF800C00FC6C6F84F
:1036640000C0BEE80F000FC542233A46C5F800C0AB
:103674001CA9204606F008F82146384609F0F6FF52
:10368400384614F075FB786870B10EF0A5F958B19E
:10369400786803689B68984778688368013B83600F
:1036A40013B90368DB6898479DF87031002BA3D0E9
:1036B400484A013B46A852F82330984740A80DF0E9
:1036C400CDF89DF8FC30002B9DD0434A013B3EA829
:1036D40052F8233098479DF8F030002B97D03F4A9A
:1036E400013B39A852F8233098479DF8CC30002B81
:1036F40091D03B4A013B204652F8233098470DAB0A
:103704004B458BD1102337480021037014F036FB4E
:10371400354A01219DF8AC301170002B4AD19DF837
:10372400A030002B3DD15FB0BDE8F08F2D98036829
:103734009B6898472D988368013B8360002B7FF436
:103744000AAF0368DB68984705E77C2104200EF084
:103754000BF94FF0010800F10C03244AC0F804806F
:10376400064680F878402CACC0F8088002602146F8
:103774002C9323AB0422184603930EF0FBF8DDF8D8
:103784008C90484612F06EFCC5F800800E4D184A25
:103794001849284686F87880C5E9009624F014FF75
:1037A400C4E60E4A013B25A852F8233098475FB07F
:1037B400BDE8F08F084A013B2AA852F82330984705
:1037C400ADE700BFA48C002010930020C49F00200C
:1037D400507E00201C6800204868002004680020F7
:1037E400F4670020A08A0020333201208463002083
:1037F4008C7B00207D010000E40700203C080020B1
:10380400F0B5434D8DB0434E07462B6832681343E1
:1038140026D023F03FFA404B04461978184614F09A
:10382400E1FA23F037FA3D4A001B3D4B10601A6859
:10383400904213D83B4B01221C603B4B1A7037B1AA
:10384400336813443360394B1F700DB0F0BD2B68DF
:1038540001332B60354B1F700DB0F0BD1860E9E7E4
:1038640024F0CEFD324B1B781BB1324B1B78DA07A8
:1038740032D423F00FFA04462748017814F0B2FA40
:1038840023F008FA254A001B254B10601A68904261
:1038940000D9186024F0B4FD254B1B78002BC9D047
:1038A400244B1B78DB07C5D5234B244A1B681268BD
:1038B4009B1A0E2BBED902A827F0E8FF204B214A01
:1038C4001B682149D21A099B204800930A9B22F0C5
:1038D4002BFF24F047FDADE7174B184A1B6812680D
:1038E4009B1A0E2BC5D902A827F0D0FF184A144BF7
:1038F40012681B680192134A1649D21A099B13488D
:1039040000930A9B22F010FF24F02CFDB1E700BFC6
:1039140018310120949A0020A08A0020143101203B
:10392400E8CF0020103101202B320120717E0020CD
:10393400403201203F32012020310120E8310120B2
:10394400887B002000002820A4090020647900203E
:10395400507E0020380900202DE9F04FDFF828823E
:10396400ADF22C6D704ED8F8005034682C1B03D186
:103974000DF22C6DBDE8F08F6C4B2AAFD3F800909C
:103984003846494616F0AAF9694B6A4A1B78D2F8B8
:1039940000A0002B00F0B880674A2792674B1B7881
:1039A400002B00F0AE80644B28937B794846299223
:1039B4002493BB7997F804B02593FB79269316F0EA
:1039C40085F9299A002800F09980DFF86CE107EE68
:1039D400904A5B4CDFF8B491E068B8EE676B594BE2
:1039E4001090D9F80070DFF8A8C115971B68FB1A6E
:1039F400554F07EE103A554B9FED495BB8EE477BA8
:103A04001B68C31A524827EE057B87EE064B07EE68
:103A1400103A504BB8EE477B27EE057B87EE065BEA
:103A24008DED1A4B8DED185B1B6822934A4B1B6876
:103A340021934A4B1B682093494B1B681E93494BA7
:103A44001B681D93484B1B681C93484B1B681693BB
:103A54003B681F93E3691493A369139363691293F7
:103A640023691193CDF820E02699009207912599B6
:103A74003F4B06912499CDE904B1289903912799E4
:103A8400CDE901A1A2684FF4AF610F92DCF80020E8
:103A94000E9202682CA80C9262680D92D3F88420CE
:103AA4000B92D3F88830334A0A9323680993224B44
:103AB40029F06EFE824624F0A3FC2F4B1B7873B1D1
:103AC4002E4B1B78DB070AD52D4AD8F80030126834
:103AD4009B1A0E2B03D924F021FC824518DD3B6888
:103AE40001333B60E368194A35601360D9F800304C
:103AF400144A13600DF22C6DBDE8F08FDFF884E0FA
:103B040065E7204B289350E71E4B0B4A279345E764
:103B140051462CA824F0F8FBE4E700BFAFF3008083
:103B24000000000000408F40C09F00203092002021
:103B340028320120507E0020000A0020717E0020DF
:103B440050D0002044D000204C31012040D000202F
:103B5400E4CF0020D49A0020DC9A0020D89A0020D8
:103B6400E0CF0020E8CF002014310120949A0020F7
:103B740050310120100A0020403201203F32012040
:103B8400E8310120080A00202031012018310120E9
:103B9400909F0020254B19684A1C00B583B01A6019
:103BA40049B3234A2349244824F00EFD234A1368C9
:103BB400591C1160002B32D01D4A2149214824F0A0
:103BC40003FD6021204816F047FE194A1F491E488C
:103BD40024F0FAFC1E4B1F49002243F8042C43E94D
:103BE40003220C338B42F8D11B4B4FF000011A8394
:103BF400997603B000BD4FF4EE72184829F0EEFF39
:103C0400174B1846019316F0B7FF019B154A8833EA
:103C14009A42F6D1144BA2F5EE721A60C1E713482A
:103C240030F0AAFF124A114B1360C5E7448F0020FD
:103C34008C7B00200D02000048920020E08D0020C3
:103C4400D901000034920020503101201573010085
:103C5400D09F0020E8CF0020C4CF00204C8F00204C
:103C6400908F002028910020488F0020E88D0020AC
:103C7400E48D00202DE9F8431B4D40F2EE281B4C47
:103C84001B4FDFF880902E6824F0BAFB2378EBB149
:103C94003B78DB071AD52B68D9F800209B1A0E2B2A
:103CA40014D9144B14491C68204616F061F82046B8
:103CB40015F08EFF41F63611104816F0B1FE0038AB
:103CC4000F4B18BF01201870BDE8F8832B682278C9
:103CD4009B1B2AB1B3F5FA6FE3D824F091FBD3E729
:103CE4004345FAD9DDE700BF2031012040320120ED
:103CF4003F320120309200205C0C00205031012022
:103D040032320120E83101202DE9F047402482B00D
:103D1400534D544E544FDFF89081DFF89091DFF803
:103D240090A109E05A1C2F2A2ED8317861BB2A6051
:103D34004E4AD054013C24D024F07CFA08B324F039
:103D4400BFFA2B68C0B20A2801D00D28EAD1474A2D
:103D540000203178D05479B91368BB4217D0136866
:103D6400434520D013684B4529D01368534540D0B0
:103D740012683F4B9A4261D00023013C2B603370A0
:103D8400DAD102B0BDE8F08701233370D2E71379AA
:103D9400002BE4D1374A9365A2F8693082F86B307E
:103DA400354A1370E8E7354B45F255311888884297
:103DB400D8D19B78002BD5D1FFF7CEFDDCE79388D3
:103DC400482BD2D124F01CFB2D4B284A1B78002B06
:103DD400CBD02C4B1B78DB07C7D52B4B2B491B684F
:103DE40009685B1A0E2BC0D929492A4830F0D0FE45
:103DF400C2E7918842F254039942B9D1264B1B7809
:103E0400BBB91D4A1178F9B1194B9A45B4D1019245
:103E1400FFF77CFB019A1C4B00211868154B996530
:103E2400A3F8691083F86B10012313701B4B1860FF
:103E3400A2E70F4B9A459FD10F4AECE7164B0E4A67
:103E44001B78002BE7D1E2E70A22154827F066FF2A
:103E5400431EB3F55C7F8FD2124B18608CE700BF12
:103E6400709200201932012053544F507492002054
:103E740041524D0050300120283201207892002018
:103E8400403201203F32012020310120E83101205D
:103E9400647900206878002033320120A099002042
:103EA4007A920020507E002053544154435241538F
:103EB4004C494D492DE9F04F89B0924C22F0EAFE6D
:103EC400914B80461B681846039315F081FD2378B7
:103ED400002B00F008818D4FFFF716FF80258C4CD6
:103EE4008C4E07F5C049DFF864A2CDF8088005E0E0
:103EF400894A136801331360013D6DD0236B20465A
:103F040032689A4238BF336016F060F9002863DBE8
:103F1400F2D0214606A815F0FFFF079B5345E7D1D1
:103F2400A36DD4E910820193A2EB080B3A68BBF1AC
:103F3400110F02F101023A6048DD08227749404638
:103F440029F078FD002841D198F80820002A3DD1B5
:103F540098F80920502A39D198F80A1098F80B20BB
:103F640002EB01220D2A31D998F8101098F811208B
:103F740002EB0122911EB1F5FF7F27D8D30725D488
:103F840002F112018B4521D198F90F1098F80F0016
:103F940000291BDB98F80E104FF0AA0E01EB00234A
:103FA4005F4901F12A0BB1F800C0A3EB0C00634593
:103FB4000EFB00FC03D348888445C0F0C980063159
:103FC4005945F0D1BB680133BB6095E77B68013D7F
:103FD40003F101037B6091D1524AD9F85830DDF8DE
:103FE4000880146823B1D9F85C30E31A642B49D8EB
:103FF400D9F86430E31AB3F57A7F02D90023A9F81B
:104004006A30494E3378002B54D122F043FE474B9B
:104014001D68451BFFF706FA80F00103DBB2CBB144
:1040240048F235239D4215D9414A13680133136080
:1040340022F030FE3F4BA0EB08001A68824238BFE2
:1040440018603D4B1B68E41AB4F57A7F55D209B069
:10405400BDE8F08F0028EBD03178D1B148F2352398
:104064009D42E5D999F86930002BE1D043F21B0257
:104074003249334822F084FE002089F86900FFF7B2
:10408400BFFBD5E73B6901333B610023C9F85830D6
:10409400AEE72C4B1B78012BCAD046F64B039D424E
:1040A400C6D943F21B02264829F098FD0120FFF7E8
:1040B400A7FBBDE7039815F009FE58B1224B1B6816
:1040C400E31AB3F57A7FA0D9D9F86030E31AB3F5CF
:1040D4007A7F9AD900233370C9F85830A9F8693027
:1040E40089F86B3091E741F63611094816F098FCCF
:1040F400003818BF01202070EDE609B0BDE8F04F8C
:10410400FFF72ABC323201203092002050D0002028
:1041140050310120E4CF0020909F0020500800205F
:10412400E05D0020203101202832012010310120DF
:10413400D49A0020E0CF0020C09F00208B000120F3
:10414400C49F0020717E0020A09900200A00007DF9
:10415400A0EB0C0000EB4000B0F5FF7F28BF4FF44C
:10416400FF7082428646FFF431AF8A880592D9F8FF
:1041740058205AB1D9F85C2001998A1A642A05D9C1
:104184003A6901323A610022C9F85820D9F864200A
:1041940001998A1AB2F57A7F7BD90022A9F86A209C
:1041A40098F80CB0BBF1000F4FD0D9F858202AB1C1
:1041B4003A6901323A610022C9F85820012289F88B
:1041C40068B0A9F86A20A3F17802012101FA02F388
:1041D400D9F858201A42049357D1002A4DD0059893
:1041E4007246484B08F11201604400EB4000184449
:1041F40022F0C6FD07F5C043019A04995A669A6DE8
:104204000A4341498A429A657FF476AE93F869304D
:1042140013B1FB690133FB6143F21B0239493B488B
:1042240022F0AEFD019BC9F86030BBF1000318BF5A
:10423400012389F86B30FB680133FB600023C9F864
:104244005830012389F8693056E6A3F17802012138
:1042540001FA02F3D9F858200493049B002112EACE
:104264000300A9F86A1046D0BA698B46C9F85810F9
:104274000132BA613A6901323A61019BC9F85C3092
:10428400ADE799F86B20002A9DD0BB690133BB616F
:1042940032E698F80CB099F86A10BBF1000F16D00A
:1042A400002982D099F868209345EAD0ABEB02024A
:1042B400FF21FF32B2FBF1F1C1EB0121521A7F2A37
:1042C4001BD8D9F85820002A3FF475AF70E7A3F142
:1042D4007802012000FA02F3D9F858200493002947
:1042E400BBD012B13A6901323A610022C9F85820B0
:1042F400A9F86A20C1E783466FE77B6901337B61D4
:10430400FAE500BF70D00020FFFFFB1F8B000120E7
:10431400704700BF704700BF704700BF704700BFC1
:10432400704700BF704700BF806870470020704727
:10433400C06E7047406B70477030704738307047BC
:1043440082B0CDE9001202B0704700BF704700BFD1
:104354008068704710B1012380F8A430704700BF13
:104364000123002082B063F30F2002B0704700BF26
:10437400086828B1007FA0F10200B0FA80F040097B
:10438400704700BF10B5046894F800C0BCF1000F7A
:1043940007D090F80CE0F444BCF1FF0FA8BF4FF035
:1043A400FF0C90F818E00EFB0CCC4FEA2C2C81F893
:1043B40000C00168497829B190F80DC06144FF2913
:1043C400A8BFFF2190F819C00CFB0111091211704C
:1043D4000268927822B1817B0A44FF2AA8BFFF2297
:1043E400817E01FB022212121A7010BD027BC17B76
:1043F400437B891A027C90F80EC0D21A437C017365
:10440400A3EB0C0342738373704700BF0368826895
:1044140090F91210013A0B4482600360704700BFA8
:104424004068704780688142CCBF002001207047FB
:1044340090F81BC081F800C0017F1170427F1A7090
:10444400009A837F1370704790F81BC081F800C0F6
:10445400017F1170427F1A70009A837F1370704736
:1044640010B5046894F800C0BCF1000F07D090F8B0
:104474000CE0F444BCF1FF0FA8BF4FF0FF0C90F820
:1044840018E00EFB0CCC4FEA2C2C81F800C001681C
:10449400897829B190F80EC06144FF29A8BFFF2193
:1044A40090F81AC00CFB01110912117002685278BD
:1044B40022B1417B0A44FF2AA8BFFF22417E01FBAF
:1044C400022212121A7010BD027BC17B437B891A2F
:1044D400027C90F80EC0D21A437C0173A3EB0C0348
:1044E40042738373704700BF0368826890F91210A7
:1044F400013A0B4482600360704700BF4068704714
:1045040080688142CCBF00200120704790F81BC016
:1045140081F800C0417F1170027F1A70009A837F76
:104524001370704790F81BC081F800C0417F117070
:10453400027F1A70009A837F1370704710B5046865
:1045440094F801C0BCF1000F07D090F80DE0F444DA
:10455400BCF1FF0FA8BF4FF0FF0C90F819E00EFB61
:104564000CCC4FEA2C2C81F800C00168097829B1E1
:1045740090F80CC06144FF29A8BFFF2190F818C02F
:104584000CFB0111091211700268927822B1817B2F
:104594000A44FF2AA8BFFF22817E01FB02221212D5
:1045A4001A7010BD027BC17B437B891A027C90F890
:1045B4000EC0D21A437C0173A3EB0C0342738373C2
:1045C400704700BF0368826890F91210013A0B44E7
:1045D40082600360704700BF406870478068814212
:1045E400CCBF00200120704790F81CC081F800C0A7
:1045F400C17E1170427F1A70009A837F13707047D6
:1046040090F81CC081F800C0C17E1170427F1A70FE
:10461400009A837F1370704710B5046894F801C042
:10462400BCF1000F07D090F80DE0F444BCF1FF0F8B
:10463400A8BF4FF0FF0C90F819E00EFB0CCC4FEA2A
:104644002C2C81F800C00168897829B190F80EC03B
:104654006144FF29A8BFFF2190F81AC00CFB011187
:10466400091211700268127822B1017B0A44FF2AF0
:10467400A8BFFF22017E01FB022212121A7010BD94
:10468400027BC17B437B891A027C90F80EC0D21A4C
:10469400437C0173A3EB0C0342738373704700BF25
:1046A4000368826890F91210013A0B448260036037
:1046B400704700BF4068704780688142CCBF0020CB
:1046C4000120704790F81CC081F800C0417F117030
:1046D400C27E1A70009A837F1370704790F81CC0D2
:1046E40081F800C0417F1170C27E1A70009A837FE6
:1046F4001370704710B5046894F802C0BCF1000F41
:1047040007D090F80EE0F444BCF1FF0FA8BF4FF0BF
:10471400FF0C90F81AE00EFB0CCC4FEA2C2C81F81D
:1047240000C00168097829B190F80CC06144FF29E0
:10473400A8BFFF2190F818C00CFB011109121170D9
:104744000268527822B1417B0A44FF2AA8BFFF22A3
:10475400417E01FB022212121A7010BD027BC17B42
:10476400437B891A027C90F80EC0D21A437C0173F1
:10477400A3EB0C0342738373704700BF0368826822
:1047840090F91210013A0B4482600360704700BF35
:104794004068704780688142CCBF00200120704788
:1047A40090F81DC081F800C0C17E1170027F1A709C
:1047B400009A837F1370704790F81DC081F800C081
:1047C400C17E1170027F1A70009A837F1370704744
:1047D40010B5046894F802C0BCF1000F07D090F83B
:1047E4000EE0F444BCF1FF0FA8BF4FF0FF0C90F8AB
:1047F4001AE00EFB0CCC4FEA2C2C81F800C00168A7
:10480400497829B190F80DC06144FF29A8BFFF2160
:1048140090F819C00CFB011109121170026812788A
:1048240022B1017B0A44FF2AA8BFFF22017E01FBBB
:10483400022212121A7010BD027BC17B437B891ABB
:10484400027C90F80EC0D21A437C0173A3EB0C03D4
:1048540042738373704700BF0368826890F9121033
:10486400013A0B4482600360704700BF40687047A0
:1048740080688142CCBF00200120704790F81DC0A1
:1048840081F800C0017F1170C27E1A70009A837F84
:104894001370704790F81DC081F800C0017F11703B
:1048A400C27E1A70009A837F1370704710B400237D
:1048B400D1E90042C1E900330460426010BC704792
:1048C4000023C0E9003370470A46036900F1080178
:1048D400406818470A46036900F108014068184710
:1048E40000B5D0F810E013460A4600F10801F4467A
:1048F40040685DF804EB604700B5D0F810E013465B
:104904000A4600F10801F44640685DF804EB60478C
:1049140000B5D0F810E013460A4600F10801F44649
:1049240040685DF804EB604700B5D0F810E013462A
:104934000A4600F10801F44640685DF804EB60475C
:1049440000B5D0F810E013460A4600F10801F44619
:1049540040685DF804EB604700B5D0F810E01346FA
:104964000A4600F10801F44640685DF804EB60472C
:104974009FED077B10B5502204460021A0EC027B7A
:1049840029F02CF9002384F8503010BDAFF30080D7
:1049940000000000000000009FED077B10B55022CE
:1049A40004460021A0EC027B29F018F9002384F8C6
:1049B400503010BDAFF30080000000000000000084
:1049C4009FED077B10B5502204460021A0EC027B2A
:1049D40029F004F9002384F8503010BDAFF30080AF
:1049E40000000000000000009FED077B10B550227E
:1049F40004460021A0EC027B29F0F0F8002384F89F
:104A0400503010BDAFF30080000000000000000033
:104A1400704700BF704700BF704700BF704700BFBA
:104A2400704700BF704700BF704700BF704700BFAA
:104A340003685B68184700BF03685B68184700BFDA
:104A440003685B68184700BF0120704710B504462F
:104A540044310DF031FF204610BD00BF10B582B0C7
:104A6400044601910DF028FF01998A6D91F85C309C
:104A7400A26584F85C3002B010BD00BF0346042276
:104A840000B583B09B7D69460DEB020000930CF0EA
:104A940071FF019803B000BD10B5042282B0044632
:104AA40000910DEB020069460CF064FF019BA375B5
:104AB40002B010BD10B5042282B0044600910DEB83
:104AC400020069460CF056FF019B93E8070084E856
:104AD400070002B010BD00BF10B5042282B0044626
:104AE40000910DEB020069460CF044FF019B93E832
:104AF400070084E8070002B010BD00BF10B504220F
:104B040082B0044600910DEB020069460CF032FFBE
:104B1400DDF804E0A446BEE80F00ACE80F009EE810
:104B240007008CE8070002B010BD00BF10B50422D6
:104B340082B0044600910DEB020069460CF01AFFA6
:104B4400019B0FCB84E80F0002B010BD00B583B009
:104B54000422694600900DEB02000CF00BFF03B039
:104B640000BD00BF00B583B00422694600900DEB80
:104B740002000CF0FFFE03B000BD00BF00B583B01F
:104B84000422694600900DEB02000CF0F3FE03B022
:104B940000BD00BF10B5042282B0044600910DEBA5
:104BA400020069460CF0E6FE019B0022A261A2838A
:104BB4001A46197B2173597B6173997BA173D97B45
:104BC400E173197C2174597C617452F8181B2160BB
:104BD40092E803000A0CA061A183A27793F9122042
:104BE400A2745A68C4E901225B69636102B010BD12
:104BF40000B583B00422694600900DEB02000CF06E
:104C0400B9FE03B000BD00BF10B5042282B0044653
:104C140000910DEB020069460CF0ACFE019B0022F2
:104C2400A261A2831A46197B2173597B6173997B14
:104C3400A173D97BE173197C2174597C617452F896
:104C4400181B216092E803000A0CA061A183A277DB
:104C540093F91220A2745A68C4E901225B69636162
:104C640002B010BD00B583B00422694600900DEB7C
:104C740002000CF07FFE03B000BD00BF10B504229B
:104C840082B0044600910DEB020069460CF072FEFE
:104C9400019B0022A261A2831A46197B2173597BCE
:104CA4006173997BA173D97BE173197C2174597C5D
:104CB400617452F8181B216092E803000A0CA06189
:104CC400A183A27793F91220A2745A68C4E901223D
:104CD4005B69636102B010BD00B583B0042269460C
:104CE40000900DEB02000CF045FE03B000BD00BFC8
:104CF40010B5042282B0044600910DEB020069460F
:104D04000CF038FE019B0022A261A2831A46197B93
:104D14002173597B6173997BA173D97BE173197CEE
:104D24002174597C617452F8181B216092E80300C5
:104D34000A0CA061A183A27793F91220A2745A6885
:104D4400C4E901225B69636102B010BD00B583B0A0
:104D54000422694600900DEB02000CF00BFE03B038
:104D640000BD00BF10B5042282B0044600910DEBD3
:104D7400020069460CF0FEFD019B0022A261A283A1
:104D84001A46197B2173597B6173997BA173D97B73
:104D9400E173197C2174597C617452F8181B2160E9
:104DA40092E803000A0CA061A183A27793F9122070
:104DB400A2745A68C4E901225B69636102B010BD40
:104DC40000B583B00422694600900DEB02000CF09C
:104DD400D1FD03B000BD00BF00B583B00422694615
:104DE40000900DEB02000CF0C5FD03B000BD00BF48
:104DF40000B583B00422009169460DEB02000CF06B
:104E0400B9FD03B000BD00BF00B583B004226946FC
:104E140000900DEB02000CF0ADFD03B000BD00BF2F
:104E240010B5042282B0044600910DEB02006946DD
:104E34000CF0A0FDDDF804E0A446BEE80F00ACE8E9
:104E44000F00BEE80F00ACE80F00BEE80F00ACE8AE
:104E54000F009EE80F008CE80F0002B010BD00BFE9
:104E640000B583B00422009169460DEB02000CF0FA
:104E740081FD03B000BD00BF00B583B004220091E2
:104E840069460DEB02000CF075FD03B000BD00BFD8
:104E940010B5042282B0044600910DEB020069466D
:104EA4000CF068FD019B1B68236002B010BD00BFBD
:104EB40000B583B00422694600900DEB02000CF0AB
:104EC40059FD03B000BD00BF00B5042283B00090BB
:104ED40069460DEB02000CF04DFD0198436C1BB1CB
:104EE40003B05DF804EB184703B000BD00B504221D
:104EF40083B0009069460DEB02000CF03BFD019875
:104F040003685B6803B05DF804EB184700B504223E
:104F140083B0009069460DEB02000CF02BFD019864
:104F240003685B6803B05DF804EB184710B504220E
:104F340082B0044600910DEB020069460CF01AFDA4
:104F4400019B1B68236002B010BD00BF10B5042292
:104F540082B0044600910DEB020069460CF00AFD94
:104F6400019B1B68236002B010BD00BF10B5042272
:104F740082B0044600910DEB020069460CF0FAFC85
:104F8400019B1B68236002B010BD00BF10B5042252
:104F940082B0044600910DEB020069460CF0EAFC75
:104FA400019B1B68236002B010BD00BF30B5042212
:104FB40083B0044600910DEB020069460CF0DAFC64
:104FC400019B064803F108015D6820601B69656068
:104FD400236103C9C4E9020103B030BD5464002055
:104FE40030B5042283B0044600910DEB02006946FB
:104FF4000CF0C0FC019B064803F108015D682060C9
:105004001B696560236103C9C4E9020103B030BDB3
:105014004064002030B5042283B0044600910DEBB7
:10502400020069460CF0A6FC019B064803F1080146
:105034005D6820601B696560236103C9C4E90201DE
:1050440003B030BDA464002030B5042283B004460C
:1050540000910DEB020069460CF08CFC019B0648A4
:1050640003F108015D6820601B696560236103C961
:10507400C4E9020103B030BD9064002030B50422BD
:1050840083B0044600910DEB020069460CF072FCFB
:10509400019B064803F108015D6820601B69656097
:1050A400236103C9C4E9020103B030BD7C6400205C
:1050B40030B5042283B0044600910DEB020069462A
:1050C4000CF058FC019B064803F108015D68206060
:1050D4001B696560236103C9C4E9020103B030BDE3
:1050E4006864002030B5042283B0044600910DEBBF
:1050F400020069460CF03EFC019B064803F10801DE
:105104005D6820601B696560236103C9C4E902010D
:1051140003B030BDCC64002030B5042283B0044613
:1051240000910DEB020069460CF024FC019B06483B
:1051340003F108015D6820601B696560236103C990
:10514400C4E9020103B030BDB864002010B50422E4
:1051540082B0044600910DEB020069460CF00AFC93
:105164000199402220464B6C63640B6C236402B0AB
:10517400BDE810400CF0FEBB10B5042282B004461A
:1051840000910DEB020069460CF0F4FB01994022FA
:1051940020464B6C63640B6C236402B0BDE8104082
:1051A4000CF0E8BB10B5042282B0044600910DEB6C
:1051B400020069460CF0DEFB0199402220464B6C4C
:1051C40063640B6C236402B0BDE810400CF0D2BBE6
:1051D40010B5042282B0044600910DEB020069462A
:1051E4000CF0C8FB0199402220464B6C63640B6CA5
:1051F400236402B0BDE810400CF0BCBB00B583B022
:105204000422694600900DEB02000CF0B3FB03B0DE
:1052140000BD00BF00B5042283B0009069460DEBC9
:1052240002000CF0A7FB0198436C1BB103B05DF8BE
:1052340004EB184703B000BD00B5042283B000900E
:1052440069460DEB02000CF095FB019803685B685E
:1052540003B05DF804EB184700B5042283B0009056
:1052640069460DEB02000CF085FB019803685B684E
:1052740003B05DF804EB184700B583B00422694617
:1052840000900DEB02000CF075FB03B000BD00BFF5
:1052940000B5042283B0009069460DEB02000CF0C7
:1052A40069FB0198436C1BB103B05DF804EB18472C
:1052B40003B000BD00B5042283B0009069460DEB35
:1052C40002000CF057FB019803685B6803B05DF8BB
:1052D40004EB184700B5042283B0009069460DEB37
:1052E40002000CF047FB019803685B6803B05DF8AB
:1052F40004EB184700B583B00422694600900DEB17
:1053040002000CF037FB03B000BD00BF00B504225F
:1053140083B0009069460DEB02000CF02BFB019862
:10532400436C1BB103B05DF804EB184703B000BD38
:1053340000B5042283B0009069460DEB02000CF026
:1053440019FB019803685B6803B05DF804EB184728
:1053540000B5042283B0009069460DEB02000CF006
:1053640009FB019803685B6803B05DF804EB184718
:1053740000B583B00422694600900DEB02000CF0E6
:10538400F9FA03B000BD00BF00B5042283B0009059
:1053940069460DEB02000CF0EDFA0198436C1BB169
:1053A40003B05DF804EB184703B000BD00B5042258
:1053B40083B0009069460DEB02000CF0DBFA019813
:1053C40003685B6803B05DF804EB184700B504227A
:1053D40083B0009069460DEB02000CF0CBFA019803
:1053E40003685B6803B05DF804EB184710B504224A
:1053F40082B0044600910DEB020069460CF0BAFA43
:10540400019B0022D3E90001C3E90022C4E90001A1
:1054140002B010BD10B5042282B0044600910DEB19
:10542400020069460CF0A6FA019B1B68236002B0D7
:1054340010BD00BF10B584B004460422029103A835
:1054440002A90CF097FA0399402220464B6C019173
:1054540063640B6C23640CF08DFA002301994B6494
:1054640004B010BD30B5042283B0044600910DEBA6
:10547400020069460CF07EFA019B064803F108011C
:105484005D6820601B696560236103C9C4E902018A
:1054940003B030BD5464002030B5042283B0044608
:1054A40000910DEB020069460CF064FA019B06487A
:1054B40003F108015D6820601B696560236103C90D
:1054C400C4E9020103B030BD4064002010B50422D9
:1054D40082B0044600910DEB020069460CF04AFAD2
:1054E400019B0022D3E90001C3E90022C4E90001C1
:1054F40002B010BD10B5042282B0044600910DEB39
:10550400020069460CF036FA019B1B68236002B066
:1055140010BD00BF10B584B004460422029103A854
:1055240002A90CF027FA0399402220464B6C019102
:1055340063640B6C23640CF01DFA002301994B6423
:1055440004B010BD30B5042283B0044600910DEBC5
:10555400020069460CF00EFA019B064803F10801AB
:105564005D6820601B696560236103C9C4E90201A9
:1055740003B030BDA464002030B5042283B00446D7
:1055840000910DEB020069460CF0F4F9019B06480A
:1055940003F108015D6820601B696560236103C92C
:1055A400C4E9020103B030BD9064002010B50422A8
:1055B40082B0044600910DEB020069460CF0DAF962
:1055C400019B0022D3E90001C3E90022C4E90001E0
:1055D40002B010BD10B5042282B0044600910DEB58
:1055E400020069460CF0C6F9019B1B68236002B0F7
:1055F40010BD00BF10B584B004460422029103A874
:1056040002A90CF0B7F90399402220464B6C019192
:1056140063640B6C23640CF0ADF9002301994B64B3
:1056240004B010BD30B5042283B0044600910DEBE4
:10563400020069460CF09EF9019B064803F108013B
:105644005D6820601B696560236103C9C4E90201C8
:1056540003B030BD7C64002030B5042283B004461E
:1056640000910DEB020069460CF084F9019B064899
:1056740003F108015D6820601B696560236103C94B
:10568400C4E9020103B030BD6864002010B50422EF
:1056940082B0044600910DEB020069460CF06AF9F1
:1056A400019B0022D3E90001C3E90022C4E90001FF
:1056B40002B010BD10B5042282B0044600910DEB77
:1056C400020069460CF056F9019B1B68236002B086
:1056D40010BD00BF10B584B004460422029103A893
:1056E40002A90CF047F90399402220464B6C019122
:1056F40063640B6C23640CF03DF9002301994B6443
:1057040004B010BD30B5042283B0044600910DEB03
:10571400020069460CF02EF9019B064803F10801CA
:105724005D6820601B696560236103C9C4E90201E7
:1057340003B030BDCC64002030B5042283B00446ED
:1057440000910DEB020069460CF014F9019B064828
:1057540003F108015D6820601B696560236103C96A
:10576400C4E9020103B030BDB864002008B560226A
:10577400002128F033FABDE808400CF051B900BF0D
:105784000BF05CBA59B170B50E46044600250135DC
:1057940020460BF053FA6034AE42F8D170BD704726
:1057A400034B10B5044603600CF00CF9204610BD01
:1057B400CC630020034B10B5044603600CF002F9DF
:1057C400204610BD9C630020034B10B504460360C3
:1057D4000CF0F8F8204610BDDC620020054B10B533
:1057E400044603600CF0EEF820460CF0C1F82046A5
:1057F40010BD00BF9C630020054B10B50446036038
:105804000CF0E0F820460CF0B3F8204610BD00BFC1
:10581400DC620020054B10B5044603600CF0D2F89E
:1058240020460CF0A5F8204610BD00BFCC63002034
:1058340000B583B01421019021F042FB019803B01C
:1058440000BD00BF00B583B01421019021F038FBE6
:10585400019803B000BD00BF00B583B014210190CE
:1058640021F02EFB019803B000BD00BF00B583B04A
:105874001421019021F024FB019803B000BD00BF66
:1058840000B583B01421019021F01AFB019803B0F4
:1058940000BD00BF00B583B01421019021F010FBBE
:1058A400019803B000BD00BF00B583B0142101907E
:1058B40021F006FB019803B000BD00BF00B583B022
:1058C4001421019021F0FCFA019803B000BD00BF3F
:1058D40000B585B00422029002A903A80CF04AF88E
:1058E400039B5868A0B101930CF076F880B1019B3A
:1058F4005868026892689047019B58688368013B26
:1059040083602BB90368DB6805B05DF804EB1847C6
:1059140005B000BD00B585B00422029002A903A819
:105924000CF028F8039B5868A0B101930CF054F8CC
:1059340080B1019B5868026892689047019B58683F
:105944008368013B83602BB90368DB6805B05DF8AD
:1059540004EB184705B000BD00B585B004220290E1
:1059640002A903A80CF006F8039B5868A0B10193A0
:105974000CF032F880B1019B586802689268904735
:10598400019B58688368013B83602BB90368DB681B
:1059940005B05DF804EB184705B000BD00B585B04F
:1059A4000422029002A903A80BF0E4FF039B5868A9
:1059B400A0B101930CF010F880B1019B5868026803
:1059C40092689047019B58688368013B83602BB9B8
:1059D4000368DB6805B05DF804EB184705B000BD4B
:1059E40000B585B00422029002A903A80BF0C2FFFF
:1059F400039B5868A0B101930BF0EEFF80B1019BAB
:105A04005868026892689047019B58688368013B14
:105A140083602BB90368DB6805B05DF804EB1847B5
:105A240005B000BD0A6838B50C460260002305467F
:105A34000C30D1E90121A36040F8041C04F10C01ED
:105A4400636040F8082C0CF027FD94F8643085F866
:105A5400643038BD10B582B0044601910CF01CFDD1
:105A640001998A6D91F85C30A26584F85C3002B0CB
:105A740010BD00BF38B50B6804460D460360D1E97C
:105A84000130C4E9013008B10BF09EFF05F10C01AF
:105A940004F10C000CF010FF95F8643084F86430C5
:105AA40038BD00BFD1E90023C0E9002313B1184673
:105AB4000BF08ABF704700BF10B5042282B00446C1
:105AC40000910DEB020069460BF054FF019BD3E9F2
:105AD4000020C4E9002020B102B0BDE810400BF062
:105AE40073BF02B010BD00BF10B5042282B00446DB
:105AF40000910DEB020069460BF03CFF019BD3E9DA
:105B04000020C4E9002020B102B0BDE810400BF031
:105B14005BBF02B010BD00BF10B5042282B00446C2
:105B240000910DEB020069460BF024FF019BD3E9C1
:105B34000020C4E9002020B102B0BDE810400BF001
:105B440043BF02B010BD00BF10B5042282B00446AA
:105B540000910DEB020069460BF00CFF019BD3E9A9
:105B64000020C4E9002020B102B0BDE810400BF0D1
:105B74002BBF02B010BD00BF04300BF053BD00BFFB
:105B840059B170B50E46041D0025013520460BF0B1
:105B940049FD2434AE42F8D170BD704700B583B0DE
:105BA400019012F039FA0198002103689B6903B04F
:105BB4005DF804EB184700BF70B50C4691689AB0C5
:105BC400002945D00546414801920AF091FA602225
:105BD4000646002102A828F001F802A80BF020FFD5
:105BE40000223B4902A88DF860200A2219920CF089
:105BF40019FA294602A80CF0A1FE364902A80CF0B5
:105C040011FA214602A80CF099FE334902A80CF0BF
:105C140009FA019902A80CF091FE304902A80CF08F
:105C240001FA2F4902A80CF0FDF9214602A80CF054
:105C340085FE2C4902A80CF0F5F902AB8722314607
:105C440001200AF015FA02A80AF0F8FF1AB070BD94
:105C540006461E4801910AF04BFA60220199054656
:105C640002A827F0BBFF02A80BF0DAFE01990A2371
:105C740002A88DF86010164919930CF0D3F9314637
:105C840002A80CF05BFE134902A80CF0CBF92146E4
:105C940002A80CF053FE144902A80CF0C3F91049F1
:105CA40002A80CF0BFF9214602A80CF047FE0D49EA
:105CB40002A80CF0B7F902AB8D22294601200AF0A4
:105CC400D7F902A80AF0BAFF1AB070BD780C002008
:105CD400D40C0020E00C0020F40C00202C0D00203B
:105CE400500D0020800D0020A40D002030B593B08D
:105CF400844609A8DCF800E09CF8184080E80E000F
:105D040007C80FAA25469CF819409CF81AC082E8D7
:105D14000B00BEF8001000209EF802309DF840E011
:105D24000A0AADF83810C9B2BEF1020F8DF8360078
:105D34008DF837008DF83A3060D0BEF1030F42D0B1
:105D4400BEF1010F1AD084460346024601468DF87F
:105D54003A00ADF838001A9CCDF800C00694199C9E
:105D64000594189C0494179C0394169CCDE9010493
:105D74009DF841000AF08AF813B030BDCDE9014C1A
:105D84000DF1370C0FA80095CDF81CC00DF1360CA1
:105D9400CDF818C00DF1380CCDF80CC00DF13A0C4B
:105DA400CDF814C00DF1390CCDF810C00AF0ECF8A0
:105DB4009DF838109DF839209DF83A309DF836C08A
:105DC4009DF83700C7E7CDE9014C0DF1370C0FA85A
:105DD4000095CDF81CC00DF1360CCDF818C00DF1AE
:105DE400380CCDF80CC00DF13A0CCDF814C00DF1FF
:105DF400390CCDF810C00AF08FF8D9E7CDE9014C81
:105E04000DF1370C0FA80095CDF81CC00DF1360C20
:105E1400CDF818C00DF1380CCDF80CC00DF13A0CCA
:105E2400CDF814C00DF1390CCDF810C00AF0E6F825
:105E3400BEE700BF30B593B0844609A8DCF800E0A3
:105E44009CF8184080E80E0007C80FAA25469CF865
:105E540019409CF81AC082E80B00BEF8001000201C
:105E64009EF802309DF840E00A0AADF83810C9B235
:105E7400BEF1020F8DF836008DF837008DF83A30F8
:105E840060D0BEF1030F42D0BEF1010F1AD0844698
:105E94000346024601468DF83A00ADF838001A9CD4
:105EA400CDF800C00694199C0594189C0494179C82
:105EB4000394169CCDE901049DF8410009F0E6FF26
:105EC40013B030BDCDE9014C0DF1370C0FA800958E
:105ED400CDF81CC00DF1360CCDF818C00DF1380CFE
:105EE400CDF80CC00DF13A0CCDF814C00DF1390CFD
:105EF400CDF810C00AF048F89DF838109DF83A2003
:105F04009DF839309DF836C09DF83700C7E7CDE9D4
:105F1400014C0DF1370C0FA80095CDF81CC00DF104
:105F2400360CCDF818C00DF1380CCDF80CC00DF1BD
:105F34003A0CCDF814C00DF1390CCDF810C009F0AD
:105F4400EBFFD9E7CDE9014C0DF1370C0FA8009513
:105F5400CDF81CC00DF1360CCDF818C00DF1380C7D
:105F6400CDF80CC00DF13A0CCDF814C00DF1390C7C
:105F7400CDF810C00AF042F8BEE700BF30B593B0C8
:105F8400844609A8DCF800E09CF8184080E80E007C
:105F940007C80FAA25469CF819409CF81AC082E845
:105FA4000B00BEF8001000209EF802309DF840E07F
:105FB4000A0AADF83810C9B2BEF1020F8DF83600E6
:105FC4008DF837008DF83A3060D0BEF1030F42D01F
:105FD400BEF1010F1AD084460346024601468DF8ED
:105FE4003A00ADF838001A9CCDF800C00694199C0C
:105FF4000594189C0494179C0394169CCDE9010401
:106004009DF8410009F042FF13B030BDCDE9014CC9
:106014000DF1370C0FA80095CDF81CC00DF1360C0E
:10602400CDF818C00DF1380CCDF80CC00DF13A0CB8
:10603400CDF814C00DF1390CCDF810C009F0A4FF4F
:106044009DF839109DF838209DF83A309DF836C0F7
:106054009DF83700C7E7CDE9014C0DF1370C0FA8C7
:106064000095CDF81CC00DF1360CCDF818C00DF11B
:10607400380CCDF80CC00DF13A0CCDF814C00DF16C
:10608400390CCDF810C009F047FFD9E7CDE9014C30
:106094000DF1370C0FA80095CDF81CC00DF1360C8E
:1060A400CDF818C00DF1380CCDF80CC00DF13A0C38
:1060B400CDF814C00DF1390CCDF810C009F09EFFD5
:1060C400BEE700BF30B593B0844609A8DCF800E011
:1060D4009CF8184080E80E0007C80FAA25469CF8D3
:1060E40019409CF81AC082E80B00BEF8001000208A
:1060F4009EF802309DF840E00A0AADF83810C9B2A3
:10610400BEF1020F8DF836008DF837008DF83A3065
:1061140060D0BEF1030F42D0BEF1010F1AD0844605
:106124000346024601468DF83A00ADF838001A9C41
:10613400CDF800C00694199C0594189C0494179CEF
:106144000394169CCDE901049DF8410009F09EFEDC
:1061540013B030BDCDE9014C0DF1370C0FA80095FB
:10616400CDF81CC00DF1360CCDF818C00DF1380C6B
:10617400CDF80CC00DF13A0CCDF814C00DF1390C6A
:10618400CDF810C009F000FF9DF839109DF83A20B1
:106194009DF838309DF836C09DF83700C7E7CDE943
:1061A400014C0DF1370C0FA80095CDF81CC00DF172
:1061B400360CCDF818C00DF1380CCDF80CC00DF12B
:1061C4003A0CCDF814C00DF1390CCDF810C009F01B
:1061D400A3FED9E7CDE9014C0DF1370C0FA80095CA
:1061E400CDF81CC00DF1360CCDF818C00DF1380CEB
:1061F400CDF80CC00DF13A0CCDF814C00DF1390CEA
:10620400CDF810C009F0FAFEBEE700BF30B593B078
:10621400844609A8DCF800E09CF8184080E80E00E9
:1062240007C80FAA25469CF819409CF81AC082E8B2
:106234000B00BEF8001000209EF802309DF840E0EC
:106244000A0AADF83810C9B2BEF1020F8DF8360053
:106254008DF837008DF83A3060D0BEF1030F42D08C
:10626400BEF1010F1AD084460346024601468DF85A
:106274003A00ADF838001A9CCDF800C00694199C79
:106284000594189C0494179C0394169CCDE901046E
:106294009DF8410009F0FAFD13B030BDCDE9014C81
:1062A4000DF1370C0FA80095CDF81CC00DF1360C7C
:1062B400CDF818C00DF1380CCDF80CC00DF13A0C26
:1062C400CDF814C00DF1390CCDF810C009F05CFE06
:1062D4009DF83A109DF838209DF839309DF836C065
:1062E4009DF83700C7E7CDE9014C0DF1370C0FA835
:1062F4000095CDF81CC00DF1360CCDF818C00DF189
:10630400380CCDF80CC00DF13A0CCDF814C00DF1D9
:10631400390CCDF810C009F0FFFDD9E7CDE9014CE7
:106324000DF1370C0FA80095CDF81CC00DF1360CFB
:10633400CDF818C00DF1380CCDF80CC00DF13A0CA5
:10634400CDF814C00DF1390CCDF810C009F056FE8B
:10635400BEE700BF30B593B0844609A8DCF800E07E
:106364009CF8184080E80E0007C80FAA25469CF840
:1063740019409CF81AC082E80B00BEF800100020F7
:106384009EF802309DF840E00A0AADF83810C9B210
:10639400BEF1020F8DF836008DF837008DF83A30D3
:1063A40060D0BEF1030F42D0BEF1010F1AD0844673
:1063B4000346024601468DF83A00ADF838001A9CAF
:1063C400CDF800C00694199C0594189C0494179C5D
:1063D4000394169CCDE901049DF8410009F056FD93
:1063E40013B030BDCDE9014C0DF1370C0FA8009569
:1063F400CDF81CC00DF1360CCDF818C00DF1380CD9
:10640400CDF80CC00DF13A0CCDF814C00DF1390CD7
:10641400CDF810C009F0B8FD9DF83A109DF8392068
:106424009DF838309DF836C09DF83700C7E7CDE9B0
:10643400014C0DF1370C0FA80095CDF81CC00DF1DF
:10644400360CCDF818C00DF1380CCDF80CC00DF198
:106454003A0CCDF814C00DF1390CCDF810C009F088
:106464005BFDD9E7CDE9014C0DF1370C0FA8009580
:10647400CDF81CC00DF1360CCDF818C00DF1380C58
:10648400CDF80CC00DF13A0CCDF814C00DF1390C57
:10649400CDF810C009F0B2FDBEE700BFF0B58FB073
:1064A400047E0DF1240C2646447E8CE80E0003681D
:1064B4000B9A1988807EA2F1020C9B780022BDF809
:1064C40024E0ADF834108DF833200A0A0A9DC9B2CD
:1064D4008DF836300096CDE901407046BCF1050FC9
:1064E40000F28C80DFE80CF02B3E516477030DF151
:1064F400330CCDF818C00DF1340CCDF80CC00DF1EF
:10650400360CCDF814C00DF1350CCDF810C009F0DF
:10651400B7FB179B28469DF833100493169B149CD5
:106524000393159B9DF8352002939DF83630CDE9F1
:1065340000149DF8341009F087FC0FB0F0BD0DF184
:10654400330CCDF818C00DF1340CCDF80CC00DF19E
:10655400360CCDF814C00DF1350CCDF810C009F08F
:1065640045F9D6E70DF1330CCDF818C00DF1340C14
:10657400CDF80CC00DF1360CCDF814C00DF1350C6E
:10658400CDF810C009F046FBC3E70DF1330CCDF88C
:1065940018C00DF1340CCDF80CC00DF1360CCDF84B
:1065A40014C00DF1350CCDF810C009F0F3FAB0E7C2
:1065B4000DF1330CCDF818C00DF1340CCDF80CC02E
:1065C4000DF1360CCDF814C00DF1350CCDF810C01A
:1065D40009F08AFB9DE70DF1330CCDF818C00DF1DD
:1065E400340CCDF80CC00DF1360CCDF814C00DF1FF
:1065F400350CCDF810C009F0CFFB8AE70DF1330C50
:10660400CDF818C00DF1340CCDF80CC00DF1360CDA
:10661400CDF814C00DF1350CCDF810C009F0DEFA38
:1066240077E700BFF0B58FB0047E0DF1240C264649
:10663400447E8CE80E0003680B9A1988807EA2F1D0
:10664400020C9B780022BDF824E0ADF834108DF8DC
:1066540033200A0A0A9DC9B28DF836300096CDE976
:1066640001407046BCF1050F00F28C80DFE80CF0AD
:106674002B3E516477030DF1330CCDF818C00DF1A6
:10668400340CCDF80CC00DF1360CCDF814C00DF15E
:10669400350CCDF810C009F0F3FA179B28469DF885
:1066A40033100493169B149C0393159B9DF836207A
:1066B40002939DF83530CDE900149DF8341009F0AB
:1066C400C3FB0FB0F0BD0DF1330CCDF818C00DF1C4
:1066D400340CCDF80CC00DF1360CCDF814C00DF10E
:1066E400350CCDF810C009F081F8D6E70DF1330C64
:1066F400CDF818C00DF1340CCDF80CC00DF1360CEA
:10670400CDF814C00DF1350CCDF810C009F082FAA3
:10671400C3E70DF1330CCDF818C00DF1340CCDF8EE
:106724000CC00DF1360CCDF814C00DF1350CCDF8BC
:1067340010C009F02FFAB0E70DF1330CCDF818C0F2
:106744000DF1340CCDF80CC00DF1360CCDF814C09D
:106754000DF1350CCDF810C009F0C6FA9DE70DF126
:10676400330CCDF818C00DF1340CCDF80CC00DF17C
:10677400360CCDF814C00DF1350CCDF810C009F06D
:106784000BFB8AE70DF1330CCDF818C00DF1340C76
:10679400CDF80CC00DF1360CCDF814C00DF1350C4C
:1067A400CDF810C009F01AFA77E700BFF0B58FB042
:1067B400047E0DF1240C2646447E8CE80E0003680A
:1067C4000B9A1988807EA2F1020C9B780022BDF8F6
:1067D40024E0ADF834108DF833200A0A0A9DC9B2BA
:1067E4008DF836300096CDE901407046BCF1050FB6
:1067F40000F28C80DFE80CF02B3E516477030DF13E
:10680400330CCDF818C00DF1340CCDF80CC00DF1DB
:10681400360CCDF814C00DF1350CCDF810C009F0CC
:106824002FFA179B28469DF833100493169B149C4B
:106834000393159B9DF8342002939DF83630CDE9DF
:1068440000149DF8351009F0FFFA0FB0F0BD0DF1FA
:10685400330CCDF818C00DF1340CCDF80CC00DF18B
:10686400360CCDF814C00DF1350CCDF810C008F07D
:10687400BDFFD6E70DF1330CCDF818C00DF1340C83
:10688400CDF80CC00DF1360CCDF814C00DF1350C5B
:10689400CDF810C009F0BEF9C3E70DF1330CCDF803
:1068A40018C00DF1340CCDF80CC00DF1360CCDF838
:1068B40014C00DF1350CCDF810C009F06BF9B0E738
:1068C4000DF1330CCDF818C00DF1340CCDF80CC01B
:1068D4000DF1360CCDF814C00DF1350CCDF810C007
:1068E40009F002FA9DE70DF1330CCDF818C00DF153
:1068F400340CCDF80CC00DF1360CCDF814C00DF1EC
:10690400350CCDF810C009F047FA8AE70DF1330CC5
:10691400CDF818C00DF1340CCDF80CC00DF1360CC7
:10692400CDF814C00DF1350CCDF810C009F056F9AE
:1069340077E700BFF0B58FB0047E0DF1240C264636
:10694400447E8CE80E0003680B9A1988807EA2F1BD
:10695400020C9B780022BDF824E0ADF834108DF8C9
:1069640033200A0A0A9DC9B28DF836300096CDE963
:1069740001407046BCF1050F00F28C80DFE80CF09A
:106984002B3E516477030DF1330CCDF818C00DF193
:10699400340CCDF80CC00DF1360CCDF814C00DF14B
:1069A400350CCDF810C009F06BF9179B28469DF8FB
:1069B40033100493169B149C0393159B9DF8362067
:1069C40002939DF83430CDE900149DF8351009F098
:1069D4003BFA0FB0F0BD0DF1330CCDF818C00DF13A
:1069E400340CCDF80CC00DF1360CCDF814C00DF1FB
:1069F400350CCDF810C008F0F9FED6E70DF1330CD4
:106A0400CDF818C00DF1340CCDF80CC00DF1360CD6
:106A1400CDF814C00DF1350CCDF810C009F0FAF81A
:106A2400C3E70DF1330CCDF818C00DF1340CCDF8DB
:106A34000CC00DF1360CCDF814C00DF1350CCDF8A9
:106A440010C009F0A7F8B0E70DF1330CCDF818C069
:106A54000DF1340CCDF80CC00DF1360CCDF814C08A
:106A64000DF1350CCDF810C009F03EF99DE70DF19C
:106A7400330CCDF818C00DF1340CCDF80CC00DF169
:106A8400360CCDF814C00DF1350CCDF810C009F05A
:106A940083F98AE70DF1330CCDF818C00DF1340CED
:106AA400CDF80CC00DF1360CCDF814C00DF1350C39
:106AB400CDF810C009F092F877E700BFF0B58FB0B9
:106AC400047E0DF1240C2646447E8CE80E000368F7
:106AD4000B9A1988807EA2F1020C9B780022BDF8E3
:106AE40024E0ADF834108DF833200A0A0A9DC9B2A7
:106AF4008DF836300096CDE901407046BCF1050FA3
:106B040000F28C80DFE80CF02B3E516477030DF12A
:106B1400330CCDF818C00DF1340CCDF80CC00DF1C8
:106B2400360CCDF814C00DF1350CCDF810C009F0B9
:106B3400A7F8179B28469DF833100493169B149CC2
:106B44000393159B9DF8342002939DF83530CDE9CD
:106B540000149DF8361009F077F90FB0F0BD0DF16F
:106B6400330CCDF818C00DF1340CCDF80CC00DF178
:106B7400360CCDF814C00DF1350CCDF810C008F06A
:106B840035FED6E70DF1330CCDF818C00DF1340CF9
:106B9400CDF80CC00DF1360CCDF814C00DF1350C48
:106BA400CDF810C009F036F8C3E70DF1330CCDF879
:106BB40018C00DF1340CCDF80CC00DF1360CCDF825
:106BC40014C00DF1350CCDF810C008F0E3FFB0E7A8
:106BD4000DF1330CCDF818C00DF1340CCDF80CC008
:106BE4000DF1360CCDF814C00DF1350CCDF810C0F4
:106BF40009F07AF89DE70DF1330CCDF818C00DF1CA
:106C0400340CCDF80CC00DF1360CCDF814C00DF1D8
:106C1400350CCDF810C009F0BFF88AE70DF1330C3C
:106C2400CDF818C00DF1340CCDF80CC00DF1360CB4
:106C3400CDF814C00DF1350CCDF810C008F0CEFF1E
