:0200000460009A
:100000004643464200000156000000000101020084
:1000100000000000000000000000000000000000E0
:1000200000000000000000000000000000000000D0
:1000300000000000000000000000000000000000C0
:1000400000000000010406010000000000000000A4
:100050000000800000000000000000000000000020
:100060000000000000000000000000000000000090
:100070000000000000000000000000000000000080
:10008000EB04180AFF1E04320126000000000000E5
:100090000000000000000000000000000000000060
:1000A0000000000000000000000000000000000050
:1000B0000000000000000000000000000000000040
:1000C0000000000000000000000000000000000030
:1000D0000000000000000000000000000000000020
:1000E0000000000000000000000000000000000010
:1000F0000000000000000000000000000000000000
:1001000000000000000000000000000000000000EF
:1001100000000000000000000000000000000000DF
:1001200000000000000000000000000000000000CF
:1001300000000000000000000000000000000000BF
:1001400000000000000000000000000000000000AF
:10015000000000000000000000000000000000009F
:10016000000000000000000000000000000000008F
:10017000000000000000000000000000000000007F
:10018000000000000000000000000000000000006F
:10019000000000000000000000000000000000005F
:1001A000000000000000000000000000000000004F
:1001B000000000000000000000000000000000003F
:1001C000000100000010000001000000000000001D
:1001D000000001000000000000000000000000001E
:1001E000000000000000000000000000000000000F
:1001F00000000000000000000000000000000000FF
:10020000FFFFFFFFFFFFFFFFFFFFFFFFFFFFFFFFFE
:10021000FFFFFFFFFFFFFFFFFFFFFFFFFFFFFFFFEE
:10100000D1002043F1150060000000000000000046
:101010002010006000100060001C02600000000052
:10102000000000600028020000000000FFFFFFFF3A
:10103000FFFFFFFFFFFFFFFFFFFFFFFFFFFFFFFFC0
:10104000FFFFFFFFFFFFFFFFFFFFFFFFFFFFFFFFB0
:10105000FFFFFFFFFFFFFFFFFFFFFFFFFFFFFFFFA0
:10106000FFFFFFFFFFFFFFFFFFFFFFFFFFFFFFFF90
:10140000824205D051F8043B40F8043B8242F9D8AF
:10141000704700BF044A05494FF0000342F8043BFF
:101420009142FBD8704700BFC03E002000E300207F
:1014300008B5BFF34F8F00F085FD544C544B082086
:101440005449C3F85401544AC3F800115348C3F82F
:10145000F0405349FFF7D4FF524A53495348FFF72E
:10146000CFFF534CFFF7D6FF4FF470004FF0E02151
:101470000023504AC1F8880D44F823200133B02BD3
:10148000FAD14D4B80214D4A03F8011B9342FBD109
:101490004FF0E0254A4E4B4A4FF0FF31C5F8084D5A
:1014A000D5F8243D43F4E023C5F8243DF36923F047
:1014B0007F0343F04003F361736A23F07F0343F03B
:1014C000400373629166D1661167516700F042FD77
:1014D0003D4A3E4BA2636322E36300246A61032317
:1014E0003B4AAC612B61C5F8202DD5F8FC2D394B5A
:1014F00042F080723849C5F8FC2D1A6842F00102AA
:101500001A605B680B6000F0F5FE344801F0D8F813
:10151000F16E334B334A41F44051F1661C60C3F81D
:101520000841C3F81841C3F82841C3F83841936B08
:10153000DB0708D442F615632B4951651365936B9D
:1015400043F001039363274A284C936843F0011347
:10155000936000F08DFD01F039F801F085F800F09E
:10156000FBFE00F0F1FC2368132BFCD900F090FF88
:101570002368B3F5967FFBD300F0EAFC00F0E6FCAD
:1015800001F05AF801F080F830BFFDE70C0D11139F
:1015900000800D401B101820B8B1010000000000B1
:1015A0001C280060C03E0020D8D901600000002047
:1015B000003C002031DC000000E400E0A0E400E09A
:1015C00000C00F4000C00A4055D400004DD50000B7
:1015D00000002020001000E0B4E100200046C323FA
:1015E0000040084000400D400000C056B8E1002017
:1015F000054B4FF42A01054A05485A641864054A08
:1016000099639546FFF714FF00C00A40FFAAAAAAF3
:10161000070020000000062010B5002104461C4BE6
:101620004FF0FF3021811A682175C4F81B20F02289
:10163000C4F81510A4F81910C4E903015868C4F8D7
:101640001F009868DB68C4F8230004F12B00C4F87D
:101650002730C4E9001101F01FF800210123A4F88C
:101660002411A4F8263184F82811C4E94711C4E9EB
:101670004B11C4E94D11C4E94F11C4E95111C4E93A
:101680005311C4E9551101F013F8204610BD00BFF5
:10169000E005002010B5044600F0E2FFD4F8543114
:1016A00023B104F5A671032208469847D4F84431C3
:1016B00023B104F59E71032208469847D4F83431CB
:1016C00023B104F59671032208469847204610BDC1
:1016D00070B5044600F0B8FF0F4B05681A782AB9B8
:1016E00000F0B2FF034620461D6070BD206800F088
:1016F000EFFF0022084B22601A7022710028EFD001
:1017000000F09EFF064600F09FFF066000F09CFF81
:10171000034620461D6070BDABE2002070B5754CDD
:10172000236833F0020300D070BD73494FF4803555
:10173000724A4CF20F00CB6E43F44063CB664FF419
:1017400080536F49C2F8E450C2F8E800C2F8E410D0
:10175000C2F8E830D2F8E030002BFBDA69494FF4E8
:101760008030694B4FF23805C2F8E80038204A68EB
:101770004FF4804622F400524A604A6842F4020262
:101780004A6043F238020521C3F87C23C3F884235E
:10179000C3F880535D4DC3F89823C3F86803C3F8BA
:1017A00064034FF62900C3F87811C3F874114FF49D
:1017B00000416A6842F440426A600022C5F888101D
:1017C000C5F88460C3F8A8034BF2E900C3F8A4038A
:1017D0003120C3F8B821C3F8B421D3F8302422F063
:1017E000030242F00202C3F83024C3F89403162027
:1017F000474AC3F8A4013220536C23F07E0343F020
:1018000012035364C5F8841000F04EFF4149424A68
:10181000C5F88860414B48681268A3FB0232920CFD
:1018200002EB820202EB82024B681B1A9342FBD34B
:10183000364B4FF480420220C3F8842000F034FF7E
:10184000334B4FF40001364A59601A645A6810024B
:10185000FCD51A6C4FF4000192B25960B2F5005FEA
:1018600011D130482A4A5960186453681902FCD5CE
:10187000136C4AF240104FF4000123F00F03516043
:101880009BB283421ED0DFF884C04FF480361D48DF
:101890004FF0010EDCF80430184923F44043164A97
:1018A000214DCCF80430436823F400334360C1F881
:1018B000E460C1F8E050D36E23F44063D366C4F80B
:1018C00000E070BD1948124B516010645A68120252
:1018D000FCD54FF4000116480D4A59605960186450
:1018E00053681B02FCD54FF40001032351602360B1
:1018F00070BD00BF8846002000C00F4000800D4032
:101900000120200000C00A4000801F40004000422B
:1019100000802D40001000E04437002083DE1B4390
:1019200000000A6000000E60011001008002625099
:1019300081005E504FF0013340F2011203604360BA
:101940000281704710B5784C2368042B00F0EA80C0
:10195000FFF7E4FE2268032A01D0002010BD734B7C
:101960004BF2E9017248C3F87C13C3F88013C3F843
:101970008413C3F89813C3F88813C3F88C13C3F8FF
:101980009013C3F88C21C3F89021C3F8A821C3F8A1
:101990009421C3F8A021C3F89821C3F89C21A02268
:1019A000D3F82C1441F00101C3F82C14D3F83414EB
:1019B00041F00101C3F83414D3F8381441F00101A7
:1019C000C3F83814D3F83C1441F00101C3F83C14B7
:1019D000D3F8401441F00101C3F84014002100F095
:1019E0005BFEA0220021534800F056FE52490346F8
:1019F000524A4F481360086000F1A00C0346504A59
:101A00004FF4004080215A60203323F81E0C02F569
:101A1000C06223F8161C6345F5D145494FF4806038
:101A2000DFF810E1B1F88230464A0EF1A00C43F421
:101A30000053A1F8823073464FF4B0415A6020330E
:101A400023F81E0C02F5C06223F8161C6345F5D17D
:101A5000BEF8821000223C4B41F400519A60AEF86F
:101A600082103A49C3F884104FF48271C3F8C4104D
:101A70001921C3F8C011C721C3F8C411D3F8441108
:101A800041F48071C3F844112949C3F89021C3F887
:101A900080114FF4C061C3F884E1C3F888111421A8
:101AA000C3F80021C3F8F020C3F8EC10C3F8942168
:101AB000586E274940F000405866C3F81821C3F813
:101AC0001C21C3F82021C3F824219A681140214A1F
:101AD00041F00071996090681F49D0F8080292683F
:101AE00008601E49C2F80812BFF34F8F1C4A4FF41A
:101AF0008021D1601B484FF001011B4A5860BFF3A1
:101B00005B8FD2E84F0FC2E84C1FBCF1000FF8D139
:101B10004FF0807215480421BFF35B8F58621A6141
:101B20005A612160012010BD8846002000801F40BE
:101B3000C03E0020803F0020683700206C37002026
:101B4000001E20200000202000802D4024D1F245DE
:101B50000080FF7D00ED00E0844600206D1D000048
:101B600000E100E00080FF7F8C4600201201007041
:101B700010B40023044C05480549064A236003605D
:101B80000B60136010BC7047904600209446002004
:101B9000984600209C460020F8B1114A40F2DC51E2
:101BA00038B504460F4B10480025A18625630F4920
:101BB000C4E904209A88186843F606236287A3873D
:101BC000C4F83600204600F053FD2046084900F0D6
:101BD0007BFD084B2846636438BD6FF00F007047EB
:101BE000FD540000E04500208D220000E845002063
:101BF000684600209D22000070B584B00E46044661
:101C00000192FFF79FFE019A002838D012B11046CA
:101C1000FFF790FE002C47D0334B1A78154642BB95
:101C200006222146314800F003FD68BB204600F043
:101C300057FDB0B12D4800F03FFD044688B12C4B54
:101C40001B781D46002B34D0284A2A4B10689188F7
:101C50000622C3F83600598783F83C20204604B09A
:101C600070BD00F0F1FC0E2303600024204604B098
:101C700070BD00F039FD00221B4B1A70D6E700F052
:101C8000E3FC13230360F0E7194B1A78002ACDD048
:101C9000284600F0C9FC174800F002FD164800F085
:101CA000DBFC134B1D70C1E702A802AC00F0E8FC9E
:101CB000B2E73146104800F00FFD104B104A29469C
:101CC0000C4800F0E5FC30B10A4800F0ADFC0123FF
:101CD000074A1370C2E7084800F0BEFC00F0B4FCED
:101CE00073230360C1E700BF7E3A0020E045002077
:101CF000A9E200201C460020D8450020BDBB000002
:101D0000991B00600D490E4A087808B5002313603E
:101D1000938018B9BDE80840FFF72ABF184600F0C5
:101D200083FC084800F0BCFC074800F095FC002349
:101D300002490B70BDE80840FFF71ABFA9E2002076
:101D4000E04500201C460020D84500203748384B8D
:101D5000D0F88020DFF8FCC042F44052354900B58D
:101D6000C0F88020344AC3F800C034485A60344A6E
:101D70001862DFF8E4C05A623248334AC3F828C018
:101D8000DA6246F6201218635963996340F6A3118C
:101D9000D868DFF8C8E000F07F40DFF8C4C0024335
:101DA00040F6C410DA609A686FF30F021143274AB5
:101DB0009960D9696FF3150141F4C841D9619969F6
:101DC0006FF3150141F4C8619961196821F48651D6
:101DD0001960196801EA0E0EC3F800E04FF0000E1A
:101DE00019680A401A4942F002021A605A696FF3F0
:101DF000090242F03F025A611A6992B242F0486207
:101E00001A611A696FF30F0210431861D3F8A0200A
:101E100022F00202C3F8A0201A6802EA0C0CC3F8F0
:101E200000C0DA6F1B6CC1F800E000BD00C00F40BD
:101E300000C00C402F002E002200010068050C019C
:101E40009501B2004B0040007D005800BCEFFFFF41
:101E5000D045002040100100DC007A00B3EFFFFF06
:101E6000BFEFFEFF084A094B11680B4043F4803373
:101E7000136013689B04FCD5054AD2F8803023F424
:101E80004053C2F88030704700C00C40BFEFFEFFE7
:101E900000C00F40294A00210123C2F8A000C2F867
:101EA000A410C2F8B0305369D907FCD501234FF410
:101EB000803C22495361C2F8A000C2F8A4C0C2F815
:101EC000B0304B69DB07FCD501234FF4003C1B4AC3
:101ED0004B61C1F8A000C1F8A4C0C1F8B03053698B
:101EE000D907FCD50123DFF858C014495361C2F863
:101EF000A000C2F8A4C0C2F8B0304B69DB07FCD523
:101F0000D1F8003145F60D504FF0210C9AB2C1F8CE
:101F100014C0824210D045F69D518A420AD1C3F3C3
:101F20004253032B08D0A3F10403B3FA83F35B09F4
:101F300018017047002070470820704700402A4071
:101F400004000300704700BF704700BF704700BF28
:101F500000BF70474FF0E02300214FF0100C3448D1
:101F6000C3F8941DC3F89CCD4FF0110CC3F8A00D1D
:101F70003048C3F89CCD4FF0120CC3F8A00D2E488A
:101F8000C3F89CCD2D4AC3F8A00DDFF8D0C042F0B5
:101F900015022B48C3F89CCDC3F8A00DDFF8C0C0D4
:101FA0002848C3F89CCDC3F8A00DDFF8B8C0C3F82B
:101FB0009C2D2548254AC3F8A0CDC3F89C0DC3F835
:101FC000A02D02F5A022DFF8A0C00C322048C3F8F3
:101FD0009CCDC3F8A02D1F4AC3F89C0DC3F8A02DBB
:101FE00002F14062DFF884C002321B48C3F89CCD86
:101FF000C3F8A02D0A32C3F89C0DC3F8A02D00BF72
:1020000000BF00BF00BF00BF0122C3F8942DBFF383
:102010004F8FBFF36F8FC3F8501FBFF34F8FBFF3C6
:102020006F8FD3F8142D42F44032C3F8142D70474B
:102030003F000010250008070900100000E3002001
:1020400021000207250008131600202027000B138B
:10205000180000602F000B071A00008013002000FA
:102060001400002009000010170000401900007043
:1020700030B5864B85B0DFF874E21822844D01201C
:10208000C3F85CE28349C3F86052A5F58055DFF8D8
:1020900060C2814CC3F864E2C3F868522125C3F8DA
:1020A0006CC2C3F870C2C3F874C2C3F878C248F2F5
:1020B0000C7CDA661A675A679A67DA67C3F8802079
:1020C000C3F88420C3F88820C1F82C03734AC1F8F0
:1020D0003003C1F83403C1F83803C1F83C03C1F838
:1020E0005003A1696E4B0A406E486F4913436F4A13
:1020F000A361D4F8843043F00C03C4F884304FF06B
:10210000FF34036843F002030360036803EA0C032F
:102110001A43674B026044608A68664C1340664A03
:1021200043F000538360C36823F07803C360036AFD
:1021300023401A43604B0262026A22405F4C134301
:10214000002243628462C46240F20564D1F8B83070
:1021500023F03F0343F00103C0F8B830D1F8BC309E
:10216000574923F03F0343F00103C0F8BC3002613C
:102170000567C0F880404567C0F8844002240368C2
:1021800023F00203036081614E4B4F49C46143F861
:10219000042B8B42FBD1434C236843F001032360A3
:1021A000256815F00105FBD14548022240F2F56192
:1021B000A06140F29940E26140F26642C4F8001228
:1021C00042F20141C4F81022404AC4F82002C4F887
:1021D000302240F23542C4F834123D48C4F840225F
:1021E0003C4AC4F850022846C4F8542242F2012264
:1021F0003949C4F86012C4F86422FFF74BFE024666
:10220000002839D0810201234FF48020216625491E
:10221000C4F8A050C4F8A400C4F8B0304B69D80783
:10222000FCD515050124039228464C61FFF732FEC8
:10223000039A2A4B0244D2B21A7080B11949800223
:102240004FF4802348660846C1F8A050C1F8A43076
:10225000C1F8B0404369DB07FCD501234361204945
:102260000024204801230094401A00EB02521E482B
:1022700000F002FA05B030BD1B4B18491860087019
:10228000D860C3E9010005B030BD00BF00801F4029
:10229000F910010000841F4000C00F40FFFCFF1F29
:1022A0000003008000402A4000802A401200FFFF07
:1022B000FF37F70000FFF07C40000080FF000F8335
:1022C000F05AF05A00422A4000432A409F04183036
:1022D000EB06180A063201263806180AB6E2002074
:1022E000000000700000007018500020F9B00100DC
:1022F000F970010010B5174A4FF480544FF4005E96
:102300004FF4404C4FF4803043F24201136913F014
:10231000020F0DD113F4005F0FD013F4805F0FD0C4
:10232000002BF3DA13F4803F0CD15B060ED510BD01
:10233000C2F818C050619161E8E7C2F814E0E5E71F
:102340005461E3E74FF480339361DFE74023536147
:10235000DCE700BF00800D40414A03204149F3EE15
:10236000095AD2F880309FED406A23F001039FEDB7
:102370003F5ADFF814C100B5C2F88030C2F89000AF
:10238000D1F8E010DFF804E1CBB23948CEF80030E4
:1023900007EE903A0B0DC1F30B21F8EEE77A06EE4B
:1023A000903A07EE101A334BB8EEC77ACCF800100B
:1023B000F8EEE66A304937EEC66A37EEC55A76EE71
:1023C000C76A77EEE57A26EE266AC3ED006A25EE47
:1023D000265AD2F8803067EEA64AC0ED007AC6EEE3
:1023E000275A264885EE276AC4EEA76A75EE875AF3
:1023F000FCEEE55A36EE076A15EE90CABCEEC66AE8
:1024000043EA0C5376EE877AC2F8803016EE103A23
:10241000D2F890C1FCEEE77A01EA034141EA0C01EF
:102420004FF0000C17EE903AC2F89011C3F30B0373
:10243000D2F890110B431249C2F89031D2F8803093
:1024400043F00203C2F880300E4B80F840C0C1F860
:1024500040314FF0E0230122C3F8082100BD00BF46
:1024600000810D4000441F400000AA420000B44219
:1024700098E100209CE100200000FF0F00E400E054
:10248000003C002011DE000090E1002094E10020DB
:10249000314B40F6617210B5C3F8202140F204447C
:1024A00000F0D6F82D4A2E49D2F880302D4843F05E
:1024B0000303C2F880302C4BC1F8604102681A4215
:1024C00003D1D1F8A8319A071BD0254A4FF000411B
:1024D000244B5963D2F8403143F00203C2F8403133
:1024E000D2F840319B07FBD44FF400304FF0E0218D
:1024F0001C4B4FF00042C1F88C0219209A6300F087
:10250000D3F8184B0021164C4FF080420A209A63F2
:102510004FF420721960C4F8A801144800F0BCF808
:102520004FF4800203464FF4810040F243111860DB
:10253000C4F858311A640E4B0E4AC4F84811C3F857
:1025400004224FF0E0224FF400310123C2F80C11B5
:10255000C4F8403110BD00BF00800D4000C00F40E6
:1025600000002E4000900D40001C1E0000000020C6
:10257000003C002015E0000008B50E4B1B6E9B07C9
:1025800000D4FBBE72B60C4B00200C4AC3F84001CD
:1025900003F160430A49A3F55F2311649D46BFF32D
:1025A0004F8F4FF40013074A0748DB6902609B68AE
:1025B000984700BF00441F4000002E4000C00A4062
:1025C00003002000000012EB008020200F4B40F29F
:1025D000376C0F4AA020D96E41F44031D966D96ECC
:1025E00041F44071D966C2F844C09064936C1B06F4
:1025F000FCD4084A40F23761A02351649364936C81
:1026000013F08003FBD1044A1370704700C00F40E1
:1026100000400C4000800C40B1E20020F8B500BF43
:10262000F8BC08BC9E4670475FF800F0316C0000B3
:102630005FF800F01D2701005FF800F01530010081
:102640005FF800F0452400005FF800F00930010059
:102650005FF800F081E700005FF800F06D6F0000A8
:102660005FF800F0D50C00005FF800F0B9F0000052
:102670005FF800F0754700005FF800F01DF2000001
:102680005FF800F0991D00005FF800F075DA0000B7
:102690005FF800F0A57200005FF800F0C5280100A7
:1026A0005FF800F02D6D00005FF800F075D90000B4
:1026B0005FF800F0B12300005FF800F09D1D0000FE
:1026C0005FF800F061D600005FF800F029360000E6
:1026D0005FF800F0DD2400005FF800F0F56E000008
:1026E0005FF800F0CD1D00005FF800F0013600003B
:1026F00045000000C5030000550E0000451B00000A
:10270000511C0000D91C00002D23000095BF0000C3
:04271000A1F4000030
:102714001603550053004200200053006500720068
:10272400690061006C000000180354006500650036
:102734006E00730079006400750069006E006F001C
:102744000403090409026200030100C032080B00FB
:102754000202020100090400000102020100052432
:1027640000100105240101010424020605240600C9
:10277400010705820310001009040100020A000089
:102784000007050302400000070584024000000919
:1027940004020002FF6AFF000705810240000107EE
:1027A400050102400001000009026200030100C0AB
:1027B40032080B00020202010009040000010202B7
:1027C400010005240010010524010101042402066E
:1027D4000524060001070582031000050904010011
:1027E400020A000000070503020002000705840234
:1027F4000002000904020002FF6AC7000705810203
:102804000002010705010200020100000A0600029D
:08281400EF0201400100000089
:10281C0000000000000000000000000000000000AC
:10282C00000000000000000000000000000000009C
:10283C000548064B1B1AD90F01EBA301491002D016
:10284C00034B03B118477047C03E0020C03E002028
:10285C000000000008B5054B1BB105490548AFF356
:10286C000080BDE80840FFF7E3BF00BF0000000098
:10287C00C0800020002802600A4A1368013B1360E4
:10288C0003B1704700B5084A83B0CDE90030106839
:10289C001AF032FF0199044A009B0846136003B0FA
:1028AC0000BD00BF6C420020704200200A4A136831
:1028BC00013B136003B1704700B5084A83B0CDE902
:1028CC00003010681AF014FF0199044A009B084666
:1028DC00136003B000BD00BFD0430020D4430020E0
:1028EC002DE9F04FDFF81C82ADF2246D6E4ED8F856
:1028FC00005034682C1B03D10DF2246DBDE8F08F11
:10290C006A4B28AFD3F800903846494600F044FE95
:10291C00674B1B78002B00F0B880664B664A2593FA
:10292C00664B1B78002B00F0AD80624B2693BB7975
:10293C00484627922393FB7997F804A097F805B0A3
:10294C00249300F021FE279A002800F09880DFF8ED
:10295C0064E107EE904A5A4CDFF8AC91E068B8EEAF
:10296C00676B584B0F90D9F80070DFF8A0C1149723
:10297C001B68FB1A544F07EE103A544B9FED485B03
:10298C00B8EE477B1B68C31A514827EE057B87EED0
:10299C00064B07EE103A4F4BB8EE477B27EE057B04
:1029AC0087EE065B8DED184B8DED165B1B68209347
:1029BC00494B1B681F93494B1B681E93484B1B6864
:1029CC001C93484B1B681B93474B1B681A93474B34
:1029DC001B6815933B681D93E3691393A3691293CA
:1029EC006369119323691093CDF81CE02499CDF8F9
:1029FC000CA0069123993E4BCDE904B12699029186
:102A0C002599CDE90021A2684FF4AF610E92DCF854
:102A1C0000200D9202682AA80B92D3F88820099204
:102A2C00D3F88430334A0A932368089363680C9371
:102A3C00214B12F097F982460EF0A0FE2E4B1B781C
:102A4C0073B12E4B1B78DB070AD52D4AD8F8003012
:102A5C0012689B1A0E2B03D90EF01EFE824517DD51
:102A6C003B6801333B60E368184A35601360D9F862
:102A7C000030144A13600DF2246DBDE8F08FDFF8BE
:102A8C0038E066E70C4B269351E70B4A259247E753
:102A9C0051462AA80EF0F6FDE5E700BFAFF3008023
:102AAC000000000000408F4058500020A446002039
:102ABC00B0E2002080030020880300207F3A002031
:102ACC00E8800020DC800020E4E10020D880002099
:102ADC007C8000206C4B0020744B0020704B00203D
:102AEC007880002080800020ACE100202C4B00205E
:102AFC00E8E1002090030020C6E20020C5E200209F
:102B0C0080E20020B8E10020B0E100202850002035
:102B1C00F0B5402483B0274D274E284F0DE0511CB3
:102B2C00274B2F2929D893F800C0BCF1000F24D1D2
:102B3C00244B29609854013C1DD00EF039FDD0B1C6
:102B4C000EF07CFD2A68C0B20A2801D00D28E6D10F
:102B5C001B4B4FF0000C1B49187801F802C028B928
:102B6C000A68B2420CD00A68BA4215D00022013C65
:102B7C002A601A70E1D103B0F0BD01221A70DAE7B5
:102B8C000A79002AEFD110498A65A1F8692081F8E9
:102B9C006B200E490A70E9E70D4A45F25531108851
:102BAC008842E3D19278002AE0D10193FFF798FE96
:102BBC00019BDBE7E446002053544F5053544154DF
:102BCC00ADE20020E8460020E8E00020B0E2002062
:102BDC00EC4600201B4B19684A1C10B51A60C9B191
:102BEC00194A1A491A480EF061FF1A4A1368591CFF
:102BFC00116003B3144A184918480EF057FF6021AE
:102C0C00174801F087FA104A16491548BDE81040DC
:102C1C000EF04CBF144C4FF4EE72144812F05AFAEA
:102C2C002046883401F006FC114B9C42F8D1114B24
:102C3C000E4A1A60D4E7104C20461AF04DFD0F4B8B
:102C4C001C60D7E7D0430020A03700209D00000077
:102C5C00BC4600206C42002069000000A846002001
:102C6C00E8E10020711500001C440020D84300202E
:102C7C00B4450020D4430020744200207042002050
:102C8C002DE9F8431B4D40F2EE281B4C1B4FDFF88F
:102C9C0080902E680EF072FD2378EBB13B78DB0749
:102CAC001AD52B68D9F800209B1A0E2B14D9144B6B
:102CBC0014491C68204600F0B9FC204600F0E6FBE5
:102CCC0041F63611104801F009FB00380F4B18BFC4
:102CDC0001201870BDE8F8832B6822789B1B2AB161
:102CEC00B3F5FA6FE3D80EF049FDD3E74345FAD9B3
:102CFC00DDE700BFB8E10020C6E20020C5E20020FD
:102D0C00A4460020CC050020E8E10020B9E2002018
:102D1C0080E200202DE9F04F89B08A4C0DF088FA42
:102D2C00894B80461B681846039300F0AFFA237852
:102D3C00002B00F0D780854FFFF7EAFE8025844CEE
:102D4C00844E07F5C04ADFF84092CDF8088005E0C4
:102D5C00814A136801331360013D6DD0236B20460B
:102D6C0032689A4238BF336000F08EFE002863DB75
:102D7C00F2D0214606A800F02DFD079B4B45E7D16C
:102D8C00A36DD4E910820193A2EB080B3A68BBF156
:102D9C00110F02F101023A6048DD08226F494046EA
:102DAC0012F0C4F8002841D198F80820002A3DD12F
:102DBC0098F80920502A39D198F80A1098F80B2065
:102DCC0002EB01220D2A31D998F8101098F8112035
:102DDC0002EB0122911EB1F5FF7F27D8D30725D432
:102DEC0002F112018B4521D198F90F1098F80F00C0
:102DFC0000291BDB98F80E104FF0AA0E01EB0023F4
:102E0C00574901F12A0BB1F800C0A3EB0C00634544
:102E1C000EFB00FC03D348888445C0F0B780063114
:102E2C005945F0D1BB680133BB6095E77B68013D28
:102E3C0003F101037B6091D14A4ADAF85830DDF88E
:102E4C000880146823B1DAF85C30E31A642B3DD89F
:102E5C00DAF86430E31AB3F57A7F02D90023AAF8C2
:102E6C006A30414D2B78002B46D10DF0E1F93F4BE8
:102E7C0029781B68C01AC9B148F23523984203D986
:102E8C009AF86930002B50D10DF0D2F9384BA0EBE9
:102E9C0008001A68824238BF1860364B1B68E41A67
:102EAC00B4F57A7F19D209B0BDE8F08F324D2B788A
:102EBC00012BE9D046F64B039842E5D943F21B02AD
:102ECC002E4812F007F901232B70DDE73B69013323
:102EDC003B610023CAF85830BAE709B0BDE8F04F9F
:102EEC00FFF7FEBC41F63611194801F0F7F900382E
:102EFC0018BF012020701EE7039800F045FB58B165
:102F0C001F4B1B68E31AB3F57A7FAED9DAF8603041
:102F1C00E31AB3F57A7FA8D900232B70CAF858307E
:102F2C00AAF869308AF86B309FE743F21B02154907
:102F3C0012480DF0B1F900230F4A8AF8693013706A
:102F4C00A2E700BFB9E20020A4460020E8800020E0
:102F5C00E8E100207C800020285000207403002031
:102F6C00C4270020B8E10020B0E20020A8E1002036
:102F7C0078800020585000207F3A00205C500020C0
:102F8C00384A002023B100200A00007DA0EB0C0081
:102F9C0000EB4000B0F5FF7F28BF4FF4FF7082427A
:102FAC008646FFF443AF8A880592DAF858205AB166
:102FBC00DAF85C2001998A1A642A05D93A69013237
:102FCC003A610022CAF85820DAF8642001998A1A6A
:102FDC00B2F57A7F7BD90022AAF86A2098F80CB057
:102FEC00BBF1000F4FD0DAF858202AB13A69013200
:102FFC003A610022CAF8582001228AF868B0AAF86F
:10300C006A20A3F17802012101FA02F3DAF85820C0
:10301C001A42049357D1002A4DD005987246484B5A
:10302C0008F11201604400EB400018440DF034F933
:10303C0007F5C043019A04995A669A6D0A434149AF
:10304C008A429A657FF488AE93F8693013B1FB69B4
:10305C000133FB6143F21B0239493B480DF01CF96B
:10306C00019BCAF86030BBF1000318BF01238AF83A
:10307C006B30FB680133FB600023CAF85830012326
:10308C008AF8693068E6A3F17802012101FA02F3AB
:10309C00DAF858200493049B002112EA0300AAF8E2
:1030AC006A1046D0BA698B46CAF858100132BA6118
:1030BC003A6901323A61019BCAF85C30ADE79AF883
:1030CC006B20002A9DD0BB690133BB6144E698F8A4
:1030DC000CB09AF86A10BBF1000F16D0002982D000
:1030EC009AF868209345EAD0ABEB0202FF21FF323D
:1030FC00B2FBF1F1C1EB0121521A7F2A1BD8DAF88D
:10310C005820002A3FF475AF70E7A3F17802012034
:10311C0000FA02F3DAF8582004930029BBD012B15C
:10312C003A6901323A610022CAF85820AAF86A209A
:10313C00C1E783466FE77B6901337B610CE600BF17
:10314C0008810020FFFFFB1F23B1002090F81CC05A
:10315C004160BCF1020FC26001D1836818470CF0CA
:10316C0015BD00BF10B5074B82B003600190EFF3A3
:10317C00108472B60CF0C0FD019804B962B602B0AE
:10318C0010BD00BF6029002010B5244C84B0D4F8C9
:10319C0000C0DCF81C31834201D004B010BD0B46DA
:1031AC00590714D5DCF8341189B182B111780CF5BA
:1031BC00967001930039DCF83831009218BF012168
:1031CC008DF80F100DF10F019847DDE9002313F076
:1031DC00F00F0CD02068D0F8441141B1D0F8481150
:1031EC0000F59E70CDE900328847DDE900321B07FF
:1031FC00D3D52068D0F85431002BCED0002ACCD0B7
:10320C0013780DF10F01D0F8582100F5A670003B92
:10321C0018BF01238DF80F309047BEE7A44600205D
:10322C00184B70B51D68044601F068FC01F010FDE8
:10323C002B69C01A7C2814D82368134A1B68934244
:10324C0019D1227F0023022A6360E36004D1A368B2
:10325C002046BDE8704018472046BDE870400CF091
:10326C0095BC01F061FC01F0F3FC2368064A1B6875
:10327C0028619342E5D0002220461146BDE87040FB
:10328C00184700BFA44600203D09000010B50446B5
:10329C0001F034FC01F0DCFC2369C01A7C2800D856
:1032AC0010BD01F041FC01F0D3FC206110BD00BF4A
:1032BC00D0F81C1109B10B6843B990F8262112B152
:1032CC0090F828314BB10122104670474FF00003A3
:1032DC000122A0F827311046704710B582B0CDE915
:1032EC000002084603F088FE0121009B0028019A89
:1032FC0083F8271118BF002183F8281102D110463A
:10330C0002B010BD01F0A6FC044612F085FA009B39
:10331C0093F828210460F2E770B5044682B0C068C7
:10332C0001F09AF901F082F9002870D0D4F81C0150
:10333C0028B106F099F9D4F81C0106F0CDF801F08B
:10334C00D1FBC4F81C0190F83E3084F8203190F881
:10335C003F3084F8213190F84030092B4FD9632B42
:10336C008CBF03250225404A042104F5917011F00D
:10337C00F9FC854269D1237D04F11505002B40D061
:10338C0022463A4928461AF0ABF938B9C4F81C0160
:10339C0084F820010025284602B070BD284601F0B3
:1033AC00A9FB054600283BD0E27ED4F81C01002A7C
:1033BC0032D008B11B34046306F054F82C4A13784D
:1033CC00002BE8D14FF001061670EFF3108100913D
:1033DC0072B6284C019320460CF08EFC2648274AE6
:1033EC000099A2600278267742F00402027011B3B1
:1033FC00019B6360E3601F480CF0C8FBCBE7012521
:10340C00B1E7284601F072FB01232375B8E712F0EF
:10341C0003FA13230360BDE70028CDD00263CBE78A
:10342C001AF056F9C4F81C5184F8205112F0F4F932
:10343C000E230360AEE762B6227F6160022AE16070
:10344C00D9D1A26820469047A5E70D4B4FF49F7247
:10345C000C490D4811F072FC002011F037FB0120D3
:10346C0001F082FB0DF0DAF8F0050020790900007C
:10347C00ACE2002070370020C9E20020110A0000E5
:10348C00F40500204806002070060020144B10B5EF
:10349C00044684B05B68D0F81C010393CDE901337A
:1034AC0018B113B194F828319BB92046FFF734FFBB
:1034BC0068B10B4900200BF09BF8D4F81C0103AB4E
:1034CC0002AA01A906F0BCF92046FFF7F1FE04B0F0
:1034DC0010BD03F0D1FE002384F82831E5E700BFCE
:1034EC0038420020D0F81C31002B42D0214B1A78E6
:1034FC0010B5044682B05ABB1F4B186800F07CFF15
:10350C001E4900200BF074F894F82831D4F81C01F3
:10351C00C3B91B4B1A46194606F092F90023D4F88E
:10352C001C0184F8273106F09FF8D4F81C0105F033
:10353C00D3FF1AF0CDF80023C4F81C3184F82031E5
:10354C0002B010BD03F098FE002384F82831E5E7A3
:10355C0000220C481A700CF087FBEFF310830193D8
:10356C0072B608480CF0C8FB019B002BC4D162B6A4
:10357C00C2E77047ACE20020D4450020384200205E
:10358C00502F002070370020D0F81C0118B190F893
:10359C003D00C0F380007047D1F81C3123B11A688C
:1035AC00044BC0E900327047034B024A5B68C0E928
:1035BC00002370479429002038420020D0F81C01C9
:1035CC0010B582B040B14B6801A9019304F03CFEE8
:1035DC0048B9012002B010BD12F01EF9732303602C
:1035EC00002002B010BD01F035FB044612F014F9B6
:1035FC000460F5E7D0F81C0110B582B040B14B68FF
:10360C0001A9019304F076FE48B9012002B010BD67
:10361C0012F002F973230360002002B010BD01F018
:10362C0019FB044612F0F8F80460F5E738B500F120
:10363C001B058D4210D00B46044671B1084A4FF45D
:10364C008071284611F08EFBD4F81C3123B1E27E38
:10365C00002A08BF15461D6338BDC176F4E700BFCC
:10366C00980600201E4B00201E4A196810B51E4CEF
:10367C00C2E900404A1C1A60C9B11C4A1C491D48C9
:10368C000EF014FA1C4A1368591C116003B31B4C3E
:10369C00164A1B491B480EF009FA24681A4B134AA8
:1036AC001C601A491A48BDE810400EF0FFB9194CBD
:1036BC004FF4EE72184811F00DFD2046883400F0DE
:1036CC00B9FE164B9C42F8D1154B134A1A60D4E73D
:1036DC0014481AF001F8094C124B2360D8E700BFCC
:1036EC00D04300203842002094290020A03700202D
:1036FC009D000000C04600206C420020704200205B
:10370C0069000000AC460020A446002055090000CA
:10371C00703700201C440020D8430020B445002002
:10372C00D443002074420020B0F8500080B270479F
:10373C00406900B1807A7047406900B1C07A704727
:10374C00704700BFC26D002A06DBD0E91003181ABF
:10375C00824201D2801A704700207047C36D002B43
:10376C0008DBD0E91012521A934203D25A1CC265DC
:10377C00C85C70474FF0FF30704700BFC36D002B23
:10378C0006DBD0E91012521A934201D2C85C704782
:10379C004FF0FF30704700BF10B50446406930B1A0
:1037AC00A37E2BB90AF088FD00236361238310BD2F
:1037BC00064B04F11C011868FFF71CFF044B002298
:1037CC0060695B68A2762362ECE700BFA446002028
:1037DC004042002010B5044601F14C0001F036FACD
:1037EC00024B02462046C4E9003210BD9429002049
:1037FC0090F8603053B14FF6E272D0E91A135B1AAD
:10380C00934203DC4FF6E370C01A704700207047F8
:10381C000AB3C36D002B1EDB30B5D0E910E483B0C6
:10382C00A4EB0E0C634518D2ACEB030C0C4605460E
:10383C00624528BF624649B1012A0EEB03010FD045
:10384C002046019211F0B4FBEB6D019A1344104623
:10385C00EB6503B030BD00207047002003B030BDD5
:10386C001EF803302370C36DF0E700BF90F8603092
:10387C00ABB14FF6E27CD0E91A23F0B515469A1A93
:10388C0083B0624502DD002003B0F0BD046FA3429B
:10389C0007D01970C36E0133C3660120F4E71846D4
:1038AC007047012A2CBF9318531C074601911846E8
:1038BC001E4600920CF08AFD0346DDE9002181547E
:1038CC007AB9013228461A4435B1611BCDE900237F
:1038DC000CF080FDDDE900239919C7E91A3239672C
:1038EC00DBE7294601900CF0D7FCDDE90023E8E783
:1038FC009A4275D02DE9F04FA3EB020816464768A3
:10390C0083B082680D4604469146D21B904525D85B
:10391C007A1A9045914664D2A7EB08023B46511E99
:10392C00C2EB470C11F8010F03F8010B6345F9D1F9
:10393C00636843446360AB1A521BF818012A71DDAB
:10394C00294611F035FBB8F1010F67DD42463146CF
:10395C00284603B0BDE8F04F11F02ABB03686FF0A6
:10396C0000429A46FB1AD11A884561D898452CBF5B
:10397C004344DB18934228BF1346184601930CF0BE
:10398C0025FD5545034683460AD0A5EB0A000AF1EE
:10399C00FF32184412F8011F03F8011B8342F9D1BE
:1039AC003146424618460CF077FCBD4200EB080647
:1039BC0006D07F1B304629463E443A460CF06CFC40
:1039CC00BAF1000F04D0A9EB0A0150460CF002FD2D
:1039DC00019B5B44C4E900B6A36003B0BDE8F08F63
:1039EC007047B1185A1A002A20DD38460CF054FCE6
:1039FC006368A8EB0908BD424344636009D06A1EA2
:103A0C0003EB090012F8011F03F8011B8342F9D1E3
:103A1C0063684A464B44012A636098DCDDD13378F5
:103A2C002B70DAE78FD12A78FA548CE73B46E0E723
:103A3C0001480EF059F800BF9C060020002A18BF60
:103A4C00002910B514D090F86030012B10D1944699
:103A5C000A46C16E4FF6E37450F8683FCB1AE41A6D
:103A6C00644528BF64461319FFF742FF204610BD7A
:103A7C000024204610BD00BF406800B1807A70471A
:103A8C00406800B1C07A70474369002B4FD0294B76
:103A9C0030B5044689B01868FFF7F8FB216B002994
:103AAC003FD0A36B013900202163591C4FEA431E00
:103ABC00D4E909C2A2EB0C020CEB43135211B1FB7B
:103ACC00F2F502FB15119A8ADD68A163ADF814209A
:103ADC003CF80EE05968D86058609A68986018698C
:103AEC0004909869DB690690206C0793A4F83CE07D
:103AFC00A36CA564C4E9101220B1191A0CF06AFC6D
:103B0C00D4E91012BDF81430501A0499A4F85030AE
:103B1C00E164DDE9063263650023A265E36509B063
:103B2C0030BD4FF0FF334FF0FF30E365F7E74FF058
:103B3C00FF307047A44600200AB3C36D002B1EDB78
:103B4C0030B5D0E910E483B0A4EB0E0C634518D269
:103B5C00ACEB030C0C460546624528BF624649B1E6
:103B6C00012A0EEB03010FD02046019211F020FA2E
:103B7C00EB6D019A13441046EB6503B030BD002089
:103B8C007047002003B030BD1EF803302370C36DA6
:103B9C00F0E700BF436913B101209972704700B57B
:103BAC0083B0CDE900012E200AF0CEFB009A03462B
:103BBC000199506118B10120997203B000BD064AF9
:103BCC0000901068FFF762FB11F026FE0C210246F4
:103BDC0000981160F1E700BFA4460020436913B1BF
:103BEC000120D972704700B583B0CDE900012E20B9
:103BFC000AF0AAFB009A03460199506118B1012002
:103C0C00D97203B000BD064A00901068FFF73EFB66
:103C1C0011F002FE0C21024600981160F1E700BF82
:103C2C00A4460020436813B101209972704700B577
:103C3C0083B0CDE900012E200AF086FB009A0346E2
:103C4C000199506018B10120997203B000BD064A69
:103C5C0000901068FFF71AFB11F0DEFD0C210246F4
:103C6C0000981160F1E700BFA4460020436813B12F
:103C7C000120D972704700B583B0CDE900012E2028
:103C8C000AF062FB009A03460199506018B10120BA
:103C9C00D97203B000BD064A00901068FFF7F6FA1F
:103CAC0011F0BAFD0C21024600981160F1E700BF3B
:103CBC00A446002010B54C6882B04169034669B136
:103CCC00A3F8782001225C6783F86020D3E91A10EE
:103CDC008142104618BFD96602B010BDCDE9000272
:103CEC002E200AF031FB009B019A58610028E7D185
:103CFC00054B00901868FFF7C9FA11F08DFD0C22E6
:103D0C00034600981A60E7E7A446002030B500236C
:103D1C0085B0044608461849154641F28832CDE96B
:103D2C00021302A90AF0F0FC08B905B030BD6369B2
:103D3C00039A6BB16267A4F87850D4E91A318B42BC
:103D4C0018BFE3660123184684F8603005B030BD17
:103D5C002E2001920AF0F8FA019A60610028E9D14C
:103D6C00064A01901068FFF791FA11F055FD0C21ED
:103D7C00024601981160D8E794290020A44600203F
:103D8C001E4B70B503F16802054640692B602A6131
:103D9C0018B1AB7E23BB0AF08FFAA86E18B1296F4D
:103DAC00091A0CF017FB286C18B1A96C091A0CF045
:103DBC0011FBD5E90946B4420AD0636818461BB119
:103DCC00E168C91A0CF006FB2034A642F5D16E6AE4
:103DDC0026B1E96A3046891B0CF0FCFA284670BD06
:103DEC00074B05F11C011868FFF704FC054B00227A
:103DFC0068695B68AA762B62CDE700BFF8290020C2
:103E0C00A44600204042002010B50446FFF7B8FF3E
:103E1C008C2120460CF0DEFA204610BD2DE9F04F27
:103E2C0089B0BDF848A0002947D09B4616460546E8
:103E3C000F46002A00F08E8000F00AFF0190D5E9B1
:103E4C000931D5E90C02C91A4FEA4219B0EB611FCE
:103E5C004FEA611C03EB421432D00130286301326B
:103E6C000021B2FBFCF00CFB10226A6323F8091052
:103E7C00D4E901829045464A126818BFC4F80880FC
:103E8C002261A2610022A282E2613289029222BBEB
:103E9C00DBF800203046019922613E4AA4F814A0B8
:103EAC005269E161A2617A8923F8092005F044FF87
:103EBC00D5F888300133C5F8883009B0BDE8F08FEB
:103ECC00A86BD5F8841001300131C5F88410B0FB13
:103EDC00FCF10CFB1100A863C1E7E268211D0298FC
:103EEC00A2EB08020391A1689042059216D8DDF866
:103EFC000C8002952546039634461E4600E0A968C0
:103F0C006268404663891344FFF7F2FC2468002C76
:103F1C00F5D133462C46DDE90256B9E7A1EB080290
:103F2C00079304920CF052FA049A079B0690F2B98C
:103F3C00B8F1000F05D00599404607930CF04AFAEA
:103F4C00079B06980499029A014460600244C4E9F4
:103F5C000212CCE740690028AFD0AB7E63B90AF0FF
:103F6C00ABF900236B612B8309B0BDE8F08F4146A0
:103F7C000CF092F9079BDBE7074B05F11C01186865
:103F8C00FFF738FB054B68695B68AE762B62E6E79A
:103F9C00502F002040500020A4460020404200201A
:103FAC000EB400B582B003AA52F8041B019210F0B3
:103FBC0077FF02B05DF804EB03B0704790F8603007
:103FCC00002B6FD0D0E91A3170B5C91A84B00446F1
:103FDC00B1F5803F80F284808BB24FF42072382090
:103FEC001946039305F012FF054600285CD0D4E96E
:103FFC001A12914203D0039A06F04CF968BBB4F83C
:10400C00783004F17402294660699BB20AF0B2F868
:10401C000023A26E064684F860302846A4F864306B
:10402C00E36E9A42364B18BFE26600221B68A4F876
:10403C0078206367C4F88020E36705F07DFE16B92D
:10404C00012004B070BD304600F004FE044611F0AF
:10405C00E3FB0460002004B070BD0390284605F01B
:10406C006BFE0022039B84F86020A4F86420244A91
:10407C0003931268D4E91A10626781422148E267FF
:10408C0018BFE16600210068A4F87810C4F880100D
:10409C00FFF7FCF8039800F0DDFD044611F0BCFBC3
:1040AC000460D7E700207047D4E91A3215499342CF
:1040BC004FF0000284F8600018BFE366104BA4F8C0
:1040CC0078201B68A4F864006367E3670868C4F889
:1040DC008020FFF7DBF811F09FFB0C230360B9E79E
:1040EC00094C40F29513094A09490094FFF758FF0F
:1040FC00002010F0EBFC012000F036FD0CF08EFAE5
:10410C00502F0020A4460020CC060020B40600202E
:10411C0070060020F8B54FF47A720024294B01295F
:10412C000E46047338BF01260360B1F1806F04831F
:10413C008476C0E9014203F16802234BC0E90424F0
:10414C00C0E907343AD2054670010CF03FF91F4F15
:10415C0000EB461603466862EE62202200211846E8
:10416C0010F0B8FF03463A684FF000012033848208
:10417C000261B342C4618261EFD1AB624FF0FF3395
:10418C00A5F850402846AC652C63A5F87840AC8760
:10419C006A65EB6585F86010A5F86440EA67C5F8B8
:1041AC008040C5E90D44C5E91044C5E91242C5E992
:1041BC001A44C5E91C42C5E92144F8BD04480DF078
:1041CC0093FC00BFF829002094290020502F0020D8
:1041DC002407002030B51546027E044683B00B46FA
:1041EC004069002A32D0428A8A4202D1627EAA42B7
:1041FC0029D0A27E002A41D101930AF05DF8002259
:10420C00019B626122832E2001930AF09DF8019B91
:10421C006061002850D025B1427A42F0040242720B
:10422C0060691A46294909F04FFE0346606993B943
:10423C000121224665762176254901930AF02AF858
:10424C00019BC4E92133012003B030BD0028DAD032
:10425C00002DE6D0E0E740B1A27EF2B901930AF05E
:10426C002BF80022019B62612283184600F0F2FCBD
:10427C00044611F0D1FA04600020E5E7154A04F178
:10428C001C0101931068FFF7B5F9134A002160690E
:10429C005268019BA1762262AEE70E4A04F11C0122
:1042AC0001931068FFF7A6F90B4A00216069526868
:1042BC00019BA1762262D1E7064B1868FEF7E6FF58
:1042CC0011F0AAFA0C230360D6E700BF502F002090
:1042DC000D160000A4460020404200200022FFF7EB
:1042EC0079BF00BF30B50D4683B01146002204469D
:1042FC00FFF770FF10B9002003B030BD134B2946F7
:10430C001B6818460093FFF759F9034628B10120A2
:10431C00A0766B68236203B030BD60690028EAD0D8
:10432C00A27E2AB909F0C8FF002363612383E2E768
:10433C0004F11C0100980193FFF75CF9019B044AFE
:10434C00A376536860692362ECE700BFA4460020A3
:10435C0040420020194B0020194A196810B5194C1D
:10436C00C2E900404A1C1A6081B1174A1749184823
:10437C000DF09CFB174A1368591C1160BBB1124A13
:10438C0015491648BDE810400DF090BB144C4FF485
:10439C00EE72144810F09EFE2046883400F04AF865
:1043AC00114B9C42F8D1114B0E4A1A60DDE7104CB0
:1043BC00204619F091F90F4B1C60E0E7D043002028
:1043CC004042002094290020A03700209D000000CE
:1043DC00C44600206C42002069000000B04600205A
:1043EC001C440020D8430020B4450020D4430020B6
:1043FC0074420020704200200D4A137803B97047B4
:10440C000346006810B582B0019300F06FFC0021E8
:10441C00019B074A19601170197108B902B010BDDF
:10442C0000F018FC044611F0F7F9046002B010BD5E
:10443C00ABE2002038B50446002540220530294661
:10444C002560257110F046FE4022294604F14500F6
:10445C0010F040FE204684F88550A4F8865038BDF4
:10446C0038B5194B1D686A1C1A604DB1174C184AA7
:10447C00184919480DF01AFB184B22681A6038BD00
:10448C00174C4FF4EE722946154810F023FE656464
:10449C00402284F84850002104F1490010F01AFE23
:1044AC0004F189004022002110F014FE88340D4BD9
:1044BC0084F84150A4F842509C42E8D1034CA3F537
:1044CC00CC732360D3E700BFD0430020D44300203B
:1044DC00A03700209D000000C8460020D4450020D5
:1044EC00D843002070450020174B19684A1C10B5A2
:1044FC001A6081B1154A164916480DF0D7FA164ABA
:10450C001368591C1160BBB1104A14491448BDE81A
:10451C0010400DF0CBBA134C4FF4EE72124810F061
:10452C00D9FD20468834FFF785FF104B9C42F8D10B
:10453C000F4B0D4A1A60DDE70E4C204619F0CCF8F3
:10454C000D4B1C60E0E700BFD0430020A0370020DB
:10455C009D000000CC4600206C4200206900000049
:10456C00B44600201C440020D8430020B445002051
:10457C00D44300207442002070420020084B5A683B
:10458C00920100D470474FF00071064A59604FF009
:10459C000003BFF35B8F1370BFF35B8F704700BFDB
:1045AC0000802D408C46002000F034BB094BDB6EA4
:1045BC0013F440630BD0084A0123D2F8E410D2F86C
:1045CC00E82009BA0160110E120C017142711846F3
:1045DC00704700BF00C00F4000802D40114BDB6EB8
:1045EC0013F440631CD0EFF3108172B6BFF35F8FEE
:1045FC00BFF34F8FBFF36F8F03680B4A1BBAC2F820
:10460C00E43083885BBA1B04C2F8E83081F310886D
:10461C00BFF35F8FBFF34F8FBFF36F8F01207047D6
:10462C001846704700C00F4000802D40094A08B55D
:10463C001368012B0CD0023B022B01D8012008BDC2
:10464C0019F062F8034A1068013818BF012008BD40
:10465C00002008BD88460020704700BF30B56C4C68
:10466C0083B02368002B51D1002978D0092900F39D
:10467C008780684801680B4606E05A88950454BF49
:10468C002033654B99427BD05A881404F5D44A8860
:10469C00920454BF203160490160588810F03700F3
:1046AC0072D119884FF4C172019305F0AFFB019BD5
:1046BC000446002868D0018958681F3120F01F0279
:1046CC0021F01F010144BFF34F8F4FF0E020C0F8E1
:1046DC005C2F20329142FAD8BFF34F8FBFF36F8F0C
:1046EC00596820462289019305F0D4FD019B0028CE
:1046FC007ED15988494A01F4005149480A435A80ED
:10470C004FF080730361204603B030BD454A1268F8
:10471C00042A20D1012B39D0022B0BD1404B5A68E3
:10472C00120263D5D3F840C03F4AA2F800C04FF440
:10473C0000025A603D4B1B7890F83D20C2F380027A
:10474C009A4208D0002B39D1394B1B781BB90191F7
:10475C0004F08AFF019900232360002986D1354A91
:10476C004FF00101BFF35B8FD2E84F3FC2E8401F0F
:10477C000028F9D1DBB2BFF35B8F002B3FF479AF8C
:10478C000024204603B030BD0024B2E7244AD2F8FE
:10479C0004C01CF4000FDFD0136C4FF4000C234D3D
:1047AC00C3F3800E13F00403C2F804C085F800E0D4
:1047BC00C2D0214BC2F804C01364AFE71A4B1F4A96
:1047CC001B88019113F0020F0CBF4FF0640C4FF0DB
:1047DC000A0CC2F800C0C3F3800CC3F3803382F818
:1047EC0004C0937104F000FF0199B4E70223B3E70E
:1047FC00134B40F2C7221349134810F09FFA0020C4
:10480C0010F064F9012000F0AFF90BF007FF00BFC6
:10481C00A046002068370020C03E00200080FFFF2B
:10482C0000802D408846002090E20020AFE200205E
:10483C00AAE200208C460020000042606037002075
:10484C0058070020BC07002070060020394B1B685D
:10485C00042B39D1384B1A68012A10B582B037DDD8
:10486C00022A56D1354A5168090255D5D2F840C0B2
:10487C003349A1F800C04FF4000C3249C2F804C00F
:10488C000A7890F83D10C1F38001914218D0002AAB
:10489C0044D02B4A2C491288019312F0020FC2F318
:1048AC00800EC2F380320CBF4FF0640C4FF00A0C38
:1048BC0081F804E0C1F800C08A7104F095FE019BF8
:1048CC0000221A6002B010BD1B4B00221A60704708
:1048DC00002A1EDB012A06D0184A4FF4000C1B4993
:1048EC00C2F804C0116415494A6814021FD50A6C39
:1048FC004FF4000C134CC2F3800E12F00402C1F8FA
:10490C0004C084F800E0BCD0114AC1F804C00A64A9
:10491C00A8E70C4A1278B4E70222D2E70D4A1278C3
:10492C00002ACDD1019304F09FFE019BC8E7012220
:10493C00C7E700BF88460020A046002000802D401D
:10494C0090E20020AFE200206037002000000660FB
:10495C0000004260AAE2002070B51E4D06462C688D
:10496C0063881A04FCD4002361683289304605F050
:10497C0053FC3389834229D100F11F02616822F074
:10498C001F0221F01F030A44BFF34F8F4FF0E021A9
:10499C00C1F8703F20339A42FAD8BFF34F8FBFF360
:1049AC006F8F20804FF0807163880B4A03F40053A3
:1049BC0043F40C436380516163889B0404D42B68DB
:1049CC00203300202B6070BD044BFAE76FF0010020
:1049DC0070BD00BF6C37002000802D40803F002050
:1049EC0030B5044650B30D460630A6464FF0FF32A4
:1049FC0021491EF8013B4FF0080C5A4042F30003CA
:104A0C00BCF1010C03EA010383EA5202F6D186459C
:104A1C00EFD1C2F3846001232178002A03FA00F35A
:104A2C0001F001010BDB19B31449154A65B110688B
:104A3C00184215D00A6828461A430A6030BDA1B145
:104A4C001049114A002DF2D10868146860EA03007D
:104A5C00204010600A6813420CBF0120002030BDBA
:104A6C00116828460B431360E8E70849084ADDE75C
:104A7C000849094ADAE700BF2083B8ED90460020C8
:104A8C0024812D409446002020812D409C460020FE
:104A9C0018812D40984600201C812D4011B10846EC
:104AAC00FFF75ABF6FF00F00704700BF08B50B46F9
:104ABC000AB1012A0ED17BB193F801C01146084806
:104ACC000CF07F02C2709A780271DB784371FFF7A9
:104ADC0087FF08B1002008BD6FF0070008BD00BFBC
:104AEC0090370020004870471C46002008B1FFF7A3
:104AFC005BBD704708B1FFF759BD704770B5002416
:104B0C00084D21462846FFF7A9FD013406462946E3
:104B1C0038B1EB6898470028F3D0304605F00CF913
:104B2C00EFE770BD1C46002008B509F061F802489B
:104B3C00BDE80840FFF78ABE1C4600204C2200212D
:104B4C00044808B510F0C6FA46F66563014AD387E7
:104B5C0008BD00BF1C460020014B1868704700BF01
:104B6C00B8E100200BF064BB38B1044B421E012AA3
:104B7C0098BF18460368DB68184770474837002011
:104B8C0008B5EFF3058303B908BD13460A46014681
:104B9C00074810F0D3F8074BFD220749074810F0DF
:104BAC00CDF800200FF092FF0CF09AFD0BF036FDC3
:104BBC00DC070020EC0700204408002070060020D1
:104BCC0008B509F069FE00B108BDBDE8084018F051
:104BDC008BBD00BF10B582B001A809F0B7FE10B1B3
:104BEC00019802B010BD0446064B40F2471206492C
:104BFC00064810F0A3F820460FF068FF0CF070FD8B
:104C0C000BF00CFDEC0700206C0800207006002057
:104C1C0009F052BEB0B10C4B0022D3F83016D3F8C9
:104C2C0020364FEA112C43716CF307024FEA136CD8
:104C3C0061F30F22190C1B0A6CF31742037161F319
:104C4C001F620260704700BF00401F400068704741
:104C5C00FFF782BF00F11003DBB2102B04D8034B1B
:104C6C00404253F82000704705207047FC2E00206E
:104C7C00164A00234FF0100C127800EB8202D26916
:104C8C00CB608B608B6181F80EC0C1E90033C1E948
:104C9C000433136C0BB181F80FC0536C0BB11023A0
:104CAC000B74936C0BB110234B7403680BB1012381
:104CBC008B74136C0BB140230B75536C0BB14023ED
:104CCC004B75936C0BB140238B757047B8E2002089
:104CDC00024B1B7800EB8300C0697047B8E20020E0
:104CEC00014B1868704700BF888000202DE9F04107
:104CFC000546204A40F687111F48FFF741FF4DB388
:104D0C00DFF8888098F8003005EB8303DE69F6B194
:104D1C0006F13C0406F148072946184808F03EFF06
:104D2C0054F8040F08B104F0B7FABC42F8D1144996
:104D3C00284603F0DFFA304604F0AEFA002298F869
:104D4C000030104605EB8305EA61BDE8F0816FF099
:104D5C000500FAE7084B40F688120A490A480FF09A
:104D6C00EDFF28460FF0B2FE0120FFF7FDFE0BF021
:104D7C0055FC00BF182D00208808002021260000BB
:104D8C0000310020D808002070060020B8E2002076
:104D9C0010B5044688B0224A40F6A8212148FFF7F6
:104DAC00EFFE5CB1204B1B7804EB8303DB692BB16A
:104DBC0093F84D20032A01D922680AB908B010BD16
:104DCC0000220321012005928DF81610196C039214
:104DDC0001928DF80E0002920492CDE9062211B1D7
:104DEC00F0228DF818205A6C12B1F0228DF819208F
:104DFC009B6C13B1F0238DF81A3041F2E9410B4A48
:104E0C00842301A8ADF80C10214602928DF80630CF
:104E1C0000F0F8FE204608B0BDE8104000F04ABF94
:104E2C00782B002088080020B8E20020E00000FB6E
:104E3C00384B30B51B788BB0044600EB8303DB6931
:104E4C0093F84D20022A24D9033A012A1FD893F84B
:104E5C004C205AB9042183F8CC2083F84D102E49EC
:104E6C000D681DB101210193A847019B20460193B8
:104E7C00FFF78EFF019B93F84C200132D2B2012A2E
:104E8C0083F84C203CD94FF4A062A3F84C200BB013
:104E9C0030BD0268AAB993F84C20022A0CD81AB17A
:104EAC0093F8CC30012B30D022461C49FA200BB0A1
:104EBC00BDE8304008F044BE4FF44072A3F84C20DB
:104ECC00F2E703A90193FFF7D3FE41F2E9424FF059
:104EDC00000C0846ADF814202146114AADF80CC060
:104EEC00049200F08FFE019B93F84C200028D4D143
:104EFC0001320221D2B283F84D1083F84C20CCE75A
:104F0C00224606494FF47A70D1E72246034941F212
:104F1C008830CCE7B8E200208480002021260000F5
:104F2C00E00000FB062B2DE9F04746D09A460746D9
:104F3C001646884613E0B8F1FF0F3EDC06F80C402D
:104F4C0005EB0408A6F800E105F066F9B6F80031A7
:104F5C0084421FFA88F81C442CD1A6F80041414623
:104F6C00384605F039FA044608F10105384604F0D4
:104F7C00C00C611CADB22246BCF1C00F2B4621D037
:104F8C003F2C1AD8B6F800C104EB0C090CF1010E39
:104F9C0001EB0C08B9F1FF0F16FA8EF10DDC002CA9
:104FAC00C9D10CF1010306F80C40A6F800312846D3
:104FBC00BDE8F087013BA6F800314FF6FF75284697
:104FCC00BDE8F0873B89AB42F7D9294605F004FAD6
:104FDC00230203F47C5303431BB20B2BEDDD99B27C
:104FEC003B898B42E9D90AF1010332463846FFF777
:104FFC0099FF4FF6FF739842DFD008F102081FFAB1
:10500C0088F5D4E72DE9F04FC9B00E460446174693
:10501C000DF11C0B358804910021029258464FF477
:10502C00827210F057F800235A4629462046FFF7A3
:10503C0079FF4FF6FF733A46B7F80071984237D0B4
:10504C00002F35D031884FF0000ABBF80091B846DC
:10505C00401A164654460591C3B200970393A9EB28
:10506C00070309E03278013414440132E4B21644E7
:10507C00009AA24694421FD2A8EB0402D2B24A452F
:10508C00F0D81D19022AEDB2ECD90299039F081928
:10509C00A91CB9420BEB050113DA01930FF046FF83
:1050AC00019B0028DED105995746049B0D441D80B9
:1050BC00384649B0BDE8F08F1746384649B0BDE8D0
:1050CC00F08F009F384649B0BDE8F08F3F2A29D8B1
:1050DC001346B0F800C1D2B110B5541C82B0644470
:1050EC00FF2C22DC044600F80C200CF1010001928C
:1050FC00A4F8000114FA80F00BF0CEF8B4F80021FB
:10510C00019B00201344A4F8003102B010BDBCF187
:10511C00FF0F07D80CF1010200F80C30A0F80021A9
:10512C00002070476FF0050070476FF00500ECE74A
:10513C00B1F80021B0F800C1AAB1531C6344FF2B95
:10514C001CDC0346604400B583B0019200930BF065
:10515C00A3F8009B0020019AB3F800110A44A3F8AD
:10516C00002103B000BDBCF1FF0F07D80CF1010307
:10517C0000F80C20A0F80031002070476FF00500FB
:10518C00704700BF00285BD070B50E46B1FA81F1B4
:10519C0082B04909002E50D0351D4FF4827204465E
:1051AC000FF098FF042115F8013D274A0DEB010083
:1051BC000FF0D8FD01A810F04BFD01A9C2B220469A
:1051CC00FFF784FF034698BBAE42EBD1B4F8001155
:1051DC00F7292DD807204A1C605492B21B49A4F819
:1051EC000021A5180868A0508A88AA808A79AA711B
:1051FC00B4F80021D11D89B2FA29A4F8001117D8EE
:10520C0004200832605492B21149A4F800210868B5
:10521C00A050B4F800110A1D92B2FF2AA4F8002184
:10522C0006D80531A354A4F80011184602B070BD7D
:10523C006FF00503184602B070BD6FF00F03F4E772
:10524C006FF00F0318467047000900200409002076
:10525C000C09002038B50D464FF48272002104462B
:10526C000FF038FF3DB3284610F0F2FC2946C2B2CD
:10527C002046FFF72BFF0346E8B9B4F80011F929D3
:10528C0019D805204A1C605492B20C49A4F800218C
:10529C00A5180868A0500A792A71B4F800114A1DA3
:1052AC0092B2FF2AA4F8002105D80631A354A4F821
:1052BC000011184638BD6FF00503FAE714090020F9
:1052CC0010B504464FF4827200210FF003FF224602
:1052DC000921234BDFF894C002F8011B03CBC4F85F
:1052EC00010093F800E00723DCF80000516082F81D
:1052FC0008E004229CF80610C4F80B00A3721223D9
:10530C00BCF804006174A4F80F0020461549A4F8F9
:10531C000031FFF7DBFE00BBB4F80011F9291CD8F3
:10532C00034605204A1C60540F4992B2086804EBEE
:10533C00020CA4F80021A0500A798CF80420B4F8CF
:10534C0000114A1D92B2FF2AA4F8002105D806319B
:10535C00A354A4F80011184610BD6FF00503FAE72A
:10536C001C09002030090020140900202809002005
:10537C0070B5164682B00D464FF482720021044679
:10538C000FF0A8FE66B105F582710846019110F088
:10539C005FFC0199C2B22046FFF798FE002839D174
:1053AC0005F5A2710846019110F052FC0199C2B2A8
:1053BC002046FFF78BFE68BB184BB5F88C2153F8D1
:1053CC002250284610F044FC2946C2B22046FFF772
:1053DC007DFE0346F0B9B4F80011F9291AD805205E
:1053EC004A1C605492B20E49A4F80021A518086812
:1053FC00A0500A792A71B4F800114A1D92B2FF2A02
:10540C00A4F8002106D80631A354A4F800111846BC
:10541C0002B070BD6FF00503F9E700BFF42E002059
:10542C001409002070B516460D464FF48272002107
:10543C0004460FF04FFE46B1284610F009FC2946F1
:10544C00C2B22046FFF742FE90BB05F14001204658
:10545C00FFF76EFE60BB184BB5F84C2153F8225089
:10546C00284610F0F5FB2946C2B22046FFF72EFE67
:10547C000346E8B9B4F80011F92919D805204A1CDB
:10548C00605492B20D49A4F80021A5180868A050E8
:10549C000A792A71B4F800114A1D92B2FF2AA4F8B5
:1054AC00002105D80631A354A4F80011184670BD8C
:1054BC006FF00503FAE700BFF42E0020140900205A
:1054CC002DE9F04391F8027183B088460546B1F896
:1054DC0000612FB1002E37D1002003B0BDE8F0835E
:1054EC0000F10C0400F1200908E0FFF78BFDB0423D
:1054FC0002D2BDF8067006464C450ED034F8023F79
:10550C00ADF80630002BF7D0286842460DF10601A5
:10551C000028EAD1B8F80001E9E7B6B9002FDBD0D2
:10552C0017490222AB883943286849BAADF80610EE
:10553C000DF1060104F002FF0028CED1AB88023336
:10554C00AB8003B0BDE8F0830027AB884146324600
:10555C00286804F0F3FE0028BFD105F10C0333F8E2
:10556C00022F42B101300A28F9D1AB881E44AE801B
:10557C00002FD5D1B0E7AB8805EB4000C381F5E730
:10558C0000C0FFFF08B5FFF7A3FB002380F85130E4
:10559C0008BD00BF08B5FFF79BFB002380F87030F7
:1055AC0008BD00BFF0B50446006883B00D46164632
:1055BC001F46002834D0A288B5F800310189043385
:1055CC0012FA83F38B4237DC29462046FFF778FF2B
:1055DC0008B103B0F0BD72BAA3880DF106012068C2
:1055EC00ADF80620022204F0A9FE0028F1D1A38810
:1055FC000222874214BF4FF4C0704FF480700DF13B
:10560C0006011344ADF806009BB22068A38004F099
:10561C0095FE0028DDD1A3880233A38003B0F0BD32
:10562C004FF4207240F2AA51382004F0EFFB2060B6
:10563C0010B10C22A280BFE74FF0FF30C9E700BFCA
:10564C00F0B50446006885B00D461746002851D0C9
:10565C00B4F804C0B5F800110C9A0A310B9E89B24B
:10566C008A1892B2002E18BF11460D9A1AB1B2F8D0
:10567C000021114489B26144028991424ADC3A46C4
:10568C0029462046FFF78EFF0A9B042203A91BBA6A
:10569C0020680393A38804F051FE48BBA5880B9A9D
:1056AC00AB1D9BB2A3806AB1BDF830200B9920686A
:1056BC000193009204F042FED0B9A188009A019B9C
:1056CC000A44A2800D9A32B10D9920460093FFF73F
:1056DC00F7FE009B60B9A188043502222068C91A24
:1056EC00ABB249BAADF80A100DF10A0104F026FE6E
:1056FC0005B0F0BD4FF4207240F2AA51382000934F
:10570C0004F084FB009B206020B14FF00C0CA4F83B
:10571C0004C09FE74FF0FF30EAE700BF10B5C2B0FE
:10572C00044601A8FFF796FD0123FF2201A920469C
:10573C00FFF738FF42B010BD10B5C2B004460122CD
:10574C0001A8FFF715FE0123FF2201A92046FFF750
:10575C0029FF42B010BD00BF30B5ADF5077D0D4639
:10576C000446114604A80022FFF702FE45A8FFF7E5
:10577C00A7FD2B7B6BB1E3880BB10A220BE00C224B
:10578C0045A92046FFF70EFF80B901230A22E380CA
:10579C0001E041F294120023204604AC45A9CDE966
:1057AC000023CDE902340C22FFF74AFF0DF5077DEB
:1057BC0030BD00BF70B5C6B00D4604461046164647
:1057CC00FFF786FA014605A8FFF744FD2B7B7BB15A
:1057DC00E38813B14FF00A0C0CE0012205A9204616
:1057EC00FFF7E0FE98B901234FF00A0CE38001E0CB
:1057FC004FF0780C204601960424AB7A0025012248
:10580C0005A9CDF800C0CDE90245FFF719FF46B058
:10581C0070BD00BFF0B5ADF5097D17460D460122F0
:10582C001946044606A81E46FFF7A2FD394647A8AE
:10583C00FFF710FD2B7B93B14FF001038DF81E3257
:10584C00E3880BB10A230BE0212206A92046FFF7BF
:10585C00A9FED0B94FF00103E3800A2300E07823BE
:10586C0047AA009320460624039206A9B6F88EE1B7
:10587C002122AB7A04AD9EFA9EFE0294002401957F
:10588C00ADF814E00494FFF7DBFE0DF5097DF0BDD7
:10589C0070B51446ADF5067D0E4600222146054630
:1058AC0004A8FFF765FD2146012245A8FFF760FD1E
:1058BC00337B6BB1EB880BB10A220AE00C2204A9F2
:1058CC002846FFF76FFE78B901230A22EB8000E02F
:1058DC007822002345AC04A92846CDE90023CDE964
:1058EC0002340C22FFF7ACFE0DF5067D70BD00BF37
:1058FC0030B5ADF5097D044610460D460592FFF70F
:10590C00E7F9014606A8FFF7A5FC059947A8FFF79C
:10591C0039FC2B7B6BB1E3880BB10A220AE00C2219
:10592C0047A92046FFF73EFE80B901230A22E380F7
:10593C0000E07822204606ACAB7A47A903940024F9
:10594C0000920C22CDE90144FFF77AFE0DF5097D9A
:10595C0030BD00BFA9B130B5C3B00C4605460A78BE
:10596C0001A8FFF75FFD002394F84E2101A92846FA
:10597C00FFF718FE18B9EB8800200133EB8043B019
:10598C0030BD0020704700BF70B51446C6B0012270
:10599C0005460E4605A82146FFF7EAFC4FF4827235
:1059AC00002120460FF096FBD4F884311BB1D4F8BB
:1059BC00881120469847337B6BB1EB880BB10A23D7
:1059CC000AE0102205A92846FFF7ECFD88B901234F
:1059DC00EB800A2300E0782300931022B37A05A908
:1059EC0001942846B4F80041029400240394FFF774
:1059FC0027FE46B070BD00BF2DE9F04F144685B0B0
:105A0C000D4607460190FFF763F9A96900902046FF
:105A1C00FFF7A0FF064618B1304605B0BDE8F08F81
:105A2C003846FFF755F9AB7B8146DF0600F1CA809B
:105A3C0009F13C0705F10F0809F1480957F8041F53
:105A4C0019B198F80030D8064BD44F4508F101082D
:105A5C00F4D1AB7C13F0010940F0BE809A074FD40F
:105A6C00009B05F11408039603F13C0A47464833A2
:105A7C00D34602935BF8046F56B13A78D3066FD4D1
:105A8C00900678D4510600F18280130600F18C80C8
:105A9C00029B01379B45EDD195F90230039E002BFB
:105AAC0028DB63894B44DDE9019763815AF8043F95
:105ABC007BB198F8002090064AD551062AD51206DB
:105ACC003AD5AB7CDB0704D4D9F80030002B40F07E
:105ADC008E80BA4508F10108E8D1304605B0BDE822
:105AEC00F08F2046FFF728FE002866D1E3880133AB
:105AFC00E380AAE723894B44DDE901972381D5E7AD
:105B0C00019A29462046FFF7F3FE002855D109F1EA
:105B1C000109A5E7009A294620460193FFF77AFE72
:105B2C0000284AD1A289019B0132A28198F9001068
:105B3C0098F8002081420BDB1A4629462046FFF7D5
:105B4C0023FF002839D1A3890133A38198F80020C1
:105B5C00AB7C02F0600203F005011143B9D0B1E750
:105B6C00324629462046FFF7F7FD30BB3A7809F15B
:105B7C000109900686D5324629462046FFF788FE55
:105B8C00D8B93A7809F1010951067FF57EAF334651
:105B9C00009A29462046FFF73DFE70B93A7809F184
:105BAC00010913067FF574AF324629462046FFF7EC
:105BBC00EBFE10B909F101096AE70646304605B05B
:105BCC00BDE8F08F01462046FFF7A8FD0028F4D170
:105BDC00E3880133E3802BE7019A29462046FFF73F
:105BEC00E9FD0028E9D1AB7C4FF0010936E74A46C4
:105BFC0029462046FFF7DEFD0028DED1A3890133BC
:105C0C00A38166E770B592B004460D4624220021AC
:105C1C0008A80FF05FFA08AA21462846FFF7ECFE09
:105C2C00034600283CD1089800283FD0A2781E4695
:105C3C00BDF82A108DF8122049BABDF82C20BDF8F9
:105C4C0026E089B252BABDF828C09EFA9EFE92B2E6
:105C5C008DF8133061F30F031FFA8EFE9CFA9CFC37
:105C6C0004A962F31F4322881FFA8CFC6EF30F0603
:105C7C0052BA06936CF31F46ADF810200C22059611
:105C8C0004F008FBBDF82410089804F045F9FFF760
:105C9C0027F82389221D0899009508F039FA034644
:105CAC00089818B1039304F047F8039B184612B0F8
:105CBC0070BD00BF38B50546FFF70AF890F85130B3
:105CCC00044663B32946274807F068FF2A4625494E
:105CDC004FF47A7007F034FF012294F8523084F8B4
:105CEC0051204BB32946204807F058FF2A461E493D
:105CFC00FA2007F025FF012294F8703084F8522026
:105D0C0033B32946194807F049FF2A46174947F289
:105D1C00305007F015FF012384F8703038BD2A4647
:105D2C0010494FF47A7007F00BFF012294F85230AF
:105D3C0084F85120002BD5D12A460B49FA2007F0C4
:105D4C00FFFE012294F8703084F85220002BD8D139
:105D5C002A46064947F2305007F0F2FE012384F838
:105D6C00703038BD752D000061350000852D0000A8
:105D7C0010B582B00446FEF7ABFF002190F850201E
:105D8C0080F852100AB902B010BD034621465430B7
:105D9C000193FFF737FF019B02460028F3D1204601
:105DAC00A3F8542083F85620C3F85E20C3F8622071
:105DBC00C3F8662083F86A2083F8502002B0BDE84F
:105DCC001040FFF777BF00BF70B500F1FF3C0546F0
:105DDC001646481E04E0A24215D1DD4215D0A1B1F1
:105DEC001CF8011F10F801EFA6EB0C0341F0200288
:105DFC0071454EF0200403F1FF33A2F1610EECD09B
:105E0C00BEF1190FE7D9012070BD002070BD00BF95
:105E1C0008B503F01FFA03F093FA03F00FFB07F039
:105E2C0035FF04F0EDFB02F049F909F063FABDE827
:105E3C00084007F051BE00BF38B505460C46144A61
:105E4C0064211448FEF79CFE5DB1E4B12B6AB3B932
:105E5C0023606360A360E36023616361A3612C62D0
:105E6C0038BD0C4B65220C490C480EF067FF002026
:105E7C000EF02CFE0120FEF777FE0AF0CFFB054B4F
:105E8C0067220749F0E7034B66220649ECE700BF9F
:105E9C00882C00204009002090090020700600206A
:105EAC00B0090020A009002030B5054683B0274A70
:105EBC00F92127482C6AFEF763FE95F83D30DB0785
:105ECC003ED57CB3237913B1002003B030BD04F16F
:105EDC000801204A2846019109F0ECFB4FF6A96312
:105EEC00228801999A4206D10123226828462371FF
:105EFC0009F010FCE8E76A8F174BD3182A6A52791D
:105F0C001A44164B92B21343154A934212D803F516
:105F1C007E431BBA2846236001232268237109F0B3
:105F2C00F9FBD1E71C21012003F0DCF9044650B148
:105F3C002862C7E70B4A934288BFA3F57E43E8E784
:105F4C006FF00F00C1E74FF0FF30BEE78C2B002045
:105F5C0040090020593700000001FEA90000FEA9ED
:105F6C00FF00FEA9FFFEFEA90129D0F820C038D001
:105F7C00022910B5044684B00FD061B94FF6FF72F8
:105F8C004FF0020E039103AB0292614602AA8CF809
:105F9C0004E003F055FC04B010BD9CF80530002162
:105FAC00134A0133CCF8001040F259118CF805302B
:105FBC00036A10480193FEF7E3FD019B002BEAD026
:105FCC004FF000021A714FF6A96322889A42E2D16F
:105FDC00094B20461A46194604B0BDE8104003F0A0
:105FEC002FBC9CF8053001338CF80530FFF75CBFF3
:105FFC00C02A002040090020502F0020704700BF0D
:10600C00036A0BB11A7902B9704710B582B0044615
:10601C000C4A40F259110C480193FEF7B1FD019B5B
:10602C0000214FF6A96219712388934201D002B066
:10603C0010BD064B20461A46194602B0BDE810406A
:10604C0003F0FEBBC02A002040090020502F002086
:10605C00006A20B10A6803689A4201D00020704798
:10606C000079A0F10200B0FA80F04009704700BF3F
:10607C002DE9F843002972D0B0FA80F84FEA58188D
:10608C0000286CD0154607460C464FF420724FF48E
:10609C009A713820994603F0B9FE064600285ED066
:1060AC004389B3F59A7F66D3032D3FD0A379002B98
:1060BC0059D0384B186873684FF49A7220600021DD
:1060CC0018460FF007F840F201120346028097F8C9
:1060DC003C208270226812BA4260EA1F012A47D81B
:1060EC003A68DA6007F1350107F13B0403F11B0C48
:1060FC0011F801EFA1420CF801EFF9D163226FF016
:10610C007D0183F8F250304683F8EC2083F8EF20C1
:10611C0040F2351283F8ED105321A3F8F02003223E
:10612C0083F8EE10A9F80020BDE8F8836379032BFF
:10613C00BCD043684FF49A72414618460EF0CAFF21
:10614C0040F201120346028097F83C2082702268CC
:10615C0012BA42606279043A012AC3D8C0E7002619
:10616C003046BDE8F883FEF735FD0A4B1860A2E710
:10617C00032DB7D1EEE7084B40F27B720749084874
:10618C000EF0DCFD40460EF0A1FC0120FEF7ECFC0D
:10619C000AF044FA8CE20020D8090020240A0020DE
:1061AC007006002070B5194D2C78CCB9184E336898
:1061BC00D3B908F0ABF8306028B3427A154942F0F5
:1061CC0020024272442207F07FFE432211493068BC
:1061DC0008F02CF822461049306808F05BF82C784F
:1061EC00013400202C7070BD0C4B4FF48A720C499A
:1061FC000C480EF0A3FD20460EF068FC0120FEF7C3
:10620C00B3FC0AF00BFA4FF0FF3070BDB2E2002085
:10621C00344B0020502F002071400000D809002082
:10622C00640A002070060020002800F08880C169F4
:10623C00002900F084808B6A0022B3F1FF3F00B587
:10624C0083B04A8207D01E33B3F5701F43D23B2B69
:10625C006FD801238B82CB6A5A1C07D01E33B3F53F
:10626C00701F3FD23B2B54D801233DE04B890A6B66
:10627C00B2F1FF3F09D01E32B2F5701F37D23B2A64
:10628C004DD84FF0000C012235E0B1F80CC00CF1E8
:10629C00FF3C1FFA8CFC634531D8CB79DB0713D557
:1062AC000B6A4A7900930A2A4B6A019305D04FF086
:1062BC000A020023A1F805200B8101AB6A461C31B0
:1062CC0003F0BEFA03B000BD91F91C300A7F002B1D
:1062DC0018DBFF23E5E74FF6FF738B82CB6A5A1C62
:1062EC00BCD1C3E74FF6FF734B81CB81BFE74FF6B1
:1062FC00FE7C4FF6FF7263458A810A82CDD900235A
:10630C004B81CAE7BF2A4FF6FF7388BF6FF07F43FC
:10631C00C7E70B4AA2FB0323C3F34F13E4E7DFF8F1
:10632C0020C0ACFB02C2520902F1FF3C1FFA8CFCEC
:10633C00E1E7A2F17732A2FB03235B09CDE77047BB
:10634C008988888808B540F2A152064B064907484F
:10635C000EF0F4FC00200EF0B9FB0120FEF704FC5B
:10636C000AF05CF9D80900208C0A00207006002085
:10637C0008B540F2AD52064B064907480EF0DEFC5C
:10638C0000200EF0A3FB0120FEF7EEFB0AF046F90D
:10639C00D8090020D00A00207006002008B503465A
:1063AC000430442803D812BA80B2CA5008BD074B37
:1063BC0040F2BE52064907480EF0C0FC00200EF019
:1063CC0085FB0120FEF7D0FB0AF028F9D809002044
:1063DC00080B002070060020114A10B5147882B00A
:1063EC0074B1631EDBB213700BB102B010BD0D4C57
:1063FC000193206807F060FF019B236002B010BD81
:10640C00094B4FF49772094909480EF097FC204646
:10641C000EF05CFB0120FEF7A7FB0AF0FFF800BFB3
:10642C00B2E20020344B0020D8090020440B00209D
:10643C0070060020244B002210B5DC7882B0C0E935
:10644C00082214B1214AD26882621A79002A38D003
:10645C001E4A12695C79C262002C2DD01B4A52690B
:10646C0002639C790969C279C16114B3174942F07E
:10647C000102896909BA0162C271DA791AB1134A47
:10648C00D26912BA42621A7A8AB1104C002001A960
:10649C00226A12BA019208F02FFF0B4B5B7A33B1D0
:1064AC00636A01A901201BBA019308F025FF02B011
:1064BC0010BD02F0FE02DFE7826AC2EBC202D20814
:1064CC00CEE7826A5208C5E7384B0020444B0020C7
:1064DC008AB310B582B00C460090104601920FF0B2
:1064EC00B7FB009B20B3C3F1410C019A604532D835
:1064FC00FF283FD803F1020C00EB0C0EBEF1440F49
:10650C0047D803F1010E0C211FFA8EFEE154611ED7
:10651C00634604F80E001044614401E0442B0BD098
:10652C0012F801CB013382429BB201F801CFF5D1B5
:10653C00184602B010BD7047174B40F2AD521749C8
:10654C0017480EF0FBFB00200EF0C0FA0120FEF7FE
:10655C000BFB0AF063F8104B40F2D2521149104871
:10656C000EF0ECFB00200EF0B1FA0120FEF7FCFA65
:10657C000AF054F8084B40F2D4520A4908480EF07D
:10658C00DDFB00200EF0A2FA0120FEF7EDFA0AF076
:10659C0045F8FFF7D7FE00BFD8090020D00A00202D
:1065AC0070060020680B0020F0B5C46987B0054662
:1065BC00A379082B00F29B8062790023062AE36101
:1065CC0004D04FF006022381A4F805200DF1160328
:1065DC00012221462846FFF74BFD064600286DD0C8
:1065EC00BDF81620101D442800F28480776802F153
:1065FC00010C4FF0390E80B207F1F0011FFA8CFC40
:10660C0001F802E04FF0020E039101F80CE002EBEE
:10661C000E0CB5F834E003321FFA8CFC4FEA1E2343
:10662C0092B201F80C3001F802E02A6BFFF750FF30
:10663C0000F1060EBEF1440F5CD807F1EF0C831C81
:10664C00421C03994FF037079BB292B20F540420AF
:10665C001FFA8EFE9C448854274802780CF8012FB0
:10666C001A4601339BB2734505D0442B00F101004F
:10667C00F3D1FFF77DFE901C4FF0FF0C80B201F8B8
:10668C0003C0432807D8C2F142020844002192B249
:10669C000EF020FD442000F1F001304689B203F0E9
:1066AC003BFC1649164A4323009508683146019273
:1066BC00144A07F08BFC304603F03EFBA379FF2B0A
:1066CC0011D00133DAB2052AA2710CD84FF47A73C7
:1066DC000D49934003F2F3139BB2A1FB03135B0927
:1066EC00238107B0F0BD7823238107B0F0BDFFF7FD
:1066FC00DBFB61E7FFF726FE70030020344B002024
:10670C00502F0020542F0020D34D6210002800F091
:10671C00AA80F0B5C46987B0002C00F0A080637922
:10672C00012B05D04FF001020023A4F80520238192
:10673C000DF11603032221460546FFF799FC064688
:10674C00002879D0BDF81600011D442900F28C8078
:10675C007268431C02F1F007039239229BB23A543F
:10676C000222FA548218B5F834C0C31C92B29BB200
:10677C004FEA1C2E07F802E007F803C000F10A03E9
:10678C00442B71D8431D322206307A549BB204221A
:10679C0080B23946FA54E26912BAFFF7FFFD831D45
:1067AC00442B61D840F2364339463B520230A26941
:1067BC0080B212BAFFF7F2FD811D442954D8039B15
:1067CC0040F2374289B2F1333A52284A034402303C
:1067DC00013092F800C080B203F801CF884205D096
:1067EC00442802F10102F3D1FFF7C2FD2A6B3946AE
:1067FC00FFF76EFEFF2302463B54013080B2432864
:10680C0007D8C2F143023844002192B20EF062FC68
:10681C00442000F1F001304689B203F07DFB1449AD
:10682C00144A43230095086831460192124A07F036
:10683C00CDFB304603F080FAA379FF2B11D0013346
:10684C00DAB2052AA2710CD84FF47A730B49934033
:10685C0003F2F3139BB2A1FB03135B09238107B073
:10686C00F0BD7823FAE77047FFF76CFD700300204A
:10687C00344B0020502F0020542F0020D34D621099
:10688C00A04B2DE9F04F5D6814468BB0EA69002AE5
:10689C0000F0AE801379002B00F0AA80B4F80AC087
:1068AC00BCF12B0F40F2A480D4F804E09EF8003029
:1068BC00022B40F09D8095F83C60D6B10EF11B0187
:1068CC00F046E14605F1350000231746AE46B446C6
:1068DC0010F8015F11F8012F954240F089800133C7
:1068EC00DBB2634501D2062BF2D175463A46C64659
:1068FC00CC46DEF8043011681BBA8B4278D10023E9
:10690C0081494FF0F00A04920B810393C1E90033E3
:10691C002946B4F808E0224655460BE01268002AD6
:10692C0066D0A5EB0C05AEEB0C0EB2F80AC0ADB2FE
:10693C001FFA8EFEAC45F1D9AE4540F24281536848
:10694C009446A346079199462B4619F80310FF2944
:10695C0000F035819C1CA4B29C4248D35A1CBCF854
:10696C000A00824280F2228109EB03056D783B29F3
:10697C0044D8DFE811F05F000F0143000101430030
:10698C004300ED0043004300430043004300430039
:10699C0043004300430043004300430043004300D3
:1069AC0043004300430043004300430043004300C3
:1069BC0043004300430043004300430043004300B3
:1069CC0043004300430043004300430043004300A3
:1069DC00430043004300430043004300E100CD006B
:1069EC00BB00B100430043004300A70061005C46BC
:1069FC0020460BB0BDE8F04F03F09EB9EA184FF6F5
:106A0C00FD739A42F3DC2C44A4B223468342C0F0BB
:106A1C00D3801B1AAEEB00009BB21FFA80FE7345AD
:106A2C00E5D2DCF800C0BCF1000FE0D0DCF80420AB
:106A3C0091468AE793B2E9E7042DD8D14FF6F97065
:106A4C008342D4D8063305269BB200202E49E0465B
:106A5C0009902E48CDE905E300EB860723468C19F7
:106A6C0027E0042D2A4609A9404628BF0422029398
:106A7C00019203F0D1FB019A8242B8D1042D40F26D
:106A8C003B8115F00300B2D14FF00103099A04F8D1
:106A9C00013B12BA029B3A601A1D92B29A42A6D3DB
:106AAC00731C043D04370A2B1E46EDB200F08C819A
:106ABC0013462278002AD4D0DDE905E3C446BCF89D
:106ACC000A00A3E7042D92D14FF6F97083428ED8B9
:106ADC0006332E469BB2B8E7042D88D14FF6F970D9
:106AEC00834284D8063302269BB2AEE7012D7FF495
:106AFC007EAF4FF6FE7082423FF479AF03332E46E1
:106B0C009BB2A2E740500020384B0020444B0020A1
:106B1C00BAF1F00F7FF46BAF681E18BF012000288C
:106B2C007FF465AF4FF6FE75AA423FF460AF0333B6
:106B3C00064601259BB288E7042D7FF458AF4FF62B
:106B4C00F97083423FF653AF063303269BB27CE7C2
:106B5C00AA077FF44CAFEA184FF6FD739A423FF741
:106B6C0046AF2B199BB2002D3FF450AF082D4FF0C0
:106B7C00080628BF082568E7032D7FF638AF2B449D
:106B8C004FF6FD7083423FF732AF2B1907260425D1
:106B9C009BB25AE7042D7FF42AAF4FF6F97083426B
:106BAC003FF625AF063306269BB24EE7DCF80050C5
:106BBC0025B36D682D78DAE67345FFF4C6AE0799F8
:106BCC005C46894B1B7863B1884B002286481B6856
:106BDC000270012B00F0A280022B06D0032B00F0D8
:106BEC009B80039B002B00F09E8000234FF06C0ECB
:106BFC004FF02C0A0393B4F80AC08CE63B293FF6FD
:106C0C0004AF01A353F821F025420000DF4100003E
:106C1C00FB410000DF410000FB410000FB41000094
:106C2C00FB410000FB410000FB410000FB41000068
:106C3C00FB410000FB410000FB410000FB41000058
