:0200000460009A
:100000004643464200000156000000000101020084
:1000100000000000000000000000000000000000E0
:1000200000000000000000000000000000000000D0
:1000300000000000000000000000000000000000C0
:1000400000000000010406010000000000000000A4
:100050000000800000000000000000000000000020
:100060000000000000000000000000000000000090
:100070000000000000000000000000000000000080
:10008000EB04180AFF1E04320126000000000000E5
:100090000000000000000000000000000000000060
:1000A0000000000000000000000000000000000050
:1000B0000000000000000000000000000000000040
:1000C0000000000000000000000000000000000030
:1000D0000000000000000000000000000000000020
:1000E0000000000000000000000000000000000010
:1000F0000000000000000000000000000000000000
:1001000000000000000000000000000000000000EF
:1001100000000000000000000000000000000000DF
:1001200000000000000000000000000000000000CF
:1001300000000000000000000000000000000000BF
:1001400000000000000000000000000000000000AF
:10015000000000000000000000000000000000009F
:10016000000000000000000000000000000000008F
:10017000000000000000000000000000000000007F
:10018000000000000000000000000000000000006F
:10019000000000000000000000000000000000005F
:1001A000000000000000000000000000000000004F
:1001B000000000000000000000000000000000003F
:1001C000000100000010000001000000000000001D
:1001D000000001000000000000000000000000001E
:1001E000000000000000000000000000000000000F
:1001F00000000000000000000000000000000000FF
:10020000FFFFFFFFFFFFFFFFFFFFFFFFFFFFFFFFFE
:10021000FFFFFFFFFFFFFFFFFFFFFFFFFFFFFFFFEE
:10100000D1002043F1150060000000000000000046
:10101000201000600010006000E403600000000089
:101020000000006000F0030000000000FFFFFFFF71
:10103000FFFFFFFFFFFFFFFFFFFFFFFFFFFFFFFFC0
:10104000FFFFFFFFFFFFFFFFFFFFFFFFFFFFFFFFB0
:10105000FFFFFFFFFFFFFFFFFFFFFFFFFFFFFFFFA0
:10106000FFFFFFFFFFFFFFFFFFFFFFFFFFFFFFFF90
:10140000824205D051F8043B40F8043B8242F9D8AF
:10141000704700BF044A05494FF0000342F8043BFF
:101420009142FBD8704700BFC08A002000A901206C
:1014300008B5BFF34F8F01F0B3F9544C544B08205B
:101440005449C3F85401544AC3F800115348C3F82F
:10145000F0405349FFF7D4FF524A53495348FFF72E
:10146000CFFF534CFFF7D6FF4FF470004FF0E02151
:101470000023504AC1F8880D44F823200133B02BD3
:10148000FAD14D4B80214D4A03F8011B9342FBD109
:101490004FF0E0254A4E4B4A4FF0FF31C5F8084D5A
:1014A000D5F8243D43F4E023C5F8243DF36923F047
:1014B0007F0343F04003F361736A23F07F0343F03B
:1014C000400373629166D1661167516701F070F94C
:1014D0003D4A3E4BA2636322E36300246A61032317
:1014E0003B4AAC612B61C5F8202DD5F8FC2D394B5A
:1014F00042F080723849C5F8FC2D1A6842F00102AA
:101500001A605B680B6001F023FB344801F0FCFCBF
:10151000F16E334B334A41F44051F1661C60C3F81D
:101520000841C3F81841C3F82841C3F83841936B08
:10153000DB0708D442F615632B4951651365936B9D
:1015400043F001039363274A284C936843F0011347
:10155000936001F0BBF901F0A3F801F0D1FC01F0B8
:1015600029FB01F01FF92368132BFCD901F0BEFB06
:101570002368B3F5967FFBD301F018F901F014F955
:1015800001F096FC01F084FC30BFFDE70C0D111357
:1015900000800D401B101820F825030000000000FB
:1015A000B4310060C08A0020B05703600000002002
:1015B00000880020E948020000E400E0A0E400E028
:1015C00000C00F4000C00A40E93C0200E13D0200BB
:1015D00000002020001000E030A801200046C323B6
:1015E0000040084000400D400000C05634A80120D3
:1015F000054B4FF42A01054A05485A641864054A08
:1016000099639546FFF714FF00C00A40FFBFAAAADE
:10161000070020000080042010B5002104461C4B68
:101620004FF0FF3021811A682175C4F81B20F02289
:10163000C4F81510A4F81910C4E903015868C4F8D7
:101640001F009868DB68C4F8230004F12B00C4F87D
:101650002730C4E9001101F05BFC00210123A4F84C
:101660002411A4F8263184F82811C4E94711C4E9EB
:101670004B11C4E94D11C4E94F11C4E95111C4E93A
:101680005311C4E9551101F017FC204610BD00BFED
:10169000F036002010B5044601F0D6FBD4F85431E2
:1016A00023B104F5A671032208469847D4F84431C3
:1016B00023B104F59E71032208469847D4F83431CB
:1016C00023B104F59671032208469847204610BDC1
:1016D00070B5044601F0D4FB0F4B05681A782AB99F
:1016E00001F0CEFB034620461D6070BD206801F06E
:1016F000AFFB0022084B22601A7022710028EFD045
:1017000001F0C2FB064601F0BBFB066001F0B8FB2E
:10171000034620461D6070BDA1A8012070B5754C20
:10172000236833F0020300D070BD73494FF4803555
:10173000724A4CF20F00CB6E43F44063CB664FF419
:1017400080536F49C2F8E450C2F8E800C2F8E410D0
:10175000C2F8E830D2F8E030002BFBDA69494FF4E8
:101760008030694B4FF23805C2F8E80038204A68EB
:101770004FF4804622F400524A604A6842F4020262
:101780004A6043F238020521C3F87C23C3F884235E
:10179000C3F880535D4DC3F89823C3F86803C3F8BA
:1017A00064034FF62900C3F87811C3F874114FF49D
:1017B00000416A6842F440426A600022C5F888101D
:1017C000C5F88460C3F8A8034BF2E900C3F8A4038A
:1017D0003120C3F8B821C3F8B421D3F8302422F063
:1017E000030242F00202C3F83024C3F89403162027
:1017F000474AC3F8A4013220536C23F07E0343F020
:1018000012035364C5F8841001F072FB4149424A47
:10181000C5F88860414B48681268A3FB0232920CFD
:1018200002EB820202EB82024B681B1A9342FBD34B
:10183000364B4FF480420220C3F8842001F058FB5D
:10184000334B4FF40001364A59601A645A6810024B
:10185000FCD51A6C4FF4000192B25960B2F5005FEA
:1018600011D130482A4A5960186453681902FCD5CE
:10187000136C4AF240104FF4000123F00F03516043
:101880009BB283421ED0DFF884C04FF480361D48DF
:101890004FF0010EDCF80430184923F44043164A97
:1018A000214DCCF80430436823F400334360C1F881
:1018B000E460C1F8E050D36E23F44063D366C4F80B
:1018C00000E070BD1948124B516010645A68120252
:1018D000FCD54FF4000116480D4A59605960186450
:1018E00053681B02FCD54FF40001032351602360B1
:1018F00070BD00BF7C99012000C00F4000800D40EA
:101900000120200000C00A4000801F40004000422B
:1019100000802D40001000E0387E002083DE1B4355
:1019200000000A6000000E60011001008002625099
:1019300081005E504FF0013340F2011203604360BA
:101940000281704710B5794C2368042B00F0EB80BE
:10195000FFF7E4FE2268032A01D0002010BD744B7B
:101960004BF2E9017348C3F87C13C3F88013C3F842
:101970008413C3F89813C3F88813C3F88C13C3F8FF
:101980009013C3F88C21C3F89021C3F8A821C3F8A1
:101990009421C3F8A021C3F89821C3F89C214FF4E7
:1019A0008062D3F82C1441F00101C3F82C14D3F851
:1019B000341441F00101C3F83414D3F8381441F061
:1019C0000101C3F83814D3F83C1441F00101C3F805
:1019D0003C14D3F8401441F00101C3F84014002135
:1019E00001F096FAA0220021534801F091FA5349E0
:1019F0000346534A4F481360086000F5806C034665
:101A0000504A4FF4004080215A60203323F81E0CC6
:101A100002F5C06223F8161C6345F5D145494FF421
:101A20008060DFF814E1B1F8E233474A0EF1A00C10
:101A300043F40053A1F8E23373464FF4B0415A60C7
:101A4000203323F81E0C02F5C06223F8161C6345F0
:101A5000F5D1BEF8821000223C4B41F400519A604F
:101A6000AEF882103A49C3F884104FF48271C3F87B
:101A7000C4101921C3F8C011C721C3F8C411D3F889
:101A8000441141F48071C3F844112A49C3F89021EC
:101A9000C3F880114FF4C061C3F884E1C3F8881122
:101AA0001421C3F80021C3F8F020C3F8EC10C3F8E8
:101AB0009421586E274940F000405866C3F8182119
:101AC000C3F81C21C3F82021C3F824219A681140CF
:101AD000214A41F00071996090682049D0F80802CD
:101AE000926808601E49C2F80812BFF34F8F1D4A62
:101AF0004FF48021D1601C484FF001011B4A58600F
:101B0000BFF35B8FD2E84F0FC2E84C1FBCF1000F50
:101B1000F8D14FF0807216480421BFF35B8F5862F2
:101B20001A615A612160012010BD00BF7C9901201B
:101B300000801F40C08A0020C08E00205C7F0020F3
:101B4000607F0020404220204024202000802D4043
:101B500024D1F2450080FF7D00ED00E0789901205E
:101B60000185010000E100E00080FF7F80990120F5
:101B70001201007010B40023044C05480549064AC0
:101B8000236003600B60136010BC704784990120D0
:101B9000889901208C99012090990120F8B1114A6F
:101BA00040F2DC5138B504460F4B10480025A186A1
:101BB00025630F49C4E904209A88186843F6062370
:101BC0006287A387C4F83600204601F089F92046D1
:101BD000084901F041F9084B2846636438BD6FF0AD
:101BE0000F00704791BC0100D4980120218A0100A8
:101BF000DC9801205C990120318A010070B584B025
:101C00000E4604460192FFF79DFE019A002838D047
:101C100012B11046FFF78EFE002C47D0334B1A78D6
:101C2000154642BB06222146314801F075F968BBD2
:101C3000204601F061F9B0B12D4801F031F90446B8
:101C400088B12C4B1B781D46002B34D0284A2A4BD8
:101C5000106891880622C3F83600598783F83C2023
:101C6000204604B070BD01F00BF90E230360002480
:101C7000204604B070BD01F02FF900221B4B1A70F2
:101C8000D6E701F0FDF813230360F0E7194B1A784B
:101C9000002ACDD0284601F0EFF8174801F0E8F807
:101CA000164801F001F9134B1D70C1E702A802AC00
:101CB00001F00EF9B2E73146104801F015F9104B6A
:101CC000104A29460C4801F0FFF830B10A4801F0EB
:101CD000D3F80123074A1370C2E7084801F0E4F87B
:101CE00001F0CEF873230360C1E700BF3D840020FC
:101CF000D49801209FA8012010990120CC980120A0
:101D0000512302009D1B00600D490E4A087808B55A
:101D100000231360938018B9BDE80840FFF72ABF7D
:101D2000184601F0A9F8084801F0A2F8074801F0A8
:101D3000BBF8002302490B70BDE80840FFF71ABF4B
:101D40009FA80120D498012010990120CC9801204F
:101D50003748384BD0F88020DFF8FCC042F44052BE
:101D6000354900B5C0F88020344AC3F800C0344873
:101D70005A60344A1862DFF8E4C05A623248334A83
:101D8000C3F828C0DA6246F62012186359639963D3
:101D900040F6A311D868DFF8C8E000F07F40DFF814
:101DA000C4C0024340F6C410DA609A686FF30F02B1
:101DB0001143274A9960D9696FF3150141F4C8416D
:101DC000D96199696FF3150141F4C8619961196886
:101DD00021F486511960196801EA0E0EC3F800E07B
:101DE0004FF0000E19680A401A4942F002021A60C8
:101DF0005A696FF3090242F03F025A611A6992B2BE
:101E000042F048621A611A696FF30F0210431861B9
:101E1000D3F8A02022F00202C3F8A0201A6802EA38
:101E20000C0CC3F800C0DA6F1B6CC1F800E000BDF9
:101E300000C00F4000C00C402F002E002200010007
:101E400068050C019501B2004B0040007D00580070
:101E5000BCEFFFFFC498012040100100DC007A00B5
:101E6000B3EFFFFFBFEFFEFF084A094B11680B40BD
:101E700043F48033136013689B04FCD5054AD2F801
:101E8000803023F44053C2F88030704700C00C40CB
:101E9000BFEFFEFF00C00F40214B002010B4C3E98C
:101EA0002000C3E92200C3E92400C3E92600C3F8E7
:101EB000A800BFF34F8F4FF0E0231A491A4AC3F826
:101EC000701FC3F8702FBFF34F8FBFF36F8F174B87
:101ED0000146174C0122D3F808C004F6DC74C3F89D
:101EE00008C01863134B44F81C0C184602330088D2
:101EF000A34212FA80F21144F7D192B20C4B42EA9B
:101F00000142C3F8DC2FBFF34F8F4FF0E023094AA3
:101F1000C3F8682FBFF34F8FBFF36F8F10BC7047AC
:101F200000FF272080FF2720A0FF272000800F40F0
:101F300000F02720C0FF2720994BD3F880300B2BCF
:101F40002DE9F0410D4682B040F0F8804FF0FF31AE
:101F50009448954B954E026820240430514041F33B
:101F60000002013C02EA030282EA5101F7D1B042C9
:101F7000F1D1DFF82C82D8F8A830994240F0DE8009
:101F80002B680C228A4928465B689847284600F04F
:101F900067FF2A68D8F8A41028465268854BCDE917
:101FA0000012A3FB012784497F09A3FB07232622F4
:101FB0005E09019BC8F8A460984780490A22284618
:101FC000A1FB06312346090901EB4101A6EBC10142
:101FD00000F04AFF2B68C6EB061601225B68284614
:101FE000774998472346A7EB86010A222846C7EB84
:101FF000071700F039FF2B68012271495B682846FA
:102000009847009923460A22A1EB8701284600F051
:102010002BFF284600F024FF2B68242269495B68C7
:102020002846984723461022D8F89810284600F0F2
:102030001BFF284600F014FFD8F888602B68002E9C
:1020400040F05781564ED6F88C40002C40F07A81F3
:1020500022225B685C4928469847514B022128465A
:1020600093ED280AB7EEC00A00F016FF2B68042291
:1020700056495B6828469847284600F0F1FE2B68D1
:102080001D2253495B6828469847524A524800230C
:1020900011680A22A0FB01012846890C00F0E4FE29
:1020A0002B6803224D495B6828469847284600F074
:1020B000D7FE4B4B9C68A2070DD5196B494A2B687C
:1020C00091425B6800F03681402247492846984794
:1020D000284600F0C5FE670700F19680260700F14C
:1020E0009F80E00600F1A880A10600F1B1806206A1
:1020F00000F1BA80230600F1C38014F4807440F02C
:10210000CC80274BD3F8C06096B1D3F8DC700122A5
:10211000C0333648194602330988834212FA81F2E5
:102120001444F7D193B243EA04439F4200F0238161
:10213000FFF7B2FE012002B0BDE8F0812B68172244
:102140002B4928465B689847284600F089FE2B6893
:10215000482228495B6828469847284600F080FEB8
:102160002B68492224495B6828469847284600F096
:1021700077FE2B68242221495B6828469847284629
:1021800000F06EFE2B6847221D495B682846984781
:10219000284600F065FE2B683F221A4983E700BFFE
:1021A00000FF272080FF27202083B8EDA8FF2720ED
:1021B0006C580020898888887C580020ABAAAAAA7D
:1021C00080290020A45800202C5D0020505D0020B4
:1021D000585D0020387E002083DE1B43785D0020A0
:1021E00000800F40F100AD0B285F0020DCFF2720AE
:1021F0007C5D0020945D0020E05D00202C5E0020CE
:10220000545E00209C5E00202B6827229C492846B3
:102210005B689847284600F023FE26077FF561AFEC
:102220002B682A22974928465B689847284600F081
:1022300017FEE0067FF558AF2B6826229249284604
:102240005B689847284600F00BFEA1067FF54FAF6C
:102250002B6829228D4928465B689847284600F05C
:10226000FFFD62067FF546AF2B682122884928468C
:102270005B689847284600F0F3FD23067FF53DAFE5
:102280002B682122834928465B689847284600F03E
:10229000E7FD14F480743FF434AF2B6829227E49A3
:1022A00028465B689847284600F0DAFD7B49286895
:1022B00021228B684468284623F480738B60784918
:1022C000A047284600F0CCFD2B68422275495B6888
:1022D00028469847284600F0C3FD734A734B0721F0
:1022E0001964936B43F040039363BFF34F8F30BF88
:1022F000FDE75B6808226E4928469847234610226E
:10230000D8F88810284600F0AFFD284600F0A8FD58
:102310002B68F7075C686ED4B00700F14D81310778
:1023200000F14181F20600F15381B7066BD52A22F4
:10233000604962E04822604928469847284600F0F4
:102340008FFDC8E65B6808225C4928469847002351
:10235000D6F88C101022284600F086FD284600F0A2
:102360007FFD2B68A0075E6863D461007FF570AEC7
:102370001B2253495FE0002406E0062F3C463FF451
:10238000D7AE504BD3F8C0604FF0010808FA04F301
:1023900004EB08073342F0D02B680E224A49284646
:1023A0005B6898473946284600F046FD2B680522B1
:1023B00046495B6828469847454B0A22284603EB66
:1023C00084040023616800F04FFD2B68042241491A
:1023D0005B6828469847616800231022284600F071
:1023E00043FD2B6842463C495B682846984728468F
:1023F00000F036FDC1E7282238492846A047284684
:1024000000F02EFD2B68340672D4F0055C6819D4F8
:10241000B10500F1CE80720500F1C880370500F1EA
:10242000D480F00400F1CE80B10413D531222C49C0
:102430000AE026222B492846B047284600F010FD26
:102440002B6805E6202228492846A047284600F0A8
:1024500007FD2B68320470D4F7035C6864D4B003C2
:1024600000F1AD8071037AD4320300F1B780F70137
:1024700000F1B180B6017FF5E5AD1B221B4955E0A7
:102480006C5F0020945F0020C05F0020E85F0020A8
:1024900014600020386000205C60002000800F4045
:1024A00088600020AC60002000400D4000C00A4061
:1024B000CC5800207C590020DC5E0020DC5C002031
:1024C000105D002000FF2720F06000200061002048
:1024D000C0FF27200861002010330020D8580020BA
:1024E000A05B0020E85C0020905A0020C05C002027
:1024F0003F4C21225B6828463E4998471022002322
:10250000D4F89010284600F0AFFCD4F890201F2A91
:1025100028D9394B9A4202D320339A4261D32846B4
:1025200000F09EFC2B6870E7232234492846A04720
:10253000284600F095FC2B6884E55B682122304931
:10254000284698472A4900231022D1F8941028469B
:1025500000F08AFC284600F083FC2B687CE72822E8
:102560002849E3E72B681F22274928465B689847DC
:10257000D4F8981000231022284600F075FC2B6830
:102580003F2222495B6828469847D4F898100023D8
:102590001022284600F068FC2B681D221C495B684D
:1025A00028469847BBE729221A4926E744221A49B8
:1025B0004AE72D22194947E7212219491DE731220F
:1025C0001849B3E7332218493EE73F2217493BE752
:1025D0002522174911E728221649A7E7162216498E
:1025E000A4E72B684222154928465B68984796E77E
:1025F00000FF2720A859002000A90120F85B002037
:10260000D45B0020505C0020CC590020EC59002005
:102610002C5A002028590020E45A0020B45A0020E7
:10262000045900201C5C00206C5B00202C5B002007
:1026300054590020945C00207C5C00204C5A0020FF
:10264000134BD3F880300B2B1FD14FF0FF32DFF844
:1026500048C0104800B5DFF844E0DCF80030202125
:102660000CF1040C5A4042F30003013903EA000361
:1026700083EA5202F7D1F445EFD1054BD3F8A80015
:10268000801AB0FA80F0400900BD0020704700BFFA
:1026900000FF27202083B8ED80FF2720A8FF2720F8
:1026A0000F4B40F2376C0F4AA020D96E41F44031F5
:1026B000D966D96E41F44071D966C2F844C09064BD
:1026C000936C1B06FCD4084A40F23761A023516486
:1026D0009364936C13F08003FBD1044A137070472A
:1026E00000C00F4000400C4000800C40B2A8012008
:1026F000294A00210123C2F8A000C2F8A410C2F8A0
:10270000B0305369D907FCD501234FF4803C2249EE
:102710005361C2F8A000C2F8A4C0C2F8B0304B693F
:10272000DB07FCD501234FF4003C1B4A4B61C1F889
:10273000A000C1F8A4C0C1F8B0305369D907FCD5D6
:102740000123DFF858C014495361C2F8A000C2F851
:10275000A4C0C2F8B0304B69DB07FCD5D1F800311A
:1027600045F60D504FF0210C9AB2C1F814C08242C8
:1027700010D045F69D518A420AD1C3F34253032B30
:1027800008D0A3F10403B3FA83F35B09180170477F
:10279000002070470820704700402A4004000300D2
:1027A000704700BF704700BF704700BF00BF704751
:1027B0004FF0E02300214FF0100C3448C3F8941D73
:1027C000C3F89CCD4FF0110CC3F8A00D3048C3F8EE
:1027D0009CCD4FF0120CC3F8A00D2E48C3F89CCD31
:1027E0002D4AC3F8A00DDFF8D0C042F015022B48E7
:1027F000C3F89CCDC3F8A00DDFF8C0C02848C3F8CB
:102800009CCDC3F8A00DDFF8B8C0C3F89C2D2548B7
:10281000254AC3F8A0CDC3F89C0DC3F8A02D02F53E
:10282000A022DFF8A0C00C322048C3F89CCDC3F82A
:10283000A02D1F4AC3F89C0DC3F8A02D02F14062E1
:10284000DFF884C002321B48C3F89CCDC3F8A02D2A
:102850000A32C3F89C0DC3F8A02D00BF00BF00BF13
:1028600000BF00BF0122C3F8942DBFF34F8FBFF309
:102870006F8FC3F8501FBFF34F8FBFF36F8FD3F825
:10288000142D42F44032C3F8142D70473F0000105D
:10289000250008070900100000A9012021000207F7
:1028A000250008131600202027000B1318000060D5
:1028B0002F000B071A0000801300200014000020D6
:1028C00009000010170000401900007030B5864B59
:1028D00085B0DFF874E21822844D0120C3F85CE271
:1028E0008349C3F86052A5F58055DFF860C2814C7A
:1028F000C3F864E2C3F868522125C3F86CC2C3F878
:1029000070C2C3F874C2C3F878C248F20C7CDA66AD
:102910001A675A679A67DA67C3F88020C3F8842079
:10292000C3F88820C1F82C03734AC1F83003C1F8FA
:102930003403C1F83803C1F83C03C1F85003A1695E
:102940006E4B0A406E486F4913436F4AA361D4F837
:10295000843043F00C03C4F884304FF0FF34036834
:1029600043F002030360036803EA0C031A43674B56
:10297000026044608A68664C1340664A43F0005324
:102980008360C36823F07803C360036A23401A435B
:10299000604B0262026A22405F4C13430022436292
:1029A0008462C46240F20564D1F8B83023F03F037A
:1029B00043F00103C0F8B830D1F8BC30574923F0D8
:1029C0003F0343F00103C0F8BC3002610567C0F863
:1029D00080404567C0F884400224036823F0020366
:1029E000036081614E4B4F49C46143F8042B8B4215
:1029F000FBD1434C236843F001032360256815F0A5
:102A00000105FBD14548022240F2F561A06140F288
:102A10009940E26140F26642C4F8001242F201417C
:102A2000C4F81022404AC4F82002C4F8302240F210
:102A30003542C4F834123D48C4F840223C4AC4F838
:102A400050022846C4F8542242F201223949C4F8FF
:102A50006012C4F86422FFF74BFE0246002839D00A
:102A6000810201234FF4802021662549C4F8A0503B
:102A7000C4F8A400C4F8B0304B69D807FCD51505DC
:102A80000124039228464C61FFF732FE039A2A4B39
:102A90000244D2B21A7080B1194980024FF48023E7
:102AA00048660846C1F8A050C1F8A430C1F8B0404B
:102AB0004369DB07FCD501234361204900242048FA
:102AC00001230094401A00EB02521E4800F0F8F96E
:102AD00005B030BD1B4B184918600870D860C3E9B9
:102AE000010005B030BD00BF00801F40F91001009B
:102AF00000841F4000C00F40FFFCFF1F0003008048
:102B000000402A4000802A401200FFFFFF37F700F4
:102B100000FFF07C40000080FF000F83F05AF05A65
:102B200000422A4000432A409F041830EB06180A4E
:102B3000063201263806180AB7A8012000000070E6
:102B40000000007044A70120F9B00100F9700100F5
:102B500010B5174A4FF480544FF4005E4FF4404CC8
:102B60004FF4803043F24201136913F0020F0DD18C
:102B700013F4005F0FD013F4805F0FD0002BF3DA53
:102B800013F4803F0CD15B060ED510BDC2F818C0FF
:102B900050619161E8E7C2F814E0E5E75461E3E7CA
:102BA0004FF480339361DFE740235361DCE700BFDC
:102BB00000800D40414A03204149F3EE095AD2F802
:102BC00080309FED406A23F001039FED3F5ADFF80C
:102BD00014C100B5C2F88030C2F89000D1F8E010FE
:102BE000DFF804E1CBB23948CEF8003007EE903A76
:102BF0000B0DC1F30B21F8EEE77A06EE903A07EEE3
:102C0000101A334BB8EEC77ACCF80010F8EEE66A2B
:102C1000304937EEC66A37EEC55A76EEC76A77EEA8
:102C2000E57A26EE266AC3ED006A25EE265AD2F82A
:102C3000803067EEA64AC0ED007AC6EE275A2648D5
:102C400085EE276AC4EEA76A75EE875AFCEEE55A50
:102C500036EE076A15EE90CABCEEC66A43EA0C531C
:102C600076EE877AC2F8803016EE103AD2F890C12C
:102C7000FCEEE77A01EA034141EA0C014FF0000C57
:102C800017EE903AC2F89011C3F30B03D2F89011EB
:102C90000B431249C2F89031D2F8803043F002035E
:102CA000C2F880300E4B80F840C0C1F840314FF080
:102CB000E0230122C3F8082100BD00BF00810D40C0
:102CC00000441F400000AA420000B44220A8012096
:102CD00024A801200000FF0F00E400E0008800208D
:102CE000CD4A020018A801201CA80120314B40F653
:102CF000617210B5C3F8202140F2044400F0A0F83E
:102D00002D4A2E49D2F880302D4843F00303C2F8F3
:102D100080302C4BC1F8604102681A4203D1D1F8CF
:102D2000A8319A071BD0254A4FF00041244B596324
:102D3000D2F8403143F00203C2F84031D2F84031BA
:102D40009B07FBD44FF400304FF0E0211C4B4FF0B9
:102D50000042C1F88C0219209A6300F0C9F8184BA0
:102D60000021164C4FF080420A209A634FF42072E3
:102D70001960C4F8A801144800F0CAF84FF48002A2
:102D800003464FF4810040F243111860C4F85831F3
:102D90001A640E4B0E4AC4F84811C3F804224FF0CF
:102DA000E0224FF400310123C2F80C11C4F8403185
:102DB00010BD00BF00800D4000C00F4000002E403D
:102DC00000900D40001C1E00000000200088002024
:102DD000D14C020008B50E4B1B6E9B0700D4FBBE06
:102DE00072B60C4B00200C4AC3F8400103F160435B
:102DF0000A49A3F55F2311649D46BFF34F8F4FF43B
:102E00000013074A0748DB6902609B68984700BFC8
:102E100000441F4000002E4000C00A400300200074
:102E2000000012EB00802020F8B500BFF8BC08BC01
:102E30009E467047000000005FF800F01D3F020052
:102E40005FF800F03D5402005FF800F06974010083
:102E50005FF800F0718C01005FF800F0BD9D01008B
:102E60005FF800F0353F02005FF800F0693F0200B4
:102E70005FF800F0C1D401005FF800F0C5D3010095
:102E80005FF800F041A402005FF800F0D98B010068
:102E90005FF800F08D4502005FF800F0893F020006
:102EA0005FF800F0318501005FF800F001D7010004
:102EB0005FF800F04DA402005FF800F0458B0100C0
:102EC0005FF800F0695D02005FF800F039DA010098
:102ED0005FF800F02D8501005FF800F0959D01007E
:102EE0005FF800F009AF01005FF800F089D601003B
:102EF0005FF800F0094402005FF800F0618501000E
:102F00005FF800F0C54702005FF800F0F5400200EE
:102F10005FF800F0FD9C02005FF800F0559B020096
:102F200045000000910E000001D000001DD00000FF
:102F3000690201005D520100E5590100E9750100D7
:102F4000D9820100E58301006D840100C18A01007E
:0C2F500029270200793E0200ED5F02001C
:102F5C001603550053004200200053006500720018
:102F6C00690061006C0000001803540065006500E6
:102F7C006E00730079006400750069006E006F00CC
:102F8C000403090409026200030100C032080B00AB
:102F9C0002020201000904000001020201000524E2
:102FAC000010010524010101042402060524060079
:102FBC00010705820310001009040100020A000039
:102FCC0000070503024000000705840240000009C9
:102FDC0004020002FF6AFF0007058102400001079E
:102FEC00050102400001000009026200030100C05B
:102FFC0032080B0002020201000904000001020267
:10300C00010005240010010524010101042402061D
:10301C0005240600010705820310000509040100C0
:10302C00020A0000000705030200020007058402E3
:10303C000002000904020002FF6AC70007058102B2
:10304C000002010705010200020100000A0600024D
:10305C00EF020140010000006CC00F4003000000B3
:10306C000E0D00000D7102002A3600001400000045
:10307C001300000001000000F4841F402B320000FC
:10308C00140000001300000001000000F8841F4031
:10309C002D3100001400000013000000010000009E
:1030AC00F0841F402CFFFF00140000000000000003
:1030BC00000000000100000000000000EC841F4034
:1030CC0000000000000000006CC00F403000000049
:1030DC00100F00000D710200012700001700000006
:1030EC00120000000001000014851F401AFF0000B0
:1030FC0012000000000000000100000018851F40B5
:10310C001BFF000012000000000000000100000086
:10311C0010851F400026FF00170000001200000061
:10312C000000000001010000010000000C851F40A0
:10313C000C851F40000000006CC00F40C000000058
:10314C00504F0000E17102000CFF00001300000062
:10315C00000000000000000024851F400BFF000051
:10316C0013000000000000000000000028851F4034
:10317C000DFF000013000000000000000000000024
:10318C0020851F400A2524001300000012000000B7
:10319C00120000000102030000000000000000000B
:0831AC0000000000000000001B
:1031B400000000000000000000000000000000000B
:1031C40000000000000000000000000000000000FB
:1031D4000548064B1B1AD90F01EBA301491002D075
:1031E400034B03B118477047C08A0020C08A0020EF
:1031F4000000000008B5054B1BB105490548AFF3B5
:103204000080BDE80840FFF7E3BF00BF00000000F6
:10321400BCA7012000F00360134A1368012B10D0EF
:10322400022B15D0114A0021C2F89C1EA2F8AD1E33
:1032340082F8AF1E0BB1052B14D10D4B01221A706D
:1032440070470C4B0C481B6800680C491B1A0B6038
:10325400064B00210320C3F89C1EA3F8AD1E10608A
:1032640083F8AF1E704700BF3CC90020D8890120F5
:103274009AA8012034A8012054990020A4C8002051
:1032840003685B68184700BF034B10B5044603602E
:103294000FF090F8204610BD48690020054B10B58A
:1032A400044603600FF086F820460FF059F82046D4
:1032B40010BD00BF4869002000B583B004226946F0
:1032C40000900DEB02000FF04DF803B000BD00BFFD
:1032D40000B583B00422694600900DEB02000FF0A4
:1032E40041F803B000BD00BF00B583B004226946B5
:1032F40000900DEB02000FF035F803B000BD00BFE5
:1033040000B583B00422694600900DEB02000FF073
:1033140029F803B000BD00BF00B583B0042269469C
:1033240000900DEB02000FF01DF803B000BD00BFCC
:1033340000B583B00422694600900DEB02000FF043
:1033440011F803B000BD00BF00B583B00422694684
:1033540000900DEB02000FF005F803B000BD00BFB4
:1033640000B583B00422694600900DEB02000EF014
:10337400F9FF03B000BD00BF03464068B8B100B513
:1033840083B001930FF020F8019B68B1586802687C
:1033940092689047019B58688268013A82601AB922
:1033A4000268D2689047019B184603B000BD1846D6
:1033B400704700BF00B5042283B0009069460DEB4E
:1033C40002000EF0CFFF019803B05DF804EB0EF09D
:1033D4002DB900BF10B50446103023F0D7FC04F11A
:1033E400080023F0D3FC204623F0D0FC204610BD77
:1033F40038B5054624F036F904461148017815F02D
:10340400E9F924F02FF90F4B001B0F4A0F49106004
:103414001A6890424FF0000288BF186001200C4BDC
:103424001C600C4B18700B680B48013302700B487E
:103434000B6002701DB10A4A13680133136038BD72
:10344400A0920020509900203499002054C90020F3
:103454004C99002096A8012095A8012099A8012044
:103464008C9801200A4A1368013B136003B170472A
:1034740000B5084A83B0CDE90030106832F02CF86A
:103484000199044A009B0846136003B000BD00BFC5
:10349400E0950020E49500200A4A1368013B13607C
:1034A40003B1704700B5084A83B0CDE90030106815
:1034B40032F00AF80199044A009B0846136003B0ED
:1034C40000BD00BF449700204897002090F8783052
:1034D40003B9704700B585B000F10C0C042203A9B0
:1034E400019002A8CDF80CC00EF03CFF02980268CF
:1034F400126A90470022019B83F8782005B000BD32
:1035040038B505462AF094FA044625F061FC104BC0
:103514001B787BB10F4B1B78DB070BD50E4B0F4A87
:103524001B6812689B1A0E2B04D925F0DFFB631C61
:10353400834204DD0A4A13680133136038BD21460F
:10354400284625F0C9FB0A20BDE8384025F0B0BB69
:10355400C6A80120C5A8012034A801206CA8012018
:10356400ACC800202DE9F04F9E4EC9B007F090FE84
:103574008046336813F0010400F0F88016AF9A4CCB
:10358400D4E9004515B128460EF016FF40463A46E8
:1035940042F21071CDE9164507F0CAFA179820B126
:1035A4000EF012FF002840F0D280904B0125002439
:1035B400DFF878B21A68BA4619889B78100CADF80F
:1035C40034208DF8393002238DF8360014A88DF894
:1035D40054300B23ADF837108DF84C308DF83A5039
:1035E4008DF84840FFF774FE4FF07E53DFF84092A9
:1035F400DFF840828DF854508DF83A40149346E039
:103604007B4B53F822300DAA06A9504600923A4645
:1036140006F032FD514638460AF020FD384615F0D2
:103624009FF8786870B10EF0CFFE58B178680368DF
:103634009B68984778688368013B836013B9036883
:10364400DB689847BBF800306A49C3EB03130A6888
:103654005B0003F596739A4238BF0B609DF81831EE
:10366400002B6DD12AA80DF0F1FD9DF8A430002B9C
:103674005FD19DF89830002B54D19DF874303BBB3A
:103684005D4B09F1060908F561685B452DD03BF8EF
:10369400023F002BF4D004AF99F80120574E554651
:1036A4000692D44607ACC7E9008300238DF8303076
:1036B400534B1A6803920FCE36680FC52E60BCE8D0
:1036C4000F000FC4039A2660052A99D942239AE76A
:1036D4004C4A013B504609F1060952F8233008F5DB
:1036E40061689847444B5B45D1D1474A0823002180
:1036F4001046137015F03AF8444B3E4A19681268A4
:103704008A424FF0010188BF1A60414A9DF8543043
:103714001170002B5ED19DF84830002B51D149B077
:10372400BDE8F08F3B4A013B23A852F82330984769
:10373400A3E7394A013B28A852F82330984798E771
:10374400364A013B30A852F8233098478AE7179845
:1037540003689B68984717988368013B8360002B34
:103764007FF423AF0368DB6898471EE77C210420BD
:103774000EF0F2FD4FF00109294A16AF00F10C03D7
:10378400C0F804900546394680F87840C0F808909F
:10379400026004220DA816930EF0E4FDDDF834A0B7
:1037A400114C504613F056F91E4A1F49204685F81D
:1037B4007890C6F80090C4F800A0656025F0ECFB92
:1037C400DEE6144A013B0FA852F82330984749B06B
:1037D400BDE8F08F104A013B14A852F823309847F3
:1037E40099E700BFA4940020E89A0120E407002090
:1037F400C00800203C99002052C90020E80700209E
:1038040040C90020B86D0020A0920020447F002011
:1038140098A80120C86D00200C6E0020E06D0020E7
:10382400486900205C810020C901000042C90020D1
:103834007463002058C900202DE9F04F304B314FFC
:103844001E68DFF8F4903B68D9F80050012BA6EB12
:1038540005052DED048BADF6941D00F033822A4B43
:103864001B685F93294B69A81B6819464A9316F095
:103874002DFF274A274B6C9202F59002D3F800C023
:1038840002F2A5222448BCF1020F6D924FF400729B
:10389400CDE96E0225D19A1C0DF5D77103F1120EF4
:1038A40032F8028F31F8020F80451AD19645F7D1CC
:1038B4001A4A60923A68052A18D9194A6392194A31
:1038C4006492194A194912780978002A36D1184A9B
:1038D4006692002900F0CF811249104F67916592DA
:1038E4003CE0104A60923A68052AE6D81149022A57
:1038F40051F82210639140F0EA81084A6492E0E7AB
:1039040034A801203CC90020A4C8002098990120B3
:10391400CB00E20240C9002060011802A409002083
:10392400AC0900209C0900203A84002098A80120BA
:10393400BC090020F008002048990020002940F02C
:103944008E81BCF1050F9C4F00F28E819B4A52F888
:103954002C2065929A4A66929A4A67929A499B4A9F
:103964000968DFF8C882539199491278096854911B
:1039740098490968559198490968569199884B91D5
:10398400D9884C9119894D9159894E9199894F91B2
:10399400D9895091198A5B8A519152938F4B1B6834
:1039A4004893D8F800304993002A00F08481854B6D
:1039B40061938B4B1B78002B00F06F81814B6293DA
:1039C400002D00F06F81DFF868A207EE905A489A44
:1039D400DAF80030B8EE677BDFF858B2D31A499AA8
:1039E40006EE103ADBF800309FED715BB8EE466BE3
:1039F400D31A26EE056B86EE078B06EE103AB8EE68
:103A0400466B26EE056B86EE079B764B4A981B6841
:103A140075494A93754B764A1B68764D5793764B96
:103A240012681B685E9258930B68296859939DF835
:103A3400A8315D915A939DF8A9319DF8AB415B93F0
:103A44009DF8AA315C9316F039FEDDE95D12002879
:103A540000F036815B4B69480078002800F02E8125
:103A6400584839944FF07A0C654C4FF0050ECDE967
:103A74003A305C9B634838935B9B37935A9B3693ED
:103A8400599BCDE93413604909683F915F4909683E
:103A94003E91C169479181694691416945910169A6
:103AA40044918168439141684291C16841910168A0
:103AB4008E204091D4F88410589B3D91D4F88810FE
:103AC40085243293579B3C91002131934A9B339236
:103AD40092223093629B2A93619B2993499B28935A
:103AE400569B2793489B2693559B25935F9B249332
:103AF400549B2393539B1993529B1893519B179355
:103B0400509B16934F9B15934E9B14934D9B13936D
:103B14004C9B12934B9BCDE9212111938B220823BB
:103B24000721CDE91F201A937F220C9370A8659B6F
:103B3400CDE91D2408937822669BCDE91B2C0793BD
:103B44001522679BCDE90F2E8DED2E9B8DED2C8BD1
:103B540004931422649B0393639B0293609B0193DD
:103B64000623CDE90D320E23294ACDE90A31022379
:103B74004FF4FA610993274BCDE905770093264B5F
:103B840028F0DCFF044625F023F9244B1B78002B96
:103B940052D0234B1B78DB074ED5224B224A1B689D
:103BA40012689B1A0E2B6AD846E000BFAFF3008060
:103BB4000000000000408F409C090020D80800202D
:103BC400B4090020A40900209898012096A8012097
:103BD400447F0020487F00208C98012054C9002095
:103BE40099A8012034990020ACC8002050990020E5
:103BF40098C80020A0C800204099002097A8012060
:103C0400B0C80020D83901209498012038990020A8
:103C1400C4090020440900205C630020C6A80120D8
:103C2400C5A8012034A801206CA801209098012087
:103C34009CC80020A8C800202B6801332B60284BA7
:103C4400C9F800601A68D8F80030CAF80020CBF828
:103C540000300DF6941DBDEC048BBDE8F08FBCF173
:103C6400050F204F7FF672AE1F4A66921D4A679277
:103C74001E4A659272E61E4F659267976EE6621E53
:103C840040F2CE739A42D7D825F030F88442D3DC80
:103C9400214670A825F020F8D1E7154B6293002D3A
:103CA4007FF491AEDFF850A0DFF850B09FED0A8B9F
:103CB400B0EE489BA9E60E4B61937AE60C48D0E639
:103CC4000B4BC8E60B4B1B68F31A5F93CAE5084A13
:103CD4006492F6E5AFF300800000000000000000ED
:103CE40054C90020A4090020B4090020AC09002014
:103CF4009C090020549900209CC80020A8C80020DA
:103D04002DE9F0439DB00C4606463022002110A850
:103D140029F0CCF82378002B00F01781202B10AA6F
:103D240006D0A3F10903B3FA83F35B09002B75D022
:103D3400002514F8011F2029FBD00929F9D00029F6
:103D440050D00C2D1AD023780135146013F0DF0FF6
:103D540005D123E014F8013F13F0DF0F1ED0092B27
:103D6400F8D1002304F8013B2178E1B1202902F1C4
:103D74000402DED00929DCD00C2DE4D10023022179
:103D840047F230523360B3617160F261C6E90233C5
:103D9400C6E9043330461DB0BDE8F083002BE0D102
:103DA40021780029E2D108AC2022204629F07EF8AF
:103DB400012D35D0AB1E012B60D90B2D00F0848072
:103DC400022347F230522546B4460F9209930FCD91
:103DD400ACE80F0095E80F008CE80F0030461DB0EA
:103DE400BDE8F08308AC2022204629F05FF8002DBE
:103DF400DED10022022325463446CDE908230022E1
:103E040047F23053CDE90E230FCD0FC495E80F00D0
:103E140084E80F0030461DB0BDE8F0831D4690E7EE
:103E2400109F7C49384629F033FCA8B17A493846BA
:103E340029F02EFC002800F08E807849384629F0BD
:103E440027FC002800F08C807549384629F020FCB6
:103E5400B0FA80F56D09AD0047F230520223B44642
:103E640008950F9209930FCCACE80F0094E80F006B
:103E74008CE80F0030461DB0BDE8F0836949109806
:103E840029F006FC024600289AD1119B664918467F
:103E9400CDE9003229F0FCFB002200285DD0009B14
:103EA4001978A1F1310007285CD85B78002B59D12F
:103EB40030390622032D57D047F230530F93B446BE
:103EC400022308920E91CDE75849109829F0E0FB9F
:103ED40000287FF475AF5649119829F0D9FB0028C2
:103EE4007FF46EAFDFF854E10DF1080C0746DDF8FE
:103EF400489065464FF00208BEE80F00ACE80F009A
:103F04009EE803008CE8030055F8043B4949052B5F
:103F140002D8494A52F823104846009329F0B8FBC6
:103F240010B9DDF800800127A542EDD1AFBB47F2FF
:103F340030532C46CDF8248035460F930FCC0FC553
:103F440094E80F0085E80F0024E708ACCDE90A33B4
:103F5400CDE90C334DE702257EE711460622A9E799
:103F6400032579E71146A5E7129D287800283FF438
:103F740005AF002306E0B3F5167F3FF6FFAE15F854
:103F8400010F30B3303803EB83035FFA80FC00EB9E
:103F94004303BCF1090FEED9F0E612A80DF1680E47
:103FA4000DF1260C002150F8045F2A78CAB10023D1
:103FB40006E0B3F5966F3FF6E1AE15F8012F8AB12E
:103FC400303A03EB8303D7B202EB4303092FF0D952
:103FD400D4E6002B3FF4D2AE4FF47A7000FB03F327
:103FE4006CE71346704519442CF8023FDBD10029D5
:103FF4003FF4C4AE052347F23052B446CDF82480D2
:104004000F9208930FCCACE80F0094E80F008CE8F3
:104014000F00BFE6400E0020480E0020500E002086
:10402400580E00205C0E0020640E0020680E002054
:10403400B4090020AC090020D8080020FC070020A7
:1040440038B5364B19684A1C1A6000294CD0344ADA
:104054003449354824F0A0FF344A1368591C1160D0
:10406400002B53D02E4A3249324824F095FF32496E
:10407400002201F5E140A1F5616343F8042C43E912
:1040840003220C338B42F8D103F561618142F2D1F2
:104094002A4802242A4B2B492B4AC0E90043C0E991
:1040A40002124FF40074294B29490022046143F899
:1040B400042C43E903220C339942F8D1254B4FF0E9
:1040C400000203F109011A80033303F8012C8B4227
:1040D400F9D16021204817F0B7F8114A1F491E484A
:1040E400BDE8384024F058BF1D4C4FF4EE721D4813
:1040F40004F5CC7528F0DAFE2046883417F034FA3B
:10410400AC42F9D1184B174A1A60A0E7174C204665
:1041140031F0EAF9164B1C60A4E700BF4497002075
:104124005C810020E9020000B0990120E0950020A4
:10413400B50200009C99012074D7002040C90020DA
:10414400CB00E20270032A03600118026499002084
:1041540098C800208CC80020B0C80020057D01004C
:10416400909700204C97002048970020E895002065
:10417400E49500202DE9F8431B4D40F2EE281B4C3A
:104184001B4FDFF880902E6824F022FE2378EBB1D9
:104194003B78DB071AD52B68D9F800209B1A0E2B25
:1041A40014D9144B14491C68204616F0D9FA204639
:1041B40016F006FA41F63611104817F029F90038BE
:1041C4000F4B18BF01201870BDE8F8832B682278C4
:1041D4009B1B2AB1B3F5FA6FE3D824F0F9FDD3E7BA
:1041E4004345FAD9DDE700BF34A80120C6A8012061
:1041F400C5A8012098990120700E0020B0C80020A5
:1042040097A801206CA80120654B1B682DE9F04F8D
:10421400644CA3B01846039316F0D2F82378002B0D
:1042240000F0FB824024DFF8A0A15F4D5F4E0BE05D
:10423400A0F120035E2B40F29080092800F08D80CD
:1042440001232B70013C19D024F0DCFCB0B124F024
:104254001FFDC0B20A2801D00D28E9D1336800211E
:1042640053482A78C154002A40F08480002B40F03F
:1042740085800023013C33602B70E5D180254D4CB3
:10428400DFF848814C4EDFF84891236B2046D8F87C
:1042940000209A4238BFC8F8003016F08FFC00287E
:1042A400C0F29E8000F09980D9F80030D4F840B074
:1042B400676C01333268A7EB0B07C9F80030013291
:1042C400A36D112F3260029340F3848008223B498E
:1042D400584628F017FD00287CD19BF80820002AB6
:1042E40078D19BF80920502A74D19BF80A109BF8C6
:1042F4000B2002EB01220D2A6CD99BF810109BF8BD
:10430400112002EB0122911EB1F5FF7F62D8D10783
:1043140060D402F112018F425CD19BF90F109BF81B
:104324000F00002956DB9BF80E104FF0AA0C01EB8E
:104334000023234901F12A0E0F88D81BBB420CFB32
:1043440000F003D34F88B842C0F0B88306317145FA
:10435400F2D1B3680133B3603FE02B78002B7FF4D4
:104364006FAF33685A1C9F2A3FF66AAF3260104A17
:10437400D05467E71348FFF7C3F87AE70C4906A857
:10438400FFF7BEFC069B013B052B00F2B184DFE87E
:1043940013F062015F0140012001F400D50000BF69
:1043A4009899012097A80120A4A80120D899012058
:1043B400DC990120B0C80020D8390120140800205D
:1043C400A4630020C40E0020D88901209498012001
:1043D40038990020736801337360013D7FF455AF51
:1043E4009E4ADAF89C3E14682BB1DAF8A03EE31A30
:1043F400642B00F29C80DAF8A83EE31AB3F57A7FC6
:1044040002D90023AAF8AE3E954B1B68012B00F09D
:10441400E081022B00F0EC81924E3378002B00F007
:104424008981DFF8B482D8F8005015F0010500F056
:1044340055818D4814F0BAFB002848D18B4F3B7846
:10444400002B00F082828A4D23F00CF92B68C01AED
:10445400B0F5967F3BD323F005F9864B1A68864B5B
:10446400821A1B689A4232D38449002384483370E9
:104474000B6801330B60834B01681A608A42784BE6
:104484001B6840F26982032B026040F058817E4D24
:104494002B684BB123F0E6F8764B7C4A1B68126814
:1044A400C31A9342C0F0BE824FF4E142002178481F
:1044B40028F0FCFC0120FEF79BFF694B1B68032BD3
:1044C40000F07D83042B08BF0523654A1360714BFC
:1044D4001B78FBB1704B1B7833BB1E256F4E24F049
:1044E40077FC6F4B1B78ABB16E4B1B78DB0711D598
:1044F4005A4B6D4A1B6812689B1A0E2B0AD924F07A
:10450400F5FBA84206DB2946304624F0E5FB0023F0
:10451400604A1370654B1B68E41AB4F57A7F80F027
:10452400868123B0BDE8F08F1B25614ED7E7336940
:10453400013333610023CAF89C3E5CE75D4B1B7872
:10454400002B00F0F581534B1B78002B40F0EC81DD
:10455400434B1B68013B032B40F2E8800C9F002F68
:1045640000F06882544A02EB47025388002B40F063
:1045740061825248FEF7C4FF7BE6394B1B68013B5E
:10458400032B40F2D380444B1B7893B14A4A079BD8
:104594001168994240F06E82931C0DF11E01123293
:1045A40033F8027F31F8020F874240F063829A4267
:1045B400F6D10DF11C0C3F4B01223F4F1A70BCE8A1
:1045C4000F000FC7DCF800303D483B60FEF798FF52
:1045D4004FE6304B1B78002B40F0A681204B1B6824
:1045E400013B032B40F2A280364B334A0F9303F571
:1045F4009003354803F2A52310934FF40073CDE9DB
:1046040011031368022B00F0E3813048FEF778FFB2
:104614002FE6134B1B68013B032B40F2878024F0E9
:10462400D7FB1F4B1B78002B3FF423AE1D4B1B788D
:10463400DF077FF51EAE1C4A084B1B6812689B1AE5
:104644000E2B7FF616AE2249224830F055FF10E6B5
:10465400FEF7E2FD0DE6FFF7EFF80AE634A80120C5
:104664003CC9002096A80120E08F002095A80120D5
:10467400449900204C9900203C99002090980120F6
:1046840098C800204099002054C90020447F00208D
:1046940058C900209AA8012098A80120A40E00203F
:1046A400C6A80120C5A801206CA8012048990020B3
:1046B400880E00203A84002040C90020AC0F00205E
:1046C400400F0020CB00E202600118021C0F002002
:1046D4002C7F0020307E002034940020A04F2946F7
:1046E400384622F0EDFA294607F1080022F0E8FAEC
:1046F400294607F1100022F0E3FA07F14003384697
:10470400984A3B62012398493D6687F86C50C7F884
:10471400DC50C8F80030C7E9195524F03DFC904836
:1047240014F044FA00283FF489AED0E68F48FEF72F
:10473400E7FE9EE58E4B1B68032B3FF4A8AE042BCB
:1047440000F0FA80012B77D0022B7FF4C0AE894DA4
:104754002B684BB122F086FF874B884A1B6812688E
:10476400C31A9342FFF4B3AE9AF8AD3E002B3FF464
:10477400AEAE002742F63D728149CB268148824D78
:1047840022F0E6FF4FF4E1423946804805F1400B40
:104794008AF8AD7E4FF4616ADFF8F09128F086FB69
:1047A400DFF8E08146B9083537445D4500F0B8804C
:1047B40035F8086C002EF6D055F80C3C07EB470191
:1047C40006EB4602013B41440AFB039022F0C0FF82
:1047D400E9E76F4B6F4A1B681268E31A9342FFF4D0
:1047E4001BAEFEF719FD624B1B68022B7FF414AE5F
:1047F400039815F063FF68B1674B1B68E31AB3F5C0
:104804007A7F7FF609AEDAF8A43EE31AB3F57A7F2D
:104814007FF602AEFEF700FDFEE541F636115F4875
:1048240016F0F6FD003818BF01202070FAE423B01A
:10483400BDE8F04FFFF700B84E4D2B684BB122F0A6
:1048440011FF4D4B4D4A1B681268C31A9342C0F0C6
:104854002F8100214FF4E1424C484FF4967B28F01D
:1048640025FB4F4B4F4D1A68494B48481B68D21AD9
:104874004D4BA3FB02139B0AA5FB03154B496D0883
:10488400D1F800C04FF42F6105EB450501FB132A55
:1048940047495D1B474A00230E1F92F800E00EF1C2
:1048A400FF37072F33D806EB4707BF887FB3E645AA
:1048B40002D0BCF1000F2AD10BFB0EF7BA4526D269
:1048C4003D4FA7FB0A877F090BFB17A7952F1ED81F
:1048D4000F88774528BF7746CFB107EB47082B4FA2
:1048E4004FF0FF0907EB030E0746C644002D00F006
:1048F400C680012D00F0CF8007F103080637C645B6
:1049040007F8049C03D0774588F80290F4D103F5A6
:1049140061630632023100F56160B3F5E14FBCD149
:104924000020FEF765FDD2E52448FEF7E9FDA0E48A
:104934002348FEF7E5FD9CE40123224A1370224A32
:10494400137005230A4A1360C4E522F08BFE1F4D41
:10495400012328603B7077E5032B7FF4F0AE96E5E6
:10496400E08F00205C81002025020000F00E002072
:104974003CC9002054C900204C990020447F0020E9
:1049840035690120589900206809002058C9002081
:1049940054990020487F002088980120B0C8002046
:1049A40034A80120ABAAAAAA91739F5D989801200C
:1049B40044C9002074630020B5814E1B040F0020FD
:1049C400980F002099A801209AA80120449900205A
:1049D400931C0DF13A01123233F8027F31F8020FC1
:1049E40087427FF412AE9342F6D1A24B1B78002B80
:1049F40000F0EA80002350210EA8CAF89C3EAAF8D1
:104A0400AD3E8AF8AF3E9C4B1A689C4B1A60022359
:104A14009B4A13609B4B9C4A28F090F80EA8FEF723
:104A24006FFD26E4964B1B68042B85D0012B7FF485
:104A34008BAE02E78F4B1B78002B00F0C2800D9ADF
:104A44008D49009208689149914B08600EA89149DC
:104A54001F603B460A6000218F4A11600122884989
:104A64000A6050218D4A28F069F80EA8FEF748FD27
:104A7400FFF7FFBB8A48FEF743FDFFF7FABBB846D2
:104A840008F8039BF0453FF442AF87F803900637DC
:104A9400BE45F4D13BE707F103080637C64507F8DE
:104AA400059C3FF434AF774588F80190F3D12EE7A5
:104AB400734B1B68022B7FF40AAD49E6BC460746DC
:104AC400ACEB000000EB4000B0F5FF7F28BF4FF4D3
:104AD400FF7082428446FFF47DACDAF89C2EB1F874
:104AE40004E05AB1DAF8A02E02998A1A642A05D988
:104AF4003269013232610022CAF89C2EDAF8A82EFB
:104B040002998A1AB2F57A7F61D90022AAF8AE2EE8
:104B14009BF80C200592002A00F0CC80A3F17802C7
:104B2400012101FA02F3DAF89C2E04932AB13269C6
:104B34000A4432610022CAF89C2E059B01228AF89D
:104B4400AC3EAAF8AE2E029BCAF8A03E0EEB0700BC
:104B5400544B62460BF1120100EB4000184422F062
:104B6400F7FD06F5A043029A0499C3F8A82ED3F8DA
:104B74009C2E0A434C498A42C3F89C2E7FF42DACE8
:104B840093F8AD3E13B1F3690133F36142F63D721C
:104B94004449464822F0DCFD029BCAF8A43E059B2A
:104BA400003B18BF01238AF8AF3EF3680133F3607A
:104BB4000023CAF89C3E01238AF8AD3E0DE4042389
:104BC40083E4FEF7CFFC3AE7FEF7CCFC12E79BF850
:104BD4000C209AF8AE1E0592002A37D000299DD0E9
:104BE4009AF8AC2E059991421AD08A1A3048FF32AD
:104BF400A0FB0201C909C1EB0121521A7F2A72D814
:104C0400DAF89C2E12B13269013232610021A3F12B
:104C14007802CAF89C1E012101FA02F304938CE77E
:104C24009AF8AF2E4AB9A3F17802012101FA02F3EE
:104C3400DAF89C2E1342049305D0B3690133B361AF
:104C4400FFF7CBBB0590002A80D17CE7A3F1780263
:104C5400012000FA02F3DAF89C2E049391B312B106
:104C64003269013232610022CAF89C2EAAF8AE2EB3
:104C740069E700BF98A8012034A801208898012082
:104C84003CC9002044090020340F0020549900201E
:104C940098980120487F0020A4C80020C80F002055
:104CA400840F0020F8390120FFFFFB3F3569012004
:104CB40081808080A3F17802012101FA02F3DAF8FD
:104CC4009C2E0493049B002112EA0300AAF8AE1E52
:104CD400B8D0B269CAF89C1E01320591B26132693A
:104CE400013232612FE7736901337361FFF775BBDA
:104CF4000248FEF705FCFFF7BCBA00BFE40F002032
:104D0400704700BF704700BF704700BF704700BFC7
:104D1400704700BF704700BF80687047002070472D
:104D2400C06E7047406B70477030704738307047C2
:104D340082B0CDE9001202B0704700BF704700BFD7
:104D44008068704710B1012380F8A430704700BF19
:104D54000123002082B063F30F2002B0704700BF2C
:104D6400086828B1007FA0F10200B0FA80F0400981
:104D7400704700BF10B5046894F800C0BCF1000F80
:104D840007D090F80CE0F444BCF1FF0FA8BF4FF03B
:104D9400FF0C90F818E00EFB0CCC4FEA2C2C81F899
:104DA40000C00168497829B190F80DC06144FF2919
:104DB400A8BFFF2190F819C00CFB01110912117052
:104DC4000268927822B1817B0A44FF2AA8BFFF229D
:104DD400817E01FB022212121A7010BD027BC17B7C
:104DE400437B891A027C90F80EC0D21A437C01736B
:104DF400A3EB0C0342738373704700BF036882689C
:104E040090F91210013A0B4482600360704700BFAE
:104E14004068704780688142CCBF00200120704701
:104E240090F81BC081F800C0017F1170427F1A7096
:104E3400009A837F1370704790F81BC081F800C0FC
:104E4400017F1170427F1A70009A837F137070473C
:104E540010B5046894F800C0BCF1000F07D090F8B6
:104E64000CE0F444BCF1FF0FA8BF4FF0FF0C90F826
:104E740018E00EFB0CCC4FEA2C2C81F800C0016822
:104E8400897829B190F80EC06144FF29A8BFFF2199
:104E940090F81AC00CFB01110912117002685278C3
:104EA40022B1417B0A44FF2AA8BFFF22417E01FBB5
:104EB400022212121A7010BD027BC17B437B891A35
:104EC400027C90F80EC0D21A437C0173A3EB0C034E
:104ED40042738373704700BF0368826890F91210AD
:104EE400013A0B4482600360704700BF406870471A
:104EF40080688142CCBF00200120704790F81BC01D
:104F040081F800C0417F1170027F1A70009A837F7C
:104F14001370704790F81BC081F800C0417F117076
:104F2400027F1A70009A837F1370704710B504686B
:104F340094F801C0BCF1000F07D090F80DE0F444E0
:104F4400BCF1FF0FA8BF4FF0FF0C90F819E00EFB67
:104F54000CCC4FEA2C2C81F800C00168097829B1E7
:104F640090F80CC06144FF29A8BFFF2190F818C035
:104F74000CFB0111091211700268927822B1817B35
:104F84000A44FF2AA8BFFF22817E01FB02221212DB
:104F94001A7010BD027BC17B437B891A027C90F896
:104FA4000EC0D21A437C0173A3EB0C0342738373C8
:104FB400704700BF0368826890F91210013A0B44ED
:104FC40082600360704700BF406870478068814218
:104FD400CCBF00200120704790F81CC081F800C0AD
:104FE400C17E1170427F1A70009A837F13707047DC
:104FF40090F81CC081F800C0C17E1170427F1A7005
:10500400009A837F1370704710B5046894F801C048
:10501400BCF1000F07D090F80DE0F444BCF1FF0F91
:10502400A8BF4FF0FF0C90F819E00EFB0CCC4FEA30
:105034002C2C81F800C00168897829B190F80EC041
:105044006144FF29A8BFFF2190F81AC00CFB01118D
:10505400091211700268127822B1017B0A44FF2AF6
:10506400A8BFFF22017E01FB022212121A7010BD9A
:10507400027BC17B437B891A027C90F80EC0D21A52
:10508400437C0173A3EB0C0342738373704700BF2B
:105094000368826890F91210013A0B44826003603D
:1050A400704700BF4068704780688142CCBF0020D1
:1050B4000120704790F81CC081F800C0417F117036
:1050C400C27E1A70009A837F1370704790F81CC0D8
:1050D40081F800C0417F1170C27E1A70009A837FEC
:1050E4001370704710B5046894F802C0BCF1000F47
:1050F40007D090F80EE0F444BCF1FF0FA8BF4FF0C6
:10510400FF0C90F81AE00EFB0CCC4FEA2C2C81F823
:1051140000C00168097829B190F80CC06144FF29E6
:10512400A8BFFF2190F818C00CFB011109121170DF
:105134000268527822B1417B0A44FF2AA8BFFF22A9
:10514400417E01FB022212121A7010BD027BC17B48
:10515400437B891A027C90F80EC0D21A437C0173F7
:10516400A3EB0C0342738373704700BF0368826828
:1051740090F91210013A0B4482600360704700BF3B
:105184004068704780688142CCBF0020012070478E
:1051940090F81DC081F800C0C17E1170027F1A70A2
:1051A400009A837F1370704790F81DC081F800C087
:1051B400C17E1170027F1A70009A837F137070474A
:1051C40010B5046894F802C0BCF1000F07D090F841
:1051D4000EE0F444BCF1FF0FA8BF4FF0FF0C90F8B1
:1051E4001AE00EFB0CCC4FEA2C2C81F800C00168AD
:1051F400497829B190F80DC06144FF29A8BFFF2167
:1052040090F819C00CFB0111091211700268127890
:1052140022B1017B0A44FF2AA8BFFF22017E01FBC1
:10522400022212121A7010BD027BC17B437B891AC1
:10523400027C90F80EC0D21A437C0173A3EB0C03DA
:1052440042738373704700BF0368826890F9121039
:10525400013A0B4482600360704700BF40687047A6
:1052640080688142CCBF00200120704790F81DC0A7
:1052740081F800C0017F1170C27E1A70009A837F8A
:105284001370704790F81DC081F800C0017F117041
:10529400C27E1A70009A837F1370704710B4002383
:1052A400D1E90042C1E900330460426010BC704798
:1052B4000023C0E9003370470A46036900F108017E
:1052C400406818470A46036900F108014068184716
:1052D40000B5D0F810E013460A4600F10801F44680
:1052E40040685DF804EB604700B5D0F810E0134661
:1052F4000A4600F10801F44640685DF804EB604793
:1053040000B5D0F810E013460A4600F10801F4464F
:1053140040685DF804EB604700B5D0F810E0134630
:105324000A4600F10801F44640685DF804EB604762
:1053340000B5D0F810E013460A4600F10801F4461F
:1053440040685DF804EB604700B5D0F810E0134600
:105354000A4600F10801F44640685DF804EB604732
:105364009FED077B10B5502204460021A0EC027B80
:1053740027F09CFD002384F8503010BDAFF300806B
:1053840000000000000000009FED077B10B55022D4
:1053940004460021A0EC027B27F088FD002384F85A
:1053A400503010BDAFF3008000000000000000008A
:1053B4009FED077B10B5502204460021A0EC027B30
:1053C40027F074FD002384F8503010BDAFF3008043
:1053D40000000000000000009FED077B10B5502284
:1053E40004460021A0EC027B27F060FD002384F832
:1053F400503010BDAFF3008000000000000000003A
:10540400704700BF704700BF704700BF704700BFC0
:10541400704700BF704700BF704700BF704700BFB0
:1054240003685B68184700BF03685B68184700BFE0
:1054340003685B68184700BF0120704710B5044635
:1054440044310DF031FF204610BD00BF10B582B0CD
:10545400044601910DF028FF01998A6D91F85C30A2
:10546400A26584F85C3002B010BD00BF034604227C
:1054740000B583B09B7D69460DEB020000930CF0F0
:1054840071FF019803B000BD10B5042282B0044638
:1054940000910DEB020069460CF064FF019BA375BB
:1054A40002B010BD10B5042282B0044600910DEB89
:1054B400020069460CF056FF019B93E8070084E85C
:1054C400070002B010BD00BF10B5042282B004462C
:1054D40000910DEB020069460CF044FF019B93E838
:1054E400070084E8070002B010BD00BF10B5042215
:1054F40082B0044600910DEB020069460CF032FFC5
:10550400DDF804E0A446BEE80F00ACE80F009EE816
:1055140007008CE8070002B010BD00BF10B50422DC
:1055240082B0044600910DEB020069460CF01AFFAC
:10553400019B0FCB84E80F0002B010BD00B583B00F
:105544000422694600900DEB02000CF00BFF03B03F
:1055540000BD00BF00B583B00422694600900DEB86
:1055640002000CF0FFFE03B000BD00BF00B583B025
:105574000422694600900DEB02000CF0F3FE03B028
:1055840000BD00BF10B5042282B0044600910DEBAB
:10559400020069460CF0E6FE019B0022A261A28390
:1055A4001A46197B2173597B6173997BA173D97B4B
:1055B400E173197C2174597C617452F8181B2160C1
:1055C40092E803000A0CA061A183A27793F9122048
:1055D400A2745A68C4E901225B69636102B010BD18
:1055E40000B583B00422694600900DEB02000CF074
:1055F400B9FE03B000BD00BF10B5042282B004465A
:1056040000910DEB020069460CF0ACFE019B0022F8
:10561400A261A2831A46197B2173597B6173997B1A
:10562400A173D97BE173197C2174597C617452F89C
:10563400181B216092E803000A0CA061A183A277E1
:1056440093F91220A2745A68C4E901225B69636168
:1056540002B010BD00B583B00422694600900DEB82
:1056640002000CF07FFE03B000BD00BF10B50422A1
:1056740082B0044600910DEB020069460CF072FE04
:10568400019B0022A261A2831A46197B2173597BD4
:105694006173997BA173D97BE173197C2174597C63
:1056A400617452F8181B216092E803000A0CA0618F
:1056B400A183A27793F91220A2745A68C4E9012243
:1056C4005B69636102B010BD00B583B00422694612
:1056D40000900DEB02000CF045FE03B000BD00BFCE
:1056E40010B5042282B0044600910DEB0200694615
:1056F4000CF038FE019B0022A261A2831A46197B9A
:105704002173597B6173997BA173D97BE173197CF4
:105714002174597C617452F8181B216092E80300CB
:105724000A0CA061A183A27793F91220A2745A688B
:10573400C4E901225B69636102B010BD00B583B0A6
:105744000422694600900DEB02000CF00BFE03B03E
:1057540000BD00BF10B5042282B0044600910DEBD9
:10576400020069460CF0FEFD019B0022A261A283A7
:105774001A46197B2173597B6173997BA173D97B79
:10578400E173197C2174597C617452F8181B2160EF
:1057940092E803000A0CA061A183A27793F9122076
:1057A400A2745A68C4E901225B69636102B010BD46
:1057B40000B583B00422694600900DEB02000CF0A2
:1057C400D1FD03B000BD00BF00B583B0042269461B
:1057D40000900DEB02000CF0C5FD03B000BD00BF4E
:1057E40000B583B00422009169460DEB02000CF071
:1057F400B9FD03B000BD00BF00B583B00422694603
:1058040000900DEB02000CF0ADFD03B000BD00BF35
:1058140010B5042282B0044600910DEB02006946E3
:105824000CF0A0FDDDF804E0A446BEE80F00ACE8EF
:105834000F00BEE80F00ACE80F00BEE80F00ACE8B4
:105844000F009EE80F008CE80F0002B010BD00BFEF
:1058540000B583B00422009169460DEB02000CF000
:1058640081FD03B000BD00BF00B583B004220091E8
:1058740069460DEB02000CF075FD03B000BD00BFDE
:1058840010B5042282B0044600910DEB0200694673
:105894000CF068FD019B1B68236002B010BD00BFC3
:1058A40000B583B00422694600900DEB02000CF0B1
:1058B40059FD03B000BD00BF00B5042283B00090C1
:1058C40069460DEB02000CF04DFD0198436C1BB1D1
:1058D40003B05DF804EB184703B000BD00B5042223
:1058E40083B0009069460DEB02000CF03BFD01987B
:1058F40003685B6803B05DF804EB184700B5042245
:1059040083B0009069460DEB02000CF02BFD01986A
:1059140003685B6803B05DF804EB184710B5042214
:1059240082B0044600910DEB020069460CF01AFDAA
:10593400019B1B68236002B010BD00BF10B5042298
:1059440082B0044600910DEB020069460CF00AFD9A
:10595400019B1B68236002B010BD00BF10B5042278
:1059640082B0044600910DEB020069460CF0FAFC8B
:10597400019B1B68236002B010BD00BF10B5042258
:1059840082B0044600910DEB020069460CF0EAFC7B
:10599400019B1B68236002B010BD00BF30B5042218
:1059A40083B0044600910DEB020069460CF0DAFC6A
:1059B400019B064803F108015D6820601B6965606E
:1059C400236103C9C4E9020103B030BD186A002091
:1059D40030B5042283B0044600910DEB0200694601
:1059E4000CF0C0FC019B064803F108015D682060CF
:1059F4001B696560236103C9C4E9020103B030BDBA
:105A0400046A002030B5042283B0044600910DEBF3
:105A1400020069460CF0A6FC019B064803F108014C
:105A24005D6820601B696560236103C9C4E90201E4
:105A340003B030BD686A002030B5042283B0044648
:105A440000910DEB020069460CF08CFC019B0648AA
:105A540003F108015D6820601B696560236103C967
:105A6400C4E9020103B030BD546A002030B50422F9
:105A740083B0044600910DEB020069460CF072FC01
:105A8400019B064803F108015D6820601B6965609D
:105A9400236103C9C4E9020103B030BD406A002098
:105AA40030B5042283B0044600910DEB0200694630
:105AB4000CF058FC019B064803F108015D68206066
:105AC4001B696560236103C9C4E9020103B030BDE9
:105AD4002C6A002030B5042283B0044600910DEBFB
:105AE400020069460CF03EFC019B064803F10801E4
:105AF4005D6820601B696560236103C9C4E9020114
:105B040003B030BD906A002030B5042283B004464F
:105B140000910DEB020069460CF024FC019B064841
:105B240003F108015D6820601B696560236103C996
:105B3400C4E9020103B030BD7C6A002010B5042220
:105B440082B0044600910DEB020069460CF00AFC99
:105B54000199402220464B6C63640B6C236402B0B1
:105B6400BDE810400CF0FEBB10B5042282B0044620
:105B740000910DEB020069460CF0F4FB0199402200
:105B840020464B6C63640B6C236402B0BDE8104088
:105B94000CF0E8BB10B5042282B0044600910DEB72
:105BA400020069460CF0DEFB0199402220464B6C52
:105BB40063640B6C236402B0BDE810400CF0D2BBEC
:105BC40010B5042282B0044600910DEB0200694630
:105BD4000CF0C8FB0199402220464B6C63640B6CAB
:105BE400236402B0BDE810400CF0BCBB00B583B028
:105BF4000422694600900DEB02000CF0B3FB03B0E5
:105C040000BD00BF00B5042283B0009069460DEBCF
:105C140002000CF0A7FB0198436C1BB103B05DF8C4
:105C240004EB184703B000BD00B5042283B0009014
:105C340069460DEB02000CF095FB019803685B6864
:105C440003B05DF804EB184700B5042283B000905C
:105C540069460DEB02000CF085FB019803685B6854
:105C640003B05DF804EB184700B583B0042269461D
:105C740000900DEB02000CF075FB03B000BD00BFFB
:105C840000B5042283B0009069460DEB02000CF0CD
:105C940069FB0198436C1BB103B05DF804EB184732
:105CA40003B000BD00B5042283B0009069460DEB3B
:105CB40002000CF057FB019803685B6803B05DF8C1
:105CC40004EB184700B5042283B0009069460DEB3D
:105CD40002000CF047FB019803685B6803B05DF8B1
:105CE40004EB184700B583B00422694600900DEB1D
:105CF40002000CF037FB03B000BD00BF00B5042266
:105D040083B0009069460DEB02000CF02BFB019868
:105D1400436C1BB103B05DF804EB184703B000BD3E
:105D240000B5042283B0009069460DEB02000CF02C
:105D340019FB019803685B6803B05DF804EB18472E
:105D440000B5042283B0009069460DEB02000CF00C
:105D540009FB019803685B6803B05DF804EB18471E
:105D640000B583B00422694600900DEB02000CF0EC
:105D7400F9FA03B000BD00BF00B5042283B000905F
:105D840069460DEB02000CF0EDFA0198436C1BB16F
:105D940003B05DF804EB184703B000BD00B504225E
:105DA40083B0009069460DEB02000CF0DBFA019819
:105DB40003685B6803B05DF804EB184700B5042280
:105DC40083B0009069460DEB02000CF0CBFA019809
:105DD40003685B6803B05DF804EB184710B5042250
:105DE40082B0044600910DEB020069460CF0BAFA49
:105DF400019B0022D3E90001C3E90022C4E90001A8
:105E040002B010BD10B5042282B0044600910DEB1F
:105E1400020069460CF0A6FA019B1B68236002B0DD
:105E240010BD00BF10B584B004460422029103A83B
:105E340002A90CF097FA0399402220464B6C019179
:105E440063640B6C23640CF08DFA002301994B649A
:105E540004B010BD30B5042283B0044600910DEBAC
:105E6400020069460CF07EFA019B064803F1080122
:105E74005D6820601B696560236103C9C4E9020190
:105E840003B030BD186A002030B5042283B0044644
:105E940000910DEB020069460CF064FA019B064880
:105EA40003F108015D6820601B696560236103C913
:105EB400C4E9020103B030BD046A002010B5042215
:105EC40082B0044600910DEB020069460CF04AFAD8
:105ED400019B0022D3E90001C3E90022C4E90001C7
:105EE40002B010BD10B5042282B0044600910DEB3F
:105EF400020069460CF036FA019B1B68236002B06D
:105F040010BD00BF10B584B004460422029103A85A
:105F140002A90CF027FA0399402220464B6C019108
:105F240063640B6C23640CF01DFA002301994B6429
:105F340004B010BD30B5042283B0044600910DEBCB
:105F4400020069460CF00EFA019B064803F10801B1
:105F54005D6820601B696560236103C9C4E90201AF
:105F640003B030BD686A002030B5042283B0044613
:105F740000910DEB020069460CF0F4F9019B064810
:105F840003F108015D6820601B696560236103C932
:105F9400C4E9020103B030BD546A002010B50422E4
:105FA40082B0044600910DEB020069460CF0DAF968
:105FB400019B0022D3E90001C3E90022C4E90001E6
:105FC40002B010BD10B5042282B0044600910DEB5E
:105FD400020069460CF0C6F9019B1B68236002B0FD
:105FE40010BD00BF10B584B004460422029103A87A
:105FF40002A90CF0B7F90399402220464B6C019199
:1060040063640B6C23640CF0ADF9002301994B64B9
:1060140004B010BD30B5042283B0044600910DEBEA
:10602400020069460CF09EF9019B064803F1080141
:106034005D6820601B696560236103C9C4E90201CE
:1060440003B030BD406A002030B5042283B004465A
:1060540000910DEB020069460CF084F9019B06489F
:1060640003F108015D6820601B696560236103C951
:10607400C4E9020103B030BD2C6A002010B504222B
:1060840082B0044600910DEB020069460CF06AF9F7
:10609400019B0022D3E90001C3E90022C4E9000105
:1060A40002B010BD10B5042282B0044600910DEB7D
:1060B400020069460CF056F9019B1B68236002B08C
:1060C40010BD00BF10B584B004460422029103A899
:1060D40002A90CF047F90399402220464B6C019128
:1060E40063640B6C23640CF03DF9002301994B6449
:1060F40004B010BD30B5042283B0044600910DEB0A
:10610400020069460CF02EF9019B064803F10801D0
:106114005D6820601B696560236103C9C4E90201ED
:1061240003B030BD906A002030B5042283B0044629
:1061340000910DEB020069460CF014F9019B06482E
:1061440003F108015D6820601B696560236103C970
:10615400C4E9020103B030BD7C6A002008B56022A6
:10616400002126F0A3FEBDE808400CF051B900BFA1
:106174000BF05CBA59B170B50E46044600250135E2
:1061840020460BF053FA6034AE42F8D170BD70472C
:10619400034B10B5044603600CF00CF9204610BD07
:1061A40090690020034B10B5044603600CF002F91B
:1061B400204610BD60690020034B10B504460360FF
:1061C4000CF0F8F8204610BDA0680020054B10B56F
:1061D400044603600CF0EEF820460CF0C1F82046AB
:1061E40010BD00BF60690020054B10B50446036074
:1061F4000CF0E0F820460CF0B3F8204610BD00BFC8
:10620400A0680020054B10B5044603600CF0D2F8DA
:1062140020460CF0A5F8204610BD00BF9069002070
:1062240000B583B01421019021F032FB019803B032
:1062340000BD00BF00B583B01421019021F028FBFC
:10624400019803B000BD00BF00B583B014210190D4
:1062540021F01EFB019803B000BD00BF00B583B060
:106264001421019021F014FB019803B000BD00BF7C
:1062740000B583B01421019021F00AFB019803B00A
:1062840000BD00BF00B583B01421019021F000FBD4
:10629400019803B000BD00BF00B583B01421019084
:1062A40021F0F6FA019803B000BD00BF00B583B039
:1062B4001421019021F0ECFA019803B000BD00BF55
:1062C40000B585B00422029002A903A80CF04AF894
:1062D400039B5868A0B101930CF076F880B1019B40
:1062E4005868026892689047019B58688368013B2C
:1062F40083602BB90368DB6805B05DF804EB1847CD
:1063040005B000BD00B585B00422029002A903A81F
:106314000CF028F8039B5868A0B101930CF054F8D2
:1063240080B1019B5868026892689047019B586845
:106334008368013B83602BB90368DB6805B05DF8B3
:1063440004EB184705B000BD00B585B004220290E7
:1063540002A903A80CF006F8039B5868A0B10193A6
:106364000CF032F880B1019B58680268926890473B
:10637400019B58688368013B83602BB90368DB6821
:1063840005B05DF804EB184705B000BD00B585B055
:106394000422029002A903A80BF0E4FF039B5868AF
:1063A400A0B101930CF010F880B1019B5868026809
:1063B40092689047019B58688368013B83602BB9BE
:1063C4000368DB6805B05DF804EB184705B000BD51
:1063D40000B585B00422029002A903A80BF0C2FF05
:1063E400039B5868A0B101930BF0EEFF80B1019BB1
:1063F4005868026892689047019B58688368013B1B
:1064040083602BB90368DB6805B05DF804EB1847BB
:1064140005B000BD0A6838B50C4602600023054685
:106424000C30D1E90121A36040F8041C04F10C01F3
:10643400636040F8082C0CF027FD94F8643085F86C
:10644400643038BD10B582B0044601910CF01CFDD7
:1064540001998A6D91F85C30A26584F85C3002B0D1
:1064640010BD00BF38B50B6804460D460360D1E982
:106474000130C4E9013008B10BF09EFF05F10C01B5
:1064840004F10C000CF010FF95F8643084F86430CB
:1064940038BD00BFD1E90023C0E9002313B1184679
:1064A4000BF08ABF704700BF10B5042282B00446C7
:1064B40000910DEB020069460BF054FF019BD3E9F8
:1064C4000020C4E9002020B102B0BDE810400BF068
:1064D40073BF02B010BD00BF10B5042282B00446E1
:1064E40000910DEB020069460BF03CFF019BD3E9E0
:1064F4000020C4E9002020B102B0BDE810400BF038
:106504005BBF02B010BD00BF10B5042282B00446C8
:1065140000910DEB020069460BF024FF019BD3E9C7
:106524000020C4E9002020B102B0BDE810400BF007
:1065340043BF02B010BD00BF10B5042282B00446B0
:1065440000910DEB020069460BF00CFF019BD3E9AF
:106554000020C4E9002020B102B0BDE810400BF0D7
:106564002BBF02B010BD00BF04300BF053BD00BF01
:1065740059B170B50E46041D0025013520460BF0B7
:1065840049FD2434AE42F8D170BD704700B583B0E4
:10659400019012F039FA0198002103689B6903B055
:1065A4005DF804EB184700BF70B50C4691689AB0CB
:1065B400002945D00546414801920AF091FA60222B
:1065C4000646002102A826F071FC02A80BF020FF69
:1065D40000223B4902A88DF860200A2219920CF08F
:1065E40019FA294602A80CF0A1FE364902A80CF0BB
:1065F40011FA214602A80CF099FE334902A80CF0C6
:1066040009FA019902A80CF091FE304902A80CF095
:1066140001FA2F4902A80CF0FDF9214602A80CF05A
:1066240085FE2C4902A80CF0F5F902AB872231460D
:1066340001200AF015FA02A80AF0F8FF1AB070BD9A
:1066440006461E4801910AF04BFA6022019905465C
:1066540002A826F02BFC02A80BF0DAFE01990A230B
:1066640002A88DF86010164919930CF0D3F931463D
:1066740002A80CF05BFE134902A80CF0CBF92146EA
:1066840002A80CF053FE144902A80CF0C3F91049F7
:1066940002A80CF0BFF9214602A80CF047FE0D49F0
:1066A40002A80CF0B7F902AB8D22294601200AF0AA
:1066B400D7F902A80AF0BAFF1AB070BD741000200E
:1066C400DC100020E8100020FC1000203411002011
:1066D4005811002088110020AC11002030B593B06F
:1066E400844609A8DCF800E09CF8184080E80E0015
:1066F40007C80FAA25469CF819409CF81AC082E8DE
:106704000B00BEF8001000209EF802309DF840E017
:106714000A0AADF83810C9B2BEF1020F8DF836007E
:106724008DF837008DF83A3060D0BEF1030F42D0B7
:10673400BEF1010F1AD084460346024601468DF885
:106744003A00ADF838001A9CCDF800C00694199CA4
:106754000594189C0494179C0394169CCDE9010499
:106764009DF841000AF08AF813B030BDCDE9014C20
:106774000DF1370C0FA80095CDF81CC00DF1360CA7
:10678400CDF818C00DF1380CCDF80CC00DF13A0C51
:10679400CDF814C00DF1390CCDF810C00AF0ECF8A6
:1067A4009DF838109DF839209DF83A309DF836C090
:1067B4009DF83700C7E7CDE9014C0DF1370C0FA860
:1067C4000095CDF81CC00DF1360CCDF818C00DF1B4
:1067D400380CCDF80CC00DF13A0CCDF814C00DF105
:1067E400390CCDF810C00AF08FF8D9E7CDE9014C87
:1067F4000DF1370C0FA80095CDF81CC00DF1360C27
:10680400CDF818C00DF1380CCDF80CC00DF13A0CD0
:10681400CDF814C00DF1390CCDF810C00AF0E6F82B
:10682400BEE700BF30B593B0844609A8DCF800E0A9
:106834009CF8184080E80E0007C80FAA25469CF86B
:1068440019409CF81AC082E80B00BEF80010002022
:106854009EF802309DF840E00A0AADF83810C9B23B
:10686400BEF1020F8DF836008DF837008DF83A30FE
:1068740060D0BEF1030F42D0BEF1010F1AD084469E
:106884000346024601468DF83A00ADF838001A9CDA
:10689400CDF800C00694199C0594189C0494179C88
:1068A4000394169CCDE901049DF8410009F0E6FF2C
:1068B40013B030BDCDE9014C0DF1370C0FA8009594
:1068C400CDF81CC00DF1360CCDF818C00DF1380C04
:1068D400CDF80CC00DF13A0CCDF814C00DF1390C03
:1068E400CDF810C00AF048F89DF838109DF83A2009
:1068F4009DF839309DF836C09DF83700C7E7CDE9DB
:10690400014C0DF1370C0FA80095CDF81CC00DF10A
:10691400360CCDF818C00DF1380CCDF80CC00DF1C3
:106924003A0CCDF814C00DF1390CCDF810C009F0B3
:10693400EBFFD9E7CDE9014C0DF1370C0FA8009519
:10694400CDF81CC00DF1360CCDF818C00DF1380C83
:10695400CDF80CC00DF13A0CCDF814C00DF1390C82
:10696400CDF810C00AF042F8BEE700BF30B593B0CE
:10697400844609A8DCF800E09CF8184080E80E0082
:1069840007C80FAA25469CF819409CF81AC082E84B
:106994000B00BEF8001000209EF802309DF840E085
:1069A4000A0AADF83810C9B2BEF1020F8DF83600EC
:1069B4008DF837008DF83A3060D0BEF1030F42D025
:1069C400BEF1010F1AD084460346024601468DF8F3
:1069D4003A00ADF838001A9CCDF800C00694199C12
:1069E4000594189C0494179C0394169CCDE9010407
:1069F4009DF8410009F042FF13B030BDCDE9014CD0
:106A04000DF1370C0FA80095CDF81CC00DF1360C14
:106A1400CDF818C00DF1380CCDF80CC00DF13A0CBE
:106A2400CDF814C00DF1390CCDF810C009F0A4FF55
:106A34009DF839109DF838209DF83A309DF836C0FD
:106A44009DF83700C7E7CDE9014C0DF1370C0FA8CD
:106A54000095CDF81CC00DF1360CCDF818C00DF121
:106A6400380CCDF80CC00DF13A0CCDF814C00DF172
:106A7400390CCDF810C009F047FFD9E7CDE9014C36
:106A84000DF1370C0FA80095CDF81CC00DF1360C94
:106A9400CDF818C00DF1380CCDF80CC00DF13A0C3E
:106AA400CDF814C00DF1390CCDF810C009F09EFFDB
:106AB400BEE700BF30B593B0844609A8DCF800E017
:106AC4009CF8184080E80E0007C80FAA25469CF8D9
:106AD40019409CF81AC082E80B00BEF80010002090
:106AE4009EF802309DF840E00A0AADF83810C9B2A9
:106AF400BEF1020F8DF836008DF837008DF83A306C
:106B040060D0BEF1030F42D0BEF1010F1AD084460B
:106B14000346024601468DF83A00ADF838001A9C47
:106B2400CDF800C00694199C0594189C0494179CF5
:106B34000394169CCDE901049DF8410009F09EFEE2
:106B440013B030BDCDE9014C0DF1370C0FA8009501
:106B5400CDF81CC00DF1360CCDF818C00DF1380C71
:106B6400CDF80CC00DF13A0CCDF814C00DF1390C70
:106B7400CDF810C009F000FF9DF839109DF83A20B7
:106B84009DF838309DF836C09DF83700C7E7CDE949
:106B9400014C0DF1370C0FA80095CDF81CC00DF178
:106BA400360CCDF818C00DF1380CCDF80CC00DF131
:106BB4003A0CCDF814C00DF1390CCDF810C009F021
:106BC400A3FED9E7CDE9014C0DF1370C0FA80095D0
:106BD400CDF81CC00DF1360CCDF818C00DF1380CF1
:106BE400CDF80CC00DF13A0CCDF814C00DF1390CF0
:106BF400CDF810C009F0FAFEBEE700BF30B593B07F
:106C0400844609A8DCF800E09CF8184080E80E00EF
:106C140007C80FAA25469CF819409CF81AC082E8B8
:106C24000B00BEF8001000209EF802309DF840E0F2
:106C34000A0AADF83810C9B2BEF1020F8DF8360059
