:0200000460009A
:100000004643464200000156000000000101020084
:1000100000000000000000000000000000000000E0
:1000200000000000000000000000000000000000D0
:1000300000000000000000000000000000000000C0
:1000400000000000010406010000000000000000A4
:100050000000800000000000000000000000000020
:100060000000000000000000000000000000000090
:100070000000000000000000000000000000000080
:10008000EB04180AFF1E04320126000000000000E5
:100090000000000000000000000000000000000060
:1000A0000000000000000000000000000000000050
:1000B0000000000000000000000000000000000040
:1000C0000000000000000000000000000000000030
:1000D0000000000000000000000000000000000020
:1000E0000000000000000000000000000000000010
:1000F0000000000000000000000000000000000000
:1001000000000000000000000000000000000000EF
:1001100000000000000000000000000000000000DF
:1001200000000000000000000000000000000000CF
:1001300000000000000000000000000000000000BF
:1001400000000000000000000000000000000000AF
:10015000000000000000000000000000000000009F
:10016000000000000000000000000000000000008F
:10017000000000000000000000000000000000007F
:10018000000000000000000000000000000000006F
:10019000000000000000000000000000000000005F
:1001A000000000000000000000000000000000004F
:1001B000000000000000000000000000000000003F
:1001C000000100000010000001000000000000001D
:1001D000000001000000000000000000000000001E
:1001E000000000000000000000000000000000000F
:1001F00000000000000000000000000000000000FF
:10020000FFFFFFFFFFFFFFFFFFFFFFFFFFFFFFFFFE
:10021000FFFFFFFFFFFFFFFFFFFFFFFFFFFFFFFFEE
:10100000D1002043F1150060000000000000000046
:10101000201000600010006000B8026000000000B6
:101020000000006000C4020000000000FFFFFFFF9E
:10103000FFFFFFFFFFFFFFFFFFFFFFFFFFFFFFFFC0
:10104000FFFFFFFFFFFFFFFFFFFFFFFFFFFFFFFFB0
:10105000FFFFFFFFFFFFFFFFFFFFFFFFFFFFFFFFA0
:10106000FFFFFFFFFFFFFFFFFFFFFFFFFFFFFFFF90
:10140000824205D051F8043B40F8043B8242F9D8AF
:10141000704700BF044A05494FF0000342F8043BFF
:101420009142FBD8704700BFC05E0020600A0120D7
:1014300008B5BFF34F8F01F0B1F9544C544B08205D
:101440005449C3F85401544AC3F800115348C3F82F
:10145000F0405349FFF7D4FF524A53495348FFF72E
:10146000CFFF534CFFF7D6FF4FF470004FF0E02151
:101470000023504AC1F8880D44F823200133B02BD3
:10148000FAD14D4B80214D4A03F8011B9342FBD109
:101490004FF0E0254A4E4B4A4FF0FF31C5F8084D5A
:1014A000D5F8243D43F4E023C5F8243DF36923F047
:1014B0007F0343F04003F361736A23F07F0343F03B
:1014C000400373629166D1661167516701F06EF94E
:1014D0003D4A3E4BA2636322E36300246A61032317
:1014E0003B4AAC612B61C5F8202DD5F8FC2D394B5A
:1014F00042F080723849C5F8FC2D1A6842F00102AA
:101500001A605B680B6001F021FB344801F0BCFC01
:10151000F16E334B334A41F44051F1661C60C3F81D
:101520000841C3F81841C3F82841C3F83841936B08
:10153000DB0708D442F615632B4951651365936B9D
:1015400043F001039363274A284C936843F0011347
:10155000936001F0B9F901F0A1F801F0B5FC01F0D8
:1015600027FB01F01DF92368132BFCD901F0BCFB0C
:101570002368B3F5967FFBD301F016F901F012F959
:1015800001F07AFC01F094FC30BFFDE70C0D111363
:1015900000800D401B10182078260200000000007B
:1015A0005C300060C05E0020D85602600000002061
:1015B000005C00206152010000E400E0A0E400E0D3
:1015C00000C00F4000C00A40E9460100E1470100A9
:1015D00000002020001000E0180901200046C3236D
:1015E0000040084000400D400000C0561C0901208A
:1015F000054B4FF42A01054A05485A641864054A08
:1016000099639546FFF714FF00C00A40FFABAAAAF2
:10161000070020000080052010B5002104461C4B67
:101620004FF0FF3021811A682175C4F81B20F02289
:10163000C4F81510A4F81910C4E903015868C4F8D7
:101640001F009868DB68C4F8230004F12B00C4F87D
:101650002730C4E9001101F01FFC00210123A4F888
:101660002411A4F8263184F82811C4E94711C4E9EB
:101670004B11C4E94D11C4E94F11C4E95111C4E93A
:101680005311C4E9551101F0D7FB204610BD00BF2E
:101690006412002010B5044601F0CAFBD4F854319E
:1016A00023B104F5A671032208469847D4F84431C3
:1016B00023B104F59E71032208469847D4F83431CB
:1016C00023B104F59671032208469847204610BDC1
:1016D00070B5044601F018FC0F4B05681A782AB95A
:1016E00001F012FC034620461D6070BD206801F029
:1016F000DBFB0022084B22601A7022710028EFD019
:1017000001F0C6FB064601F0FFFB066001F0FCFBA2
:10171000034620461D6070BD120A012070B5754C4D
:10172000236833F0020300D070BD73494FF4803555
:10173000724A4CF20F00CB6E43F44063CB664FF419
:1017400080536F49C2F8E450C2F8E800C2F8E410D0
:10175000C2F8E830D2F8E030002BFBDA69494FF4E8
:101760008030694B4FF23805C2F8E80038204A68EB
:101770004FF4804622F400524A604A6842F4020262
:101780004A6043F238020521C3F87C23C3F884235E
:10179000C3F880535D4DC3F89823C3F86803C3F8BA
:1017A00064034FF62900C3F87811C3F874114FF49D
:1017B00000416A6842F440426A600022C5F888101D
:1017C000C5F88460C3F8A8034BF2E900C3F8A4038A
:1017D0003120C3F8B821C3F8B421D3F8302422F063
:1017E000030242F00202C3F83024C3F89403162027
:1017F000474AC3F8A4013220536C23F07E0343F020
:1018000012035364C5F8841001F066FB4149424A53
:10181000C5F88860414B48681268A3FB0232920CFD
:1018200002EB820202EB82024B681B1A9342FBD34B
:10183000364B4FF480420220C3F8842001F04CFB69
:10184000334B4FF40001364A59601A645A6810024B
:10185000FCD51A6C4FF4000192B25960B2F5005FEA
:1018600011D130482A4A5960186453681902FCD5CE
:10187000136C4AF240104FF4000123F00F03516043
:101880009BB283421ED0DFF884C04FF480361D48DF
:101890004FF0010EDCF80430184923F44043164A97
:1018A000214DCCF80430436823F400334360C1F881
:1018B000E460C1F8E050D36E23F44063D366C4F80B
:1018C00000E070BD1948124B516010645A68120252
:1018D000FCD54FF4000116480D4A59605960186450
:1018E00053681B02FCD54FF40001032351602360B1
:1018F00070BD00BF2C6A002000C00F4000800D406A
:101900000120200000C00A4000801F40004000422B
:1019100000802D40001000E08054002083DE1B4337
:1019200000000A6000000E60011001008002625099
:1019300081005E504FF0013340F2011203604360BA
:101940000281704710B5784C2368042B00F0EA80C0
:10195000FFF7E4FE2268032A01D0002010BD734B7C
:101960004BF2E9017248C3F87C13C3F88013C3F843
:101970008413C3F89813C3F88813C3F88C13C3F8FF
:101980009013C3F88C21C3F89021C3F8A821C3F8A1
:101990009421C3F8A021C3F89821C3F89C21A02268
:1019A000D3F82C1441F00101C3F82C14D3F83414EB
:1019B00041F00101C3F83414D3F8381441F00101A7
:1019C000C3F83814D3F83C1441F00101C3F83C14B7
:1019D000D3F8401441F00101C3F84014002101F094
:1019E0005BFAA0220021534801F056FA52490346FF
:1019F000524A4F481360086000F1A00C0346504A59
:101A00004FF4004080215A60203323F81E0C02F569
:101A1000C06223F8161C6345F5D145494FF4806038
:101A2000DFF810E1B1F88230464A0EF1A00C43F421
:101A30000053A1F8823073464FF4B0415A6020330E
:101A400023F81E0C02F5C06223F8161C6345F5D17D
:101A5000BEF8821000223C4B41F400519A60AEF86F
:101A600082103A49C3F884104FF48271C3F8C4104D
:101A70001921C3F8C011C721C3F8C411D3F8441108
:101A800041F48071C3F844112949C3F89021C3F887
:101A900080114FF4C061C3F884E1C3F888111421A8
:101AA000C3F80021C3F8F020C3F8EC10C3F8942168
:101AB000586E274940F000405866C3F81821C3F813
:101AC0001C21C3F82021C3F824219A681140214A1F
:101AD00041F00071996090681F49D0F8080292683F
:101AE00008601E49C2F80812BFF34F8F1C4A4FF41A
:101AF0008021D1601B484FF001011B4A5860BFF3A1
:101B00005B8FD2E84F0FC2E84C1FBCF1000FF8D139
:101B10004FF0807215480421BFF35B8F58621A6141
:101B20005A612160012010BD2C6A002000801F40F6
:101B3000C05E0020805F0020AC540020B054002024
:101B4000403220204014202000802D4024D1F24536
:101B50000080FF7D00ED00E0286A0020FD8E00007F
:101B600000E100E00080FF7F306A00201201007079
:101B700010B40023044C05480549064A236003605D
:101B80000B60136010BC7047346A0020386A002074
:101B90003C6A0020406A0020F8B1114A40F2DC5152
:101BA00038B504460F4B10480025A18625630F4920
:101BB000C4E904209A88186843F606236287A3873D
:101BC000C4F83600204601F043F92046084901F0E8
:101BD0008BF9084B2846636438BD6FF00F007047DF
:101BE0008DC60000846900201D9400008C690020CF
:101BF0000C6A00202D94000070B584B00E46044697
:101C00000192FFF79FFE019A002838D012B11046CA
:101C1000FFF790FE002C47D0334B1A78154642BB95
:101C200006222146314801F053F968BB204601F0F5
:101C300007F9B0B12D4801F017F9044688B12C4BD3
:101C40001B781D46002B34D0284A2A4B10689188F7
:101C50000622C3F83600598783F83C20204604B09A
:101C600070BD01F051F90E2303600024204604B03A
:101C700070BD01F0E9F800221B4B1A70D6E701F0A5
:101C800043F913230360F0E7194B1A78002ACDD0EB
:101C9000284601F031F9174801F002F9164801F021
:101CA0002FF9134B1D70C1E702A802AC01F030F907
:101CB000B2E73146104801F0CFF8104B104A2946E0
:101CC0000C4801F00DF930B10A4801F015F9012373
:101CD000074A1370C2E7084801F012F901F014F93D
:101CE00073230360C1E700BFFF5700208469002011
:101CF000100A0120C06900207C6900204D2D0100E0
:101D0000991B00600D490E4A087808B5002313603E
:101D1000938018B9BDE80840FFF72ABF184601F0C4
:101D2000EBF8084801F0BCF8074801F0E9F8002397
:101D300002490B70BDE80840FFF71ABF100A0120E6
:101D400084690020C06900207C6900203748384B36
:101D5000D0F88020DFF8FCC042F44052354900B58D
:101D6000C0F88020344AC3F800C034485A60344A6E
:101D70001862DFF8E4C05A623248334AC3F828C018
:101D8000DA6246F6201218635963996340F6A3118C
:101D9000D868DFF8C8E000F07F40DFF8C4C0024335
:101DA00040F6C410DA609A686FF30F021143274AB5
:101DB0009960D9696FF3150141F4C841D9619969F6
:101DC0006FF3150141F4C8619961196821F48651D6
:101DD0001960196801EA0E0EC3F800E04FF0000E1A
:101DE00019680A401A4942F002021A605A696FF3F0
:101DF000090242F03F025A611A6992B242F0486207
:101E00001A611A696FF30F0210431861D3F8A0200A
:101E100022F00202C3F8A0201A6802EA0C0CC3F8F0
:101E200000C0DA6F1B6CC1F800E000BD00C00F40BD
:101E300000C00C402F002E002200010068050C019C
:101E40009501B2004B0040007D005800BCEFFFFF41
:101E50007469002040100100DC007A00B3EFFFFF3E
:101E6000BFEFFEFF084A094B11680B4043F4803373
:101E7000136013689B04FCD5054AD2F8803023F424
:101E80004053C2F88030704700C00C40BFEFFEFFE7
:101E900000C00F40214B002010B4C3E92000C3E96B
:101EA0002200C3E92400C3E92600C3F8A800BFF359
:101EB0004F8F4FF0E0231A491A4AC3F8701FC3F836
:101EC000702FBFF34F8FBFF36F8F174B0146174C27
:101ED0000122D3F808C004F6DC74C3F808C0186304
:101EE000134B44F81C0C184602330088A34212FA24
:101EF00080F21144F7D192B20C4B42EA0142C3F88E
:101F0000DC2FBFF34F8F4FF0E023094AC3F8682F4F
:101F1000BFF34F8FBFF36F8F10BC704700FF2720B8
:101F200080FF2720A0FF272000800F4000F02720FF
:101F3000C0FF2720994BD3F880300B2B2DE9F041BF
:101F40000D4682B040F0F8804FF0FF319448954B39
:101F5000954E026820240430514041F30002013CB8
:101F600002EA030282EA5101F7D1B042F1D1DFF86F
:101F70002C82D8F8A830994240F0DE802B680C22E1
:101F80008A4928465B689847284600F069FF2A6816
:101F9000D8F8A41028465268854BCDE90012A3FB5F
:101FA000012784497F09A3FB072326225E09019BA1
:101FB000C8F8A460984780490A222846A1FB063148
:101FC0002346090901EB4101A6EBC10100F074FFB2
:101FD0002B68C6EB061601225B68284677499847AE
:101FE0002346A7EB86010A222846C7EB071700F015
:101FF00063FF2B68012271495B6828469847009966
:1020000023460A22A1EB8701284600F055FF284607
:1020100000F026FF2B68242269495B682846984710
:1020200023461022D8F89810284600F045FF28468D
:1020300000F016FFD8F888602B68002E40F057811A
:10204000564ED6F88C40002C40F07A8122225B68F4
:102050005C4928469847514B0221284693ED280AAF
:10206000B7EEC00A00F044FF2B68042256495B68B3
:1020700028469847284600F0F3FE2B681D22534956
:102080005B6828469847524A5248002311680A2242
:10209000A0FB01012846890C00F00EFF2B680322EB
:1020A0004D495B6828469847284600F0D9FE4B4BBF
:1020B0009C68A2070DD5196B494A2B6891425B6851
:1020C00000F036814022474928469847284600F0CC
:1020D000C7FE670700F19680260700F19F80E006A3
:1020E00000F1A880A10600F1B180620600F1BA807B
:1020F000230600F1C38014F4807440F0CC80274B99
:10210000D3F8C06096B1D3F8DC700122C0333648F2
:10211000194602330988834212FA81F21444F7D136
:1021200093B243EA04439F4200F02381FFF7B2FEDB
:10213000012002B0BDE8F0812B6817222B49284608
:102140005B689847284600F08BFE2B684822284998
:102150005B6828469847284600F082FE2B68492293
:1021600024495B6828469847284600F079FE2B688A
:10217000242221495B6828469847284600F070FED3
:102180002B6847221D495B6828469847284600F07F
:1021900067FE2B683F221A4983E700BF00FF272014
:1021A00080FF27202083B8EDA8FF2720E8320020F9
:1021B00089888888F8320020ABAAAAAA2033002098
:1021C00024330020AC370020D0370020D83700203F
:1021D0008054002083DE1B43F837002000800F402E
:1021E000F100AD0BA8390020DCFF2720FC370020D0
:1021F0001438002060380020AC380020D43800208B
:102200001C3900202B6827229C4928465B68984788
:10221000284600F025FE26077FF561AF2B682A22AD
:10222000974928465B689847284600F019FEE00663
:102230007FF558AF2B682622924928465B6898475D
:10224000284600F00DFEA1067FF54FAF2B6829222E
:102250008D4928465B689847284600F001FE6206D3
:102260007FF546AF2B682122884928465B6898474E
:10227000284600F0F5FD23067FF53DAF2B682122AF
:10228000834928465B689847284600F0E9FD14F426
:1022900080743FF434AF2B6829227E4928465B685E
:1022A0009847284600F0DCFD7B49286821228B688E
:1022B0004468284623F480738B607849A0472846F9
:1022C00000F0CEFD2B68422275495B68284698478E
:1022D000284600F0C5FD734A734B07211964936BC0
:1022E00043F040039363BFF34F8F30BFFDE75B685C
:1022F00008226E492846984723461022D8F88810AD
:10230000284600F0D9FD284600F0AAFD2B68F70703
:102310005C686ED4B00700F14D81310700F1418156
:10232000F20600F15381B7066BD52A22604962E0BC
:102330004822604928469847284600F091FDC8E6A3
:102340005B6808225C49284698470023D6F88C1021
:102350001022284600F0B0FD284600F081FD2B68D1
:10236000A0075E6863D461007FF570AE1B225349FD
:102370005FE0002406E0062F3C463FF4D7AE504B0A
:10238000D3F8C0604FF0010808FA04F304EB080723
:102390003342F0D02B680E224A4928465B689847A2
:1023A0003946284600F064FD2B68052246495B68E3
:1023B00028469847454B0A22284603EB840400230D
:1023C000616800F079FD2B68042241495B6828466A
:1023D0009847616800231022284600F06DFD2B68A5
:1023E00042463C495B6828469847284600F038FD3D
:1023F000C1E7282238492846A047284600F030FD8A
:102400002B68340672D4F0055C6819D4B10500F16C
:10241000CE80720500F1C880370500F1D480F00449
:1024200000F1CE80B10413D531222C490AE02622D6
:102430002B492846B047284600F012FD2B6805E6D8
:10244000202228492846A047284600F009FD2B688D
:10245000320470D4F7035C6864D4B00300F1AD803B
:1024600071037AD4320300F1B780F70100F1B18033
:10247000B6017FF5E5AD1B221B4955E0EC39002084
:10248000143A0020403A0020683A0020943A002094
:10249000B83A0020DC3A002000800F40083B0020C2
:1024A0002C3B002000400D4000C00A404C3300206F
:1024B000FC3300205C3900205C370020903700207E
:1024C00000FF2720703B0020803B0020C0FF27201A
:1024D000883B002060350020583300202036002043
:1024E0006837002010350020403700203F4C212263
:1024F0005B6828463E49984710220023D4F8901084
:10250000284600F0D9FCD4F890201F2A28D9394B4E
:102510009A4202D320339A4261D3284600F0A0FCAD
:102520002B6870E7232234492846A047284600F04C
:1025300097FC2B6884E55B68212230492846984740
:102540002A4900231022D1F89410284600F0B4FC48
:10255000284600F085FC2B687CE728222849E3E721
:102560002B681F22274928465B689847D4F89810A3
:1025700000231022284600F09FFC2B683F222249AE
:102580005B6828469847D4F8981000231022284604
:1025900000F092FC2B681D221C495B682846984776
:1025A000BBE729221A4926E744221A494AE72D2285
:1025B000194947E7212219491DE731221849B3E794
:1025C000332218493EE73F2217493BE725221749A6
:1025D00011E728221649A7E716221649A4E72B6817
:1025E0004222154928465B68984796E700FF272056
:1025F00028340020600A012078360020543600205C
:10260000D03600204C3400206C340020AC34002044
:10261000A8330020643500203435002084330020A6
:102620009C360020EC350020AC350020D43300204F
:1026300014370020FC360020CC340020134BD3F894
:1026400080300B2B1FD14FF0FF32DFF848C010480D
:1026500000B5DFF844E0DCF8003020210CF1040C78
:102660005A4042F30003013903EA000383EA5202AD
:10267000F7D1F445EFD1054BD3F8A800801AB0FA92
:1026800080F0400900BD0020704700BF00FF2720F8
:102690002083B8ED80FF2720A8FF27200F4B40F2B2
:1026A000376C0F4AA020D96E41F44031D966D96EFB
:1026B00041F44071D966C2F844C09064936C1B0623
:1026C000FCD4084A40F23761A02351649364936CB0
:1026D00013F08003FBD1044A1370704700C00F4011
:1026E00000400C4000800C401E0A0120294A0021B5
:1026F0000123C2F8A000C2F8A410C2F8B030536998
:10270000D907FCD501234FF4803C22495361C2F81C
:10271000A000C2F8A4C0C2F8B0304B69DB07FCD5FA
:1027200001234FF4003C1B4A4B61C1F8A000C1F8E3
:10273000A4C0C1F8B0305369D907FCD50123DFF834
:1027400058C014495361C2F8A000C2F8A4C0C2F82E
:10275000B0304B69DB07FCD5D1F8003145F60D50A0
:102760004FF0210C9AB2C1F814C0824210D045F645
:102770009D518A420AD1C3F34253032B08D0A3F1DF
:102780000403B3FA83F35B09180170470020704714
:102790000820704700402A4004000300704700BF33
:1027A000704700BF704700BF00BF70474FF0E02385
:1027B00000214FF0100C3448C3F8941DC3F89CCD91
:1027C0004FF0110CC3F8A00D3048C3F89CCD4FF06A
:1027D000120CC3F8A00D2E48C3F89CCD2D4AC3F8A7
:1027E000A00DDFF8D0C042F015022B48C3F89CCDF5
:1027F000C3F8A00DDFF8C0C02848C3F89CCDC3F8CB
:10280000A00DDFF8B8C0C3F89C2D2548254AC3F8B1
:10281000A0CDC3F89C0DC3F8A02D02F5A022DFF8CF
:10282000A0C00C322048C3F89CCDC3F8A02D1F4A8D
:10283000C3F89C0DC3F8A02D02F14062DFF884C0FC
:1028400002321B48C3F89CCDC3F8A02D0A32C3F84E
:102850009C0DC3F8A02D00BF00BF00BF00BF00BF8C
:102860000122C3F8942DBFF34F8FBFF36F8FC3F8CE
:10287000501FBFF34F8FBFF36F8FD3F8142D42F467
:102880004032C3F8142D70473F00001025000807A0
:1028900009001000600A012021000207250008132A
:1028A0001600202027000B13180000602F000B07D4
:1028B0001A000080130020001400002009000010FE
:1028C000170000401900007030B5864B85B0DFF866
:1028D00074E21822844D0120C3F85CE28349C3F8F6
:1028E0006052A5F58055DFF860C2814CC3F864E200
:1028F000C3F868522125C3F86CC2C3F870C2C3F88C
:1029000074C2C3F878C248F20C7CDA661A675A6758
:102910009A67DA67C3F88020C3F88420C3F8882058
:10292000C1F82C03734AC1F83003C1F83403C1F86D
:102930003803C1F83C03C1F85003A1696E4B0A404B
:102940006E486F4913436F4AA361D4F8843043F053
:102950000C03C4F884304FF0FF34036843F00203E3
:102960000360036803EA0C031A43674B0260446088
:102970008A68664C1340664A43F000538360C3681C
:1029800023F07803C360036A23401A43604B02625A
:10299000026A22405F4C1343002243628462C46295
:1029A00040F20564D1F8B83023F03F0343F001034F
:1029B000C0F8B830D1F8BC30574923F03F0343F09A
:1029C0000103C0F8BC3002610567C0F8804045676C
:1029D000C0F884400224036823F00203036081618D
:1029E0004E4B4F49C46143F8042B8B42FBD1434CFF
:1029F000236843F001032360256815F00105FBD12E
:102A00004548022240F2F561A06140F29940E2613E
:102A100040F26642C4F8001242F20141C4F81022AA
:102A2000404AC4F82002C4F8302240F23542C4F8CB
:102A300034123D48C4F840223C4AC4F850022846AB
:102A4000C4F8542242F201223949C4F86012C4F891
:102A50006422FFF74BFE0246002839D08102012391
:102A60004FF4802021662549C4F8A050C4F8A40082
:102A7000C4F8B0304B69D807FCD515050124039282
:102A800028464C61FFF732FE039A2A4B0244D2B229
:102A90001A7080B1194980024FF4802348660846B5
:102AA000C1F8A050C1F8A430C1F8B0404369DB07B9
:102AB000FCD50123436120490024204801230094D0
:102AC000401A00EB02521E4800F0DAF905B030BDA2
:102AD0001B4B184918600870D860C3E9010005B0A5
:102AE00030BD00BF00801F40F910010000841F406E
:102AF00000C00F40FFFCFF1F0003008000402A4081
:102B000000802A401200FFFFFF37F70000FFF07C33
:102B100040000080FF000F83F05AF05A00422A4024
:102B200000432A409F041830EB06180A063201269B
:102B30003806180A240A0120000000700000007006
:102B40007C770020F9B00100F970010010B5174A38
:102B50004FF480544FF4005E4FF4404C4FF48030FB
:102B600043F24201136913F0020F0DD113F4005F19
:102B70000FD013F4805F0FD0002BF3DA13F4803FF3
:102B80000CD15B060ED510BDC2F818C05061916122
:102B9000E8E7C2F814E0E5E75461E3E74FF4803377
:102BA0009361DFE740235361DCE700BF00800D4005
:102BB000414A03204149F3EE095AD2F880309FED93
:102BC000406A23F001039FED3F5ADFF814C100B5BE
:102BD000C2F88030C2F89000D1F8E010DFF804E1CC
:102BE000CBB23948CEF8003007EE903A0B0DC1F366
:102BF0000B21F8EEE77A06EE903A07EE101A334B07
:102C0000B8EEC77ACCF80010F8EEE66A304937EE35
:102C1000C66A37EEC55A76EEC76A77EEE57A26EED3
:102C2000266AC3ED006A25EE265AD2F8803067EE98
:102C3000A64AC0ED007AC6EE275A264885EE276AD6
:102C4000C4EEA76A75EE875AFCEEE55A36EE076ABF
:102C500015EE90CABCEEC66A43EA0C5376EE877A4C
:102C6000C2F8803016EE103AD2F890C1FCEEE77A46
:102C700001EA034141EA0C014FF0000C17EE903AD3
:102C8000C2F89011C3F30B03D2F890110B43124911
:102C9000C2F89031D2F8803043F00203C2F880309D
:102CA0000E4B80F840C0C1F840314FF0E0230122C4
:102CB000C3F8082100BD00BF00810D4000441F4043
:102CC0000000AA420000B442FC08012000090120D3
:102CD0000000FF0F00E400E0005C0020455401000C
:102CE000F4080120F8080120314B40F6617210B55C
:102CF000C3F8202140F2044400F0E2F82D4A2E49A6
:102D0000D2F880302D4843F00303C2F880302C4BBA
:102D1000C1F8604102681A4203D1D1F8A8319A077C
:102D20001BD0254A4FF00041244B5963D2F8403163
:102D300043F00203C2F84031D2F840319B07FBD484
:102D40004FF400304FF0E0211C4B4FF00042C1F82F
:102D50008C0219209A6300F0BFF8184B0021164C22
:102D60004FF080420A209A634FF420721960C4F831
:102D7000A801144800F090F84FF4800203464FF485
:102D8000810040F243111860C4F858311A640E4BA8
:102D90000E4AC4F84811C3F804224FF0E0224FF461
:102DA00000310123C2F80C11C4F8403110BD00BF3E
:102DB00000800D4000C00F4000002E4000900D40EC
:102DC000001C1E0000000020005C0020495601008D
:102DD00008B50E4B1B6E9B0700D4FBBE72B60C4BA6
:102DE00000200C4AC3F8400103F160430A49A3F5EF
:102DF0005F2311649D46BFF34F8F4FF40013074AC2
:102E00000748DB6902609B68984700BF00441F4089
:102E100000002E4000C00A4003002000000012EB1A
:102E200000802020F8B500BFF8BC08BC9E46704763
:102E30005FF800F0657E00005FF800F0419500004B
:102E40005FF800F05D8F00005FF800F091A70000D0
:102E50005FF800F005B900005FF800F085E00000C1
:102E60005FF800F0354901005FF800F02D8F000099
:102E70005FF800F01D4901005FF800F0EDA40100CB
:102E80005FF800F0E16601005FF800F0F54A01002C
:102E90005FF800F0D59500005FF800F09D9D0100FF
:102EA0005FF800F0BDDE00005FF800F06D960000F6
:102EB0005FF800F0094F01005FF800F06949010078
:102EC0005FF800F0B55D01005FF800F03D510100D2
:102ED0005FF800F0F59B01005FF800F0094E01007B
:102EE0005FF800F035E400005FF800F0B9A70000DB
:102EF0005FF800F0894901005FF800F0C1DD0000D3
:102F00005FF800F0FDE000005FF800F0E1A40100D0
:102F10005FF800F0298F000045000000B11E00009E
:102F200065460000095F0000C9630000B17A000037
:102F3000BD7A0000E57F0000D58C0000E18D000027
:102F4000698E0000BD940000253101007948010020
:042F500065690100AE
:102F54001603550053004200200053006500720020
:102F6400690061006C0000001803540065006500EE
:102F74006E00730079006400750069006E006F00D4
:102F84000403090409026200030100C032080B00B3
:102F940002020201000904000001020201000524EA
:102FA4000010010524010101042402060524060081
:102FB400010705820310001009040100020A000041
:102FC40000070503024000000705840240000009D1
:102FD40004020002FF6AFF000705810240000107A6
:102FE400050102400001000009026200030100C063
:102FF40032080B000202020100090400000102026F
:103004000100052400100105240101010424020625
:1030140005240600010705820310000509040100C8
:10302400020A0000000705030200020007058402EB
:103034000002000904020002FF6AC70007058102BA
:103044000002010705010200020100000A06000255
:08305400EF0201400100000041
:10305C000000000000000000000000000000000064
:10306C000000000000000000000000000000000054
:10307C000548064B1B1AD90F01EBA301491002D0CE
:10308C00034B03B118477047C05E0020C05E0020A0
:10309C000000000008B5054B1BB105490548AFF30E
:1030AC000080BDE80840FFF7E3BF00BF0000000050
:1030BC0024A8002000C4026080687047002070477C
:1030CC00704700BF012070474FF44870704700BF35
:1030DC00704700BF4FF44870704700BF704700BF87
:1030EC004FF44870704700BF704700BF4FF44870F2
:1030FC00704700BF704700BF4FF44870704700BF67
:10310C00704700BF4FF44870704700BF704700BF56
:10311C004FF44870704700BF10B5046894F801C0B4
:10312C00BCF1000F07D090F80DE0F444BCF1FF0F98
:10313C00A8BF4FF0FF0C90F819E00EFB0CCC4FEA37
:10314C002C2C81F800C00168097829B190F80CC0CA
:10315C006144FF29A8BFFF2190F818C00CFB011196
:10316C00091211700268927822B1817B0A44FF2AFD
:10317C00A8BFFF22817E01FB022212121A7010BD21
:10318C00027BC17B437B891A027C90F80EC0D21A59
:10319C00437C0173A3EB0C0342738373704700BF32
:1031AC000368826890F91210013A0B448260036044
:1031BC00704700BF4068704780688142CCBF0020D8
:1031CC000120704790F81CC081F800C0C17E1170BE
:1031DC00427F1A70009A837F1370704790F81CC05E
:1031EC0081F800C0C17E1170427F1A70009A837FF3
:1031FC001370704710B50446103014F017FA04F130
:10320C00080014F013FA204614F010FA204610BDF2
:10321C0005F000BD0346042200B583B09B7D6946D2
:10322C000DEB0200009303F043FC019803B000BDCA
:10323C0010B5042282B0044600910DEB02006946E1
:10324C0003F036FC019BA37502B010BD30B593B0F2
:10325C00844609A8DCF800E09CF8184080E80E00D1
:10326C0007C80FAA25469CF819409CF81AC082E89A
:10327C000B00BEF8001000209EF802309DF840E0D4
:10328C000A0AADF83810C9B2BEF1020F8DF836003B
:10329C008DF837008DF83A3060D0BEF1030F42D074
:1032AC00BEF1010F1AD084460346024601468DF842
:1032BC003A00ADF838001A9CCDF800C00694199C61
:1032CC000594189C0494179C0394169CCDE9010456
:1032DC009DF8410002F0F2FC13B030BDCDE9014C79
:1032EC000DF1370C0FA80095CDF81CC00DF1360C64
:1032FC00CDF818C00DF1380CCDF80CC00DF13A0C0E
:10330C00CDF814C00DF1390CCDF810C002F054FDFD
:10331C009DF839109DF838209DF83A309DF836C04C
:10332C009DF83700C7E7CDE9014C0DF1370C0FA81C
:10333C000095CDF81CC00DF1360CCDF818C00DF170
:10334C00380CCDF80CC00DF13A0CCDF814C00DF1C1
:10335C00390CCDF810C002F0F7FCD9E7CDE9014CDF
:10336C000DF1370C0FA80095CDF81CC00DF1360CE3
:10337C00CDF818C00DF1380CCDF80CC00DF13A0C8D
:10338C00CDF814C00DF1390CCDF810C002F04EFD83
:10339C00BEE700BFF0B58FB0047E0DF1240C2646BD
:1033AC00447E8CE80E0003680B9A1988807EA2F18B
:1033BC00020C9B780022BDF824E0ADF834108DF897
:1033CC0033200A0A0A9DC9B28DF836300096CDE931
:1033DC0001407046BCF1050F00F28C80DFE80CF068
:1033EC002B3E516477030DF1330CCDF818C00DF161
:1033FC00340CCDF80CC00DF1360CCDF814C00DF119
:10340C00350CCDF810C002F053FB179B28469DF8E5
:10341C0033100493169B149C0393159B9DF8342036
:10342C0002939DF83630CDE900149DF8351002F06A
:10343C0023FC0FB0F0BD0DF1330CCDF818C00DF11D
:10344C00340CCDF80CC00DF1360CCDF814C00DF1C8
:10345C00350CCDF810C002F0E1F8D6E70DF1330CC5
:10346C00CDF818C00DF1340CCDF80CC00DF1360CA4
:10347C00CDF814C00DF1350CCDF810C002F0E2FA05
:10348C00C3E70DF1330CCDF818C00DF1340CCDF8A9
:10349C000CC00DF1360CCDF814C00DF1350CCDF877
:1034AC0010C002F08FFAB0E70DF1330CCDF818C054
:1034BC000DF1340CCDF80CC00DF1360CCDF814C058
:1034CC000DF1350CCDF810C002F026FB9DE70DF187
:1034DC00330CCDF818C00DF1340CCDF80CC00DF137
:1034EC00360CCDF814C00DF1350CCDF810C002F02F
:1034FC006BFB8AE70DF1330CCDF818C00DF1340CD1
:10350C00CDF80CC00DF1360CCDF814C00DF1350C06
:10351C00CDF810C002F07AFA77E700BF70B5044618
:10352C008CB015460E461A466846214605F036FF05
:10353C00049685EAE572DDE90001A2EBE5720290E2
:10354C00ADF80C10CDE905220A0C8DF80E20DDE942
:10355C0002010B0C0A90ADF82C108DF82E30A37DC7
:10356C00012B14D00023ADF820300793002D2368D5
:10357C004FF0000504A9ACBF03226FF002022046F5
:10358C001B6B09958DF8222098470CB070BD1D4A15
:10359C000DF11F0E1378013303F0070113F0020F26
:1035AC0011704FEAC312D2B242F0400118BF0A4662
:1035BC0013F0040F07AB42F0200118BF0A4610327B
:1035CC00D1B21A7B3AB9DA701A7001337345CDD087
:1035DC001A7B002AF7D04FF48070B0FBF2F2D2B213
:1035EC00501CC0B200FB011C4FEA2C2CBCF1000F8C
:1035FC0001D00CF1FF3C002818BF104683F800C026
:10360C00D870E2E7160A0120034B10B5044603609C
:10361C0005F06CFE204610BDC83F0020054B10B5D0
:10362C000446036005F062FE3821204614F03EFD8E
:10363C00204610BDC83F0020034B10B50446036064
:10364C0005F054FE204610BDC83F0020054B10B5B8
:10365C000446036005F04AFE3821204614F026FD8E
:10366C00204610BDC83F0020034B10B50446036034
:10367C0005F03CFE204610BDC83F0020054B10B5A0
:10368C000446036005F032FE3821204614F00EFD8E
:10369C00204610BDC83F0020034B10B50446036004
:1036AC0005F024FE204610BDC83F0020054B10B588
:1036BC000446036005F01AFE3821204614F0F6FC8F
:1036CC00204610BDC83F0020034B10B504460360D4
:1036DC0005F00CFE204610BDC83F0020054B10B570
:1036EC000446036005F002FE3821204614F0DEFC8F
:1036FC00204610BDC83F0020034B10B504460360A4
:10370C0005F0F4FD204610BDC83F0020054B10B558
:10371C000446036005F0EAFD3821204614F0C6FC8F
:10372C00204610BDC83F0020034B10B50446036073
:10373C0005F0DCFD204610BDC83F0020054B10B540
:10374C000446036005F0D2FD3821204614F0AEFC8F
:10375C00204610BDC83F00200A4A1368013B136085
:10376C0003B1704700B5084A83B0CDE9003010684A
:10377C0021F052FE0199044A009B0846136003B0E5
:10378C0000BD00BFFC650020006600200A4A1368DB
:10379C00013B136003B1704700B5084A83B0CDE913
:1037AC000030106821F034FE0199044A009B084651
:1037BC00136003B000BD00BF606700206467002089
:1037CC0070B504468CB00E46154668461A4621461E
:1037DC0005F0E4FDA27D0496012ADDE90001CDE9A6
:1037EC00055502904FEA1140ADF80C108DF80E0003
:1037FC00DDE902014FEA11430A90ADF82C108DF867
:10380C002E300ED00023ADF8203007932268002311
:10381C0004A92046126B8DF82230099390470CB006
:10382C0070BD1A4B0DF11F0C4FF4807E19780131CD
:10383C00CA0101F0070011F0020FD2B2187007ABE9
:10384C0042F0400018BF024611F0040F42F0200174
:10385C0018BF0A461032D1B21A7B3AB9DA701A7014
:10386C0001339C45D2D01A7B002AF7D0BEFBF2F272
:10387C00D2B2501CC0B200FB01152D1205B1013D96
:10388C00002818BF10461D70D870E9E7160A0120F1
:10389C0010B5042282B0044600910DEB020069467B
:1038AC0003F006F9019BA37502B010BD10B50422FC
:1038BC0082B0044600910DEB0200694603F0F8F863
:1038CC00019BA37502B010BD10B5042282B0044652
:1038DC0000910DEB0200694603F0EAF8019BA37519
:1038EC0002B010BD10B5042282B0044600910DEB5D
:1038FC000200694603F0DCF8019BA37502B010BD11
:10390C0010B5042282B0044600910DEB020069460A
:10391C0003F0CEF8019BA37502B010BD10B50422C4
:10392C0082B0044600910DEB0200694603F0C0F82A
:10393C00019BA37502B010BD10B5042282B00446E1
:10394C0000910DEB0200694603F0B2F8019BA375E0
:10395C0002B010BD2DE9F0413A4F96B005468846AD
:10396C003C68002C49D006AE95F8243003AF022BEE
:10397C000ED11835042239463046039503F098F8D9
:10398C00069A2AB11588EC4607CA8DE8070004E0B0
:10399C000022032141F27075EC460DF11C0EADF8BE
:1039AC000050CDF81880CDE90112274A0A924FF445
:1039BC005052ADF82C2000220C92244A0D92244A2D
:1039CC000E92244A0F92244A1092244A1192244AAD
:1039DC001292244A1392244A1492244A15929CE877
:1039EC00070087E807008EE80700324605212046CD
:1039FC0004F0EEFD16B0BDE8F0811D4B06AE0FCB0A
:103A0C0086E80F0031461B4804F082FD1A4B1C68F7
:103A1C003CB12046174C194A214604F019FD3C6074
:103A2C00A2E703F051F8164A134B94601A6008236E
:103A3C00D4611061D360C2E90044C2E90544144664
:103A4C00E7E700BF786B00208C0A6419450300007F
:103A5C00FD010000C900000031010000510100000F
:103A6C006501000069010000750100008D01000076
:103A7C00740300207C6B0020086C0020C101000046
:103A8C000C6C00202DE9F04104468CB00F4603F07D
:103A9C0027FE03F0E5FE2368A16820465B6A984781
:103AAC0094F834308046002B3BD0A668D4E900351E
:103ABC0058682946434B984243D13A4668462146BA
:103ACC0005F06CFCA27D0495012ADDE90001ADF83E
:103ADC000C104FEA114102908DF80E10DDE9020135
:103AEC004FEA11430A90ADF82C108DF82E3086EA6F
:103AFC00E673A3EBE673CDE9053328D00023ADF8CC
:103B0C0020300793002E4FF00002236804A9ACBFAD
:103B1C0003206FF002001B6B8DF8220020460992E7
:103B2C0098472368414620469B6A984703F0D8FD86
:103B3C0003F016FF03F0D4FD0CB0BDE8F04103F028
:103B4C00CFBE05463B4632462046A847E9E71E490C
:103B5C000DF11F0C0B780133DA0103F0070013F0A1
:103B6C00020FD2B2087042F0400118BF0A4613F09F
:103B7C00040F07AB42F0200118BF0A461032D1B235
:103B8C001A7B3AB9DA701A7001336345BAD01A7BD2
:103B9C00002AF7D04FF48070B0FBF2F2D2B2501C76
:103BAC00C0B200FB011E4FEA2E2EBEF1000F01D059
:103BBC000EF1FF3E002818BF104683F800E0D870C5
:103BCC00E2E700BFCD040000160A0120F0B5044660
:103BDC008FB005F05BFB534A23689B6993425CD121
:103BEC0003F07EFD03F03CFE2368A16820465B6A6F
:103BFC00984794F834300646002B3ED0A568D4E99B
:103C0C000023526811461746474A91424BD102A8ED
:103C1C0000222146019305F0C1FB019BA27D069376
:103C2C00012ADDE90201ADF814104FEA11410490AC
:103C3C008DF81610DDE904014FEA11430C90ADF834
:103C4C0034108DF8363085EAE573A3EBE573CDE9D6
:103C5C0007332ED00023ADF828300993002D4FF0F8
:103C6C000002236806A9ACBF03206FF002001B6B97
:103C7C008DF82A0020460B9298472368314620463F
:103C8C009B6A984703F02CFD03F06AFE03F028FDB5
:103C9C000FB0BDE8F04003F023BE002120460FB06A
:103CAC00BDE8F040184719462A4600232046B8477D
:103CBC00E3E71E490DF1270C0B780133DA0103F011
:103CCC00070013F0020FD2B2087042F0400118BF87
:103CDC000A4613F0040F09AB42F0200118BF0A4644
:103CEC001032D0B21A7B2AB9DA701A7001336345DC
:103CFC00F8D1B3E74FF48071B1FBF2F2D2B2511CA0
:103D0C00C9B201FB000E4FEA2E2EBEF1000F01D0FE
:103D1C000EF1FF3E002918BF114683F800E0D97060
:103D2C00E4E700BF350A0000CD040000160A0120AC
:103D3C00F0B5042287B0837D254E0DEB020102A85D
:103D4C00019302F0B5FE3468029F64B1214D2E68D8
:103D5C0006B32146304604F095FB204604F02EFCB9
:103D6C00384607B0F0BD1C4B02AC1A4D0FCB84E8A3
:103D7C000F002146194804F0CBFB2C68CCB1174935
:103D8C002046174A04F064FB144931600C462E6837
:103D9C00002EDED102F098FE124A08219660D66100
:103DAC0010612A60D160C2E90066C2E90566164658
:103DBC00CFE702F089FE0B4B08229C60DC61186196
:103DCC002B60DA60C3E90044C3E905441C46D6E71E
:103DDC00786B0020086C0020740300207C6B0020A2
:103DEC00C10100000C6C0020F0B5042287B0837D6B
:103DFC00254E0DEB020102A8019302F059FE346826
:103E0C00029F64B1214D2E6806B32146304604F062
:103E1C0039FB204604F0D2FB384607B0F0BD1C4BF2
:103E2C0002AC1A4D0FCB84E80F002146194804F060
:103E3C006FFB2C68CCB117492046174A04F008FBDD
:103E4C00144931600C462E68002EDED102F03CFE87
:103E5C00124A08219660D66110612A60D160C2E9CD
:103E6C000066C2E905661646CFE702F02DFE0B4B45
:103E7C0008229C60DC6118612B60DA60C3E90044A5
:103E8C00C3E905441C46D6E7786B0020086C00207B
:103E9C00740300207C6B0020C10100000C6C00201E
:103EAC00F0B5042287B0837D254E0DEB020102A8EC
:103EBC00019302F0FDFD3468029F64B1214D2E6820
:103ECC0006B32146304604F0DDFA204604F076FBBA
:103EDC00384607B0F0BD1C4B02AC1A4D0FCB84E832
:103EEC000F002146194804F013FB2C68CCB117497C
:103EFC002046174A04F0ACFA144931600C462E687F
:103F0C00002EDED102F0E0FD124A08219660D66147
:103F1C0010612A60D160C2E90066C2E905661646E6
:103F2C00CFE702F0D1FD0B4B08229C60DC611861DD
:103F3C002B60DA60C3E90044C3E905441C46D6E7AC
:103F4C00786B0020086C0020740300207C6B002030
:103F5C00C10100000C6C0020F0B5042287B0837DF9
:103F6C00254E0DEB020102A8019302F0A1FD34686D
:103F7C00029F64B1214D2E6806B32146304604F0F1
:103F8C0081FA204604F01AFB384607B0F0BD1C4BF2
:103F9C0002AC1A4D0FCB84E80F002146194804F0EF
:103FAC00B7FA2C68CCB117492046174A04F050FADE
:103FBC00144931600C462E68002EDED102F084FDCF
:103FCC00124A08219660D66110612A60D160C2E95C
:103FDC000066C2E905661646CFE702F075FD0B4B8D
:103FEC0008229C60DC6118612B60DA60C3E9004434
:103FFC00C3E905441C46D6E7786B0020086C00200A
:10400C00740300207C6B0020C10100000C6C0020AC
:10401C00F0B5042287B0837D254E0DEB020102A87A
:10402C00019302F045FD3468029F64B1214D2E6866
:10403C0006B32146304604F025FA204604F0BEFAB9
:10404C00384607B0F0BD1C4B02AC1A4D0FCB84E8C0
:10405C000F002146194804F05BFA2C68CCB11749C3
:10406C002046174A04F0F4F9144931600C462E68C6
:10407C00002EDED102F028FD124A08219660D6618E
:10408C0010612A60D160C2E90066C2E90566164675
:10409C00CFE702F019FD0B4B08229C60DC61186124
:1040AC002B60DA60C3E90044C3E905441C46D6E73B
:1040BC00786B0020086C0020740300207C6B0020BF
:1040CC00C10100000C6C0020F0B5042287B0837D88
:1040DC00254E0DEB020102A8019302F0E9FC3468B5
:1040EC00029F64B1214D2E6806B32146304604F080
:1040FC00C9F9204604F062FA384607B0F0BD1C4BF3
:10410C0002AC1A4D0FCB84E80F002146194804F07D
:10411C00FFF92C68CCB117492046174A04F098F9DE
:10412C00144931600C462E68002EDED102F0CCFC16
:10413C00124A08219660D66110612A60D160C2E9EA
:10414C000066C2E905661646CFE702F0BDFC0B4BD4
:10415C0008229C60DC6118612B60DA60C3E90044C2
:10416C00C3E905441C46D6E7786B0020086C002098
:10417C00740300207C6B0020C10100000C6C00203B
:10418C00F0B5042287B0837D254E0DEB020102A809
:10419C00019302F08DFC3468029F64B1214D2E68AE
:1041AC0006B32146304604F06DF9204604F006FAB9
:1041BC00384607B0F0BD1C4B02AC1A4D0FCB84E84F
:1041CC000F002146194804F0A3F92C68CCB117490B
:1041DC002046174A04F03CF9144931600C462E680D
:1041EC00002EDED102F070FC124A08219660D661D6
:1041FC0010612A60D160C2E90066C2E90566164604
:10420C00CFE702F061FC0B4B08229C60DC6118616B
:10421C002B60DA60C3E90044C3E905441C46D6E7C9
:10422C00786B0020086C0020740300207C6B00204D
:10423C00C10100000C6C00202DE9F0413A4F96B002
:10424C00054688463C68002C49D006AE95F82430CB
:10425C0003AF022B0ED11835042239463046039594
:10426C0002F026FC069A2AB11588EC4607CA8DE89E
:10427C00070004E00022032141F27075EC460DF1B9
:10428C001C0EADF80050CDF81880CDE90112274A6C
:10429C000A924FF45052ADF82C2000220C92244A72
:1042AC000D92244A0E92244A0F92244A1092244AC8
:1042BC001192244A1292244A1392244A1492244AA8
:1042CC0015929CE8070087E807008EE80700324645
:1042DC000421204604F07CF916B0BDE8F0811D4B9A
:1042EC0006AE0FCB86E80F0031461B4804F010F9E0
:1042FC001A4B1C683CB12046174C194A214604F055
:10430C00A7F83C60A2E702F0DFFB164A134B94605F
:10431C001A600823D4611061D360C2E90044C2E979
:10432C0005441446E7E700BF786B00208C0A64193B
:10433C0045030000FD010000C90000003101000030
:10434C0051010000650100006901000075010000C9
:10435C008D010000740300207C6B0020086C002091
:10436C00C10100000C6C00202DE9F0413A4F96B0D1
:10437C00054688463C68002C49D006AE95F824309A
:10438C0003AF022B0ED11835042239463046039563
:10439C0002F08EFB069A2AB11588EC4607CA8DE806
:1043AC00070004E00022032141F27075EC460DF188
:1043BC001C0EADF80050CDF81880CDE90112274A3B
:1043CC000A924FF45052ADF82C2000220C92244A41
:1043DC000D92244A0E92244A0F92244A1092244A97
:1043EC001192244A1292244A1392244A1492244A77
:1043FC0015929CE8070087E807008EE80700324614
:10440C000321204604F0E4F816B0BDE8F0811D4B02
:10441C0006AE0FCB86E80F0031461B4804F078F847
:10442C001A4B1C683CB12046174C194A214604F023
:10443C000FF83C60A2E702F047FB164A134B94605E
:10444C001A600823D4611061D360C2E90044C2E948
:10445C0005441446E7E700BF786B00208C0A64190A
:10446C0045030000FD010000C900000031010000FF
:10447C005101000065010000690100007501000098
:10448C008D010000740300207C6B0020086C002060
:10449C00C10100000C6C00202DE9F0413A4F96B0A0
:1044AC00054688463C68002C49D006AE95F8243069
:1044BC0003AF022B0ED11835042239463046039532
:1044CC0002F0F6FA069A2AB11588EC4607CA8DE86E
:1044DC00070004E00022032141F27075EC460DF157
:1044EC001C0EADF80050CDF81880CDE90112274A0A
:1044FC000A924FF45052ADF82C2000220C92244A10
:10450C000D92244A0E92244A0F92244A1092244A65
:10451C001192244A1292244A1392244A1492244A45
:10452C0015929CE8070087E807008EE807003246E2
:10453C000221204604F04CF816B0BDE8F0811D4B6A
:10454C0006AE0FCB86E80F0031461B4803F0E0FFA8
:10455C001A4B1C683CB12046174C194A214603F0F3
:10456C0077FF3C60A2E702F0AFFA164A134B946057
:10457C001A600823D4611061D360C2E90044C2E917
:10458C0005441446E7E700BF786B00208C0A6419D9
:10459C0045030000FD010000C900000031010000CE
:1045AC005101000065010000690100007501000067
:1045BC008D010000740300207C6B0020086C00202F
:1045CC00C10100000C6C00202DE9F0413A4F96B06F
:1045DC00054688463C68002C49D006AE95F8243038
:1045EC0003AF022B0ED11835042239463046039501
:1045FC0002F05EFA069A2AB11588EC4607CA8DE8D5
:10460C00070004E00022032141F27075EC460DF125
:10461C001C0EADF80050CDF81880CDE90112274AD8
:10462C000A924FF45052ADF82C2000220C92244ADE
:10463C000D92244A0E92244A0F92244A1092244A34
:10464C001192244A1292244A1392244A1492244A14
:10465C0015929CE8070087E807008EE807003246B1
:10466C000821204603F0B4FF16B0BDE8F0811D4BC5
:10467C0006AE0FCB86E80F0031461B4803F048FF0F
:10468C001A4B1C683CB12046174C194A214603F0C2
:10469C00DFFE3C60A2E702F017FA164A134B946057
:1046AC001A600823D4611061D360C2E90044C2E9E6
:1046BC0005441446E7E700BF786B00208C0A6419A8
:1046CC0045030000FD010000C9000000310100009D
:1046DC005101000065010000690100007501000036
:1046EC008D010000740300207C6B0020086C0020FE
:1046FC00C10100000C6C00202DE9F0413A4F96B03E
:10470C00054688463C68002C49D006AE95F8243006
:10471C0003AF022B0ED118350422394630460395CF
:10472C0002F0C6F9069A2AB11588EC4607CA8DE83C
:10473C00070004E00022032141F27075EC460DF1F4
:10474C001C0EADF80050CDF81880CDE90112274AA7
:10475C000A924FF45052ADF82C2000220C92244AAD
:10476C000D92244A0E92244A0F92244A1092244A03
:10477C001192244A1292244A1392244A1492244AE3
:10478C0015929CE8070087E807008EE80700324680
:10479C000721204603F01CFF16B0BDE8F0811D4B2D
:1047AC0006AE0FCB86E80F0031461B4803F0B0FE77
:1047BC001A4B1C683CB12046174C194A214603F091
:1047CC0047FE3C60A2E702F07FF9164A134B946057
:1047DC001A600823D4611061D360C2E90044C2E9B5
:1047EC0005441446E7E700BF786B00208C0A641977
:1047FC0045030000FD010000C9000000310100006C
:10480C005101000065010000690100007501000004
:10481C008D010000740300207C6B0020086C0020CC
:10482C00C10100000C6C00202DE9F0413A4F96B00C
:10483C00054688463C68002C49D006AE95F82430D5
:10484C0003AF022B0ED1183504223946304603959E
:10485C0002F02EF9069A2AB11588EC4607CA8DE8A3
:10486C00070004E00022032141F27075EC460DF1C3
:10487C001C0EADF80050CDF81880CDE90112274A76
:10488C000A924FF45052ADF82C2000220C92244A7C
:10489C000D92244A0E92244A0F92244A1092244AD2
:1048AC001192244A1292244A1392244A1492244AB2
:1048BC0015929CE8070087E807008EE8070032464F
:1048CC000621204603F084FE16B0BDE8F0811D4B96
:1048DC0006AE0FCB86E80F0031461B4803F018FEDE
:1048EC001A4B1C683CB12046174C194A214603F060
:1048FC00AFFD3C60A2E702F0E7F8164A134B946058
:10490C001A600823D4611061D360C2E90044C2E983
:10491C0005441446E7E700BF786B00208C0A641945
:10492C0045030000FD010000C9000000310100003A
:10493C0051010000650100006901000075010000D3
:10494C008D010000740300207C6B0020086C00209B
:10495C00C10100000C6C00202E4B1878D8B12E4BE6
:10496C002E4A1B681268134314D02D4B196811F092
:10497C00010110B582B010D02A4804F059FD03464D
:10498C0018B9294A1178002932D183F00100C0B23C
:10499C0002B010BD704701207047224C0191204697
:1049AC0012F0DEFD019904F1080012F0D9FD019915
:1049BC0004F1100012F0D4FD019904F14002184BDF
:1049CC004FF0010C216622622046184A84F86C10C4
:1049DC00C4F8DC10C3F800C0C4E91911144914F070
:1049EC00E7FE104804F024FD03460028CDD1C8E7AB
:1049FC000190104801680131016013F083FA0A4AF2
:104A0C00DFF838C0019B0C491370DCF80020801AC9
:104A1C000860BAE7280A01201409012090720020CE
:104A2C0098640020A0600020200A0120205500205E
:104A3C00A5010000D4720020D87200200C090120BE
:104A4C0008B5604B1A68D10753D50023CB225E49B9
:104A5C005E4804F0BBFA5E4B1A68D20740F1A380A3
:104A6C00002340F2E2225B495B4804F0AFFA5B4B57
:104A7C001A68D30740F1888000234FF45C725849C0
:104A8C00584804F0A3FA584B1A68D0076DD5002388
:104A9C0040F22A325549564804F098FA554B1A6898
:104AAC00D10753D500234FF4B0725349534804F047
:104ABC008DFA534B1A68D20739D500234FF42A725A
:104ACC005049514804F082FA504B1A68D3071FD54D
:104ADC004FF4DD7200234E494E4804F077FA102350
:104AEC004D480021037004F0A7FA4C4B01221A70B8
:104AFC0008BD364804F08EFB344B49480121494A25
:104B0C00186018462F4B1960474914F051FE9CE76A
:104B1C00404804F07FFB3F4B44480121414A186058
:104B2C0018463A4B1960424914F042FED0E7364819
:104B3C0004F070FB344B3F4801213A4A1860184688
:104B4C002F4B19603C4914F033FEB6E72B4804F0A8
:104B5C0061FB2A4B39480121324A18601846254B13
:104B6C001960374914F024FE9CE7214804F052FBED
:104B7C001F4B344801212B4A186018461A4B1960F8
:104B8C00314914F015FE82E7164804F043FB154B2F
:104B9C002E480121234A18601846104B19602C49E5
:104BAC0014F006FE68E70C4804F034FB0A4B294865
:104BBC0001211C4A18601846054B1960264914F04F
:104BCC00F7FD4DE7A8640020C0770020EC6C0020B6
:104BDC00AC640020217A0020246D0020B0640020F9
:104BEC00C78200205C6D0020B4640020178D00206B
:104BFC00946D0020B864002095960020CC6D0020A8
:104C0C00BC640020B59A0020046E0020C064002013
:104C1C00ADA200203C6E002060630020280A012019
:104C2C000440002020550020B90500006C410020F4
:104C3C00D906000030410020A9060000F4400020F5
:104C4C0079060000B8400020490600007C40002096
:104C5C001906000040400020E905000038B5044664
:104C6C0013F050F905461148017804F019FA13F0C5
:104C7C0049F90F4B401B0F4A0F4910601A680D6021
:104C8C0090424FF0010288BF18600C4B1A7034B17F
:104C9C000B4A1368013313600A4B1C7038BD0A4A67
:104CAC00136801331360074B1C7038BD6063002020
:104CBC00E4A70020100901200C090120200A012082
:104CCC009072002000580020140901200000000000
:104CDC002DE9F04FDFF81C82ADF2246D6E4ED8F842
:104CEC00005034682C1B03D10DF2246DBDE8F08FFD
:104CFC006A4B28AFD3F800903846494606F034F991
:104D0C00674B1B78002B00F0B780664A2592664BE8
:104D1C001B78002B00F0AD80624B2693BB79484684
:104D2C0027922393FB7997F804A097F805B0249366
:104D3C0006F012F9279A002800F09880DFF864E159
:104D4C0007EE904A594CDFF8B091E068B8EE676B0B
:104D5C00574B0F90D9F80070DFF8A0C114971B685F
:104D6C00FB1A544F07EE103A534B9FED495BB8EECC
:104D7C00477B1B68C31A514827EE057B87EE064B11
:104D8C0007EE103A4E4BB8EE477B27EE057B87EECD
:104D9C00065B8DED184B8DED165B1B682093494B14
:104DAC001B681F93484B1B681E93484B1B681C9336
:104DBC00474B1B681B93474B1B681A93464B1B684E
:104DCC0015933B681D93E3691393A369129363696D
:104DDC00119323691093CDF81CE02499CDF80CA005
:104DEC00069123993D4BCDE904B126990291259961
:104DFC00CDE90021A2684FF4AF610E92DCF80020DF
:104E0C000D9202682AA80B92D3F888200992D3F845
:104E1C008430334A0A932368089363680C93214BBC
:104E2C0017F02CFE824614F0DFFB2E4B1B7873B16F
:104E3C002D4B1B78DB070AD52C4AD8F800301268AA
:104E4C009B1A0E2B03D914F05DFB824518DD3B68D1
:104E5C0001333B60E368184A35601360D9F80030C1
:104E6C00134A13600DF2246DBDE8F08FDFF880E07B
:104E7C0066E71F4B269351E71D4B0A4A259346E7DD
:104E8C0051462AA814F034FBE4E700BFAFF30080CE
:104E9C000000000000408F40BC770020486A0020D2
:104EAC001D0A012020040020005800204CA80020DE
:104EBC0040A80020480901203CA80020E0A70020C1
:104ECC00D0720020D8720020D4720020DCA7002001
:104EDC00E4A7002010090120907200204C09012049
:104EEC0030040020350A0120340A0120E409012095
:104EFC00280400201C090120140901208C770020B3
:104F0C00254B19684A1C00B583B01A6049B3234A73
:104F1C002349244814F04CFC234A1368591C116093
:104F2C00002B32D01D4A2149214814F041FC60214C
:104F3C00204806F0D7FD194A1F491E4814F038FCCA
:104F4C001E4B1F49002243F8042C43E903220C3367
:104F5C008B42F8D11B4B4FF000011A83997603B0AA
:104F6C0000BD4FF4EE72184817F040FF174B18466F
:104F7C00019306F047FF019B154A88339A42F6D1FC
:104F8C00144BA2F5EE721A60C1E7134820F02CFA0C
:104F9C00124A114B1360C5E76067002020550020B2
:104FAC003D070000606A0020FC6500200907000036
:104FBC004C6A00204C09012001870000CC770020AE
:104FCC00E4A70020C0A7002068670020AC67002081
:104FDC0044690020646700200466002000660020FD
:104FEC002DE9F8431B4D40F2EE281B4C1B4FDFF80C
:104FFC0080902E6814F0F8FA2378EBB13B78DB073D
:10500C001AD52B68D9F800209B1A0E2B14D9144BE7
:10501C0014491C68204605F0F1FF204605F01EFFE0
:10502C0041F63611104806F041FE00380F4B18BF00
:10503C0001201870BDE8F8832B6822789B1B2AB1DD
:10504C00B3F5FA6FE3D814F0CFFAD3E74345FAD9A6
:10505C00DDE700BF1C090120350A0120340A0120BC
:10506C00486A00206C0600204C090120270A012008
:10507C00E40901202DE9F84340243F4D3F4E404FB9
:10508C00DFF83481DFF8349109E05A1C2F2A2AD832
:10509C00317841BB2A603B4AD054013C21D014F0FA
:1050AC00BDF9F0B114F000FA2B68C0B20A2801D097
:1050BC000D28EAD1334A00203178D05461B91368F5
:1050CC00BB4213D0136843451CD013684B4525D005
:1050DC0013682D4A93423BD00023013C2B60337064
:1050EC00DDD1BDE8F88301233370D6E71379002BAB
:1050FC00E8D1264A9365A2F8693082F86B30244ACD
:10510C001370E9E7234B45F2553118888842DCD1FE
:10511C009B78002BD9D1FFF7DBFDDDE79388482B7B
:10512C00D6D114F061FA1C4B164A1B78002BCFD049
:10513C001A4B1B78DB07CBD5194B1A491B6809682E
:10514C005B1A0E2BC4D91849184820F049F9C3E74B
:10515C00174B1B780BB9FFF773FC114B0022196826
:10516C000A4B9A65A3F8692083F86B200122084B3F
:10517C001A70104B1960AFE7886A0020140A0120DE
:10518C0053544F508C6A002041524D004C08012062
:10519C001D0A0120906A0020350A0120340A0120E2
:1051AC001C090120E40901208454002078540020BB
:1051BC00280A01209C7100205354415443524153FE
:1051CC002DE9F04F89B0924C12F09CFE914B804629
:1051DC001B681846039305F041FD2378002B00F063
:1051EC0008818D4FFFF746FF80258C4C8C4E07F5C0
:1051FC00C049DFF864A2CDF8088005E0894A13683D
:10520C0001331360013D6DD0236B204632689A4206
:10521C0038BF336006F020F9002863DBF2D021465A
:10522C0006A805F0BFFF079B5345E7D1A36DD4E952
:10523C0010820193A2EB080B3A68BBF1110F02F13B
:10524C0001023A6048DD08227749404617F0FAFC23
:10525C00002841D198F80820002A3DD198F809205F
:10526C00502A39D198F80A1098F80B2002EB012239
:10527C000D2A31D998F8101098F8112002EB012260
:10528C00911EB1F5FF7F27D8D30725D402F1120167
:10529C008B4521D198F90F1098F80F0000291BDBD2
:1052AC0098F80E104FF0AA0E01EB00235F4901F1A4
:1052BC002A0BB1F800C0A3EB0C0063450EFB00FCFD
:1052CC0003D348888445C0F0C98006315945F0D1D4
:1052DC00BB680133BB6095E77B68013D03F10103BB
:1052EC007B6091D1524AD9F85830DDF808801468A7
:1052FC0023B1D9F85C30E31A642B49D8D9F864305F
:10530C00E31AB3F57A7F02D90023A9F86A30494E23
:10531C003378002B54D112F0F5FD474B1D68451B1B
:10532C00FFF71AFB80F00103DBB2CBB148F2352357
:10533C009D4215D9414A13680133136012F0E2FD06
:10534C003F4BA0EB08001A68824238BF18603D4BF7
:10535C001B68E41AB4F57A7F55D209B0BDE8F08F1A
:10536C000028EBD03178D1B148F235239D42E5D9F4
:10537C0099F86930002BE1D043F21B0232493348D3
:10538C0012F0F4FD002089F86900FFF767FCD5E7FF
:10539C003B6901333B610023C9F85830AEE72C4B15
:1053AC001B78012BCAD046F64B039D42C6D943F25B
:1053BC001B02264817F01AFD0120FFF74FFCBDE732
:1053CC00039805F0C9FD58B1224B1B68E31AB3F5DD
:1053DC007A7FA0D9D9F86030E31AB3F57A7F9AD9DD
:1053EC0000233370C9F85830A9F8693089F86B304C
:1053FC0091E741F63611094806F058FC003818BF01
:10540C0001202070EDE609B0BDE8F04FFFF760BC5D
:10541C00270A0120486A00204CA800204C090120D2
:10542C00E0A700208C77002084030020DC3D0020C6
:10543C001C0901201D0A01200C090120D07200203A
:10544C00DCA70020BC77002087D80020C077002084
:10545C00005800209C7100200A00007DA0EB0C007D
:10546C0000EB4000B0F5FF7F28BF4FF4FF70824285
:10547C008646FFF431AF8A880592D9F858205AB184
:10548C00D9F85C2001998A1A642A05D93A69013243
:10549C003A610022C9F85820D9F8642001998A1A77
:1054AC00B2F57A7F7BD90022A9F86A2098F80CB063
:1054BC00BBF1000F4FD0D9F858202AB13A6901320C
:1054CC003A610022C9F85820012289F868B0A9F87D
:1054DC006A20A3F17802012101FA02F3D9F85820CD
:1054EC001A42049357D1002A4DD005987246484B66
:1054FC0008F11201604400EB4000184412F036FD34
:10550C0007F5C043019A04995A669A6D0A434149BA
:10551C008A429A657FF476AE93F8693013B1FB69D1
:10552C000133FB6143F21B0239493B4812F01EFD6B
:10553C00019BC9F86030BBF1000318BF012389F847
:10554C006B30FB680133FB600023C9F85830012332
:10555C0089F8693056E6A3F17802012101FA02F3C9
:10556C00D9F858200493049B002112EA0300A9F8EF
:10557C006A1046D0BA698B46C9F858100132BA6124
:10558C003A6901323A61019BC9F85C30ADE799F890
:10559C006B20002A9DD0BB690133BB6132E698F8C1
:1055AC000CB099F86A10BBF1000F16D0002982D00C
:1055BC0099F868209345EAD0ABEB0202FF21FF3249
:1055CC00B2FBF1F1C1EB0121521A7F2A1BD8D9F899
:1055DC005820002A3FF475AF70E7A3F17802012040
:1055EC0000FA02F3D9F8582004930029BBD012B169
:1055FC003A6901323A610022C9F85820A9F86A20A8
:10560C00C1E783466FE77B6901337B61FAE500BF35
:10561C006CA80020FFFFFB1F87D8002010B49DF85A
:10562C000800049C00FB02229DF80C0000FB0333D5
:10563C00C2F307229DF80400C3F3072300FB0111FA
:10564C0093421846C1F3072128BF1046884228BF51
:10565C000846091A121A1B1A217005990A70DDE9FD
:10566C0006120B70107010BC704700BF01700372F3
:10567C0063B19200074B0232A3FB0212520802FBE9
:10568C0003F3B3F1553F88BF013292B202EB4202F1
:10569C0042607047ABAAAAAA70B51E46044682B0F7
:1056AC00D1E903359C46284608E001EB50011CF873
:1056BC0021E00CEB8101964515D3400820F0010147
:1056CC000028F2D143B305EB450503EB85018C456E
:1056DC0003D09CF8003093420CD000232046C4E940
:1056EC00003302B070BD00F1FF3E01F10C0CAEEBCB
:1056FC005000E3E7DCE9013526B9C4E90035204662
:10570C0002B070BD18462A460021019301F0D4F96D
:10571C00019BC4E90035F2E7BCF1000FD9D1DCE7FD
:10572C0090F87130012B1ED0012310B5044682B0C5
:10573C000C3084F8713000F0B3FE04F1300004F149
:10574C005001019001F002F8019800F0A9FEA26846
:10575C0012B9012002B010BD0021206801F0ACF993
:10576C00012002B010BD0020704700BF303000F0A7
:10577C006FBE00BF90F87130022B00F0E480436DD7
:10578C0002222DE9F04F446B85B0066B9C4280F8E9
:10579C00712000F0BE800123002E04EB440105466D
:1057AC0080F8703006EB810108BF00218E4200F0BA
:1057BC00CC80334600275A680C33974238BF1746C3
:1057CC008B42F8D107FB04F4AB68A34217D22868CC
:1057DC0000232B6008B100F025FD0121204600F0CC
:1057EC0001FD0422009069460DEB020001F060F906
:1057FC00019B28682B6008B100F014FD2E6BAC6087
:10580C00002E6FD06B6BB646B0464FF0000903EB21
:10581C004303CA460EEB8303984563D0E9682E68B0
:10582C008C46286998F800404E44024608E003EB89
:10583C0052031CF823B00CEB8303A34556D3520838
:10584C0022F00103002AF2D100295DD000EB4000C8
:10585C0001EB8000604503D09CF80030A34255D08A
:10586C00ACEB01013A4B01AA05F10C0089108DF843
:10587C00044003FB01F1CDE902AA00F0F5FED5E9E5
:10588C0003131A468C4608E000EB52001CF820E08B
:10589C000CEB8000A64530D3520822F00100002A00
:1058AC00F2D103EB430301EB8303914208BF0B4698
:1058BC00634504D09CF80020A24218BF9C460CF112
:1058CC00040CD5F830E0B94408F10C08CCE90067B9
:1058DC00BEF1000FA3D06B6B03EB43030EEB830302
:1058EC0098459BD1012005B0BDE8F08F02F1FF3B3C
:1058FC0003F10C0CABEB5202A2E702F1FF3E00F1FC
:10590C000C0CAEEB5202C8E70846A3E70CF1040CF2
:10591C00D9E7B4B13246036D002117781D78AF4238
:10592C007FF439AF57685D68AF427FF434AF177AB4
:10593C001D7AAF427FF42FAF01310C320C338C4205
:10594C00EBD1002328E70020704700273C4656E7A0
:10595C00ABAAAAAA00B5D0E90C3E0020002B0EEB96
:10596C004E0C03EB8C0C08BF4FF0000C634506D0BB
:10597C0059680C33884238BF08466345F8D100FBA0
:10598C000EF000BD10B51C464FF0000CD0E90C0316
:10599C00002803EB430E0B6000EB8E0E08BF4FF09C
:1059AC00000E704506D043680C309C4538BF9C46B1
:1059BC007045F8D1C2F800C00A680CFB02F22260F4
:1059CC0010BD00BF9DF8000000FB01119DF8040004
:1059DC0000FB02229DF80800091200FB033312128F
:1059EC00DDE9030CC3F3072301708CF80020059A42
:1059FC00069913709CF800200078934228BF134638
:105A0C00834228BF03460B70704700BF10B49DF84B
:105A1C000400049C00FB01119DF8080000FB02220D
:105A2C009DF80C00091200FB03331212059821702B
:105A3C001B1202700021DDE906020370117010BC0C
:105A4C00704700BF10B49DF8080000FB02229DF8BF
:105A5C000C0000FB0333C2F307229DF80400C3F3D0
:105A6C00072300FB0111079893429C46C1F30721C1
:105A7C0028BF94468C4528BF8C46BCF1540F11D8D6
:105A8C00A1EB0C01A2EB0C02A3EB0C030CEB4C0CEA
:105A9C00049C217005990A70069A137080F800C056
:105AAC0010BC70475439543A543B4FF0FF0CEFE79D
:105ABC002DE9F04FDFF858E09B469DF82440DEF8C6
:105ACC0000C09DF828509DF82C60DDE90C78DDE9CC
:105ADC000E9ABCF1000F10D0DCF800E0BEF1000F04
:105AEC0010D05B46F4460994CDE90E9ACDE90C78BA
:105AFC00CDE90A56BDE8F04F6047044BC3F800C02F
:105B0C00CEF80030DFF80CE0EBE700BF6C6B002048
:105B1C00686B0020CD2500002DE9F04F1C46274B6B
:105B2C0099B00E461F7815469DF888A09DF88C807C
:105B3C009DF8909007B308FB0555259A09FB044482
:105B4C00C5F307250AFB0666C4F307242B46C6F3E8
:105B5C000726A54228BF2346B34228BF3346F61A70
:105B6C00ED1AE41A1670269A1570279A1470289A52
:105B7C00137019B0BDE8F08F012211481A7000F0B3
:105B8C00CFF9602239468346684617F02FF96846EC
:105B9C0000F0BCFF0A230B49684617938DF8587028
:105BAC0001F0B8FA38466B46594640F2092200F02B
:105BBC0077F9684600F03CFBBDE700BF170A0120EF
:105BCC0080060020D40600202DE9F04F1C46274B00
:105BDC0099B00E461F7815469DF888A09DF88C80CC
:105BEC009DF8909007B308FB0555259A09FB0444D2
:105BFC00C5F307250AFB0666C4F307242B46C6F338
:105C0C000726A54228BF2346B34228BF3346F61ABF
:105C1C00ED1AE41A1670269A1570279A1470289AA1
:105C2C00137019B0BDE8F08F012211481A7000F002
:105C3C0077F9602239468346684617F0D7F86846EC
:105C4C0000F064FF0A230B49684617938DF85870CF
:105C5C0001F060FA38466B4659464FF4057200F075
:105C6C001FF9684600F0E4FABDE700BF190A0120ED
:105C7C00800600209007002000B59DF804C0032882
:105C8C0019D8DFE800F0130F050260469C46034666
:105C9C000298017003990A70049A82F800C0059A60
:105CAC00137000BD104662468446F1E70846614613
:105CBC0094460246ECE79C460023E9E730B5C0F376
:105CCC00021585B000F007009DF820E00DF1080CDE
:105CDC008DF8041000218DF806300DEB05039DF8AE
:105CEC00244083F808E00DEB00038DF805200A46EC
:105CFC001C72CBB202F11004013102F1010E9D4273
:105D0C006C4407D0984205D014F80C3C5FFA8EF224
:105D1C008CF8003005290CF1010CEAD19DF8083003
:105D2C000A9A0C9913709DF809300B9A13709DF810
:105D3C000A309DF80B200B700D999DF80C300A70F1
:105D4C000E9A137005B030BD2DE9F04FDFF864E00A
:105D5C009DF82490DEF800C09DF828A09DF82CB08A
:105D6C00109CDDE90C85DDE90E67BCF1000F10D04D
:105D7C00DCF800E0BEF1000F10D0F446CDE90F7452
:105D8C00CDE90D56CDE90BB8CDE9099ABDE8F04F38
:105D9C006047074BC3F800C0CEF80030002388F8EA
:105DAC0000302B7033703B702370BDE8F08F00BF58
:105DBC00746B0020706B0020194B30B51C7899B0B7
:105DCC0064B100231F9A1370209A1370219A1370D8
:105DDC00229A1370239A137019B030BD0122114806
:105DEC001A7000F09DF8602221460546684616F0B0
:105DFC00FDFF684600F08AFE0A230B49684617939C
:105E0C008DF8584001F086F920466B4629464FF430
:105E1C00BB7200F045F8684600F00AFAD1E700BF03
:105E2C00180A012050080020A8080020194B30B592
:105E3C001C7899B064B100231F9A1370209A1370C8
:105E4C00219A1370229A1370239A137019B030BDD3
:105E5C00012211481A7000F063F8602221460546B1
:105E6C00684616F0C3FF684600F050FE0A230B4943
:105E7C00684617938DF8584001F04CF920466B4654
:105E8C0029464FF4C27200F00BF8684600F0D0F9C6
:105E9C00D1E700BF1A0A0120500800202809002071
:105EAC00F0B50D4697B016461C4678B301282BD199
:105EBC00174F2146684601F093FB0021204600F065
:105ECC00E7F91DB12946204601F024F91149204675
:105EDC0001F020F93146204601F02CF939462046D4
:105EEC0001F018F9684601F0C5FA18B101462046D0
:105EFC0001F010F9204601F0BDFA00F0CFFD684624
:105F0C0000F096F917B0F0BD034FD2E7034FD0E77E
:105F1C0090090020A80900209C0900208409002079
:105F2C0000B50178864621B3034673294FF0000C67
:105F3C00184613F8012F0BD02F2901D05C2900D162
:105F4C00844682B11146184613F8012F7329F3D1F8
:105F5C00722AF6D159786329F4D199782F2901D076
:105F6C005C29EFD100BDBCF1000F02D00CF1010097
:105F7C0000BD704600BD00BF00B583B00422694669
:105F8C0000900DEB020000F093FD03B000BD00BFCC
:105F9C0000B583B00422694600900DEB020000F0BE
:105FAC0087FD03B000BD00BF014B08461B681847B6
:105FBC00A0540020401AB0FA80F04009704700BF8E
:105FCC00704700BF704700BF704700BF704700BFED
:105FDC00704700BF704700BF704700BF704700BFDD
:105FEC00704700BF704700BF704700BF03685B6815
:105FFC00184700BF00B583B0019015F0E5FD01987E
:10600C0003B000BD0A4B084600B583B01B68019174
:10601C0098470199034641B138B10A46B0FA80F16C
:10602C000190490916F0E2FE019B184603B000BD31
:10603C009C54002000B583B00421019012F036F876
:10604C00019803B000BD00BF10B582B008461946D8
:10605C001446019316F0A2F8034610B10199A1421F
:10606C0002D8184602B010BD0A1B2044002101932F
:10607C0016F0BCFE019B184602B010BD037E03B99E
:10608C00704700B5034683B0C068019315F09CFDC2
:10609C000022019B1A7603B000BD00BF28B14368F3
:1060AC00013302D0436801334360704715F084BD5F
:1060BC0015F08ABDF0B50D46012783B006461C20AD
:1060CC0015F07AFDEA190C4B0446476003608760B3
:1060DC001046019215F070FD019A03462776626115
:1060EC0004F10C02C4E90305C6E900243046002281
:1060FC005A5503B0F0BD00BF944200202DE9F04189
:10610C00064682B01C201546884615F055FD012325
:10611C006A1C074604464360836010460D4B01928F
:10612C0047F80C3B15F048FD019A0346E060C4E9C2
:10613C0004522DB141462A46019011F017FF019BE4
:10614C00002230465A550123C6E90074237602B06A
:10615C00BDE8F08194420020D1E900132BB15A68BC
:10616C00013202D05A6801325A60027A22B90122F5
:10617C00C0E9001302727047DFF824C0013A00B581
:10618C0085B05CF82220CDE902130190904701986C
:10619C000122DDE902130272C0E9001305B000BD53
:1061AC00684400204368CBB15A68013216D05A6853
:1061BC00013A5A6092B9196800B583B0019018463B
:1061CC008B689847019A50688368013B836033B9A8
:1061DC000368DB6803B05DF804EB1847704703B045
:1061EC0000BD00BF0E4B10B582B01B680446019178
:1061FC0098470199034600280CBF002101F00101CA
:10620C0019B1B4FA84F1490914B9184602B010BD99
:10621C002246019016F0EAFD019B184602B010BD13
:10622C009C540020014B1B68184700BFA054002051
:10623C00027D034602B970470649013A0C3051F809
:10624C00222000B583B001939047019B184603B000
:10625C0000BD00BF68440020027D12B903681844D9
:10626C007047013A002300B5022A83B0CDE9000340
:10627C0002DD184603B000BD044B69460C3053F8E0
:10628C0022309847019803B000BD00BF7444002031
:10629C000346002000B51A7D83B09860901E01283B
:1062AC000ED80D49013A03F10C00019351F822204C
:1062BC009047019B002219681A755A5403B000BD0F
:1062CC00012A01D10029ECD11846FFF7C5FF0023A4
:1062DC00037003B000BD00BF684400202DE9F041FD
:1062EC001746C26890B00446402A0E4604D8002ACD
:1062FC002DD110B0BDE8F0810069114603689B6890
:10630C009847E268054652B9002DF2D02946D4E9E7
:10631C0003200368DB68984710B0BDE8F081314674
:10632C0011F024FEE268002AEED04FF0010830464E
:10633C00394611F01BFEE2681AB13846294611F0B5
:10634C0015FEB8F1000FD4D0002DDFD1D1E768468F
:10635C0011F00CFEE268002ACBD06D464FF000081D
:10636C00E5E700BFC36970B50D4682B0044601680D
:10637C001BB183690344994203D011B16369002BAB
:10638C0037D0E16805FB01F100292BD020690368A7
:10639C009B689847034628B3626882B12168F9B1BB
:1063AC00D4F814C0BCF1000F35D0DCF814300190D7
:1063BC00984762696168926920689047019BE2691D
:1063CC0021688AB961B1D4F80CC02069A268019324
:1063DC0002FB0CF2D0F800C0DCF80C309847019BA3
:1063EC002360A56002B070BDA26922449142E9D13C
:1063FC00F6E7D4E90330A268D0F800C003FB02F240
:10640C0005FB03F3CBB1DCF81060B0470028B8D023
:10641C002060A560E6E7D4F80CC00CFB02F23AB998
:10642C00E269002AD1D0A26922449142CDD1D7E7AA
:10643C00019011F09BFD019BC1E7DCF80C309847F3
:10644C009FE700BF83688B4200D37047FFF78ABF7A
:10645C0038B543680D4682680446591C914209D9E7
:10646C0002EB42025208914238BF1146FFF77AFF05
:10647C00D4E9013293420BD2E2682068616903FBD4
:10648C00020031B10B682946984763680133636099
:10649C0038BD002AFAD0294611F068FD6368F5E78B
:1064AC000346006868B1596859B15A694AB1926992
:1064BC0000B583B001939047019B00225A6003B052
:1064CC0000BD00225A607047002A3BD02DE9F843EA
:1064DC0043680D468B4233D956185F1A90460446D2
:1064EC00B34241692FD251B3B8464FF000097E191F
:1064FC002F4600E06169E06823688A6800FB07307A
:10650C0001379047BE42F5D1B9F1000F14D04F4678
:10651C002F442368E068626900FB063605FB0030F7
:10652C0053683146013598476369304608EB0506D8
:10653C009B689847AF42ECD16568A5EB0805656090
:10654C00BDE8F8837047A7EB02090029D0D1B9F157
:10655C00000F03D0C06800FB09F212B9A3EB0805C9
:10656C00EDE7236800FB063100FB053016F0ACFBB1
:10657C00E2E700BF43688B4200D870470122FFF767
:10658C00A3BF00BF2DE9F041D0E901630F460446DB
:10659C00711C9046994240D835469D423BD2BE4232
:1065AC00E268636928BF3E4621681046002B3FD045
:1065BC00AE4228D202FB05F05B68821A08441144F3
:1065CC0098476568013DB54213D92268E068636954
:1065DC0000FB05209B689847E368216805FB03F0E6
:1065EC006269013DC31A5268084419449047B54288
:1065FC00EBD82368E06800FB063063699B6898471A
:10660C0063692168E06800FB06101B6841469847E7
:10661C00636801336360BDE8F08103EB43035B08FF
:10662C00994238BF1946FFF79DFED4E90153B4E7F0
:10663C00AE4202FB061303D2AD1B02FB05F535B9C6
:10664C00002AE5D04146184611F090FCE0E702FB29
:10665C0006202A460844194616F036FBE2682368E1
:10666C0002FB0633ECE700BF2DE9F041D0E90163F2
:10667C000F460446711C9046994240D835469D42BF
:10668C003BD2BE42E268636928BF3E462168104691
:10669C00002B3FD0AE4228D202FB05F05B68821A79
:1066AC000844114498476568013DB54213D92268E6
:1066BC00E068636900FB05209B689847E3682168E4
:1066CC0005FB03F06269013DC31A52680844194482
:1066DC009047B542EBD82368E06800FB063063694D
:1066EC009B68984763692168E06800FB06105B684B
:1066FC0041469847636801336360BDE8F08103EB62
:10670C0043035B08994238BF1946FFF72BFED4E9C7
:10671C000153B4E7AE4202FB061303D2AD1B02FBDE
:10672C0005F535B9002AE5D04146184611F01EFC96
:10673C00E0E702FB06202A460844194616F0C4FA84
:10674C00E268236802FB0633ECE700BF2DE9F04159
:10675C000D46C1690446EE69E1B92A6886B921681B
:10676C002260A3682960D5E90102A2606268AB606F
:10677C00236960606A602A6922612B61BDE8F0813F
:10678C00AB692B449A42EAD1324623460E462C463C
:10679C0011461D46A269236822449342DDD16168EB
:1067AC002F680A46CEB1A8692844B84233D08E422D
:1067BC00D5F8088013D36369AE602860F3B15B69C8
:1067CC00216898476369D4E900019B69984762681E
:1067DC0068682760C4F80880CAE7D5F80880E068C4
:1067EC0000FB01F100296ED0286903689B6898476B
:1067FC00626863692860AA60002BE0D1002AE7D0A8
:10680C00E36802FB03F3002BE2D01A46216811F077
:10681C00ADFB6268DCE76A6852EA010055D08A4237
:10682C004FF0000638BF0A46904612E0002A30D0DE
:10683C00536839469847E8682B6800FB0630636953
:10684C009B689847616801360A46464517D22F68FF
:10685C002368E868B142D4F80CC000FB0677626983
:10686C000CFB0630E2D96B68B3420AD922B301366D
:10687C00136939469847616846450A46E7D3686804
:10688C0076E77AB15368014638469847E068236842
:10689C00D3E7BCF1000FD6D03946624611F066FB47
:1068AC006168D0E7BCF1000FCDD001466246384696
:1068BC0011F05CFB6168C6E701463A462046FFF7DB
:1068CC000DFD6168BFE7084693E7024650E700BF3D
:1068DC00F8B5044600680E4628B1616819B16369C1
:1068EC000BB19B699847002363607168B1B1A368D1
:1068FC00994214D86369F3B1002500E063693168EB
:10690C00E0682268F76800FB05201B6807FB05118F
:10691C000135984771688D42F0D36160F8BD20460F
:10692C00FFF720FD7168A3688B42F7D3636913B13D
:10693C000029E1D1F1E7E26801FB02F2002AECD078
:10694C003168206811F012FB7168E6E703460068B5
:10695C0000282DD0596800B583B009B35A694AB3E1
:10696C00926901939047019B0021DA69186859607C
:10697C001AB19A691A4490420FD070B1D3F810C072
:10698C000193D3E9022101FB02F201466046DCF8D7
:10699C0000C0DCF80C309847019B184603B000BDD2
:1069AC00DA69002AEAD09A691A449042E6D1F4E7EF
:1069BC0018467047D9695A600029F4D1DEE700BF48
:1069CC00F0B5C70F0E4685B001460A2A14BF002742
:1069DC0007F0010707B141426C4691B3B1FBF2F0ED
:1069EC0002FB101E82BBBEF1090F0DF1010C22DD62
:1069FC000EF1570E63468DF800E0302203E00CF1E7
:106A0C00010C1A706346A342F9D0181B1FB12D223A
:106A1C00013006F8012BA34209D9324613F801EDD7
:106A2C00A34202F801EBF9D1ACEB03031E440023A3
:106A3C00337005B0F0BD0EF1300E63468DF800E0FA
:106A4C00DBE7EC466B46D8E7EC466B460BE00CF10B
:106A5C00010C8A421D700146634619D8B0FBF2F551
:106A6C0002FB150E2846BEF1090F0EF15705EEDCA0
:106A7C000EF1300E0CF1010C8A4283F800E06346F3
:106A8C00BBD80146B0FBF2F502FB150E2846EAE72F
:106A9C006346B2E701F076BC01F07ABC10B1034B4F
:106AAC001B7803B9704702F02DBA00BFFE570020C7
:106ABC0002B9704711F05ABA02B9704716F096B97C
:106ACC0015F07AB815F080B8044B1A68D20701D5C6
:106ADC0003487047012202481A607047A4640020E2
:106AEC000C5500204368013302D0436801334360E6
:106AFC00704700BF4268013206D04268013A4260DA
:106B0C00B2FA82F0400970470020704710B500219E
:106B1C000446182340228160C0E9003218442175D4
:106B2C0016F064F9204610BD70B5044682B00846D4
:106B3C000E4616F00DFF013015F03EF805463046B6
:106B4C00256016F005FF431C0246C4E9010328B179
:106B5C0001903146284611F009FA019A002320468B
:106B6C00AB5402B070BD00BFF0B5561C05461446C0
:106B7C0083B030460F4615F01FF803462860C5E970
:106B8C0001462CB139462246019011F0EFF9019BD8
:106B9C00002228461A5503B0F0BD00BF10B583681B
:106BAC004C1C82B0D0F800C09C4205D80023416038
:106BBC000CF8013002B010BDCDE900012146604651
:106BCC0015F0ECFA0021DDE90032C3E900029C600B
:106BDC00815402B010BD00BF03464068D8B1426872
:106BEC00013218D04268013A4260A2B9026800B57D
:106BFC0083B0926801939047019B58688268013A70
:106C0C0082601AB90268D2689047019B0022C3E9DE
:106C1C00002203B000BD0022C3E90022704700BF70
:106C2C00037D032B20D8DFE803F01B050202C368A9
:106C3C001846704700B585B0D0E90323CDE902238F
