:0200000460009A
:100000004643464200000156000000000101020084
:1000100000000000000000000000000000000000E0
:1000200000000000000000000000000000000000D0
:1000300000000000000000000000000000000000C0
:1000400000000000010406010000000000000000A4
:100050000000800000000000000000000000000020
:100060000000000000000000000000000000000090
:100070000000000000000000000000000000000080
:10008000EB04180AFF1E04320126000000000000E5
:100090000000000000000000000000000000000060
:1000A0000000000000000000000000000000000050
:1000B0000000000000000000000000000000000040
:1000C0000000000000000000000000000000000030
:1000D0000000000000000000000000000000000020
:1000E0000000000000000000000000000000000010
:1000F0000000000000000000000000000000000000
:1001000000000000000000000000000000000000EF
:1001100000000000000000000000000000000000DF
:1001200000000000000000000000000000000000CF
:1001300000000000000000000000000000000000BF
:1001400000000000000000000000000000000000AF
:10015000000000000000000000000000000000009F
:10016000000000000000000000000000000000008F
:10017000000000000000000000000000000000007F
:10018000000000000000000000000000000000006F
:10019000000000000000000000000000000000005F
:1001A000000000000000000000000000000000004F
:1001B000000000000000000000000000000000003F
:1001C000000100000010000001000000000000001D
:1001D000000001000000000000000000000000001E
:1001E000000000000000000000000000000000000F
:1001F00000000000000000000000000000000000FF
:10020000FFFFFFFFFFFFFFFFFFFFFFFFFFFFFFFFFE
:10021000FFFFFFFFFFFFFFFFFFFFFFFFFFFFFFFFEE
:10100000D1002043F1150060000000000000000046
:10101000201000600010006000A0026000000000CE
:101020000000006000AC020000000000FFFFFFFFB6
:10103000FFFFFFFFFFFFFFFFFFFFFFFFFFFFFFFFC0
:10104000FFFFFFFFFFFFFFFFFFFFFFFFFFFFFFFFB0
:10105000FFFFFFFFFFFFFFFFFFFFFFFFFFFFFFFFA0
:10106000FFFFFFFFFFFFFFFFFFFFFFFFFFFFFFFF90
:10140000824205D051F8043B40F8043B8242F9D8AF
:10141000704700BF044A05494FF0000342F8043BFF
:101420009142FBD8704700BFC052002060FE0020F0
:1014300008B5BFF34F8F00F0ADFD544C544B08205E
:101440005449C3F85401544AC3F800115348C3F82F
:10145000F0405349FFF7D4FF524A53495348FFF72E
:10146000CFFF534CFFF7D6FF4FF470004FF0E02151
:101470000023504AC1F8880D44F823200133B02BD3
:10148000FAD14D4B80214D4A03F8011B9342FBD109
:101490004FF0E0254A4E4B4A4FF0FF31C5F8084D5A
:1014A000D5F8243D43F4E023C5F8243DF36923F047
:1014B0007F0343F04003F361736A23F07F0343F03B
:1014C000400373629166D1661167516700F06AFD4F
:1014D0003D4A3E4BA2636322E36300246A61032317
:1014E0003B4AAC612B61C5F8202DD5F8FC2D394B5A
:1014F00042F080723849C5F8FC2D1A6842F00102AA
:101500001A605B680B6000F01DFF344801F0A4F81E
:10151000F16E334B334A41F44051F1661C60C3F81D
:101520000841C3F81841C3F82841C3F83841936B08
:10153000DB0708D442F615632B4951651365936B9D
:1015400043F001039363274A284C936843F0011347
:10155000936000F0B5FD00F09DFC01F085F800F00F
:1015600023FF00F019FD2368132BFCD900F0B8FF0E
:101570002368B3F5967FFBD300F012FD00F00EFD5B
:1015800001F096F801F098F830BFFDE70C0D11134B
:1015900000800D401B101820B8240200000000003D
:1015A00034280060C0520020F04C0260000000208F
:1015B000005000208550010000E400E0A0E400E0BD
:1015C00000C00F4000C00A40894601008147010069
:1015D00000002020001000E018FD00200046C3237A
:1015E0000040084000400D400000C0561CFD002097
:1015F000054B4FF42A01054A05485A641864054A08
:1016000099639546FFF714FF00C00A40FFABAAAAF2
:10161000070020000080052010B5002104461C4B67
:101620004FF0FF3021811A682175C4F81B20F02289
:10163000C4F81510A4F81910C4E903015868C4F8D7
:101640001F009868DB68C4F8230004F12B00C4F87D
:101650002730C4E9001101F037F800210123A4F874
:101660002411A4F8263184F82811C4E94711C4E9EB
:101670004B11C4E94D11C4E94F11C4E95111C4E93A
:101680005311C4E9551101F00FF8204610BD00BFF9
:101690006412002010B5044600F0DAFFD4F854318B
:1016A00023B104F5A671032208469847D4F84431C3
:1016B00023B104F59E71032208469847D4F83431CB
:1016C00023B104F59671032208469847204610BDC1
:1016D00070B5044600F0CCFF0F4B05681A782AB9A4
:1016E00000F0C6FF034620461D6070BD206800F074
:1016F0009FFF0022084B22601A7022710028EFD051
:1017000000F0C2FF064600F0B3FF066000F0B0FF35
:10171000034620461D6070BD12FE002070B5754C5A
:10172000236833F0020300D070BD73494FF4803555
:10173000724A4CF20F00CB6E43F44063CB664FF419
:1017400080536F49C2F8E450C2F8E800C2F8E410D0
:10175000C2F8E830D2F8E030002BFBDA69494FF4E8
:101760008030694B4FF23805C2F8E80038204A68EB
:101770004FF4804622F400524A604A6842F4020262
:101780004A6043F238020521C3F87C23C3F884235E
:10179000C3F880535D4DC3F89823C3F86803C3F8BA
:1017A00064034FF62900C3F87811C3F874114FF49D
:1017B00000416A6842F440426A600022C5F888101D
:1017C000C5F88460C3F8A8034BF2E900C3F8A4038A
:1017D0003120C3F8B821C3F8B421D3F8302422F063
:1017E000030242F00202C3F83024C3F89403162027
:1017F000474AC3F8A4013220536C23F07E0343F020
:1018000012035364C5F8841000F066FF4149424A50
:10181000C5F88860414B48681268A3FB0232920CFD
:1018200002EB820202EB82024B681B1A9342FBD34B
:10183000364B4FF480420220C3F8842000F04CFF66
:10184000334B4FF40001364A59601A645A6810024B
:10185000FCD51A6C4FF4000192B25960B2F5005FEA
:1018600011D130482A4A5960186453681902FCD5CE
:10187000136C4AF240104FF4000123F00F03516043
:101880009BB283421ED0DFF884C04FF480361D48DF
:101890004FF0010EDCF80430184923F44043164A97
:1018A000214DCCF80430436823F400334360C1F881
:1018B000E460C1F8E050D36E23F44063D366C4F80B
:1018C00000E070BD1948124B516010645A68120252
:1018D000FCD54FF4000116480D4A59605960186450
:1018E00053681B02FCD54FF40001032351602360B1
:1018F00070BD00BF2C5E002000C00F4000800D4076
:101900000120200000C00A4000801F40004000422B
:1019100000802D40001000E0C44B002083DE1B43FC
:1019200000000A6000000E60011001008002625099
:1019300081005E504FF0013340F2011203604360BA
:101940000281704710B5784C2368042B00F0EA80C0
:10195000FFF7E4FE2268032A01D0002010BD734B7C
:101960004BF2E9017248C3F87C13C3F88013C3F843
:101970008413C3F89813C3F88813C3F88C13C3F8FF
:101980009013C3F88C21C3F89021C3F8A821C3F8A1
:101990009421C3F8A021C3F89821C3F89C21A02268
:1019A000D3F82C1441F00101C3F82C14D3F83414EB
:1019B00041F00101C3F83414D3F8381441F00101A7
:1019C000C3F83814D3F83C1441F00101C3F83C14B7
:1019D000D3F8401441F00101C3F84014002100F095
:1019E00073FEA0220021534800F06EFE52490346C8
:1019F000524A4F481360086000F1A00C0346504A59
:101A00004FF4004080215A60203323F81E0C02F569
:101A1000C06223F8161C6345F5D145494FF4806038
:101A2000DFF810E1B1F88230464A0EF1A00C43F421
:101A30000053A1F8823073464FF4B0415A6020330E
:101A400023F81E0C02F5C06223F8161C6345F5D17D
:101A5000BEF8821000223C4B41F400519A60AEF86F
:101A600082103A49C3F884104FF48271C3F8C4104D
:101A70001921C3F8C011C721C3F8C411D3F8441108
:101A800041F48071C3F844112949C3F89021C3F887
:101A900080114FF4C061C3F884E1C3F888111421A8
:101AA000C3F80021C3F8F020C3F8EC10C3F8942168
:101AB000586E274940F000405866C3F81821C3F813
:101AC0001C21C3F82021C3F824219A681140214A1F
:101AD00041F00071996090681F49D0F8080292683F
:101AE00008601E49C2F80812BFF34F8F1C4A4FF41A
:101AF0008021D1601B484FF001011B4A5860BFF3A1
:101B00005B8FD2E84F0FC2E84C1FBCF1000FF8D139
:101B10004FF0807215480421BFF35B8F58621A6141
:101B20005A612160012010BD2C5E002000801F4002
:101B3000C052002080530020F04B0020F44B0020C6
:101B4000403220204014202000802D4024D1F24536
:101B50000080FF7D00ED00E0285E00209D8E0000EB
:101B600000E100E00080FF7F305E00201201007085
:101B700010B40023044C05480549064A236003605D
:101B80000B60136010BC7047345E0020385E00208C
:101B90003C5E0020405E0020F8B1114A40F2DC516A
:101BA00038B504460F4B10480025A18625630F4920
:101BB000C4E904209A88186843F606236287A3873D
:101BC000C4F83600204600F06BFD2046084900F0BE
:101BD0008BFD084B2846636438BD6FF00F007047DB
:101BE0002DC60000845D0020BD9300008C5D0020A8
:101BF0000C5E0020CD93000070B584B00E46044604
:101C00000192FFF79FFE019A002838D012B11046CA
:101C1000FFF790FE002C47D0334B1A78154642BB95
:101C200006222146314800F007FD68BB204600F03F
:101C30000BFDB0B12D4800F013FD044688B12C4BCC
:101C40001B781D46002B34D0284A2A4B10689188F7
:101C50000622C3F83600598783F83C20204604B09A
:101C600070BD00F005FD0E2303600024204604B083
:101C700070BD00F0E5FC00221B4B1A70D6E700F0A7
:101C8000F7FC13230360F0E7194B1A78002ACDD034
:101C9000284600F001FD174800F0F2FC164800F05D
:101CA000C3FC134B1D70C1E702A802AC00F008FD95
:101CB000B2E73146104800F00BFD104B104A2946A0
:101CC0000C4800F0E5FC30B10A4800F0E5FC0123C7
:101CD000074A1370C2E7084800F0A6FC00F0C8FCF1
:101CE00073230360C1E700BF434F0020845D0020E1
:101CF00010FE0020C05D00207C5D0020ED2C010066
:101D0000991B00600D490E4A087808B5002313603E
:101D1000938018B9BDE80840FFF72ABF184600F0C5
:101D2000BBFC084800F0ACFC074800F07DFC002339
:101D300002490B70BDE80840FFF71ABF10FE0020F3
:101D4000845D0020C05D00207C5D00203748384B5A
:101D5000D0F88020DFF8FCC042F44052354900B58D
:101D6000C0F88020344AC3F800C034485A60344A6E
:101D70001862DFF8E4C05A623248334AC3F828C018
:101D8000DA6246F6201218635963996340F6A3118C
:101D9000D868DFF8C8E000F07F40DFF8C4C0024335
:101DA00040F6C410DA609A686FF30F021143274AB5
:101DB0009960D9696FF3150141F4C841D9619969F6
:101DC0006FF3150141F4C8619961196821F48651D6
:101DD0001960196801EA0E0EC3F800E04FF0000E1A
:101DE00019680A401A4942F002021A605A696FF3F0
:101DF000090242F03F025A611A6992B242F0486207
:101E00001A611A696FF30F0210431861D3F8A0200A
:101E100022F00202C3F8A0201A6802EA0C0CC3F8F0
:101E200000C0DA6F1B6CC1F800E000BD00C00F40BD
:101E300000C00C402F002E002200010068050C019C
:101E40009501B2004B0040007D005800BCEFFFFF41
:101E5000745D002040100100DC007A00B3EFFFFF4A
:101E6000BFEFFEFF084A094B11680B4043F4803373
:101E7000136013689B04FCD5054AD2F8803023F424
:101E80004053C2F88030704700C00C40BFEFFEFFE7
:101E900000C00F400F4B40F2376C0F4AA020D96EA4
:101EA00041F44031D966D96E41F44071D966C2F827
:101EB00044C09064936C1B06FCD4084A40F237611E
:101EC000A02351649364936C13F08003FBD1044A04
:101ED0001370704700C00F4000400C4000800C4061
:101EE0001EFE0020294A00210123C2F8A000C2F8EA
:101EF000A410C2F8B0305369D907FCD501234FF4C0
:101F0000803C22495361C2F8A000C2F8A4C0C2F8C4
:101F1000B0304B69DB07FCD501234FF4003C1B4A72
:101F20004B61C1F8A000C1F8A4C0C1F8B03053693A
:101F3000D907FCD50123DFF858C014495361C2F812
:101F4000A000C2F8A4C0C2F8B0304B69DB07FCD5D2
:101F5000D1F8003145F60D504FF0210C9AB2C1F87E
:101F600014C0824210D045F69D518A420AD1C3F373
:101F70004253032B08D0A3F10403B3FA83F35B09A4
:101F800018017047002070470820704700402A4021
:101F900004000300704700BF704700BF704700BFD8
:101FA00000BF70474FF0E02300214FF0100C344881
:101FB000C3F8941DC3F89CCD4FF0110CC3F8A00DCD
:101FC0003048C3F89CCD4FF0120CC3F8A00D2E483A
:101FD000C3F89CCD2D4AC3F8A00DDFF8D0C042F065
:101FE00015022B48C3F89CCDC3F8A00DDFF8C0C084
:101FF0002848C3F89CCDC3F8A00DDFF8B8C0C3F8DB
:102000009C2D2548254AC3F8A0CDC3F89C0DC3F8E4
:10201000A02D02F5A022DFF8A0C00C322048C3F8A2
:102020009CCDC3F8A02D1F4AC3F89C0DC3F8A02D6A
:1020300002F14062DFF884C002321B48C3F89CCD35
:10204000C3F8A02D0A32C3F89C0DC3F8A02D00BF21
:1020500000BF00BF00BF00BF0122C3F8942DBFF333
:102060004F8FBFF36F8FC3F8501FBFF34F8FBFF376
:102070006F8FD3F8142D42F44032C3F8142D7047FB
:102080003F000010250008070900100060FE002036
:1020900021000207250008131600202027000B133B
:1020A000180000602F000B071A00008013002000AA
:1020B00014000020090000101700004019000070F3
:1020C00030B5864B85B0DFF874E21822844D0120CC
:1020D000C3F85CE28349C3F86052A5F58055DFF888
:1020E00060C2814CC3F864E2C3F868522125C3F88A
:1020F0006CC2C3F870C2C3F874C2C3F878C248F2A5
:102100000C7CDA661A675A679A67DA67C3F8802028
:10211000C3F88420C3F88820C1F82C03734AC1F89F
:102120003003C1F83403C1F83803C1F83C03C1F8E7
:102130005003A1696E4B0A406E486F4913436F4AC2
:10214000A361D4F8843043F00C03C4F884304FF01A
:10215000FF34036843F002030360036803EA0C03DF
:102160001A43674B026044608A68664C1340664AB3
:1021700043F000538360C36823F07803C360036AAD
:1021800023401A43604B0262026A22405F4C1343B1
:10219000002243628462C46240F20564D1F8B83020
:1021A00023F03F0343F00103C0F8B830D1F8BC304E
:1021B000574923F03F0343F00103C0F8BC300261EC
:1021C0000567C0F880404567C0F884400224036872
:1021D00023F00203036081614E4B4F49C46143F811
:1021E000042B8B42FBD1434C236843F00103236053
:1021F000256815F00105FBD14548022240F2F56142
:10220000A06140F29940E26140F26642C4F80012D7
:1022100042F20141C4F81022404AC4F82002C4F836
:10222000302240F23542C4F834123D48C4F840220E
:102230003C4AC4F850022846C4F8542242F2012213
:102240003949C4F86012C4F86422FFF74BFE024615
:10225000002839D0810201234FF4802021662549CE
:10226000C4F8A050C4F8A400C4F8B0304B69D80733
:10227000FCD515050124039228464C61FFF732FE78
:10228000039A2A4B0244D2B21A7080B119498002D3
:102290004FF4802348660846C1F8A050C1F8A43026
:1022A000C1F8B0404369DB07FCD5012343612049F5
:1022B0000024204801230094401A00EB02521E48DB
:1022C00000F00EFA05B030BD1B4B184918600870BD
:1022D000D860C3E9010005B030BD00BF00801F40D9
:1022E000F910010000841F4000C00F40FFFCFF1FD9
:1022F0000003008000402A4000802A401200FFFFB7
:10230000FF37F70000FFF07C40000080FF000F83E4
:10231000F05AF05A00422A4000432A409F041830E5
:10232000EB06180A063201263806180A24FE002099
:1023300000000070000000707C6B0020F9B001000C
:10234000F970010010B5174A4FF480544FF4005E45
:102350004FF4404C4FF4803043F24201136913F0C4
:10236000020F0DD113F4005F0FD013F4805F0FD074
:10237000002BF3DA13F4803F0CD15B060ED510BDB1
:10238000C2F818C050619161E8E7C2F814E0E5E7CF
:102390005461E3E74FF480339361DFE740235361F7
:1023A000DCE700BF00800D40414A03204149F3EEC5
:1023B000095AD2F880309FED406A23F001039FED67
:1023C0003F5ADFF814C100B5C2F88030C2F890005F
:1023D000D1F8E010DFF804E1CBB23948CEF8003094
:1023E00007EE903A0B0DC1F30B21F8EEE77A06EEFB
:1023F000903A07EE101A334BB8EEC77ACCF80010BB
:10240000F8EEE66A304937EEC66A37EEC55A76EE20
:10241000C76A77EEE57A26EE266AC3ED006A25EEF6
:10242000265AD2F8803067EEA64AC0ED007AC6EE92
:10243000275A264885EE276AC4EEA76A75EE875AA2
:10244000FCEEE55A36EE076A15EE90CABCEEC66A97
:1024500043EA0C5376EE877AC2F8803016EE103AD3
:10246000D2F890C1FCEEE77A01EA034141EA0C019F
:102470004FF0000C17EE903AC2F89011C3F30B0323
:10248000D2F890110B431249C2F89031D2F8803043
:1024900043F00203C2F880300E4B80F840C0C1F810
:1024A00040314FF0E0230122C3F8082100BD00BFF6
:1024B00000810D4000441F400000AA420000B442C9
:1024C000FCFC002000FD00200000FF0F00E400E005
:1024D0000050002069520100F4FC0020F8FC0020AC
:1024E000314B40F6617210B5C3F8202140F204442C
:1024F00000F0C2F82D4A2E49D2F880302D4843F022
:102500000303C2F880302C4BC1F8604102681A42C4
:1025100003D1D1F8A8319A071BD0254A4FF00041CA
:10252000244B5963D2F8403143F00203C2F84031E2
:10253000D2F840319B07FBD44FF400304FF0E0213C
:102540001C4B4FF00042C1F88C0219209A6300F036
:10255000C3F8184B0021164C4FF080420A209A63B2
:102560004FF420721960C4F8A801144800F0ACF8C8
:102570004FF4800203464FF4810040F2431118608B
:10258000C4F858311A640E4B0E4AC4F84811C3F807
:1025900004224FF0E0224FF400310123C2F80C1165
:1025A000C4F8403110BD00BF00800D4000C00F4096
:1025B00000002E4000900D40001C1E000000002076
:1025C000005000206D54010008B50E4B1B6E9B0798
:1025D00000D4FBBE72B60C4B00200C4AC3F840017D
:1025E00003F160430A49A3F55F2311649D46BFF3DD
:1025F0004F8F4FF40013074A0748DB6902609B685E
:10260000984700BF00441F4000002E4000C00A4011
:1026100003002000000012EB00802020F8B500BF6E
:10262000F8BC08BC9E4670475FF800F09DE00000D3
:102630005FF800F00D9600005FF800F0199A0100B5
:102640005FF800F031A700005FF800F0FD8E000099
:102650005FF800F0057E00005FF800F01949010006
:102660005FF800F0CD8E00005FF800F0614F0100D0
:102670005FF800F005A301005FF800F0D95B0100EE
:102680005FF800F05DDE00005FF800F07595000077
:102690005FF800F0D5E300005FF800F061DD0000B6
:1026A0005FF800F0A5B800005FF800F0E1940000CA
:1026B0005FF800F011A301005FF800F02D4D01005C
:1026C0005FF800F0C98E00005FF800F0C19B0100C8
:1026D0005FF800F025E000005FF800F02D4C0100ED
:1026E0005FF800F0056501005FF800F059A70000F1
:1026F00045000000751F000005460000A55E0000B3
:1027000065630000517A00005D7A0000857F00005B
:10271000758C0000818D0000098E00005D94000022
:0C272000C5300100194801008967010064
:10272C001603550053004200200053006500720050
:10273C00690061006C00000018035400650065001E
:10274C006E00730079006400750069006E006F0004
:10275C000403090409026200030100C032080B00E3
:10276C00020202010009040000010202010005241A
:10277C0000100105240101010424020605240600B1
:10278C00010705820310001009040100020A000071
:10279C000007050302400000070584024000000901
:1027AC0004020002FF6AFF000705810240000107D6
:1027BC00050102400001000009026200030100C093
:1027CC0032080B000202020100090400000102029F
:1027DC000100052400100105240101010424020656
:1027EC0005240600010705820310000509040100F9
:1027FC00020A00000007050302000200070584021C
:10280C000002000904020002FF6AC70007058102EA
:10281C000002010705010200020100000A06000285
:08282C00EF0201400100000071
:102834000000000000000000000000000000000094
:102844000000000000000000000000000000000084
:102854000548064B1B1AD90F01EBA301491002D0FE
:10286400034B03B118477047C0520020C0520020E8
:102874000000000008B5054B1BB105490548AFF33E
:102884000080BDE80840FFF7E3BF00BF0000000080
:10289400249C002000AC02608068704700207047D0
:1028A400704700BF012070474FF44870704700BF65
:1028B400704700BF4FF44870704700BF704700BFB7
:1028C4004FF44870704700BF704700BF4FF4487022
:1028D400704700BF704700BF4FF44870704700BF97
:1028E400704700BF4FF44870704700BF704700BF87
:1028F4004FF44870704700BF10B5046894F801C0E5
:10290400BCF1000F07D090F80DE0F444BCF1FF0FC8
:10291400A8BF4FF0FF0C90F819E00EFB0CCC4FEA67
:102924002C2C81F800C00168097829B190F80CC0FA
:102934006144FF29A8BFFF2190F818C00CFB0111C6
:10294400091211700268927822B1817B0A44FF2A2D
:10295400A8BFFF22817E01FB022212121A7010BD51
:10296400027BC17B437B891A027C90F80EC0D21A89
:10297400437C0173A3EB0C0342738373704700BF62
:102984000368826890F91210013A0B448260036074
:10299400704700BF4068704780688142CCBF002008
:1029A4000120704790F81CC081F800C0C17E1170EE
:1029B400427F1A70009A837F1370704790F81CC08E
:1029C40081F800C0C17E1170427F1A70009A837F23
:1029D4001370704710B50446103014F0E7F904F191
:1029E400080014F0E3F9204614F0E0F9204610BD85
:1029F40005F0CEBC0346042200B583B09B7D694636
:102A04000DEB0200009303F013FC019803B000BD2A
:102A140010B5042282B0044600910DEB0200694611
:102A240003F006FC019BA37502B010BD30B593B052
:102A3400844609A8DCF800E09CF8184080E80E0001
:102A440007C80FAA25469CF819409CF81AC082E8CA
:102A54000B00BEF8001000209EF802309DF840E004
:102A64000A0AADF83810C9B2BEF1020F8DF836006B
:102A74008DF837008DF83A3060D0BEF1030F42D0A4
:102A8400BEF1010F1AD084460346024601468DF872
:102A94003A00ADF838001A9CCDF800C00694199C91
:102AA4000594189C0494179C0394169CCDE9010486
:102AB4009DF8410002F0C2FC13B030BDCDE9014CD9
:102AC4000DF1370C0FA80095CDF81CC00DF1360C94
:102AD400CDF818C00DF1380CCDF80CC00DF13A0C3E
:102AE400CDF814C00DF1390CCDF810C002F024FD5E
:102AF4009DF839109DF838209DF83A309DF836C07D
:102B04009DF83700C7E7CDE9014C0DF1370C0FA84C
:102B14000095CDF81CC00DF1360CCDF818C00DF1A0
:102B2400380CCDF80CC00DF13A0CCDF814C00DF1F1
:102B3400390CCDF810C002F0C7FCD9E7CDE9014C3F
:102B44000DF1370C0FA80095CDF81CC00DF1360C13
:102B5400CDF818C00DF1380CCDF80CC00DF13A0CBD
:102B6400CDF814C00DF1390CCDF810C002F01EFDE3
:102B7400BEE700BFF0B58FB0047E0DF1240C2646ED
:102B8400447E8CE80E0003680B9A1988807EA2F1BB
:102B9400020C9B780022BDF824E0ADF834108DF8C7
:102BA40033200A0A0A9DC9B28DF836300096CDE961
:102BB40001407046BCF1050F00F28C80DFE80CF098
:102BC4002B3E516477030DF1330CCDF818C00DF191
:102BD400340CCDF80CC00DF1360CCDF814C00DF149
:102BE400350CCDF810C002F023FB179B28469DF846
:102BF40033100493169B149C0393159B9DF8342067
:102C040002939DF83630CDE900149DF8351002F09A
:102C1400F3FB0FB0F0BD0DF1330CCDF818C00DF17E
:102C2400340CCDF80CC00DF1360CCDF814C00DF1F8
:102C3400350CCDF810C002F0B1F8D6E70DF1330C25
:102C4400CDF818C00DF1340CCDF80CC00DF1360CD4
:102C5400CDF814C00DF1350CCDF810C002F0B2FA65
:102C6400C3E70DF1330CCDF818C00DF1340CCDF8D9
:102C74000CC00DF1360CCDF814C00DF1350CCDF8A7
:102C840010C002F05FFAB0E70DF1330CCDF818C0B4
:102C94000DF1340CCDF80CC00DF1360CCDF814C088
:102CA4000DF1350CCDF810C002F0F6FA9DE70DF1E8
:102CB400330CCDF818C00DF1340CCDF80CC00DF167
:102CC400360CCDF814C00DF1350CCDF810C002F05F
:102CD4003BFB8AE70DF1330CCDF818C00DF1340C31
:102CE400CDF80CC00DF1360CCDF814C00DF1350C37
:102CF400CDF810C002F04AFA77E700BF70B5044679
:102D04008CB015460E461A466846214605F004FF67
:102D1400049685EAE572DDE90001A2EBE572029012
:102D2400ADF80C10CDE905220A0C8DF80E20DDE972
:102D340002010B0C0A90ADF82C108DF82E30A37DF7
:102D4400012B14D00023ADF820300793002D236805
:102D54004FF0000504A9ACBF03226FF00202204625
:102D64001B6B09958DF8222098470CB070BD1D4A45
:102D74000DF11F0E1378013303F0070113F0020F56
:102D840011704FEAC312D2B242F0400118BF0A4692
:102D940013F0040F07AB42F0200118BF0A461032AB
:102DA400D1B21A7B3AB9DA701A7001337345CDD0B7
:102DB4001A7B002AF7D04FF48070B0FBF2F2D2B243
:102DC400501CC0B200FB011C4FEA2C2CBCF1000FBC
:102DD40001D00CF1FF3C002818BF104683F800C056
:102DE400D870E2E716FE0020034B10B504460360DA
:102DF40005F03AFE204610BD10370020054B10B5F3
:102E04000446036005F030FE3821204614F050FCDF
:102E1400204610BD10370020034B10B50446036054
:102E240005F022FE204610BD10370020054B10B5DA
:102E34000446036005F018FE3821204614F038FCDF
:102E4400204610BD10370020034B10B50446036024
:102E540005F00AFE204610BD10370020054B10B5C2
:102E64000446036005F000FE3821204614F020FCDF
:102E7400204610BD10370020034B10B504460360F4
:102E840005F0F2FD204610BD10370020054B10B5AB
:102E94000446036005F0E8FD3821204614F008FCE0
:102EA400204610BD10370020034B10B504460360C4
:102EB40005F0DAFD204610BD10370020054B10B593
:102EC4000446036005F0D0FD3821204614F0F0FBE1
:102ED400204610BD10370020034B10B50446036094
:102EE40005F0C2FD204610BD10370020054B10B57B
:102EF4000446036005F0B8FD3821204614F0D8FBE1
:102F0400204610BD10370020034B10B50446036063
:102F140005F0AAFD204610BD10370020054B10B562
:102F24000446036005F0A0FD3821204614F0C0FBE0
:102F3400204610BD103700200A4A1368013B136075
:102F440003B1704700B5084A83B0CDE9003010687A
:102F540021F062FD0199044A009B0846136003B006
:102F640000BD00BFFC590020005A00200A4A136823
:102F7400013B136003B1704700B5084A83B0CDE943
:102F84000030106821F04CFD0199044A009B08466A
:102F9400136003B000BD00BF605B0020645B0020D1
:102FA40070B504468CB00E46154668461A4621464E
:102FB40005F0B2FDA27D0496012ADDE90001CDE908
:102FC400055502904FEA1140ADF80C108DF80E0033
:102FD400DDE902014FEA11430A90ADF82C108DF897
:102FE4002E300ED00023ADF8203007932268002342
:102FF40004A92046126B8DF82230099390470CB037
:1030040070BD1A4B0DF11F0C4FF4807E19780131FD
:10301400CA0101F0070011F0020FD2B2187007AB19
:1030240042F0400018BF024611F0040F42F02001A4
:1030340018BF0A461032D1B21A7B3AB9DA701A7044
:1030440001339C45D2D01A7B002AF7D0BEFBF2F2A2
:10305400D2B2501CC0B200FB01152D1205B1013DC6
:10306400002818BF10461D70D870E9E716FE00202E
:1030740010B5042282B0044600910DEB02006946AB
:1030840003F0D6F8019BA37502B010BD10B504225D
:1030940082B0044600910DEB0200694603F0C8F8C3
:1030A400019BA37502B010BD10B5042282B0044682
:1030B40000910DEB0200694603F0BAF8019BA37579
:1030C40002B010BD10B5042282B0044600910DEB8D
:1030D4000200694603F0ACF8019BA37502B010BD71
:1030E40010B5042282B0044600910DEB020069463B
:1030F40003F09EF8019BA37502B010BD10B5042225
:1031040082B0044600910DEB0200694603F090F88A
:10311400019BA37502B010BD10B5042282B0044611
:1031240000910DEB0200694603F082F8019BA37540
:1031340002B010BD2DE9F0413A4F96B005468846DD
:103144003C68002C49D006AE95F8243003AF022B1E
:103154000ED11835042239463046039503F068F839
:10316400069A2AB11588EC4607CA8DE8070004E0E0
:103174000022032141F27075EC460DF11C0EADF8EE
:103184000050CDF81880CDE90112274A0A924FF475
:103194005052ADF82C2000220C92244A0D92244A5D
:1031A4000E92244A0F92244A1092244A1192244ADD
:1031B4001292244A1392244A1492244A15929CE8A7
:1031C400070087E807008EE80700324605212046FD
:1031D40004F0BEFD16B0BDE8F0811D4B06AE0FCB6A
:1031E40086E80F0031461B4804F052FD1A4B1C6858
:1031F4003CB12046174C194A214604F0E9FC3C60D6
:10320400A2E703F021F8164A134B94601A600823CE
:10321400D4611061D360C2E90044C2E90544144694
:10322400E7E700BF785F00208C0A641945030000BB
:10323400FD010000C900000031010000510100003F
:103244006501000069010000750100008D010000A6
:10325400740300207C5F002008600020C10100008E
:103264000C6000202DE9F04104468CB00F4603F0B9
:10327400F7FD03F0B5FE2368A16820465B6A984712
:1032840094F834308046002B3BD0A668D4E900354E
:1032940058682946434B984243D13A4668462146EA
:1032A40005F03AFCA27D0495012ADDE90001ADF8A0
:1032B4000C104FEA114102908DF80E10DDE9020165
:1032C4004FEA11430A90ADF82C108DF82E3086EA9F
:1032D400E673A3EBE673CDE9053328D00023ADF8FC
:1032E40020300793002E4FF00002236804A9ACBFDE
:1032F40003206FF002001B6B8DF822002046099218
:1033040098472368414620469B6A984703F0A8FDE6
:1033140003F0E6FE03F0A4FD0CB0BDE8F04103F0B9
:103324009FBE05463B4632462046A847E9E71E496C
:103334000DF11F0C0B780133DA0103F0070013F0D1
:10334400020FD2B2087042F0400118BF0A4613F0CF
:10335400040F07AB42F0200118BF0A461032D1B265
:103364001A7B3AB9DA701A7001336345BAD01A7B02
:10337400002AF7D04FF48070B0FBF2F2D2B2501CA6
:10338400C0B200FB011E4FEA2E2EBEF1000F01D089
:103394000EF1FF3E002818BF104683F800E0D870F5
:1033A400E2E700BFCD04000016FE0020F0B504469D
:1033B4008FB005F029FB534A23689B6993425CD183
:1033C40003F04EFD03F00CFE2368A16820465B6AFF
:1033D400984794F834300646002B3ED0A568D4E9CB
:1033E4000023526811461746474A91424BD102A81E
:1033F40000222146019305F08FFB019BA27D0693D9
:10340400012ADDE90201ADF814104FEA11410490DC
:103414008DF81610DDE904014FEA11430C90ADF864
:1034240034108DF8363085EAE573A3EBE573CDE906
:1034340007332ED00023ADF828300993002D4FF028
:103444000002236806A9ACBF03206FF002001B6BC7
:103454008DF82A0020460B9298472368314620466F
:103464009B6A984703F0FCFC03F03AFE03F0F8FC77
:103474000FB0BDE8F04003F0F3BD002120460FB0CB
:10348400BDE8F040184719462A4600232046B847AD
:10349400E3E71E490DF1270C0B780133DA0103F041
:1034A400070013F0020FD2B2087042F0400118BFB7
:1034B4000A4613F0040F09AB42F0200118BF0A4674
:1034C4001032D0B21A7B2AB9DA701A70013363450C
:1034D400F8D1B3E74FF48071B1FBF2F2D2B2511CD0
:1034E400C9B201FB000E4FEA2E2EBEF1000F01D02F
:1034F4000EF1FF3E002918BF114683F800E0D97091
:10350400E4E700BF350A0000CD04000016FE0020E9
:10351400F0B5042287B0837D254E0DEB020102A88D
:10352400019302F085FE3468029F64B1214D2E6838
:1035340006B32146304604F065FB204604F0FEFB4A
:10354400384607B0F0BD1C4B02AC1A4D0FCB84E8D3
:103554000F002146194804F09BFB2C68CCB1174995
:103564002046174A04F034FB144931600C462E6897
:10357400002EDED102F068FE124A08219660D66160
:1035840010612A60D160C2E90066C2E90566164688
:10359400CFE702F059FE0B4B08229C60DC611861F6
:1035A4002B60DA60C3E90044C3E905441C46D6E74E
:1035B400785F002008600020740300207C5F0020F6
:1035C400C10100000C600020F0B5042287B0837DA7
:1035D400254E0DEB020102A8019302F029FE346886
:1035E400029F64B1214D2E6806B32146304604F093
:1035F40009FB204604F0A2FB384607B0F0BD1C4B83
:1036040002AC1A4D0FCB84E80F002146194804F090
:103614003FFB2C68CCB117492046174A04F0D8FA6E
:10362400144931600C462E68002EDED102F00CFEE7
:10363400124A08219660D66110612A60D160C2E9FD
:103644000066C2E905661646CFE702F0FDFD0B4BA6
:1036540008229C60DC6118612B60DA60C3E90044D5
:10366400C3E905441C46D6E7785F002008600020C3
:10367400740300207C5F0020C10100000C60002066
:10368400F0B5042287B0837D254E0DEB020102A81C
:10369400019302F0CDFD3468029F64B1214D2E6880
:1036A40006B32146304604F0ADFA204604F046FB4A
:1036B400384607B0F0BD1C4B02AC1A4D0FCB84E862
:1036C4000F002146194804F0E3FA2C68CCB11749DD
:1036D4002046174A04F07CFA144931600C462E68DF
:1036E400002EDED102F0B0FD124A08219660D661A8
:1036F40010612A60D160C2E90066C2E90566164617
:10370400CFE702F0A1FD0B4B08229C60DC6118613D
:103714002B60DA60C3E90044C3E905441C46D6E7DC
:10372400785F002008600020740300207C5F002084
:10373400C10100000C600020F0B5042287B0837D35
:10374400254E0DEB020102A8019302F071FD3468CD
:10375400029F64B1214D2E6806B32146304604F021
:1037640051FA204604F0EAFA384607B0F0BD1C4B83
:1037740002AC1A4D0FCB84E80F002146194804F01F
:1037840087FA2C68CCB117492046174A04F020FA6E
:10379400144931600C462E68002EDED102F054FD2F
:1037A400124A08219660D66110612A60D160C2E98C
:1037B4000066C2E905661646CFE702F045FD0B4BED
:1037C40008229C60DC6118612B60DA60C3E9004464
:1037D400C3E905441C46D6E7785F00200860002052
:1037E400740300207C5F0020C10100000C600020F5
:1037F400F0B5042287B0837D254E0DEB020102A8AB
:10380400019302F015FD3468029F64B1214D2E68C6
:1038140006B32146304604F0F5F9204604F08EFA4A
:10382400384607B0F0BD1C4B02AC1A4D0FCB84E8F0
:103834000F002146194804F02BFA2C68CCB1174923
:103844002046174A04F0C4F9144931600C462E6826
:10385400002EDED102F0F8FC124A08219660D661EF
:1038640010612A60D160C2E90066C2E905661646A5
:10387400CFE702F0E9FC0B4B08229C60DC61186185
:103884002B60DA60C3E90044C3E905441C46D6E76B
:10389400785F002008600020740300207C5F002013
:1038A400C10100000C600020F0B5042287B0837DC4
:1038B400254E0DEB020102A8019302F0B9FC346815
:1038C400029F64B1214D2E6806B32146304604F0B0
:1038D40099F9204604F032FA384607B0F0BD1C4B83
:1038E40002AC1A4D0FCB84E80F002146194804F0AE
:1038F400CFF92C68CCB117492046174A04F068F96F
:10390400144931600C462E68002EDED102F09CFC76
:10391400124A08219660D66110612A60D160C2E91A
:103924000066C2E905661646CFE702F08DFC0B4B34
:1039340008229C60DC6118612B60DA60C3E90044F2
:10394400C3E905441C46D6E7785F002008600020E0
:10395400740300207C5F0020C10100000C60002083
:10396400F0B5042287B0837D254E0DEB020102A839
:10397400019302F05DFC3468029F64B1214D2E680E
:1039840006B32146304604F03DF9204604F0D6F94A
:10399400384607B0F0BD1C4B02AC1A4D0FCB84E87F
:1039A4000F002146194804F073F92C68CCB117496B
:1039B4002046174A04F00CF9144931600C462E686D
:1039C400002EDED102F040FC124A08219660D66136
:1039D40010612A60D160C2E90066C2E90566164634
:1039E400CFE702F031FC0B4B08229C60DC611861CC
:1039F4002B60DA60C3E90044C3E905441C46D6E7FA
:103A0400785F002008600020740300207C5F0020A1
:103A1400C10100000C6000202DE9F0413A4F96B03E
:103A2400054688463C68002C49D006AE95F82430FB
:103A340003AF022B0ED118350422394630460395C4
:103A440002F0F6FB069A2AB11588EC4607CA8DE8FF
:103A5400070004E00022032141F27075EC460DF1E9
:103A64001C0EADF80050CDF81880CDE90112274A9C
:103A74000A924FF45052ADF82C2000220C92244AA2
:103A84000D92244A0E92244A0F92244A1092244AF8
:103A94001192244A1292244A1392244A1492244AD8
:103AA40015929CE8070087E807008EE80700324675
:103AB4000421204604F04CF916B0BDE8F0811D4BFA
:103AC40006AE0FCB86E80F0031461B4804F0E0F841
:103AD4001A4B1C683CB12046174C194A214604F085
:103AE40077F83C60A2E702F0AFFB164A134B9460F0
:103AF4001A600823D4611061D360C2E90044C2E9AA
:103B040005441446E7E700BF785F00208C0A641977
:103B140045030000FD010000C90000003101000060
:103B240051010000650100006901000075010000F9
:103B34008D010000740300207C5F002008600020D9
:103B4400C10100000C6000202DE9F0413A4F96B00D
:103B5400054688463C68002C49D006AE95F82430CA
:103B640003AF022B0ED11835042239463046039593
:103B740002F05EFB069A2AB11588EC4607CA8DE866
:103B8400070004E00022032141F27075EC460DF1B8
:103B94001C0EADF80050CDF81880CDE90112274A6B
:103BA4000A924FF45052ADF82C2000220C92244A71
:103BB4000D92244A0E92244A0F92244A1092244AC7
:103BC4001192244A1292244A1392244A1492244AA7
:103BD40015929CE8070087E807008EE80700324644
:103BE4000321204604F0B4F816B0BDE8F0811D4B63
:103BF40006AE0FCB86E80F0031461B4804F048F8A8
:103C04001A4B1C683CB12046174C194A214603F054
:103C1400DFFF3C60A2E702F017FB164A134B9460E7
:103C24001A600823D4611061D360C2E90044C2E978
:103C340005441446E7E700BF785F00208C0A641946
:103C440045030000FD010000C9000000310100002F
:103C540051010000650100006901000075010000C8
:103C64008D010000740300207C5F002008600020A8
:103C7400C10100000C6000202DE9F0413A4F96B0DC
:103C8400054688463C68002C49D006AE95F8243099
:103C940003AF022B0ED11835042239463046039562
:103CA40002F0C6FA069A2AB11588EC4607CA8DE8CE
:103CB400070004E00022032141F27075EC460DF187
:103CC4001C0EADF80050CDF81880CDE90112274A3A
:103CD4000A924FF45052ADF82C2000220C92244A40
:103CE4000D92244A0E92244A0F92244A1092244A96
:103CF4001192244A1292244A1392244A1492244A76
:103D040015929CE8070087E807008EE80700324612
:103D14000221204604F01CF816B0BDE8F0811D4BCA
:103D240006AE0FCB86E80F0031461B4803F0B0FF08
:103D34001A4B1C683CB12046174C194A214603F023
:103D440047FF3C60A2E702F07FFA164A134B9460E7
:103D54001A600823D4611061D360C2E90044C2E947
:103D640005441446E7E700BF785F00208C0A641915
:103D740045030000FD010000C900000031010000FE
:103D84005101000065010000690100007501000097
:103D94008D010000740300207C5F00200860002077
:103DA400C10100000C6000202DE9F0413A4F96B0AB
:103DB400054688463C68002C49D006AE95F8243068
:103DC40003AF022B0ED11835042239463046039531
:103DD40002F02EFA069A2AB11588EC4607CA8DE835
:103DE400070004E00022032141F27075EC460DF156
:103DF4001C0EADF80050CDF81880CDE90112274A09
:103E04000A924FF45052ADF82C2000220C92244A0E
:103E14000D92244A0E92244A0F92244A1092244A64
:103E24001192244A1292244A1392244A1492244A44
:103E340015929CE8070087E807008EE807003246E1
:103E44000821204603F084FF16B0BDE8F0811D4B25
:103E540006AE0FCB86E80F0031461B4803F018FF6F
:103E64001A4B1C683CB12046174C194A214603F0F2
:103E7400AFFE3C60A2E702F0E7F9164A134B9460E8
:103E84001A600823D4611061D360C2E90044C2E916
:103E940005441446E7E700BF785F00208C0A6419E4
:103EA40045030000FD010000C900000031010000CD
:103EB4005101000065010000690100007501000066
:103EC4008D010000740300207C5F00200860002046
:103ED400C10100000C6000202DE9F0413A4F96B07A
:103EE400054688463C68002C49D006AE95F8243037
:103EF40003AF022B0ED11835042239463046039500
:103F040002F096F9069A2AB11588EC4607CA8DE89C
:103F1400070004E00022032141F27075EC460DF124
:103F24001C0EADF80050CDF81880CDE90112274AD7
:103F34000A924FF45052ADF82C2000220C92244ADD
:103F44000D92244A0E92244A0F92244A1092244A33
:103F54001192244A1292244A1392244A1492244A13
:103F640015929CE8070087E807008EE807003246B0
:103F74000721204603F0ECFE16B0BDE8F0811D4B8E
:103F840006AE0FCB86E80F0031461B4803F080FED7
:103F94001A4B1C683CB12046174C194A214603F0C1
:103FA40017FE3C60A2E702F04FF9164A134B9460E7
:103FB4001A600823D4611061D360C2E90044C2E9E5
:103FC40005441446E7E700BF785F00208C0A6419B3
:103FD40045030000FD010000C9000000310100009C
:103FE4005101000065010000690100007501000035
:103FF4008D010000740300207C5F00200860002015
:10400400C10100000C6000202DE9F0413A4F96B048
:10401400054688463C68002C49D006AE95F8243005
:1040240003AF022B0ED118350422394630460395CE
:1040340002F0FEF8069A2AB11588EC4607CA8DE804
:10404400070004E00022032141F27075EC460DF1F3
:104054001C0EADF80050CDF81880CDE90112274AA6
:104064000A924FF45052ADF82C2000220C92244AAC
:104074000D92244A0E92244A0F92244A1092244A02
:104084001192244A1292244A1392244A1492244AE2
:1040940015929CE8070087E807008EE8070032467F
:1040A4000621204603F054FE16B0BDE8F0811D4BF6
:1040B40006AE0FCB86E80F0031461B4803F0E8FD3F
:1040C4001A4B1C683CB12046174C194A214603F090
:1040D4007FFD3C60A2E702F0B7F8164A134B9460E8
:1040E4001A600823D4611061D360C2E90044C2E9B4
:1040F40005441446E7E700BF785F00208C0A641982
:1041040045030000FD010000C9000000310100006A
:104114005101000065010000690100007501000003
:104124008D010000740300207C5F002008600020E3
:10413400C10100000C600020254B196811F0010139
:1041440010B582B00CD0234804F030FD034610B9FA
:10415400214C22784ABB83F00100C0B202B010BDEA
:104164001C4C0191204612F0BBFD019904F108009A
:1041740012F0B6FD019904F1100012F0B1FD01999D
:1041840004F140024FF0010C114B204621662262DB
:1041940084F86C10C4F8DC10104AC3F800C0C4E9F9
:1041A40019110F4914F006FECDE70E4901900A6873
:1041B40001320A6013F0A8F90B49019B09680B4A04
:1041C400401A2370106083F00100C0B202B010BD29
:1041D40098580020A054002020FE0020644C0020A9
:1041E400A5010000D46600200CFD0020D866002044
:1041F4005C4B1A68D20710B54AD50023CB225A4922
:104204005A4804F0A1FA5A4B1A68D30740F19A802D
:10421400002340F2E2225749574804F095FA574BDD
:104224001A68D4077FD500234FF45C72544955486B
:1042340004F08AFA544B1A68D00765D5002340F27B
:104244002A325249524804F07FFA524B1A68D10775
:104254004BD500234FF4B0724F49504804F074FA20
:104264004F4B1A68D20731D500234FF42A724D49B7
:104274004D4804F069FA4D4B1A68D30717D500234B
:104284004FF4DD724A494B48BDE8104004F05CBA73
:10429400364804F07DFB354B47480121474A1860F6
:1042A4001846304B1960464914F084FDA5E741488F
:1042B40004F06EFB3F4B43480121404A1860184606
:1042C4003A4B1960404914F075FDD8E7364804F0BC
:1042D4005FFB354B3D480121384A18601846304B86
:1042E40019603B4914F066FDBEE72C4804F050FB0E
:1042F4002A4B38480121314A18601846254B196069
:10430400354914F057FDA4E7214804F041FB204B44
:1043140032480121294A186018461B4B196030495C
:1043240014F048FD8AE7174804F032FB154B2D487A
:104334000121224A18601846104B19602A4914F0CA
:1043440039FD70E70C4804F023FB0B4B274801218F
:104354001A4A18601846064B1960254914F02AFDBC
:1043640056E700BFA8580020C06B0020EC60002076
:10437400AC580020216E002024610020B058002099
:10438400C77600205C610020B4580020178100200B
:1043940094610020B8580020958A0020CC61002048
:1043A400BC580020B58E002004620020C0580020B4
:1043B400AD9600203C6200204C370020644C002065
:1043C400B9050000B4380020D90600007838002070
:1043D400A90600003C3800207906000000380020BF
:1043E40049060000C4370020190600008837002061
:1043F400E905000038B5044613F086F8054611486F
:10440400017804F00BFA13F07FF80F4B401B0F4AAE
:104414000F4910601A680D6090424FF0010288BF86
:1044240018600C4B1A7034B10B4A136801331360D3
:104434000A4B1C7038BD0A4A136801331360074BDA
:104444001C7038BD60570020E49B002010FD002044
:104454000CFD002020FE002090660020444F002028
:1044640014FD0020000000002DE9F04FDFF81C824D
:10447400ADF2246D6E4ED8F8005034682C1B03D175
:104484000DF2246DBDE8F08F6A4B28AFD3F800908D
:104494003846494606F028F9674B1B78002B00F094
:1044A400B780664A2592664B1B78002B00F0AD80DE
:1044B400624B2693BB79484627922393FB7997F85E
:1044C40004A097F805B0249306F006F9279A00286B
:1044D40000F09880DFF864E107EE904A594CDFF869
:1044E400B091E068B8EE676B574B0F90D9F8007045
:1044F400DFF8A0C114971B68FB1A544F07EE103A5B
:10450400534B9FED495BB8EE477B1B68C31A514878
:1045140027EE057B87EE064B07EE103A4E4BB8EEBE
:10452400477B27EE057B87EE065B8DED184B8DED03
:10453400165B1B682093494B1B681F93484B1B68F1
:104544001E93484B1B681C93474B1B681B93474B9C
:104554001B681A93464B1B6815933B681D93E369CC
:104564001393A36912936369119323691093CDF88C
:104574001CE02499CDF80CA0069123993D4BCDE97C
:1045840004B1269902912599CDE90021A2684FF43E
:10459400AF610E92DCF800200D9202682AA80B92FB
:1045A400D3F888200992D3F88430334A0A932368D5
:1045B400089363680C93214B17F062FD824614F054
:1045C40015FB2E4B1B7873B12D4B1B78DB070AD5DB
:1045D4002C4AD8F8003012689B1A0E2B03D914F019
:1045E40093FA824518DD3B6801333B60E368184A5F
:1045F40035601360D9F80030134A13600DF2246D4E
:10460400BDE8F08FDFF880E066E71F4B269351E7A3
:104614001D4B0A4A259346E751462AA814F06AFA24
:10462400E4E700BFAFF300800000000000408F40CB
:10463400BC6B0020485E00201DFE002020040020EA
:10464400444F00204C9C0020409C002048FD00204A
:104654003C9C0020E09B0020D0660020D86600200F
:10466400D4660020DC9B0020E49B002010FD002089
:10467400906600204CFD00203004002034FE002011
:1046840033FE0020E4FD0020280400201CFD00204F
:1046940014FD00208C6B0020F0B5402483B0364D0F
:1046A400364E374F10E001F1010C364ABCF12F0FA2
:1046B40031D892F800E0BEF1000F2CD1324AC3F891
:1046C40000C05054013C24D014F0AAF908B314F0EB
:1046D400EDF92E4BC0B219680A2801D00D28E2D199
:1046E400284A4FF0000E284892F800C000F801E074
:1046F400BCF1000F08D10168A9420FD00168B14292
:1047040018D00168B94225D00021013C196011700C
:10471400DAD103B0F0BD01231370D3E70179002986
:10472400ECD11B488165A0F8691080F86B1019481A
:104734000170E9E7184945F2553CB1F800E0E64557
:10474400DFD189780029DCD10192FFF78DFE0F4B70
:10475400019AD9E711490020D1F800C00C498865B5
:10476400A1F8690081F86B0001200A4908700C491E
:10477400C1F800C0C8E700BF53544F5053544154CC
:1047840041524D0014FE00208C5E0020885E002003
:104794004CFC00201DFE0020905E00201CFD00202B
:1047A4009C650020254B19684A1C00B583B01A602B
:1047B40049B3234A2349244814F0FCFA234A1368D2
:1047C400591C1160002B32D01D4A2149214814F094
:1047D400F1FA6021204806F045FD194A1F491E4898
:1047E40014F0E8FA1E4B1F49002243F8042C43E955
:1047F40003220C338B42F8D11B4B4FF000011A8378
:10480400997603B000BD4FF4EE72184817F0F0FD2E
:10481400174B1846019306F0B5FE019B154A8833E1
:104824009A42F6D1144BA2F5EE721A60C1E713480E
:1048340020F0FAF8124A114B1360C5E7605B0020C0
:10484400644C00203D070000605E0020FC590020FD
:10485400090700004C5E00204CFD0020A1860000EA
:10486400CC6B0020E49B0020C09B0020685B0020F0
:10487400AC5B0020445D0020645B0020045A0020EF
:10488400005A00202DE9F843234D40F2EE28234C32
:10489400234FDFF8A8902E6814F0A8F9237873B397
:1048A4003B78DB072BD52B68D9F800209B1A0E2BFD
:1048B40025D9FFF79DFC10231A480021037003F04B
:1048C40079FF43F21B020021174817F091FD0120E4
:1048D400FFF790FD154B16491C68204605F04EFF66
:1048E400204605F07BFE41F63611124806F09EFD87
:1048F4000038114B18BF01201870BDE8F8832B68ED
:1049040022789B1B2AB1B3F5FA6FD2D814F06EF952
:10491400C2E74345FAD9CCE71CFD002034FE002051
:1049240033FE002060570020C06B0020485E00204A
:104934006C0600204CFD002027FE0020E4FD002032
:104944002DE9F04F89B0924C12F0DEFD914B804678
:104954001B681846039305F041FD2378002B00F0F3
:1049640008818D4FFFF798FE80258C4C8C4E07F5FF
:10497400C049DFF864A2CDF8088005E0894A1368CD
:1049840001331360013D6DD0236B204632689A4297
:1049940038BF336006F020F9002863DBF2D02146EB
:1049A40006A805F0BFFF079B5345E7D1A36DD4E9E3
:1049B40010820193A2EB080B3A68BBF1110F02F1CC
:1049C40001023A6048DD08227749404617F03CFC72
:1049D400002841D198F80820002A3DD198F80920F0
:1049E400502A39D198F80A1098F80B2002EB0122CA
:1049F4000D2A31D998F8101098F8112002EB0122F1
:104A0400911EB1F5FF7F27D8D30725D402F11201F7
:104A14008B4521D198F90F1098F80F0000291BDB62
:104A240098F80E104FF0AA0E01EB00235F4901F134
:104A34002A0BB1F800C0A3EB0C0063450EFB00FC8D
:104A440003D348888445C0F0C98006315945F0D164
:104A5400BB680133BB6095E77B68013D03F101034B
:104A64007B6091D1524AD9F85830DDF80880146837
:104A740023B1D9F85C30E31A642B49D8D9F86430EF
:104A8400E31AB3F57A7F02D90023A9F86A30494EB4
:104A94003378002B54D112F037FD474B1D68451B6A
:104AA400FFF74AFB80F00103DBB2CBB148F23523B8
:104AB4009D4215D9414A13680133136012F024FD55
:104AC4003F4BA0EB08001A68824238BF18603D4B88
:104AD4001B68E41AB4F57A7F55D209B0BDE8F08FAB
:104AE4000028EBD03178D1B148F235239D42E5D985
:104AF40099F86930002BE1D043F21B023249334864
:104B040012F036FD002089F86900FFF773FCD5E741
:104B14003B6901333B610023C9F85830AEE72C4BA5
:104B24001B78012BCAD046F64B039D42C6D943F2EB
:104B34001B02264817F05CFC0120FFF75BFCBDE775
:104B4400039805F0C9FD58B1224B1B68E31AB3F56D
:104B54007A7FA0D9D9F86030E31AB3F57A7F9AD96D
:104B640000233370C9F85830A9F8693089F86B30DC
:104B740091E741F63611094806F058FC003818BF91
:104B840001202070EDE609B0BDE8F04FFFF76CBCE2
:104B940027FE0020485E00204C9C00204CFD002095
:104BA400E09B00208C6B0020840300203035002023
:104BB4001CFD00201DFE00200CFD0020D0660020FE
:104BC400DC9B0020BC6B002087CC0020C06B002045
:104BD400444F00209C6500200A00007DA0EB0C00DF
:104BE40000EB4000B0F5FF7F28BF4FF4FF70824216
:104BF4008646FFF431AF8A880592D9F858205AB115
:104C0400D9F85C2001998A1A642A05D93A690132D3
:104C14003A610022C9F85820D9F8642001998A1A07
:104C2400B2F57A7F7BD90022A9F86A2098F80CB0F3
:104C3400BBF1000F4FD0D9F858202AB13A6901329C
:104C44003A610022C9F85820012289F868B0A9F80D
:104C54006A20A3F17802012101FA02F3D9F858205D
:104C64001A42049357D1002A4DD005987246484BF6
:104C740008F11201604400EB4000184412F078FC83
:104C840007F5C043019A04995A669A6D0A4341494B
:104C94008A429A657FF476AE93F8693013B1FB6962
:104CA4000133FB6143F21B0239493B4812F060FCBB
:104CB400019BC9F86030BBF1000318BF012389F8D8
:104CC4006B30FB680133FB600023C9F858300123C3
:104CD40089F8693056E6A3F17802012101FA02F35A
:104CE400D9F858200493049B002112EA0300A9F880
:104CF4006A1046D0BA698B46C9F858100132BA61B5
:104D04003A6901323A61019BC9F85C30ADE799F820
:104D14006B20002A9DD0BB690133BB6132E698F851
:104D24000CB099F86A10BBF1000F16D0002982D09C
:104D340099F868209345EAD0ABEB0202FF21FF32D9
:104D4400B2FBF1F1C1EB0121521A7F2A1BD8D9F829
:104D54005820002A3FF475AF70E7A3F178020120D0
:104D640000FA02F3D9F8582004930029BBD012B1F9
:104D74003A6901323A610022C9F85820A9F86A2038
:104D8400C1E783466FE77B6901337B61FAE500BFC6
:104D94006C9C0020FFFFFB1F87CC002010B49DF803
:104DA4000800049C00FB02229DF80C0000FB033366
:104DB400C2F307229DF80400C3F3072300FB01118B
:104DC40093421846C1F3072128BF1046884228BFE2
:104DD4000846091A121A1B1A217005990A70DDE98E
:104DE40006120B70107010BC704700BF0170037284
:104DF40063B19200074B0232A3FB0212520802FB7A
:104E040003F3B3F1553F88BF013292B202EB420281
:104E140042607047ABAAAAAA70B51E46044682B087
:104E2400D1E903359C46284608E001EB50011CF803
:104E340021E00CEB8101964515D3400820F00101D7
:104E44000028F2D143B305EB450503EB85018C45FE
:104E540003D09CF8003093420CD000232046C4E9D0
:104E6400003302B070BD00F1FF3E01F10C0CAEEB5B
:104E74005000E3E7DCE9013526B9C4E900352046F2
:104E840002B070BD18462A460021019301F0D4F9FE
:104E9400019BC4E90035F2E7BCF1000FD9D1DCE78E
:104EA40090F87130012B1ED0012310B5044682B056
:104EB4000C3084F8713000F0B3FE04F1300004F1DA
:104EC4005001019001F002F8019800F0A9FEA268D7
:104ED40012B9012002B010BD0021206801F0ACF924
:104EE400012002B010BD0020704700BF303000F038
:104EF4006FBE00BF90F87130022B00F0E480436D68
:104F040002222DE9F04F446B85B0066B9C4280F879
:104F1400712000F0BE800123002E04EB44010546FD
:104F240080F8703006EB810108BF00218E4200F04A
:104F3400CC80334600275A680C33974238BF174653
:104F44008B42F8D107FB04F4AB68A34217D228685C
:104F540000232B6008B100F025FD0121204600F05C
:104F640001FD0422009069460DEB020001F060F996
:104F7400019B28682B6008B100F014FD2E6BAC6017
:104F8400002E6FD06B6BB646B0464FF0000903EBB2
:104F94004303CA460EEB8303984563D0E9682E6841
:104FA4008C46286998F800404E44024608E003EB1A
:104FB40052031CF823B00CEB8303A34556D35208C9
:104FC40022F00103002AF2D100295DD000EB400059
:104FD40001EB8000604503D09CF80030A34255D01B
:104FE400ACEB01013A4B01AA05F10C0089108DF8D4
:104FF400044003FB01F1CDE902AA00F0F5FED5E976
:1050040003131A468C4608E000EB52001CF820E01B
:105014000CEB8000A64530D3520822F00100002A90
:10502400F2D103EB430301EB8303914208BF0B4628
:10503400634504D09CF80020A24218BF9C460CF1A2
:10504400040CD5F830E0B94408F10C08CCE9006749
:10505400BEF1000FA3D06B6B03EB43030EEB830392
:1050640098459BD1012005B0BDE8F08F02F1FF3BCC
:1050740003F10C0CABEB5202A2E702F1FF3E00F18C
:105084000C0CAEEB5202C8E70846A3E70CF1040C83
:10509400D9E7B4B13246036D002117781D78AF42C9
:1050A4007FF439AF57685D68AF427FF434AF177A45
:1050B4001D7AAF427FF42FAF01310C320C338C4296
:1050C400EBD1002328E70020704700273C4656E731
:1050D400ABAAAAAA00B5D0E90C3E0020002B0EEB27
:1050E4004E0C03EB8C0C08BF4FF0000C634506D04C
:1050F40059680C33884238BF08466345F8D100FB31
:105104000EF000BD10B51C464FF0000CD0E90C03A6
:10511400002803EB430E0B6000EB8E0E08BF4FF02C
:10512400000E704506D043680C309C4538BF9C4641
:105134007045F8D1C2F800C00A680CFB02F2226084
:1051440010BD00BF9DF8000000FB01119DF8040094
:1051540000FB02229DF80800091200FB033312121F
:10516400DDE9030CC3F3072301708CF80020059AD2
:10517400069913709CF800200078934228BF1346C8
:10518400834228BF03460B70704700BF10B49DF8DC
:105194000400049C00FB01119DF8080000FB02229E
:1051A4009DF80C00091200FB0333121205982170BC
:1051B4001B1202700021DDE906020370117010BC9D
:1051C400704700BF10B49DF8080000FB02229DF850
:1051D4000C0000FB0333C2F307229DF80400C3F361
:1051E400072300FB0111079893429C46C1F3072152
:1051F40028BF94468C4528BF8C46BCF1540F11D867
:10520400A1EB0C01A2EB0C02A3EB0C030CEB4C0C7A
:10521400049C217005990A70069A137080F800C0E6
:1052240010BC70475439543A543B4FF0FF0CEFE72D
:105234002DE9F04FDFF858E09B469DF82440DEF856
:1052440000C09DF828509DF82C60DDE90C78DDE95C
:105254000E9ABCF1000F10D0DCF800E0BEF1000F94
:1052640010D05B46F4460994CDE90E9ACDE90C784A
:10527400CDE90A56BDE8F04F6047044BC3F800C0BF
:10528400CEF80030DFF80CE0EBE700BF6C5F0020E5
:10529400685F00206D2500002DE9F04F1C46274B68
:1052A40099B00E461F7815469DF888A09DF88C800D
:1052B4009DF8909007B308FB0555259A09FB044413
:1052C400C5F307250AFB0666C4F307242B46C6F379
:1052D4000726A54228BF2346B34228BF3346F61A01
:1052E400ED1AE41A1670269A1570279A1470289AE3
:1052F400137019B0BDE8F08F012211481A7000F044
:10530400CFF9602239468346684617F071F868463B
:1053140000F0BCFF0A230B49684617938DF85870B8
:1053240001F0B8FA38466B46594640F2092200F0BB
:1053340077F9684600F03CFBBDE700BF17FE00208C
:1053440080060020D40600202DE9F04F1C46274B90
:1053540099B00E461F7815469DF888A09DF88C805C
:105364009DF8909007B308FB0555259A09FB044462
:10537400C5F307250AFB0666C4F307242B46C6F3C8
:105384000726A54228BF2346B34228BF3346F61A50
:10539400ED1AE41A1670269A1570279A1470289A32
:1053A400137019B0BDE8F08F012211481A7000F093
:1053B40077F9602239468346684617F019F868463B
:1053C40000F064FF0A230B49684617938DF8587060
:1053D40001F060FA38466B4659464FF4057200F006
:1053E4001FF9684600F0E4FABDE700BF19FE00208B
:1053F400800600209007002000B59DF804C0032813
:1054040019D8DFE800F0130F050260469C460346F6
:105414000298017003990A70049A82F800C0059AF0
:10542400137000BD104662468446F1E708466146A3
:1054340094460246ECE79C460023E9E730B5C0F306
:10544400021585B000F007009DF820E00DF1080C6E
:105454008DF8041000218DF806300DEB05039DF83E
:10546400244083F808E00DEB00038DF805200A467C
:105474001C72CBB202F11004013102F1010E9D4203
:105484006C4407D0984205D014F80C3C5FFA8EF2B5
:105494008CF8003005290CF1010CEAD19DF8083094
:1054A4000A9A0C9913709DF809300B9A13709DF8A1
:1054B4000A309DF80B200B700D999DF80C300A7082
:1054C4000E9A137005B030BD2DE9F04FDFF864E09B
:1054D4009DF82490DEF800C09DF828A09DF82CB01B
:1054E400109CDDE90C85DDE90E67BCF1000F10D0DE
:1054F400DCF800E0BEF1000F10D0F446CDE90F74E3
:10550400CDE90D56CDE90BB8CDE9099ABDE8F04FC8
:105514006047074BC3F800C0CEF80030002388F87A
:1055240000302B7033703B702370BDE8F08F00BFE8
:10553400745F0020705F0020194B30B51C7899B05F
:1055440064B100231F9A1370209A1370219A137068
:10555400229A1370239A137019B030BD0122114896
:105564001A7000F09DF8602221460546684616F040
:105574003FFF684600F08AFE0A230B4968461793EA
:105584008DF8584001F086F920466B4629464FF4C1
:10559400BB7200F045F8684600F00AFAD1E700BF94
:1055A40018FE002050080020A8080020194B30B530
:1055B4001C7899B064B100231F9A1370209A137059
:1055C400219A1370229A1370239A137019B030BD64
:1055D400012211481A7000F063F860222146054642
:1055E400684616F005FF684600F050FE0A230B4992
:1055F400684617938DF8584001F04CF920466B46E5
:1056040029464FF4C27200F00BF8684600F0D0F956
:10561400D1E700BF1AFE002050080020280900200E
:10562400F0B50D4697B016461C4678B301282BD129
:10563400174F2146684601F093FB0021204600F0F5
:10564400E7F91DB12946204601F024F91149204605
:1056540001F020F93146204601F02CF93946204664
:1056640001F018F9684601F0C5FA18B10146204660
:1056740001F010F9204601F0BDFA00F0CFFD6846B4
:1056840000F096F917B0F0BD034FD2E7034FD0E70F
:1056940090090020A80900209C090020840900200A
:1056A40000B50178864621B3034673294FF0000CF8
:1056B400184613F8012F0BD02F2901D05C2900D1F3
:1056C400844682B11146184613F8012F7329F3D189
:1056D400722AF6D159786329F4D199782F2901D007
:1056E4005C29EFD100BDBCF1000F02D00CF1010028
:1056F40000BD704600BD00BF00B583B004226946FA
:1057040000900DEB020000F093FD03B000BD00BF5C
:1057140000B583B00422694600900DEB020000F04E
:1057240087FD03B000BD00BF014B08461B68184746
:10573400E44B0020401AB0FA80F04009704700BFE3
:10574400704700BF704700BF704700BF704700BF7D
:10575400704700BF704700BF704700BF704700BF6D
:10576400704700BF704700BF704700BF03685B68A5
:10577400184700BF00B583B0019015F027FD0198CC
:1057840003B000BD0A4B084600B583B01B68019105
:1057940098470199034641B138B10A46B0FA80F1FD
:1057A4000190490916F024FE019B184603B000BD80
:1057B400E04B002000B583B00421019011F078FF84
:1057C400019803B000BD00BF10B582B00846194669
:1057D4001446019315F0E4FF034610B10199A14268
:1057E40002D8184602B010BD0A1B204400210193C0
:1057F40016F0FEFD019B184602B010BD037E03B9EE
:10580400704700B5034683B0C068019315F0DEFC11
:105814000022019B1A7603B000BD00BF28B1436883
:10582400013302D0436801334360704715F0C6BCAE
:1058340015F0CCBCF0B50D46012783B006461C20FC
:1058440015F0BCFCEA190C4B044647600360876002
:105854001046019215F0B2FC019A03462776626164
:1058640004F10C02C4E90305C6E900243046002211
:105874005A5503B0F0BD00BFDC3900202DE9F041DA
:10588400064682B01C201546884615F097FC012375
:105894006A1C074604464360836010460D4B019220
:1058A40047F80C3B15F08AFC019A0346E060C4E912
:1058B40004522DB141462A46019011F059FE019B34
:1058C400002230465A550123C6E90074237602B0FB
:1058D400BDE8F081DC390020D1E900132BB15A680E
:1058E400013202D05A6801325A60027A22B9012286
:1058F400C0E9001302727047DFF824C0013A00B512
:1059040085B05CF82220CDE90213019090470198FC
:105914000122DDE902130272C0E9001305B000BDE3
:10592400B03B00204368CBB15A68013216D05A68A4
:10593400013A5A6092B9196800B583B001901846CB
:105944008B689847019A50688368013B836033B938
:105954000368DB6803B05DF804EB1847704703B0D5
:1059640000BD00BF0E4B10B582B01B680446019108
:1059740098470199034600280CBF002101F001015A
:1059840019B1B4FA84F1490914B9184602B010BD2A
:105994002246019016F02CFD019B184602B010BD62
:1059A400E04B0020014B1B68184700BFE44B00206C
:1059B400027D034602B970470649013A0C3051F89A
:1059C400222000B583B001939047019B184603B091
:1059D40000BD00BFB03B0020027D12B9036818442B
:1059E4007047013A002300B5022A83B0CDE90003D1
:1059F40002DD184603B000BD044B69460C3053F871
:105A040022309847019803B000BD00BFBC3B002082
:105A14000346002000B51A7D83B09860901E0128CB
:105A24000ED80D49013A03F10C00019351F82220DC
:105A34009047019B002219681A755A5403B000BD9F
:105A4400012A01D10029ECD11846FFF7C5FF002334
:105A5400037003B000BD00BFB03B00202DE9F0414E
:105A64001746C26890B00446402A0E4604D8002A5D
:105A74002DD110B0BDE8F0810069114603689B6820
:105A84009847E268054652B9002DF2D02946D4E978
:105A940003200368DB68984710B0BDE8F081314605
:105AA40011F066FDE268002AEED04FF0010830469E
:105AB400394611F05DFDE2681AB13846294611F005
:105AC40057FDB8F1000FD4D0002DDFD1D1E76846DF
:105AD40011F04EFDE268002ACBD06D464FF000086D
:105AE400E5E700BFC36970B50D4682B0044601689E
:105AF4001BB183690344994203D011B16369002B3C
:105B040037D0E16805FB01F100292BD02069036837
:105B14009B689847034628B3626882B12168F9B14B
:105B2400D4F814C0BCF1000F35D0DCF81430019067
:105B3400984762696168926920689047019BE269AD
:105B440021688AB961B1D4F80CC02069A2680193B4
:105B540002FB0CF2D0F800C0DCF80C309847019B33
:105B64002360A56002B070BDA26922449142E9D1CC
:105B7400F6E7D4E90330A268D0F800C003FB02F2D0
:105B840005FB03F3CBB1DCF81060B0470028B8D0B4
:105B94002060A560E6E7D4F80CC00CFB02F23AB929
:105BA400E269002AD1D0A26922449142CDD1D7E73B
:105BB400019011F0DDFC019BC1E7DCF80C30984743
:105BC4009FE700BF83688B4200D37047FFF78ABF0B
:105BD40038B543680D4682680446591C914209D978
:105BE40002EB42025208914238BF1146FFF77AFF96
:105BF400D4E9013293420BD2E2682068616903FB65
:105C0400020031B10B682946984763680133636029
:105C140038BD002AFAD0294611F0AAFC6368F5E7DA
:105C24000346006868B1596859B15A694AB1926922
:105C340000B583B001939047019B00225A6003B0E2
:105C440000BD00225A607047002A3BD02DE9F8437A
:105C540043680D468B4233D956185F1A9046044662
:105C6400B34241692FD251B3B8464FF000097E19AF
:105C74002F4600E06169E06823688A6800FB07300A
:105C840001379047BE42F5D1B9F1000F14D04F4609
:105C94002F442368E068626900FB063605FB003088
:105CA40053683146013598476369304608EB050669
:105CB4009B689847AF42ECD16568A5EB0805656021
:105CC400BDE8F8837047A7EB02090029D0D1B9F1E8
:105CD400000F03D0C06800FB09F212B9A3EB08055A
:105CE400EDE7236800FB063100FB053016F0EEFA01
:105CF400E2E700BF43688B4200D870470122FFF7F8
:105D0400A3BF00BF2DE9F041D0E901630F4604466B
:105D1400711C9046994240D835469D423BD2BE42C2
:105D2400E268636928BF3E4621681046002B3FD0D5
:105D3400AE4228D202FB05F05B68821A0844114483
:105D440098476568013DB54213D92268E0686369E4
:105D540000FB05209B689847E368216805FB03F076
:105D64006269013DC31A5268084419449047B54218
:105D7400EBD82368E06800FB063063699B689847AA
:105D840063692168E06800FB06101B684146984778
:105D9400636801336360BDE8F08103EB43035B0890
:105DA400994238BF1946FFF79DFED4E90153B4E781
:105DB400AE4202FB061303D2AD1B02FB05F535B957
:105DC400002AE5D04146184611F0D2FBE0E702FB79
:105DD40006202A460844194616F078FAE268236831
:105DE40002FB0633ECE700BF2DE9F041D0E9016383
:105DF4000F460446711C9046994240D835469D4250
:105E04003BD2BE42E268636928BF3E462168104621
:105E1400002B3FD0AE4228D202FB05F05B68821A09
:105E24000844114498476568013DB54213D9226876
:105E3400E068636900FB05209B689847E368216874
:105E440005FB03F06269013DC31A52680844194412
:105E54009047B542EBD82368E06800FB06306369DD
:105E64009B68984763692168E06800FB06105B68DB
:105E740041469847636801336360BDE8F08103EBF2
:105E840043035B08994238BF1946FFF72BFED4E958
:105E94000153B4E7AE4202FB061303D2AD1B02FB6F
:105EA40005F535B9002AE5D04146184611F060FBE6
:105EB400E0E702FB06202A460844194616F006FAD3
:105EC400E268236802FB0633ECE700BF2DE9F041EA
:105ED4000D46C1690446EE69E1B92A6886B92168AC
:105EE4002260A3682960D5E90102A2606268AB6000
:105EF400236960606A602A6922612B61BDE8F081D0
:105F0400AB692B449A42EAD1324623460E462C46CC
:105F140011461D46A269236822449342DDD161687B
:105F24002F680A46CEB1A8692844B84233D08E42BD
:105F3400D5F8088013D36369AE602860F3B15B6958
:105F4400216898476369D4E900019B6998476268AE
:105F540068682760C4F80880CAE7D5F80880E06854
:105F640000FB01F100296ED0286903689B689847FB
:105F7400626863692860AA60002BE0D1002AE7D038
:105F8400E36802FB03F3002BE2D01A46216811F008
:105F9400EFFA6268DCE76A6852EA010055D08A4287
:105FA4004FF0000638BF0A46904612E0002A30D06F
:105FB400536839469847E8682B6800FB06306369E4
:105FC4009B689847616801360A46464517D22F6890
:105FD4002368E868B142D4F80CC000FB0677626914
:105FE4000CFB0630E2D96B68B3420AD922B30136FE
:105FF400136939469847616846450A46E7D3686895
:1060040076E77AB15368014638469847E0682368D2
:10601400D3E7BCF1000FD6D03946624611F0A8FA96
:106024006168D0E7BCF1000FCDD001466246384626
:1060340011F09EFA6168C6E701463A462046FFF72A
:106044000DFD6168BFE7084693E7024650E700BFCD
:10605400F8B5044600680E4628B1616819B1636951
:106064000BB19B699847002363607168B1B1A36861
:10607400994214D86369F3B1002500E0636931687B
:10608400E0682268F76800FB05201B6807FB051120
:106094000135984771688D42F0D36160F8BD2046A0
:1060A400FFF720FD7168A3688B42F7D3636913B1CE
:1060B4000029E1D1F1E7E26801FB02F2002AECD009
:1060C4003168206811F054FA7168E6E70346006805
:1060D40000282DD0596800B583B009B35A694AB372
:1060E400926901939047019B0021DA69186859600D
:1060F4001AB19A691A4490420FD070B1D3F810C003
:106104000193D3E9022101FB02F201466046DCF867
:1061140000C0DCF80C309847019B184603B000BD62
:10612400DA69002AEAD09A691A449042E6D1F4E77F
:1061340018467047D9695A600029F4D1DEE700BFD8
:10614400F0B5C70F0E4685B001460A2A14BF0027D2
:1061540007F0010707B141426C4691B3B1FBF2F07D
:1061640002FB101E82BBBEF1090F0DF1010C22DDF2
:106174000EF1570E63468DF800E0302203E00CF177
:10618400010C1A706346A342F9D0181B1FB12D22CB
:10619400013006F8012BA34209D9324613F801ED68
:1061A400A34202F801EBF9D1ACEB03031E44002334
:1061B400337005B0F0BD0EF1300E63468DF800E08B
:1061C400DBE7EC466B46D8E7EC466B460BE00CF19C
:1061D400010C8A421D700146634619D8B0FBF2F5E2
:1061E40002FB150E2846BEF1090F0EF15705EEDC31
:1061F4000EF1300E0CF1010C8A4283F800E0634684
:10620400BBD80146B0FBF2F502FB150E2846EAE7BF
:106214006346B2E701F076BC01F07ABC10B1034BDF
:106224001B7803B9704702F02BBA00BF424F00201D
:1062340002B9704711F09CB902B9704716F0D8B88A
:1062440014F0BCBF14F0C2BF044B1A68D20701D5C6
:1062540003487047012202481A607047A45800207E
:10626400504C00204368013302D04368013343603B
:10627400704700BF4268013206D04268013A42606A
:10628400B2FA82F0400970470020704710B500212F
:106294000446182340228160C0E900321844217565
:1062A40016F0A6F8204610BD70B5044682B0084624
:1062B4000E4616F05DFE013014F080FF05463046B0
:1062C400256016F055FE431C0246C4E9010328B1BB
:1062D40001903146284611F04BF9019A00232046DB
:1062E400AB5402B070BD00BFF0B5561C0546144651
:1062F40083B030460F4614F061FF03462860C5E9B9
:1063040001462CB139462246019011F031F9019B26
:10631400002228461A5503B0F0BD00BF10B58368AB
:106324004C1C82B0D0F800C09C4205D800234160C8
:106334000CF8013002B010BDCDE9000121466046E1
:1063440015F02EFA0021DDE90032C3E900029C6059
:10635400815402B010BD00BF03464068D8B1426802
:10636400013218D04268013A4260A2B9026800B50D
:1063740083B0926801939047019B58688268013A00
:1063840082601AB90268D2689047019B0022C3E96F
:10639400002203B000BD0022C3E90022704700BF01
:1063A400037D032B20D8DFE803F01B050202C3683A
:1063B4001846704700B585B0D0E90323CDE9022320
:1063C4002BB15968013102D0596801315960136801
:1063D40002A80193FFF7C0FF019B184605B000BD5A
:1063E4000368034418467047004BE1E78814002013
:1063F400037A23B1024A013B52F82330184770470D
:10640400B03B00200000000010B5037D86B00446B8
:10641400012B03D104F10C0006B010BD1C2014F0B4
:10642400CDFE0346012122481A4601935960996022
:1064340042F80C0B0846009214F0C0FE019B4FF08A
:10644400000C009A012180F800C0D86058681976C1
:1064540001309FED157BCDE90223CDE9042383EDC3
:10646400047B02D0596801315960217DA9B94FF0EC
:10647400010C0021002084F814C0CDE90401C4E912
:10648400032304A8FFF768FF02A8FFF765FF237D35
:10649400012BBFD0002006B010BD04F10C00FFF7A3
:1064A400A7FFDDE90423E2E700000000010000008B
:1064B400DC3900202DE9F04385681746037D8BB055
:1064C400154404469A1E0091012A1FD8FFF768FF5D
:1064D400A2680346691C60681646002B18BF002A90
:1064E40014BF0122002281422AD8002A40F0CA8027
:1064F4002068002F65D1204400264655237D002BBB
:106504006CD1A56028460BB0BDE8F083012B00F0E8
:10651400C0806B1C6268934266D820683FB1A36850
:106524003A4600991844204411F022F82068204487
:106534000023A5604355A56828460BB0BDE8F08349
:10654400294608A8CDE90223FFF774F9089B0998A6
:106554000193069381460790FFF760F908A8FFF7B7
:10656400FBFEDDE90223002A40F0FB80019B484644
:10657400CDE90839FFF752F937B13A46DDE900139E
:106584001868304410F0F4FF08A8FFF7E5FE0199FD
:1065940048460022CDE90819FFF740F90B6808A81E
:1065A4005A55FFF7D9FE04F10C0006A9FFF794F938
:1065B40006A8A560FFF7D0FEA56828460BB0BDE885
:1065C400F08330443A4600990026204410F0D0FF6E
:1065D400206820444655237D002B92D004F10C0002
:1065E400FFF706FF26758CE70DF120082946404683
:1065F400FFF720F9099A089B104616460792019363
:106604000693FFF70BF94046FFF7A6FE019B3046C1
:10661400CDE90836FFF702F9A2682AB12168019B87
:106624002144186810F0A4FF4046FFF795FE019B33
:106634003046CDE90836FFF7F1F83FB13A46DDE9D7
:1066440000131868A368184410F092FF4046FFF73F
:1066540083FE019930460022CDE90816FFF7DEF8E3
:106664000B6840465A55FFF777FE04F10C0006A963
:10667400FFF732F906A8A560FFF76EFE28460BB0B7
:10668400BDE8F083206819463246204410F070FFBC
:106694002EE7FFF7B9FE4368002B73D05A68013226
:1066A40070D05B68012B6DDD237D012B7FF431AF4E
:1066B4000DF1200829464046FFF7BCF8099A089BCB
:1066C40010460592019316460493FFF7A7F8404637
:1066D400FFF742FE2046FFF797FE019B0246304635
:1066E400CDE90636FFF79AF8019BD2E900101B6842
:1066F400CDE908100293FFF791F8A2681AB109686E
:10670400029810F035FF4046FFF726FE06A8FFF773
:1067140023FE019B3046CDE90836FFF77FF83FB1F1
:106724003A46DDE900131868A368184410F020FF06
:106734004046FFF711FE019930460022CDE90816C4
:10674400FFF76CF80B6840465A55FFF705FE04F155
:106754000C0004A9FFF7C0F804A8A560FFF7FCFD2E
:10676400D0E602934846019B3246CDE90839FFF74B
:1067740055F8DDE90131186810F0FAFE08A8FFF7B2
:10678400EBFDF3E620460DF12008FFF73DFE03463E
:1067940040681A68029309900892FFF73FF89268DC
:1067A40040460192FFF7D8FD691C019A029B914271
:1067B40024D858681A68019309900892FFF72EF8B4
:1067C400019B3FB110683A46A7680099384410F01D
:1067D400CFFE019B40460093FFF7BEFD009BA560E2
:1067E4000021D3E90020CDE90820FFF717F813684A
:1067F40040465955FFF7B0FDA56883E61A68586806
:1068040008920990FFF70AF8136840460193FFF7CE
:10681400A3FD05EB4501029B49081868032984463A
:10682400586838BF0321DDE90062964206D3A268A6
:10683400019E01323244009E96420DD3624601937A
:10684400CDE908C0FEF7EAFF1046FFF767FD4046B2
:10685400FFF782FD019BACE7019AB61A6246CDE9C7
:1068640008C0FEF7DBFF1046FFF758FD4046FFF770
:1068740073FD029B58681A68099001930892FEF709
:10688400CDFF1268404693190093FFF765FD019B05
:106894008FE700BF10B5044682B00846019116F098
:1068A40067FB019902462046FFF704FE204602B02A
:1068B40010BD00BF30B591B004460D464022002102
:1068C400684615F095FDE26D69462846FFF738FCE9
:1068D400694602462046FFF7EDFD11B030BD00BF0A
:1068E40030B5044687B008460D4616F041FB034612
:1068F40060685A1C217DA360824209D8002963D1B3
:1069040020682946204407B0BDE8304010F030BE6E
:10691400012931D01C2014F051FC034636480122D1
:10692400294603F10C05186000205A6018762846A1
:106934009A600093FFF7B8FC009B012259681A760D
:106944000131CDE90253CDE9045302D05A68013232
:106954005A60227D002A40D10122002000212275A4
:10696400C4E90353CDE9040104A8FFF7F5FC02A828
:10697400FFF7F2FC07B030BD2046CDE90023FFF756
:1069840043FD4168DDE9002329B14868013002D0A4
:1069940049680129BEDC2046CDE90023FFF734FD18
:1069A400D0E90040CDE90440FEF738FFA168009A21
:1069B4008A4205D8019B2068B3B90022C25463609F
:1069C40004A8FFF7C9FCD5E704F10C000092FFF717
:1069D4000FFD0023009A237592E704F10C00FFF7E2
:1069E40007FDDDE90453B7E71A462946009310F082
:1069F400BFFD2068009BE0E7DC39002038B5402269
:106A04000446002318200D462375194684E80D001A
:106A1400201815F0EDFC1DB129462046FFF760FF54
:106A2400204638BD10B5D0E9002388B00C46002BB1
:106A340055D05968013102D0596801290EDCCDE9DD
:106A440006235968013102D059680131596013682D
:106A540006A86360FFF780FC08B010BDCDE90223EF
:106A64005968013102D0596801315960236804A87A
:106A740011689A680193FEF701FF019BDDE9041296
:106A8400CDE906122AB15068013002D050680130B5
:106A94005060187DD0B90020C3E9031201220021FF
:106AA400CDE906011A7506A8FFF756FC04A8FFF7FE
:106AB40053FC02A8FFF750FC2068FFF7A5FCD0E9BF
:106AC4000023CDE90623002BBBD1C0E703F10C0062
:106AD4000193FFF78DFC019BDDE90612DBE7CDE9AD
:106AE4000623B4E70000000070B5027D88B00346B9
:106AF400022A20D0032A01D008B070BDC168002941
:106B040064D00269406802F1010C9A6084451BD884
:106B14001868002A4BD11A44002111541A7D002A06
:106B2400EAD003F10C000193FFF762FC019B002102
:106B3400197508B070BDC168002947D0D0E90102B9
:106B440002F1010C8445E3D91C2001914FF00106A8
:106B5400CDE9022314F032FB04460120029A019984
:106B640004F10C056060A0602148206000202076BC
:106B74002846FFF7B9FB20462676CDE90454FEF7F4
:106B84004DFE039B03F10C000193FFF731FC019BC5
:106B940006A81E759FED147BC3E903548DED067B97
:106BA400FFF7DAFB04A8FFF7D7FB08B070BD184461
:106BB4000292019310F0DCFC019B0021029A1868F8
:106BC4001A4411541A7D002A96D0AAE7996003F159
:106BD4000C00CDE90131FFF70BFC019B02991A6807
:106BE4001975995488E700BF0000000000000000F8
:106BF400DC39002000B5037D85B00246032B22D08A
:106C0400032B2FD8DFE803F01A060202D3681846D4
:106C140005B000BDD2E90313CDE902132BB15A68C4
:106C2400013202D05A6801325A600B6802A80193FB
:106C3400FFF792FB019B184605B000BD136813448F
